{
  "_format": "hh-sol-artifact-1",
  "contractName": "XDEXRouter01",
  "sourceName": "n/a",
  "abi": [
    {
      "type": "function",
      "name": "addLiquidity",
      "inputs": [
        {
          "name": "pool",
          "type": "address",
          "internalType": "address"
        },
        {
          "name": "receiver",
          "type": "address",
          "internalType": "address"
        },
        {
          "name": "assetsIn",
          "type": "address[]",
          "internalType": "address[]"
        },
        {
          "name": "amountsIn",
          "type": "uint256[]",
          "internalType": "uint256[]"
        }
      ],
      "outputs": [
        {
          "name": "shares",
          "type": "address[]",
          "internalType": "address[]"
        },
        {
          "name": "shareAmounts",
          "type": "uint256[]",
          "internalType": "uint256[]"
        },
        {
          "name": "liquidity",
          "type": "address[]",
          "internalType": "address[]"
        },
        {
          "name": "liquidityAmounts",
          "type": "uint256[]",
          "internalType": "uint256[]"
        }
      ],
      "stateMutability": "payable"
    },
    {
      "type": "function",
      "name": "batchSwap",
      "inputs": [
        {
          "name": "kind",
          "type": "uint8",
          "internalType": "enum IERC20DexModule.SwapKind"
        },
        {
          "name": "swaps",
          "type": "tuple[]",
          "internalType": "struct IERC20DexModule.BatchSwapStep[]",
          "components": [
            {
              "name": "poolId",
              "type": "address",
              "internalType": "address"
            },
            {
              "name": "assetIn",
              "type": "address",
              "internalType": "address"
            },
            {
              "name": "amountIn",
              "type": "uint256",
              "internalType": "uint256"
            },
            {
              "name": "assetOut",
              "type": "address",
              "internalType": "address"
            },
            {
              "name": "amountOut",
              "type": "uint256",
              "internalType": "uint256"
            },
            {
              "name": "userData",
              "type": "bytes",
              "internalType": "bytes"
            }
          ]
        },
        {
          "name": "deadline",
          "type": "uint256",
          "internalType": "uint256"
        }
      ],
      "outputs": [
        {
          "name": "assets",
          "type": "address[]",
          "internalType": "address[]"
        },
        {
          "name": "amounts",
          "type": "uint256[]",
          "internalType": "uint256[]"
        }
      ],
      "stateMutability": "payable"
    },
    {
      "type": "function",
      "name": "createPool",
      "inputs": [
        {
          "name": "name",
          "type": "string",
          "internalType": "string"
        },
        {
          "name": "assetsIn",
          "type": "address[]",
          "internalType": "address[]"
        },
        {
          "name": "amountsIn",
          "type": "uint256[]",
          "internalType": "uint256[]"
        },
        {
          "name": "poolType",
          "type": "string",
          "internalType": "string"
        },
        {
          "name": "options",
          "type": "tuple",
          "internalType": "struct IERC20DexModule.PoolOptions",
          "components": [
            {
              "name": "weights",
              "type": "tuple[]",
              "internalType": "struct IERC20DexModule.AssetWeight[]",
              "components": [
                {
                  "name": "asset",
                  "type": "address",
                  "internalType": "address"
                },
                {
                  "name": "weight",
                  "type": "uint256",
                  "internalType": "uint256"
                }
              ]
            },
            {
              "name": "swapFee",
              "type": "uint256",
              "internalType": "uint256"
            }
          ]
        }
      ],
      "outputs": [
        {
          "name": "",
          "type": "address",
          "internalType": "address"
        }
      ],
      "stateMutability": "payable"
    },
    {
      "type": "function",
      "name": "getExchangeRate",
      "inputs": [
        {
          "name": "pool",
          "type": "address",
          "internalType": "address"
        },
        {
          "name": "baseAsset",
          "type": "address",
          "internalType": "address"
        },
        {
          "name": "quoteAsset",
          "type": "address",
          "internalType": "address"
        }
      ],
      "outputs": [
        {
          "name": "",
          "type": "uint256",
          "internalType": "uint256"
        }
      ],
      "stateMutability": "view"
    },
    {
      "type": "function",
      "name": "getLiquidity",
      "inputs": [
        {
          "name": "pool",
          "type": "address",
          "internalType": "address"
        }
      ],
      "outputs": [
        {
          "name": "asset",
          "type": "address[]",
          "internalType": "address[]"
        },
        {
          "name": "amounts",
          "type": "uint256[]",
          "internalType": "uint256[]"
        }
      ],
      "stateMutability": "view"
    },
    {
      "type": "function",
      "name": "getPoolName",
      "inputs": [
        {
          "name": "pool",
          "type": "address",
          "internalType": "address"
        }
      ],
      "outputs": [
        {
          "name": "",
          "type": "string",
          "internalType": "string"
        }
      ],
      "stateMutability": "view"
    },
    {
      "type": "function",
      "name": "getPoolOptions",
      "inputs": [
        {
          "name": "pool",
          "type": "address",
          "internalType": "address"
        }
      ],
      "outputs": [
        {
          "name": "",
          "type": "tuple",
          "internalType": "struct IERC20DexModule.PoolOptions",
          "components": [
            {
              "name": "weights",
              "type": "tuple[]",
              "internalType": "struct IERC20DexModule.AssetWeight[]",
              "components": [
                {
                  "name": "asset",
                  "type": "address",
                  "internalType": "address"
                },
                {
                  "name": "weight",
                  "type": "uint256",
                  "internalType": "uint256"
                }
              ]
            },
            {
              "name": "swapFee",
              "type": "uint256",
              "internalType": "uint256"
            }
          ]
        }
      ],
      "stateMutability": "view"
    },
    {
      "type": "function",
      "name": "getPreviewAddLiquidityNoSwap",
      "inputs": [
        {
          "name": "pool",
          "type": "address",
          "internalType": "address"
        },
        {
          "name": "assets",
          "type": "address[]",
          "internalType": "address[]"
        },
        {
          "name": "amounts",
          "type": "uint256[]",
          "internalType": "uint256[]"
        }
      ],
      "outputs": [
        {
          "name": "shares",
          "type": "address[]",
          "internalType": "address[]"
        },
        {
          "name": "shareAmounts",
          "type": "uint256[]",
          "internalType": "uint256[]"
        },
        {
          "name": "liqOut",
          "type": "address[]",
          "internalType": "address[]"
        },
        {
          "name": "liquidityAmounts",
          "type": "uint256[]",
          "internalType": "uint256[]"
        }
      ],
      "stateMutability": "view"
    },
    {
      "type": "function",
      "name": "getPreviewAddLiquidityStaticPrice",
      "inputs": [
        {
          "name": "pool",
          "type": "address",
          "internalType": "address"
        },
        {
          "name": "liquidity",
          "type": "address[]",
          "internalType": "address[]"
        },
        {
          "name": "amounts",
          "type": "uint256[]",
          "internalType": "uint256[]"
        }
      ],
      "outputs": [
        {
          "name": "shares",
          "type": "address[]",
          "internalType": "address[]"
        },
        {
          "name": "shareAmounts",
          "type": "uint256[]",
          "internalType": "uint256[]"
        },
        {
          "name": "liqOut",
          "type": "address[]",
          "internalType": "address[]"
        },
        {
          "name": "liquidityAmounts",
          "type": "uint256[]",
          "internalType": "uint256[]"
        }
      ],
      "stateMutability": "view"
    },
    {
      "type": "function",
      "name": "getPreviewBatchSwap",
      "inputs": [
        {
          "name": "kind",
          "type": "uint8",
          "internalType": "enum IERC20DexModule.SwapKind"
        },
        {
          "name": "swaps",
          "type": "tuple[]",
          "internalType": "struct IERC20DexModule.BatchSwapStep[]",
          "components": [
            {
              "name": "poolId",
              "type": "address",
              "internalType": "address"
            },
            {
              "name": "assetIn",
              "type": "address",
              "internalType": "address"
            },
            {
              "name": "amountIn",
              "type": "uint256",
              "internalType": "uint256"
            },
            {
              "name": "assetOut",
              "type": "address",
              "internalType": "address"
            },
            {
              "name": "amountOut",
              "type": "uint256",
              "internalType": "uint256"
            },
            {
              "name": "userData",
              "type": "bytes",
              "internalType": "bytes"
            }
          ]
        }
      ],
      "outputs": [
        {
          "name": "asset",
          "type": "address",
          "internalType": "address"
        },
        {
          "name": "amount",
          "type": "uint256",
          "internalType": "uint256"
        }
      ],
      "stateMutability": "view"
    },
    {
      "type": "function",
      "name": "getPreviewBurnShares",
      "inputs": [
        {
          "name": "pool",
          "type": "address",
          "internalType": "address"
        },
        {
          "name": "asset",
          "type": "address",
          "internalType": "address"
        },
        {
          "name": "amount",
          "type": "uint256",
          "internalType": "uint256"
        }
      ],
      "outputs": [
        {
          "name": "assets",
          "type": "address[]",
          "internalType": "address[]"
        },
        {
          "name": "amounts",
          "type": "uint256[]",
          "internalType": "uint256[]"
        }
      ],
      "stateMutability": "view"
    },
    {
      "type": "function",
      "name": "getPreviewSharesForLiquidity",
      "inputs": [
        {
          "name": "pool",
          "type": "address",
          "internalType": "address"
        },
        {
          "name": "assets",
          "type": "address[]",
          "internalType": "address[]"
        },
        {
          "name": "amounts",
          "type": "uint256[]",
          "internalType": "uint256[]"
        }
      ],
      "outputs": [
        {
          "name": "shares",
          "type": "address[]",
          "internalType": "address[]"
        },
        {
          "name": "shareAmounts",
          "type": "uint256[]",
          "internalType": "uint256[]"
        },
        {
          "name": "liquidity",
          "type": "address[]",
          "internalType": "address[]"
        },
        {
          "name": "liquidityAmounts",
          "type": "uint256[]",
          "internalType": "uint256[]"
        }
      ],
      "stateMutability": "view"
    },
    {
      "type": "function",
      "name": "getPreviewSharesForSingleSidedLiquidityRequest",
      "inputs": [
        {
          "name": "pool",
          "type": "address",
          "internalType": "address"
        },
        {
          "name": "asset",
          "type": "address",
          "internalType": "address"
        },
        {
          "name": "amount",
          "type": "uint256",
          "internalType": "uint256"
        }
      ],
      "outputs": [
        {
          "name": "assets",
          "type": "address[]",
          "internalType": "address[]"
        },
        {
          "name": "amounts",
          "type": "uint256[]",
          "internalType": "uint256[]"
        }
      ],
      "stateMutability": "view"
    },
    {
      "type": "function",
      "name": "getPreviewSwapExact",
      "inputs": [
        {
          "name": "kind",
          "type": "uint8",
          "internalType": "enum IERC20DexModule.SwapKind"
        },
        {
          "name": "pool",
          "type": "address",
          "internalType": "address"
        },
        {
          "name": "baseAsset",
          "type": "address",
          "internalType": "address"
        },
        {
          "name": "baseAssetAmount",
          "type": "uint256",
          "internalType": "uint256"
        },
        {
          "name": "quoteAsset",
          "type": "address",
          "internalType": "address"
        }
      ],
      "outputs": [
        {
          "name": "asset",
          "type": "address",
          "internalType": "address"
        },
        {
          "name": "amount",
          "type": "uint256",
          "internalType": "uint256"
        }
      ],
      "stateMutability": "view"
    },
    {
      "type": "function",
      "name": "getRemoveLiquidityExactAmountOut",
      "inputs": [
        {
          "name": "pool",
          "type": "address",
          "internalType": "address"
        },
        {
          "name": "assetIn",
          "type": "address",
          "internalType": "address"
        },
        {
          "name": "assetAmount",
          "type": "uint256",
          "internalType": "uint256"
        }
      ],
      "outputs": [
        {
          "name": "assets",
          "type": "address[]",
          "internalType": "address[]"
        },
        {
          "name": "amounts",
          "type": "uint256[]",
          "internalType": "uint256[]"
        }
      ],
      "stateMutability": "view"
    },
    {
      "type": "function",
      "name": "getRemoveLiquidityOneSideOut",
      "inputs": [
        {
          "name": "pool",
          "type": "address",
          "internalType": "address"
        },
        {
          "name": "assetOut",
          "type": "address",
          "internalType": "address"
        },
        {
          "name": "sharesIn",
          "type": "uint256",
          "internalType": "uint256"
        }
      ],
      "outputs": [
        {
          "name": "assets",
          "type": "address[]",
          "internalType": "address[]"
        },
        {
          "name": "amounts",
          "type": "uint256[]",
          "internalType": "uint256[]"
        }
      ],
      "stateMutability": "view"
    },
    {
      "type": "function",
      "name": "getTotalShares",
      "inputs": [
        {
          "name": "pool",
          "type": "address",
          "internalType": "address"
        }
      ],
      "outputs": [
        {
          "name": "assets",
          "type": "address[]",
          "internalType": "address[]"
        },
        {
          "name": "amounts",
          "type": "uint256[]",
          "internalType": "uint256[]"
        }
      ],
      "stateMutability": "view"
    },
    {
      "type": "function",
      "name": "removeLiquidityBurningShares",
      "inputs": [
        {
          "name": "pool",
          "type": "address",
          "internalType": "address"
        },
        {
          "name": "withdrawAddress",
          "type": "address",
          "internalType": "address"
        },
        {
          "name": "assetIn",
          "type": "address",
          "internalType": "address"
        },
        {
          "name": "amountIn",
          "type": "uint256",
          "internalType": "uint256"
        }
      ],
      "outputs": [
        {
          "name": "liquidity",
          "type": "address[]",
          "internalType": "address[]"
        },
        {
          "name": "liquidityAmounts",
          "type": "uint256[]",
          "internalType": "uint256[]"
        }
      ],
      "stateMutability": "payable"
    },
    {
      "type": "function",
      "name": "removeLiquidityExactAmount",
      "inputs": [
        {
          "name": "pool",
          "type": "address",
          "internalType": "address"
        },
        {
          "name": "withdrawAddress",
          "type": "address",
          "internalType": "address"
        },
        {
          "name": "assetOut",
          "type": "address",
          "internalType": "address"
        },
        {
          "name": "amountOut",
          "type": "uint256",
          "internalType": "uint256"
        },
        {
          "name": "sharesIn",
          "type": "address",
          "internalType": "address"
        },
        {
          "name": "maxSharesIn",
          "type": "uint256",
          "internalType": "uint256"
        }
      ],
      "outputs": [
        {
          "name": "shares",
          "type": "address[]",
          "internalType": "address[]"
        },
        {
          "name": "shareAmounts",
          "type": "uint256[]",
          "internalType": "uint256[]"
        },
        {
          "name": "liquidity",
          "type": "address[]",
          "internalType": "address[]"
        },
        {
          "name": "liquidityAmounts",
          "type": "uint256[]",
          "internalType": "uint256[]"
        }
      ],
      "stateMutability": "payable"
    },
    {
      "type": "function",
      "name": "swap",
      "inputs": [
        {
          "name": "kind",
          "type": "uint8",
          "internalType": "enum IERC20DexModule.SwapKind"
        },
        {
          "name": "poolId",
          "type": "address",
          "internalType": "address"
        },
        {
          "name": "assetIn",
          "type": "address",
          "internalType": "address"
        },
        {
          "name": "amountIn",
          "type": "uint256",
          "internalType": "uint256"
        },
        {
          "name": "assetOut",
          "type": "address",
          "internalType": "address"
        },
        {
          "name": "amountOut",
          "type": "uint256",
          "internalType": "uint256"
        },
        {
          "name": "deadline",
          "type": "uint256",
          "internalType": "uint256"
        }
      ],
      "outputs": [
        {
          "name": "assets",
          "type": "address[]",
          "internalType": "address[]"
        },
        {
          "name": "amounts",
          "type": "uint256[]",
          "internalType": "uint256[]"
        }
      ],
      "stateMutability": "payable"
    }
  ],
  "bytecode": "0x60808060405234620006a15760c081620025528038038091620000238285620006c2565b833981010312620006a157805160208201516200004360408401620006e6565b916200005260608501620006e6565b6200006e60a06200006660808801620006e6565b9601620006e6565b6040516200007c81620006a6565b600a815269233abd3d102a37b5b2b760b11b6020820152604051620000a181620006a6565b6004815263232aad2d60e11b602082015281516001600160401b039290838111620005b257600391825490600182811c9216801562000696575b6020831014620005915781601f8493116200063e575b50602090601f8311600114620005d457600092620005c8575b50508160011b9160001990841b1c19161781555b8151928311620005b25760045491600183811c93168015620005a7575b6020841014620005915782601f8594116200051a575b50602090601f84116001146200048c5760009362000480575b50508260011b92600019911b1c1916176004555b60058054336001600160a01b031982168117909255604051926020928492600492849290916001600160a01b03167f8be0079c531659141344cd1fd0a4f28419497f9722a3daafe3b4186f6b6457e0600080a3600c805462ffffff19166101011790556001600e55600980546001600160a01b0319166001600160a01b0392909216918217905563c45a015560e01b82525afa908115620004285760009162000434575b506040516364e329cb60e11b81523060048201526001600160a01b0392831660248201529160209183916044918391600091165af19081156200042857600091620003e3575b5060018060a01b031660018060a01b03196010541617601055600655600755600c54906301000000600160b81b039060181b16906301000000600160b81b03191617600c5533600052600b6020526040600020600160ff1982541617905560065433156200039e57620002dc813362000709565b620002ea81600254620006fb565b600255336000526000602052604060002062000308828254620006fb565b905560405190815260007fddf252ad1be2c89b69c2b068fc378daa952ba7f163c4a11628f55a4df523b3ef60203393a3600a80546001600160a01b0319166001600160a01b0392909216919091179055600654600e548082029180159083049091141715620003885760649004600f55604051611a2c908162000b268239f35b634e487b7160e01b600052601160045260246000fd5b60405162461bcd60e51b815260206004820152601f60248201527f45524332303a206d696e7420746f20746865207a65726f2061646472657373006044820152606490fd5b906020823d6020116200041f575b816200040060209383620006c2565b810103126200041c57506200041590620006e6565b3862000268565b80fd5b3d9150620003f1565b6040513d6000823e3d90fd5b906020823d60201162000477575b816200045160209383620006c2565b810103126200041c575060009160446200046d602093620006e6565b9250509162000222565b3d915062000442565b0151915038806200016a565b600460009081527f8a35acfbc15ff81a39ae7d344fd709f28e8600b4aa8c65c6b64bfe7fe36bd19b9450601f198616905b81811062000501575090856001969594939210620004e6575b50505050811b016004556200017e565b01519060f884600019921b161c1916905538808080620004d6565b92946020600181928886015181550196019301620004bd565b6004600052919250907f8a35acfbc15ff81a39ae7d344fd709f28e8600b4aa8c65c6b64bfe7fe36bd19b601f850160051c8101916020861062000586575b90601f86959493920160051c01905b81811062000576575062000151565b6000815585945060010162000567565b909150819062000558565b634e487b7160e01b600052602260045260246000fd5b92607f16926200013b565b634e487b7160e01b600052604160045260246000fd5b0151905038806200010a565b6000858152602081209350601f198516905b8181106200062557509084600195949392106200060c575b505050811b0181556200011e565b015160001983861b60f8161c19169055388080620005fe565b92936020600181928786015181550195019301620005e6565b909150836000526020600020601f840160051c810191602085106200068b575b90601f859493920160051c01905b8181106200067b5750620000f1565b600081558493506001016200066c565b90915081906200065e565b91607f1691620000db565b600080fd5b604081019081106001600160401b03821117620005b257604052565b601f909101601f19168101906001600160401b03821190821017620005b257604052565b51906001600160a01b0382168203620006a157565b919082018092116200038857565b90600c5460ff8160101c161562000a5c5760ff8160081c168062000a49575b8062000a30575b6200083d575b60ff168062000828575b806200080f575b6200074f575050565b620007709160018060a01b03166000526000602052604060002054620006fb565b606460025404106200077e57565b60405162461bcd60e51b815260206004820152605e60248201527f4a7573742067657474696e67207761726d65642075702c206c696d6974206f6660448201527f203125206f66202446555a5a2063616e2062652054726164656420756e74696c60648201527f20426572612048696265726e6174696f6e20697320636f6d706c657465210000608482015260a490fd5b506010546001600160a01b038381169116141562000746565b506005546001600160a01b031615156200073f565b60408051906200084d82620006a6565b600a825260209169546f206164647265737360b01b8382015281516200088b8482019263319af33360e01b8452846024840152606483019062000ae3565b9160018060a01b038583828b16958660448301520391620008b5601f1993848101875286620006c2565b6000808096516a636f6e736f6c652e6c6f6796875afa50600a54169460248751809781936370a0823160e01b835260048301525afa93841562000a26578394620009ed575b5084518392916200090b82620006a6565b601682527f547261646572204375622042616c616e63653a202573000000000000000000008883015262000972875191826200095f8b820195632d839cb360e21b87528b6024840152606483019062000ae3565b89604483015203908101835282620006c2565b51915afa50156200098557505062000735565b6084925080519162461bcd60e51b8352600483015260248201527f43756273204f6e6c7920497320616374697665202d20596f75206e656564207460448201527f6f2068617665206120426572612043756220746f2074726164652046555a5a216064820152fd5b9093508581813d831162000a1e575b62000a088183620006c2565b8101031262000a1a57519282620008fa565b8280fd5b503d620009fc565b85513d85823e3d90fd5b50600d546001600160a01b03848116911614156200072f565b506001600160a01b038316151562000728565b50506005546001600160a01b03908116801592909190831562000ad6575b5050501562000a8557565b60405162461bcd60e51b815260206004820152602360248201527f50617469656e6365202d2054726164696e67204e6f742053746172746564205960448201526265742160e81b6064820152608490fd5b1614905038808062000a7a565b919082519283825260005b84811062000b10575050826000602080949584010152601f8019910116010190565b60208183018101518483018201520162000aee56fe60806040908082526004918236101561001757600080fd5b600092833560e01c92836306fdde0314610d2c57508263095ea7b314610d0257826317700f0114610cda57826318160ddd14610cbb578263199f4c9914610c9257826323b872dd14610bc9578263313ce56714610bad5782633950935114610b5d57826340c10f1914610a3757826348f5eeeb14610a0e5782634ada218b146109e757826353b2b844146109a25782635ebd81d61461097c5782636605d0ce14610955578263663a145214610931578263665a11ca1461040057826370a08231146108fa578263715018a61461089d5782638a8c523c146108705782638bea5b38146108475782638da5cb5b1461081e57826395d89b41146107205782639dc29fac146105c8578263a457c2d714610525578263a7fc7a07146104b7578263a9059cbb14610486578263ad60964614610467578263bae4076614610429578263c1f1b1b514610400578263c5f956af146103d3578263caadd1ed146103a8578263d5abeb0114610389578263d89135cd1461036a578263dd62ed3e14610321578263f2fde38b1461025657508163f6a74ed7146101e7575063fb8b694b146101be57600080fd5b346101e457806003193601126101e4576101d6610e71565b61ff0019600c5416600c5580f35b80fd5b9050346102525760203660031901126102525760207f33d83959be2573f5453b12eb9d43b3499bc57d96bd2f067ba44803c859e8111391610226610e40565b61022e610e71565b6001600160a01b0316808552600b8352818520805460ff191690559051908152a180f35b5080fd5b9091503461031d57602036600319011261031d57610272610e40565b9061027b610e71565b6001600160a01b039182169283156102cb575050600580546001600160a01b031981168417909155167f8be0079c531659141344cd1fd0a4f28419497f9722a3daafe3b4186f6b6457e08380a380f35b906020608492519162461bcd60e51b8352820152602660248201527f4f776e61626c653a206e6577206f776e657220697320746865207a65726f206160448201526564647265737360d01b6064820152fd5b8280fd5b8382346102525780600319360112610252578060209261033f610e40565b610347610e5b565b6001600160a01b0391821683526001865283832091168252845220549051908152f35b8382346102525781600319360112610252576020906008549051908152f35b8382346102525781600319360112610252576020906007549051908152f35b83346101e457806003193601126101e4576103c1610e71565b61010061ff0019600c541617600c5580f35b838234610252578160031936011261025257600c54905160189190911c6001600160a01b03168152602090f35b83823461025257816003193601126102525760105490516001600160a01b039091168152602090f35b8382346102525760203660031901126102525760209160ff9082906001600160a01b03610454610e40565b168152600b855220541690519015158152f35b838234610252578160031936011261025257602090600e549051908152f35b8382346102525780600319360112610252576020906104b06104a6610e40565b6024359033610f40565b5160018152f35b8382346102525760203660031901126102525760207f0a8bb31534c0ed46f380cb867bd5c803a189ced9a764e30b3a4991a9901d7474916104f6610e40565b6104fe610e71565b6001600160a01b0316808552600b8352818520805460ff191660011790559051908152a180f35b83346101e457826003193601126101e45761053e610e40565b918360243592338152600160205281812060018060a01b0386168252602052205490828210610577576020856104b085850387336110b1565b608490602086519162461bcd60e51b8352820152602560248201527f45524332303a2064656372656173656420616c6c6f77616e63652062656c6f77604482015264207a65726f60d81b6064820152fd5b8382346102525780600319360112610252576105e2610e40565b90602435338452602091600b83526105ff60ff8287205416611992565b61060b82600854610f1d565b6008556001600160a01b0384169384156106d357826106299161155b565b83855284835280852054828110610685578290858752868552038186205560025482810390811161067257600255519081528392916000805160206119d783398151915291a380f35b634e487b7160e01b865260118752602486fd5b815162461bcd60e51b8152808801859052602260248201527f45524332303a206275726e20616d6f756e7420657863656564732062616c616e604482015261636560f01b6064820152608490fd5b815162461bcd60e51b8152808801859052602160248201527f45524332303a206275726e2066726f6d20746865207a65726f206164647265736044820152607360f81b6064820152608490fd5b9083346101e457806003193601126101e45781519181845492600184811c91818616958615610814575b6020968785108114610801579087899a92868b999a9b5291826000146107d7575050600114610799575b858861079589610786848a0385610efb565b51928284938452830190610e00565b0390f35b87945081939291528383205b8284106107bf575050508201018161078661079588610774565b8054848a0186015288955087949093019281016107a5565b60ff19168882015294151560051b8701909401945085935061078692506107959150899050610774565b634e487b7160e01b835260228a52602483fd5b92607f169261074a565b83823461025257816003193601126102525760055490516001600160a01b039091168152602090f35b838234610252578160031936011261025257600d5490516001600160a01b039091168152602090f35b83346101e457806003193601126101e457610889610e71565b6201000062ff000019600c541617600c5580f35b83346101e457806003193601126101e4576108b6610e71565b600580546001600160a01b0319811690915581906001600160a01b03167f8be0079c531659141344cd1fd0a4f28419497f9722a3daafe3b4186f6b6457e08280a380f35b8382346102525760203660031901126102525760209181906001600160a01b03610922610e40565b16815280845220549051908152f35b83823461025257816003193601126102525760209060ff600c541690519015158152f35b83823461025257816003193601126102525760209060ff600c5460081c1690519015158152f35b83346101e457806003193601126101e457610995610e71565b60ff19600c5416600c5580f35b83346101e45760203660031901126101e4576109bc610e40565b6109c4610e71565b600d80546001600160a01b0319166001600160a01b039290921691909117905580f35b83823461025257816003193601126102525760209060ff600c5460101c1690519015158152f35b83823461025257816003193601126102525760ff6101d691338452600b60205283205416611992565b91503461031d578060031936011261031d57610a51610e40565b9060243591338552600b602052610a6d60ff8387205416611992565b60025490610a7b8483610f1d565b60075410610b21576001600160a01b038116948515610ade5750926000805160206119d783398151915292610abd82602094610ab8828b996111b3565b610f1d565b600255858552848352808520610ad4838254610f1d565b905551908152a380f35b606490602085519162461bcd60e51b8352820152601f60248201527f45524332303a206d696e7420746f20746865207a65726f2061646472657373006044820152fd5b825162461bcd60e51b8152602081870152601660248201527513585e1a5b5d5b481cdd5c1c1b1e481c995858da195960521b6044820152606490fd5b8382346102525780600319360112610252576104b0602092610ba6610b80610e40565b338352600186528483206001600160a01b03821684528652918490205460243590610f1d565b90336110b1565b8382346102525781600319360112610252576020905160128152f35b83903461025257606036600319011261025257610be4610e40565b610bec610e5b565b91846044359460018060a01b038416815260016020528181203382526020522054906000198203610c26575b6020866104b0878787610f40565b848210610c4f5750918391610c44602096956104b0950333836110b1565b919394819350610c18565b606490602087519162461bcd60e51b8352820152601d60248201527f45524332303a20696e73756666696369656e7420616c6c6f77616e63650000006044820152fd5b838234610252578160031936011261025257600a5490516001600160a01b039091168152602090f35b8382346102525781600319360112610252576020906002549051908152f35b83346101e457806003193601126101e457610cf3610e71565b62ff000019600c5416600c5580f35b8382346102525780600319360112610252576020906104b0610d22610e40565b60243590336110b1565b8483346102525781600319360112610252578160035492600184811c91818616958615610df6575b6020968785108114610801578899509688969785829a529182600014610dcf575050600114610d91575b5050506107959291610786910385610efb565b9190869350600383528383205b828410610db75750505082010181610786610795610d7e565b8054848a018601528895508794909301928101610d9e565b60ff19168782015293151560051b8601909301935084925061078691506107959050610d7e565b92607f1692610d54565b919082519283825260005b848110610e2c575050826000602080949584010152601f8019910116010190565b602081830181015184830182015201610e0b565b600435906001600160a01b0382168203610e5657565b600080fd5b602435906001600160a01b0382168203610e5657565b6005546001600160a01b03163303610e8557565b606460405162461bcd60e51b815260206004820152602060248201527f4f776e61626c653a2063616c6c6572206973206e6f7420746865206f776e65726044820152fd5b6040810190811067ffffffffffffffff821117610ee557604052565b634e487b7160e01b600052604160045260246000fd5b90601f8019910116810190811067ffffffffffffffff821117610ee557604052565b91908201809211610f2a57565b634e487b7160e01b600052601160045260246000fd5b916001600160a01b038084169290831561105e57811693841561100d57610f68918391611795565b600082815280602052604081205491808310610fb957604082826000805160206119d7833981519152958760209652828652038282205586815220610fae828254610f1d565b9055604051908152a3565b60405162461bcd60e51b815260206004820152602660248201527f45524332303a207472616e7366657220616d6f756e7420657863656564732062604482015265616c616e636560d01b6064820152608490fd5b60405162461bcd60e51b815260206004820152602360248201527f45524332303a207472616e7366657220746f20746865207a65726f206164647260448201526265737360e81b6064820152608490fd5b60405162461bcd60e51b815260206004820152602560248201527f45524332303a207472616e736665722066726f6d20746865207a65726f206164604482015264647265737360d81b6064820152608490fd5b6001600160a01b0390811691821561116257169182156111125760207f8c5be1e5ebec7d5bd14f71427d1e84f3dd0314c0f7b2291e5b200ac8c7c3b925918360005260018252604060002085600052825280604060002055604051908152a3565b60405162461bcd60e51b815260206004820152602260248201527f45524332303a20617070726f766520746f20746865207a65726f206164647265604482015261737360f01b6064820152608490fd5b60405162461bcd60e51b8152602060048201526024808201527f45524332303a20617070726f76652066726f6d20746865207a65726f206164646044820152637265737360e01b6064820152608490fd5b90600c5460ff8160101c16156114d75760ff8160081c16806114c5575b806114ad575b6112db575b60ff16806112c7575b806112af575b6111f2575050565b6112119160018060a01b03166000526000602052604060002054610f1d565b6064600254041061121e57565b60405162461bcd60e51b815260206004820152605e60248201527f4a7573742067657474696e67207761726d65642075702c206c696d6974206f6660448201527f203125206f66202446555a5a2063616e2062652054726164656420756e74696c60648201527f20426572612048696265726e6174696f6e20697320636f6d706c657465210000608482015260a490fd5b506010546001600160a01b03838116911614156111ea565b506005546001600160a01b031615156111e4565b60408051906112e982610ec9565b600a825260209169546f206164647265737360b01b8382015281516113258482019263319af33360e01b84528460248401526064830190610e00565b9160018060a01b038583828b1695866044830152039161134d601f1993848101875286610efb565b6000808096516a636f6e736f6c652e6c6f6796875afa50600a54169460248751809781936370a0823160e01b835260048301525afa9384156114a3578394611474575b50845183929161139f82610ec9565b6016825275547261646572204375622042616c616e63653a20257360501b888301526113fb875191826113e98b820195632d839cb360e21b87528b60248401526064830190610e00565b89604483015203908101835282610efb565b51915afa501561140c5750506111db565b6084925080519162461bcd60e51b8352600483015260248201527f43756273204f6e6c7920497320616374697665202d20596f75206e656564207460448201527f6f2068617665206120426572612043756220746f2074726164652046555a5a216064820152fd5b9093508581813d831161149c575b61148c8183610efb565b8101031261031d57519282611390565b503d611482565b85513d85823e3d90fd5b50600d546001600160a01b03848116911614156111d6565b506001600160a01b03831615156111d0565b50506005546001600160a01b03908116801592909190831561154f575b505050156114fe57565b60405162461bcd60e51b815260206004820152602360248201527f50617469656e6365202d2054726164696e67204e6f742053746172746564205960448201526265742160e81b6064820152608490fd5b161490503880806114f4565b600c5460ff8160101c16156117685760ff8160081c1680611760575b8061174c575b6115fc575b60ff1690816115e2575b50806115ce575b61159a5750565b60008080526020527fad3228b676f7d3cd4284a5443f17f1962b36e491b30a40b2405849e597ba5fb5546112119190610f1d565b506010546001600160a01b03161515611593565b6005546001600160a01b039182169116141590503861158c565b604080519061160a82610ec9565b600a8252602460209269546f206164647265737360b01b84820152825190816116498682019263319af33360e01b845286868401526064830190610e00565b60008281959282604481950152039261166a601f1994858101835282610efb565b516a636f6e736f6c652e6c6f6794855afa50600a5485516370a0823160e01b81526004810185905294879186919082906001600160a01b03165afa9384156114a357839461171d575b5084518392916116c282610ec9565b6016825275547261646572204375622042616c616e63653a20257360501b8883015261170c875191826113e98b820195632d839cb360e21b87528b60248401526064830190610e00565b51915afa501561140c575050611582565b9093508581813d8311611745575b6117358183610efb565b8101031261031d575192826116b3565b503d61172b565b50600d546001600160a01b0316151561157d565b506000611577565b506005546001600160a01b03908116911681149150811561178c575b50156114fe57565b90501538611784565b919091600c5460ff8160101c16156119695760ff8160081c1680611957575b8061193f575b6117f1575b60ff1690816117d7575b50806112af576111f2575050565b6005546001600160a01b03918216911614159050386117c9565b60408051906117ff82610ec9565b600a825260209169546f206164647265737360b01b83820152815161183b8482019263319af33360e01b84528460248401526064830190610e00565b9160018060a01b038583828c16958660448301520391611863601f1993848101875286610efb565b6000808096516a636f6e736f6c652e6c6f6796875afa50600a54169460248751809781936370a0823160e01b835260048301525afa9384156114a3578394611910575b5084518392916118b582610ec9565b6016825275547261646572204375622042616c616e63653a20257360501b888301526118ff875191826113e98b820195632d839cb360e21b87528b60248401526064830190610e00565b51915afa501561140c5750506117bf565b9093508581813d8311611938575b6119288183610efb565b8101031261031d575192826118a6565b503d61191e565b50600d546001600160a01b03858116911614156117ba565b506001600160a01b03841615156117b4565b506005546001600160a01b0391821690821690811493909250831561154f57505050156114fe57565b1561199957565b60405162461bcd60e51b815260206004820152601560248201527421b0b63632b9102737ba1021b7b73a3937b63632b960591b6044820152606490fdfeddf252ad1be2c89b69c2b068fc378daa952ba7f163c4a11628f55a4df523b3efa264697066735822122009aa788e3c5d2a4042df42bc28a14f7ad1dd5eb3aa637cc0e3e54d90464c000564736f6c63430008130033",
  "linkReferences": {},
  "deployedLinkReferences": {}
}