{
  "_format": "hh-sol-artifact-1",
  "contractName": "BeraCub",
  "sourceName": "contracts/BeraCub.sol",
  "abi": [
    {
      "inputs": [
        {
          "internalType": "uint256",
          "name": "_maxSupply",
          "type": "uint256"
        }
      ],
      "stateMutability": "nonpayable",
      "type": "constructor"
    },
    {
      "anonymous": false,
      "inputs": [
        {
          "indexed": true,
          "internalType": "address",
          "name": "owner",
          "type": "address"
        },
        {
          "indexed": true,
          "internalType": "address",
          "name": "approved",
          "type": "address"
        },
        {
          "indexed": true,
          "internalType": "uint256",
          "name": "tokenId",
          "type": "uint256"
        }
      ],
      "name": "Approval",
      "type": "event"
    },
    {
      "anonymous": false,
      "inputs": [
        {
          "indexed": true,
          "internalType": "address",
          "name": "owner",
          "type": "address"
        },
        {
          "indexed": true,
          "internalType": "address",
          "name": "operator",
          "type": "address"
        },
        {
          "indexed": false,
          "internalType": "bool",
          "name": "approved",
          "type": "bool"
        }
      ],
      "name": "ApprovalForAll",
      "type": "event"
    },
    {
      "anonymous": false,
      "inputs": [
        {
          "indexed": false,
          "internalType": "address",
          "name": "newController",
          "type": "address"
        }
      ],
      "name": "ControllerAdded",
      "type": "event"
    },
    {
      "anonymous": false,
      "inputs": [
        {
          "indexed": false,
          "internalType": "address",
          "name": "controllerRemoved",
          "type": "address"
        }
      ],
      "name": "ControllerRemoved",
      "type": "event"
    },
    {
      "anonymous": false,
      "inputs": [
        {
          "indexed": false,
          "internalType": "address",
          "name": "sender",
          "type": "address"
        },
        {
          "indexed": false,
          "internalType": "uint256",
          "name": "tokenId",
          "type": "uint256"
        }
      ],
      "name": "MintedBeraCub",
      "type": "event"
    },
    {
      "anonymous": false,
      "inputs": [
        {
          "indexed": false,
          "internalType": "bool",
          "name": "mintingOpen",
          "type": "bool"
        }
      ],
      "name": "MintingOpened",
      "type": "event"
    },
    {
      "anonymous": false,
      "inputs": [
        {
          "indexed": false,
          "internalType": "bool",
          "name": "mintingOpen",
          "type": "bool"
        }
      ],
      "name": "MintingPaused",
      "type": "event"
    },
    {
      "anonymous": false,
      "inputs": [
        {
          "indexed": true,
          "internalType": "address",
          "name": "previousOwner",
          "type": "address"
        },
        {
          "indexed": true,
          "internalType": "address",
          "name": "newOwner",
          "type": "address"
        }
      ],
      "name": "OwnershipTransferred",
      "type": "event"
    },
    {
      "anonymous": false,
      "inputs": [
        {
          "indexed": true,
          "internalType": "address",
          "name": "from",
          "type": "address"
        },
        {
          "indexed": true,
          "internalType": "address",
          "name": "to",
          "type": "address"
        },
        {
          "indexed": true,
          "internalType": "uint256",
          "name": "tokenId",
          "type": "uint256"
        }
      ],
      "name": "Transfer",
      "type": "event"
    },
    {
      "inputs": [
        {
          "internalType": "address",
          "name": "_beraFarmContract",
          "type": "address"
        }
      ],
      "name": "addBeraFarmContract",
      "outputs": [],
      "stateMutability": "nonpayable",
      "type": "function"
    },
    {
      "inputs": [
        {
          "internalType": "address",
          "name": "toAdd_",
          "type": "address"
        }
      ],
      "name": "addController",
      "outputs": [],
      "stateMutability": "nonpayable",
      "type": "function"
    },
    {
      "inputs": [
        {
          "internalType": "address",
          "name": "to",
          "type": "address"
        },
        {
          "internalType": "uint256",
          "name": "tokenId",
          "type": "uint256"
        }
      ],
      "name": "approve",
      "outputs": [],
      "stateMutability": "nonpayable",
      "type": "function"
    },
    {
      "inputs": [
        {
          "internalType": "address",
          "name": "owner",
          "type": "address"
        }
      ],
      "name": "balanceOf",
      "outputs": [
        {
          "internalType": "uint256",
          "name": "",
          "type": "uint256"
        }
      ],
      "stateMutability": "view",
      "type": "function"
    },
    {
      "inputs": [],
      "name": "beraFarmContract",
      "outputs": [
        {
          "internalType": "address",
          "name": "",
          "type": "address"
        }
      ],
      "stateMutability": "view",
      "type": "function"
    },
    {
      "inputs": [
        {
          "internalType": "address",
          "name": "_reciever",
          "type": "address"
        },
        {
          "internalType": "uint256",
          "name": "_amount",
          "type": "uint256"
        }
      ],
      "name": "buyBeraCubs",
      "outputs": [],
      "stateMutability": "nonpayable",
      "type": "function"
    },
    {
      "inputs": [],
      "name": "formatTokenURI",
      "outputs": [
        {
          "internalType": "string",
          "name": "",
          "type": "string"
        }
      ],
      "stateMutability": "pure",
      "type": "function"
    },
    {
      "inputs": [
        {
          "internalType": "uint256",
          "name": "tokenId",
          "type": "uint256"
        }
      ],
      "name": "getApproved",
      "outputs": [
        {
          "internalType": "address",
          "name": "",
          "type": "address"
        }
      ],
      "stateMutability": "view",
      "type": "function"
    },
    {
      "inputs": [
        {
          "internalType": "address",
          "name": "owner",
          "type": "address"
        },
        {
          "internalType": "address",
          "name": "operator",
          "type": "address"
        }
      ],
      "name": "isApprovedForAll",
      "outputs": [
        {
          "internalType": "bool",
          "name": "",
          "type": "bool"
        }
      ],
      "stateMutability": "view",
      "type": "function"
    },
    {
      "inputs": [],
      "name": "maxSupply",
      "outputs": [
        {
          "internalType": "uint256",
          "name": "",
          "type": "uint256"
        }
      ],
      "stateMutability": "view",
      "type": "function"
    },
    {
      "inputs": [],
      "name": "mintingOpen",
      "outputs": [
        {
          "internalType": "bool",
          "name": "",
          "type": "bool"
        }
      ],
      "stateMutability": "view",
      "type": "function"
    },
    {
      "inputs": [],
      "name": "name",
      "outputs": [
        {
          "internalType": "string",
          "name": "",
          "type": "string"
        }
      ],
      "stateMutability": "view",
      "type": "function"
    },
    {
      "inputs": [],
      "name": "openMinting",
      "outputs": [],
      "stateMutability": "nonpayable",
      "type": "function"
    },
    {
      "inputs": [],
      "name": "owner",
      "outputs": [
        {
          "internalType": "address",
          "name": "",
          "type": "address"
        }
      ],
      "stateMutability": "view",
      "type": "function"
    },
    {
      "inputs": [
        {
          "internalType": "uint256",
          "name": "tokenId",
          "type": "uint256"
        }
      ],
      "name": "ownerOf",
      "outputs": [
        {
          "internalType": "address",
          "name": "",
          "type": "address"
        }
      ],
      "stateMutability": "view",
      "type": "function"
    },
    {
      "inputs": [],
      "name": "pauseMinting",
      "outputs": [],
      "stateMutability": "nonpayable",
      "type": "function"
    },
    {
      "inputs": [
        {
          "internalType": "address",
          "name": "toRemove_",
          "type": "address"
        }
      ],
      "name": "removeController",
      "outputs": [],
      "stateMutability": "nonpayable",
      "type": "function"
    },
    {
      "inputs": [],
      "name": "renounceOwnership",
      "outputs": [],
      "stateMutability": "nonpayable",
      "type": "function"
    },
    {
      "inputs": [
        {
          "internalType": "address",
          "name": "from",
          "type": "address"
        },
        {
          "internalType": "address",
          "name": "to",
          "type": "address"
        },
        {
          "internalType": "uint256",
          "name": "tokenId",
          "type": "uint256"
        }
      ],
      "name": "safeTransferFrom",
      "outputs": [],
      "stateMutability": "nonpayable",
      "type": "function"
    },
    {
      "inputs": [
        {
          "internalType": "address",
          "name": "from",
          "type": "address"
        },
        {
          "internalType": "address",
          "name": "to",
          "type": "address"
        },
        {
          "internalType": "uint256",
          "name": "tokenId",
          "type": "uint256"
        },
        {
          "internalType": "bytes",
          "name": "data",
          "type": "bytes"
        }
      ],
      "name": "safeTransferFrom",
      "outputs": [],
      "stateMutability": "nonpayable",
      "type": "function"
    },
    {
      "inputs": [
        {
          "internalType": "address",
          "name": "operator",
          "type": "address"
        },
        {
          "internalType": "bool",
          "name": "approved",
          "type": "bool"
        }
      ],
      "name": "setApprovalForAll",
      "outputs": [],
      "stateMutability": "nonpayable",
      "type": "function"
    },
    {
      "inputs": [
        {
          "internalType": "bytes4",
          "name": "interfaceId",
          "type": "bytes4"
        }
      ],
      "name": "supportsInterface",
      "outputs": [
        {
          "internalType": "bool",
          "name": "",
          "type": "bool"
        }
      ],
      "stateMutability": "view",
      "type": "function"
    },
    {
      "inputs": [],
      "name": "symbol",
      "outputs": [
        {
          "internalType": "string",
          "name": "",
          "type": "string"
        }
      ],
      "stateMutability": "view",
      "type": "function"
    },
    {
      "inputs": [],
      "name": "tokenCounter",
      "outputs": [
        {
          "internalType": "uint256",
          "name": "",
          "type": "uint256"
        }
      ],
      "stateMutability": "view",
      "type": "function"
    },
    {
      "inputs": [
        {
          "internalType": "uint256",
          "name": "tokenId",
          "type": "uint256"
        }
      ],
      "name": "tokenURI",
      "outputs": [
        {
          "internalType": "string",
          "name": "",
          "type": "string"
        }
      ],
      "stateMutability": "view",
      "type": "function"
    },
    {
      "inputs": [],
      "name": "totalSupply",
      "outputs": [
        {
          "internalType": "uint256",
          "name": "",
          "type": "uint256"
        }
      ],
      "stateMutability": "view",
      "type": "function"
    },
    {
      "inputs": [
        {
          "internalType": "address",
          "name": "from",
          "type": "address"
        },
        {
          "internalType": "address",
          "name": "to",
          "type": "address"
        },
        {
          "internalType": "uint256",
          "name": "tokenId",
          "type": "uint256"
        }
      ],
      "name": "transferFrom",
      "outputs": [],
      "stateMutability": "nonpayable",
      "type": "function"
    },
    {
      "inputs": [
        {
          "internalType": "address",
          "name": "newOwner",
          "type": "address"
        }
      ],
      "name": "transferOwnership",
      "outputs": [],
      "stateMutability": "nonpayable",
      "type": "function"
    }
  ],
  "bytecode": "0x6080346200037857601f90601f196001600160401b03620022813881900385810184168501838111868210176200037d57859282916040528339602094859181010312620003785751936200005362000393565b9060088252672132b9309021bab160c11b858301526200007262000393565b600381526221aaa160e91b8682015260008054336001600160a01b0319821681178355919791906001600160a01b03167f8be0079c531659141344cd1fd0a4f28419497f9722a3daafe3b4186f6b6457e08980a38351858111620003645760019485548681811c9116801562000359575b848210146200034557908186849311620002f2575b50839086831160011462000291578a9262000285575b5050600019600383901b1c191690851b1784555b815194851162000271576002548481811c9116801562000266575b82821014620002525783811162000209575b5080928511600114620001a1575083945090839291869462000195575b50501b916000199060031b1c1916176002555b600855600955604051611ecd9081620003b48239f35b0151925038806200016c565b929484908116600288528488209488905b88838310620001ee5750505010620001d4575b505050811b016002556200017f565b015160001960f88460031b161c19169055388080620001c5565b858701518855909601959485019487935090810190620001b2565b600288528188208480880160051c82019284891062000248575b0160051c019085905b8281106200023c5750506200014f565b8981550185906200022c565b9250819262000223565b634e487b7160e01b88526022600452602488fd5b90607f16906200013d565b634e487b7160e01b87526041600452602487fd5b0151905038806200010e565b908988941691848c52858c20928c5b87828210620002db5750508411620002c1575b505050811b01845562000122565b015160001960f88460031b161c19169055388080620002b3565b8385015186558b97909501949384019301620002a0565b909150868a52838a208680850160051c8201928686106200033b575b918991869594930160051c01915b8281106200032c575050620000f8565b8c81558594508991016200031c565b925081926200030e565b634e487b7160e01b8a52602260045260248afd5b90607f1690620000e3565b634e487b7160e01b88526041600452602488fd5b600080fd5b634e487b7160e01b600052604160045260246000fd5b60408051919082016001600160401b038111838210176200037d5760405256fe6080604052600436101561001257600080fd5b60003560e01c806301ffc9a7146101d257806306fdde03146101cd578063081812fc146101c8578063095ea7b3146101c357806318160ddd1461016e57806323783842146101be57806323b872dd146101b957806337d5ad2b146101b457806342842e0e146101af5780636352211e146101aa5780636ba9fd38146101a557806370a08231146101a0578063715018a61461019b5780638da5cb5b146101965780638f4bb4971461019157806395d89b411461018c578063a22cb46514610187578063a7fc7a0714610182578063b88d4fde1461017d578063c87b56dd14610178578063cc904e8814610173578063d082e3811461016e578063d5abeb0114610169578063da8fbf2a14610164578063e985e9c51461015f578063f2fde38b1461015a578063f6a74ed7146101555763ffd5b5b51461015057600080fd5b610dd9565b610d6e565b610cab565b610c5a565b610c09565b610beb565b6104b1565b610bbe565b610b9f565b610b17565b610a09565b610933565b61088f565b61086c565b610843565b6107e8565b610747565b6106f4565b6106d6565b6106ae565b61067e565b610655565b6104cf565b6103d5565b610379565b6102b8565b6101ee565b6001600160e01b03198116036101e957565b600080fd5b346101e95760203660031901126101e957602060043561020d816101d7565b63ffffffff60e01b166380ac58cd60e01b811490811561024b575b811561023a575b506040519015158152f35b6301ffc9a760e01b1490503861022f565b635b5e139f60e01b81149150610228565b60005b83811061026f5750506000910152565b818101518382015260200161025f565b906020916102988151809281855285808601910161025c565b601f01601f1916010190565b9060206102b592818152019061027f565b90565b346101e957600080600319360112610376576040518160018054906102dc82610f4f565b8085529181811690811561034e5750600114610313575b61030f8461030381880382610adb565b604051918291826102a4565b0390f35b80945082526020938483205b82841061033b575050508161030f9361030392820101936102f3565b805485850187015292850192810161031f565b61030f96506103039450602092508593915060ff191682840152151560051b820101936102f3565b80fd5b346101e95760203660031901126101e9576020610397600435610ffb565b6040516001600160a01b039091168152f35b600435906001600160a01b03821682036101e957565b602435906001600160a01b03821682036101e957565b346101e95760403660031901126101e9576103ee6103a9565b6024356103fa81610f2c565b916001600160a01b0380841690821681146104625761042c9361042791331490811561042e575b50610f89565b6113bc565b005b6001600160a01b0316600090815260066020526040902061045c9150610455903390610ece565b5460ff1690565b38610421565b60405162461bcd60e51b815260206004820152602160248201527f4552433732313a20617070726f76616c20746f2063757272656e74206f776e656044820152603960f91b6064820152608490fd5b346101e95760003660031901126101e9576020600854604051908152f35b346101e9576040806003193601126101e9576104e96103a9565b6024359033600052600b60205260ff836000205416156105e65760ff600a5416156105b157610516611add565b9260089161053161052885855461125c565b60095411611732565b60005b84811061053d57005b6105ac9061054c855484611778565b6105578786546118ee565b6105696105648654611232565b600855565b845484516001600160a01b038516815260208101919091527f349f007bc2a46b66c83eb00dca866e473eb4095c5b0945174c1b85dff93d069690604090a1611723565b610534565b825162461bcd60e51b815260206004820152600e60248201526d26b4b73a34b733a737ba27b832b760911b6044820152606490fd5b825162461bcd60e51b815260206004820152601360248201527221b0b63632b92737ba21b7b73a3937b63632b960691b6044820152606490fd5b60609060031901126101e9576001600160a01b039060043582811681036101e9579160243590811681036101e9579060443590565b346101e95761042c61066636610620565b916106796106748433611142565b611027565b611269565b346101e95760003660031901126101e95761030f61069a611add565b60405191829160208352602083019061027f565b346101e95761042c6106bf36610620565b90604051926106cd84610aa5565b6000845261109d565b346101e95760203660031901126101e9576020610397600435610f2c565b346101e95760003660031901126101e95761070d610e3d565b600160ff19600a541617600a557f26cafbb06e862822616b217988b1fa1521632a638ad5b1b40824b3db1ef300ed602060405160018152a1005b346101e95760203660031901126101e9576001600160a01b036107686103a9565b16801561079157600052600460205261030f604060002054604051918291829190602083019252565b60405162461bcd60e51b815260206004820152602960248201527f4552433732313a2061646472657373207a65726f206973206e6f7420612076616044820152683634b21037bbb732b960b91b6064820152608490fd5b346101e95760008060031936011261037657610802610e3d565b80546001600160a01b03198116825581906001600160a01b03167f8be0079c531659141344cd1fd0a4f28419497f9722a3daafe3b4186f6b6457e08280a380f35b346101e95760003660031901126101e9576000546040516001600160a01b039091168152602090f35b346101e95760003660031901126101e957602060ff600a54166040519015158152f35b346101e95760008060031936011261037657604051816002546108b181610f4f565b8084529060019081811690811561034e57506001146108da5761030f8461030381880382610adb565b60028352602094507f405787fa12a823e0f2b7631cc41b3ba8828b3321ca811111fa75cd3aa3bb5ace5b828410610920575050508161030f9361030392820101936102f3565b8054858501870152928501928101610904565b346101e95760403660031901126101e95761094c6103a9565b60243580151581036101e9576001600160a01b038216913383146109c85781610985610996923360005260066020526040600020610ece565b9060ff801983541691151516179055565b604051901515815233907f17307eab39ab6107e8899845ad3d59bd9653f200f220920489ca2b5937696c3190602090a3005b60405162461bcd60e51b815260206004820152601960248201527822a9219b99189d1030b8383937bb32903a379031b0b63632b960391b6044820152606490fd5b346101e95760203660031901126101e9577f0a8bb31534c0ed46f380cb867bd5c803a189ced9a764e30b3a4991a9901d74746020610a456103a9565b610a4d610e3d565b6001600160a01b03166000818152600b8352604090819020805460ff1916600117905551908152a1005b634e487b7160e01b600052604160045260246000fd5b6001600160401b038111610aa057604052565b610a77565b602081019081106001600160401b03821117610aa057604052565b604081019081106001600160401b03821117610aa057604052565b90601f801991011681019081106001600160401b03821117610aa057604052565b6001600160401b038111610aa057601f01601f191660200190565b346101e95760803660031901126101e957610b306103a9565b610b386103bf565b606435916001600160401b0383116101e957366023840112156101e957826004013591610b6483610afc565b92610b726040519485610adb565b80845236602482870101116101e957602081600092602461042c980183880137850101526044359161109d565b346101e95760203660031901126101e95761030f61069a6004356115e2565b346101e95760003660031901126101e957600a5460405160089190911c6001600160a01b03168152602090f35b346101e95760003660031901126101e9576020600954604051908152f35b346101e95760008060031936011261037657610c23610e3d565b60ff19600a5416600a557f5708b32f825aa2f1192da18d8205d00f2cb633e72d1c5bb33a3111ccc61be8f46020604051838152a180f35b346101e95760403660031901126101e957602060ff610c9f610c7a6103a9565b610c826103bf565b6001600160a01b0390911660009081526006855260409020610ece565b54166040519015158152f35b346101e95760203660031901126101e957610cc46103a9565b610ccc610e3d565b6001600160a01b039081168015610d1a57600080546001600160a01b03198116831782559092167f8be0079c531659141344cd1fd0a4f28419497f9722a3daafe3b4186f6b6457e08380a380f35b60405162461bcd60e51b815260206004820152602660248201527f4f776e61626c653a206e6577206f776e657220697320746865207a65726f206160448201526564647265737360d01b6064820152608490fd5b346101e95760203660031901126101e9577f33d83959be2573f5453b12eb9d43b3499bc57d96bd2f067ba44803c859e811136020610daa6103a9565b610db2610e3d565b6001600160a01b03166000818152600b8352604090819020805460ff1916905551908152a1005b346101e95760203660031901126101e957610df26103a9565b610dfa610e3d565b600a8054610100600160a81b031916600892831b610100600160a81b03161790819055600c80546001600160a01b0319169190921c6001600160a01b0316179055005b6000546001600160a01b03163303610e5157565b606460405162461bcd60e51b815260206004820152602060248201527f4f776e61626c653a2063616c6c6572206973206e6f7420746865206f776e65726044820152fd5b80546001600160a01b0319166001600160a01b03909216919091179055565b6001600160a01b0316600090815260046020526040902090565b9060018060a01b0316600052602052604060002090565b15610eec57565b60405162461bcd60e51b8152602060048201526018602482015277115490cdcc8c4e881a5b9d985b1a59081d1bdad95b88125160421b6044820152606490fd5b6000908152600360205260409020546001600160a01b03166102b5811515610ee5565b90600182811c92168015610f7f575b6020831014610f6957565b634e487b7160e01b600052602260045260246000fd5b91607f1691610f5e565b15610f9057565b60405162461bcd60e51b815260206004820152603e60248201527f4552433732313a20617070726f76652063616c6c6572206973206e6f7420746f60448201527f6b656e206f776e6572206e6f7220617070726f76656420666f7220616c6c00006064820152608490fd5b61100c61100782611410565b610ee5565b6000908152600560205260409020546001600160a01b031690565b1561102e57565b60405162461bcd60e51b815260206004820152602e60248201527f4552433732313a2063616c6c6572206973206e6f7420746f6b656e206f776e6560448201526d1c881b9bdc88185c1c1c9bdd995960921b6064820152608490fd5b6040519061109782610aa5565b60008252565b916110c993916110c4936110b46106748433611142565b6110bf838383611269565b61158f565b61111e565b565b60809060208152603260208201527f4552433732313a207472616e7366657220746f206e6f6e20455243373231526560408201527131b2b4bb32b91034b6b83632b6b2b73a32b960711b60608201520190565b1561112557565b60405162461bcd60e51b81528061113e600482016110cb565b0390fd5b6001600160a01b038061115484610f2c565b16928183169284841494851561118a575b50508315611174575b50505090565b61118091929350610ffb565b161438808061116e565b60ff929550906111a69160005260066020526040600020610ece565b5416923880611165565b156111b757565b60405162461bcd60e51b8152602060048201526024808201527f4552433732313a207472616e7366657220746f20746865207a65726f206164646044820152637265737360e01b6064820152608490fd5b634e487b7160e01b600052601160045260246000fd5b60001981019190821161122d57565b611208565b906001820180921161122d57565b906002820180921161122d57565b906020820180921161122d57565b9190820180921161122d57565b61127283610f2c565b6001600160a01b039390828516908516819003611315576110c99484169061129b8215156111b0565b6112a483611368565b6112ad84610eb4565b6112b7815461121e565b90556112c285610eb4565b6112cc8154611232565b90556112eb856112e6856000526003602052604060002090565b610e95565b7fddf252ad1be2c89b69c2b068fc378daa952ba7f163c4a11628f55a4df523b3ef600080a4611a93565b60405162461bcd60e51b815260206004820152602560248201527f4552433732313a207472616e736665722066726f6d20696e636f72726563742060448201526437bbb732b960d91b6064820152608490fd5b600081815260056020526040812080546001600160a01b03191690556001600160a01b0361139583610f2c565b167f8c5be1e5ebec7d5bd14f71427d1e84f3dd0314c0f7b2291e5b200ac8c7c3b9258280a4565b8160005260056020526113d3816040600020610e95565b6001600160a01b03806113e584610f2c565b169116907f8c5be1e5ebec7d5bd14f71427d1e84f3dd0314c0f7b2291e5b200ac8c7c3b925600080a4565b6000908152600360205260409020546001600160a01b0316151590565b908160209103126101e957516102b5816101d7565b6102b5939260809260018060a01b03168252600060208301526040820152816060820152019061027f565b6001600160a01b0391821681529116602082015260408101919091526080606082018190526102b59291019061027f565b3d156114c9573d906114af82610afc565b916114bd6040519384610adb565b82523d6000602084013e565b606090565b909190803b1561158757611500602091600093604051948580948193630a85bd0160e11b998a84523360048501611442565b03926001600160a01b03165af160009181611557575b506115495761152361149e565b805190816115445760405162461bcd60e51b81528061113e600482016110cb565b602001fd5b6001600160e01b0319161490565b61157991925060203d8111611580575b6115718183610adb565b81019061142d565b9038611516565b503d611567565b505050600190565b92909190823b156115c257611500926020926000604051809681958294630a85bd0160e11b9a8b8552336004860161146d565b50505050600190565b906115de6020928281519485920161025c565b0190565b6115ee61100782611410565b600090808252602060078152604083206040518481959083549061161182610f4f565b948585526001928784821691826000146116d1575050600114611695575b50505061163e92500384610adb565b61164661108a565b9283511561168e5780516116605750506102b591506116f5565b6102b592506116809061167a6040519586948501906115cb565b906115cb565b03601f198101835282610adb565b9250505090565b869350819291528282205b8583106116b957505061163e935082010138808061162f565b8054838a0185015288945086939092019181016116a0565b93509450505061163e94915060ff191682840152151560051b82010138808061162f565b61100761170191611410565b600060405161170f81610aa5565b5260405161171c81610aa5565b6000815290565b600019811461122d5760010190565b1561173957565b60405162461bcd60e51b8152602060048201526017602482015276082d8d84084cae4c24086eac4e6409ad2dce8cac840745604b1b6044820152606490fd5b9060405161178581610aa5565b600081526001600160a01b038316918215611856576117a381611410565b6118115783816110c4946117b96110c997610eb4565b6117c38154611232565b90556117dd836112e6846000526003602052604060002090565b60007fddf252ad1be2c89b69c2b068fc378daa952ba7f163c4a11628f55a4df523b3ef8180a461180c81611a34565b6114ce565b60405162461bcd60e51b815260206004820152601c60248201527f4552433732313a20746f6b656e20616c7265616479206d696e746564000000006044820152606490fd5b606460405162461bcd60e51b815260206004820152602060248201527f4552433732313a206d696e7420746f20746865207a65726f20616464726573736044820152fd5b90601f81116118a857505050565b600091825260208220906020601f850160051c830194106118e4575b601f0160051c01915b8281106118d957505050565b8181556001016118cd565b90925082906118c4565b9190916118fa81611410565b156119d8576000526020600781526040600020908351906001600160401b038211610aa0576119338261192d8554610f4f565b8561189a565b80601f831160011461196d575081929394600092611962575b50508160011b916000199060031b1c1916179055565b01519050388061194c565b90601f1983169561198385600052602060002090565b926000905b8882106119c0575050836001959697106119a7575b505050811b019055565b015160001960f88460031b161c1916905538808061199d565b80600185968294968601518155019501930190611988565b60405162461bcd60e51b815260206004820152602e60248201527f45524337323155524953746f726167653a2055524920736574206f66206e6f6e60448201526d32bc34b9ba32b73a103a37b5b2b760911b6064820152608490fd5b600c546001600160a01b039081169190823b156101e957604460009283604051958694859363af34370960e01b85528360048601521660248401525af18015611a8757611a7e5750565b6110c990610a8d565b6040513d6000823e3d90fd5b600c546001600160a01b03908116803b156101e9576000928360449284604051978896879563af34370960e01b87521660048601521660248401525af18015611a8757611a7e5750565b61167a6102b5604051611aef81610ac0565b601d81527f646174613a6170706c69636174696f6e2f6a736f6e3b6261736536342c000000602082015260405190683d913730b6b2911d1160b91b6020830152672132b9309021bab160c11b60298301527f222c20226465736372697074696f6e223a22412057696c64204265726120437560318301527f62205368656464696e6720697473202446555a5a222c2022617474726962757460518301527032b9911d111116101134b6b0b3b2911d1160791b6071830152611ce9611cd983611cc0611cb26082830160ca907f68747470733a2f2f69766f72792d6669657263652d6361742d3633392e6d797081527f696e6174612e636c6f75642f697066732f516d656b3459654275414e6b38796e60208201527f7066583156623878776e775274535966644763324546664b5a5361543756353f60408201527f5f676c3d312a3169707a7862792a5f67612a4e6a4d774f544d304e4455314c6a60608201527f45334d4445354e7a49314e6a552e2a5f67615f35524d505847313454452a4d5460808201527f63774d6a51774d6a63354d6934314c6a45754d5463774d6a51774d7a49304e5360a0820152691a3d27349a3ba635209760b11b60c08201520190565b61227d60f01b815260020190565b0393611cd4601f1995868101835282610adb565b611dae565b60405195869360208501906115cb565b03908101835282610adb565b60405190606082018281106001600160401b03821117610aa057604052604082527f6768696a6b6c6d6e6f707172737475767778797a303132333435363738392b2f6040837f4142434445464748494a4b4c4d4e4f505152535455565758595a61626364656660208201520152565b600281901b91906001600160fe1b0381160361122d57565b90611d8682610afc565b611d936040519182610adb565b8281528092611da4601f1991610afc565b0190602036910137565b805115611e8e57611dbd611cf5565b611dd9611dd4611dcd8451611240565b6003900490565b611d64565b91611deb611de68461124e565b611d7c565b92835280815182019060208501935b828210611e3c57505050600390510680600114611e2b57600214611e1c575090565b603d60f81b6000199091015290565b50613d3d60f01b6001199091015290565b9091936004906003809401938451600190603f9082828260121c16880101518553828282600c1c16880101518386015382828260061c1688010151600286015316850101519082015301939190611dfa565b506102b561108a56fea26469706673582212200455ffc3bc87a6a593fdd1d713fad4ace19e970bebca795440474553bd6c84cd64736f6c63430008130033",
  "linkReferences": {},
  "deployedLinkReferences": {}
}