{
  "_format": "hh-sol-artifact-1",
  "contractName": "BeraFarm",
  "sourceName": "contracts/BeraFarm.sol",
  "abi": [
    {
      "inputs": [
        {
          "internalType": "address",
          "name": "_honey",
          "type": "address"
        },
        {
          "internalType": "address",
          "name": "_bexAddress",
          "type": "address"
        },
        {
          "internalType": "address",
          "name": "_pool",
          "type": "address"
        },
        {
          "internalType": "address",
          "name": "_treasury",
          "type": "address"
        },
        {
          "internalType": "uint256",
          "name": "_dailyInterest",
          "type": "uint256"
        },
        {
          "internalType": "uint256",
          "name": "_claimTaxFuzz",
          "type": "uint256"
        },
        {
          "internalType": "uint256",
          "name": "_bondDiscount",
          "type": "uint256"
        },
        {
          "internalType": "uint256",
          "name": "_maxSupplyForHoney",
          "type": "uint256"
        },
        {
          "internalType": "uint256",
          "name": "_maxSupplyFirstBatch",
          "type": "uint256"
        },
        {
          "internalType": "uint256",
          "name": "_limitBeforeEmissions",
          "type": "uint256"
        },
        {
          "internalType": "uint256",
          "name": "_limitBeforeFullTokenTrading",
          "type": "uint256"
        },
        {
          "internalType": "uint256",
          "name": "_maxCubsPerWallet",
          "type": "uint256"
        }
      ],
      "stateMutability": "nonpayable",
      "type": "constructor"
    },
    {
      "anonymous": false,
      "inputs": [
        {
          "indexed": false,
          "internalType": "address",
          "name": "sender",
          "type": "address"
        },
        {
          "indexed": false,
          "internalType": "uint256",
          "name": "compoundCost",
          "type": "uint256"
        }
      ],
      "name": "BeraCubCompounded",
      "type": "event"
    },
    {
      "anonymous": false,
      "inputs": [
        {
          "indexed": false,
          "internalType": "address",
          "name": "sender",
          "type": "address"
        },
        {
          "indexed": false,
          "internalType": "uint256",
          "name": "amountOfCubs",
          "type": "uint256"
        }
      ],
      "name": "BeraCubsAwarded",
      "type": "event"
    },
    {
      "anonymous": false,
      "inputs": [
        {
          "indexed": false,
          "internalType": "address",
          "name": "sender",
          "type": "address"
        },
        {
          "indexed": false,
          "internalType": "uint256",
          "name": "amountOfCubs",
          "type": "uint256"
        },
        {
          "indexed": false,
          "internalType": "uint256",
          "name": "transactionTotal",
          "type": "uint256"
        }
      ],
      "name": "BeraCubsBonded",
      "type": "event"
    },
    {
      "anonymous": false,
      "inputs": [
        {
          "indexed": false,
          "internalType": "address",
          "name": "sender",
          "type": "address"
        },
        {
          "indexed": false,
          "internalType": "uint256",
          "name": "amountOfCubs",
          "type": "uint256"
        },
        {
          "indexed": false,
          "internalType": "uint256",
          "name": "transactionTotal",
          "type": "uint256"
        }
      ],
      "name": "BoughtBeraCubsFuzz",
      "type": "event"
    },
    {
      "anonymous": false,
      "inputs": [
        {
          "indexed": false,
          "internalType": "address",
          "name": "sender",
          "type": "address"
        },
        {
          "indexed": false,
          "internalType": "uint256",
          "name": "amountOfCubs",
          "type": "uint256"
        },
        {
          "indexed": false,
          "internalType": "uint256",
          "name": "transactionTotal",
          "type": "uint256"
        }
      ],
      "name": "BoughtBeraCubsHoney",
      "type": "event"
    },
    {
      "anonymous": false,
      "inputs": [
        {
          "indexed": true,
          "internalType": "contract IERC20",
          "name": "token",
          "type": "address"
        },
        {
          "indexed": false,
          "internalType": "address",
          "name": "to",
          "type": "address"
        },
        {
          "indexed": false,
          "internalType": "uint256",
          "name": "amount",
          "type": "uint256"
        }
      ],
      "name": "IERC20TransferEvent",
      "type": "event"
    },
    {
      "anonymous": false,
      "inputs": [
        {
          "indexed": true,
          "internalType": "contract IERC20",
          "name": "token",
          "type": "address"
        },
        {
          "indexed": false,
          "internalType": "address",
          "name": "from",
          "type": "address"
        },
        {
          "indexed": false,
          "internalType": "address",
          "name": "to",
          "type": "address"
        },
        {
          "indexed": false,
          "internalType": "uint256",
          "name": "amount",
          "type": "uint256"
        }
      ],
      "name": "IERC20TransferFromEvent",
      "type": "event"
    },
    {
      "anonymous": false,
      "inputs": [
        {
          "indexed": true,
          "internalType": "address",
          "name": "previousOwner",
          "type": "address"
        },
        {
          "indexed": true,
          "internalType": "address",
          "name": "newOwner",
          "type": "address"
        }
      ],
      "name": "OwnershipTransferred",
      "type": "event"
    },
    {
      "anonymous": false,
      "inputs": [
        {
          "indexed": false,
          "internalType": "address",
          "name": "sender",
          "type": "address"
        },
        {
          "indexed": false,
          "internalType": "uint256",
          "name": "rewardAfterTax",
          "type": "uint256"
        },
        {
          "indexed": false,
          "internalType": "uint256",
          "name": "tax",
          "type": "uint256"
        }
      ],
      "name": "RewardsClaimed",
      "type": "event"
    },
    {
      "stateMutability": "payable",
      "type": "fallback"
    },
    {
      "inputs": [
        {
          "internalType": "address",
          "name": "_address",
          "type": "address"
        },
        {
          "internalType": "uint256",
          "name": "_amount",
          "type": "uint256"
        }
      ],
      "name": "awardBeraCubs",
      "outputs": [],
      "stateMutability": "nonpayable",
      "type": "function"
    },
    {
      "inputs": [],
      "name": "baseLineCompoundCost",
      "outputs": [
        {
          "internalType": "uint256",
          "name": "",
          "type": "uint256"
        }
      ],
      "stateMutability": "view",
      "type": "function"
    },
    {
      "inputs": [],
      "name": "beraCubNftContract",
      "outputs": [
        {
          "internalType": "contract IBERACUB",
          "name": "",
          "type": "address"
        }
      ],
      "stateMutability": "view",
      "type": "function"
    },
    {
      "inputs": [
        {
          "internalType": "uint256",
          "name": "_amount",
          "type": "uint256"
        }
      ],
      "name": "bondBeraCubs",
      "outputs": [],
      "stateMutability": "nonpayable",
      "type": "function"
    },
    {
      "inputs": [],
      "name": "bondDiscount",
      "outputs": [
        {
          "internalType": "uint256",
          "name": "",
          "type": "uint256"
        }
      ],
      "stateMutability": "view",
      "type": "function"
    },
    {
      "inputs": [],
      "name": "bondingClosedOwner",
      "outputs": [
        {
          "internalType": "bool",
          "name": "",
          "type": "bool"
        }
      ],
      "stateMutability": "view",
      "type": "function"
    },
    {
      "inputs": [
        {
          "internalType": "uint256",
          "name": "_amount",
          "type": "uint256"
        }
      ],
      "name": "buyBeraCubsFuzz",
      "outputs": [],
      "stateMutability": "nonpayable",
      "type": "function"
    },
    {
      "inputs": [
        {
          "internalType": "uint256",
          "name": "_amount",
          "type": "uint256"
        }
      ],
      "name": "buyBeraCubsHoney",
      "outputs": [],
      "stateMutability": "nonpayable",
      "type": "function"
    },
    {
      "inputs": [],
      "name": "buyBeraCubsHoneyOpen",
      "outputs": [
        {
          "internalType": "bool",
          "name": "",
          "type": "bool"
        }
      ],
      "stateMutability": "view",
      "type": "function"
    },
    {
      "inputs": [],
      "name": "buyBeraCubsOpenFuzz",
      "outputs": [
        {
          "internalType": "bool",
          "name": "",
          "type": "bool"
        }
      ],
      "stateMutability": "view",
      "type": "function"
    },
    {
      "inputs": [],
      "name": "calculateTax",
      "outputs": [
        {
          "internalType": "uint256",
          "name": "",
          "type": "uint256"
        }
      ],
      "stateMutability": "nonpayable",
      "type": "function"
    },
    {
      "inputs": [],
      "name": "claim",
      "outputs": [],
      "stateMutability": "nonpayable",
      "type": "function"
    },
    {
      "inputs": [],
      "name": "claimTaxFuzz",
      "outputs": [
        {
          "internalType": "uint256",
          "name": "",
          "type": "uint256"
        }
      ],
      "stateMutability": "view",
      "type": "function"
    },
    {
      "inputs": [],
      "name": "closeBonding",
      "outputs": [],
      "stateMutability": "nonpayable",
      "type": "function"
    },
    {
      "inputs": [],
      "name": "closeBuyBeraCubsHoney",
      "outputs": [],
      "stateMutability": "nonpayable",
      "type": "function"
    },
    {
      "inputs": [],
      "name": "closeEmissionsOwner",
      "outputs": [],
      "stateMutability": "nonpayable",
      "type": "function"
    },
    {
      "inputs": [],
      "name": "closeFuzzSaleOwner",
      "outputs": [],
      "stateMutability": "nonpayable",
      "type": "function"
    },
    {
      "inputs": [],
      "name": "compoundBeraCubs",
      "outputs": [],
      "stateMutability": "nonpayable",
      "type": "function"
    },
    {
      "inputs": [],
      "name": "currentDailyRewards",
      "outputs": [
        {
          "internalType": "uint256",
          "name": "",
          "type": "uint256"
        }
      ],
      "stateMutability": "view",
      "type": "function"
    },
    {
      "inputs": [],
      "name": "dailyInterest",
      "outputs": [
        {
          "internalType": "uint256",
          "name": "",
          "type": "uint256"
        }
      ],
      "stateMutability": "view",
      "type": "function"
    },
    {
      "inputs": [],
      "name": "emissionsClosedOwner",
      "outputs": [
        {
          "internalType": "bool",
          "name": "",
          "type": "bool"
        }
      ],
      "stateMutability": "view",
      "type": "function"
    },
    {
      "inputs": [],
      "name": "emissionsStarted",
      "outputs": [
        {
          "internalType": "bool",
          "name": "",
          "type": "bool"
        }
      ],
      "stateMutability": "view",
      "type": "function"
    },
    {
      "inputs": [
        {
          "internalType": "uint256",
          "name": "",
          "type": "uint256"
        }
      ],
      "name": "farmersAddresses",
      "outputs": [
        {
          "internalType": "address",
          "name": "",
          "type": "address"
        }
      ],
      "stateMutability": "view",
      "type": "function"
    },
    {
      "inputs": [],
      "name": "fuzz",
      "outputs": [
        {
          "internalType": "contract IFUZZTOKEN",
          "name": "",
          "type": "address"
        }
      ],
      "stateMutability": "view",
      "type": "function"
    },
    {
      "inputs": [],
      "name": "getBondCost",
      "outputs": [
        {
          "internalType": "uint256",
          "name": "",
          "type": "uint256"
        }
      ],
      "stateMutability": "view",
      "type": "function"
    },
    {
      "inputs": [
        {
          "internalType": "address",
          "name": "_address",
          "type": "address"
        }
      ],
      "name": "getFarmerByAddress",
      "outputs": [
        {
          "components": [
            {
              "internalType": "bool",
              "name": "exists",
              "type": "bool"
            },
            {
              "internalType": "uint256",
              "name": "beraCubsBonded",
              "type": "uint256"
            },
            {
              "internalType": "uint256",
              "name": "beraCubsCompounded",
              "type": "uint256"
            },
            {
              "internalType": "uint256",
              "name": "claimsFuzz",
              "type": "uint256"
            },
            {
              "internalType": "uint256",
              "name": "lastUpdate",
              "type": "uint256"
            }
          ],
          "internalType": "struct BeraFarm.Farmer",
          "name": "",
          "type": "tuple"
        }
      ],
      "stateMutability": "view",
      "type": "function"
    },
    {
      "inputs": [],
      "name": "getFuzzPrice",
      "outputs": [
        {
          "internalType": "uint256",
          "name": "",
          "type": "uint256"
        }
      ],
      "stateMutability": "view",
      "type": "function"
    },
    {
      "inputs": [
        {
          "internalType": "uint256",
          "name": "totalSupplyBeforeAmount",
          "type": "uint256"
        },
        {
          "internalType": "uint256",
          "name": "totalSupplyPlusAmount",
          "type": "uint256"
        },
        {
          "internalType": "uint256",
          "name": "_amount",
          "type": "uint256"
        }
      ],
      "name": "getHoneyBuyTransactionCost",
      "outputs": [
        {
          "internalType": "uint256",
          "name": "",
          "type": "uint256"
        }
      ],
      "stateMutability": "view",
      "type": "function"
    },
    {
      "inputs": [
        {
          "internalType": "address",
          "name": "user",
          "type": "address"
        }
      ],
      "name": "getOwnedBeraCubs",
      "outputs": [
        {
          "internalType": "uint256",
          "name": "",
          "type": "uint256"
        }
      ],
      "stateMutability": "view",
      "type": "function"
    },
    {
      "inputs": [],
      "name": "getTaxEstimate",
      "outputs": [
        {
          "internalType": "uint256",
          "name": "",
          "type": "uint256"
        }
      ],
      "stateMutability": "view",
      "type": "function"
    },
    {
      "inputs": [],
      "name": "getTotalBeraCubs",
      "outputs": [
        {
          "internalType": "uint256",
          "name": "",
          "type": "uint256"
        }
      ],
      "stateMutability": "view",
      "type": "function"
    },
    {
      "inputs": [
        {
          "internalType": "address",
          "name": "_user",
          "type": "address"
        }
      ],
      "name": "getTotalClaimable",
      "outputs": [
        {
          "internalType": "uint256",
          "name": "",
          "type": "uint256"
        }
      ],
      "stateMutability": "view",
      "type": "function"
    },
    {
      "inputs": [
        {
          "internalType": "address",
          "name": "_user",
          "type": "address"
        }
      ],
      "name": "getWalletCompoundCost",
      "outputs": [
        {
          "internalType": "uint256",
          "name": "",
          "type": "uint256"
        }
      ],
      "stateMutability": "view",
      "type": "function"
    },
    {
      "inputs": [],
      "name": "honeyCostFirstBatch",
      "outputs": [
        {
          "internalType": "uint256",
          "name": "",
          "type": "uint256"
        }
      ],
      "stateMutability": "view",
      "type": "function"
    },
    {
      "inputs": [],
      "name": "honeyCostSecondBatch",
      "outputs": [
        {
          "internalType": "uint256",
          "name": "",
          "type": "uint256"
        }
      ],
      "stateMutability": "view",
      "type": "function"
    },
    {
      "inputs": [],
      "name": "isLive",
      "outputs": [
        {
          "internalType": "bool",
          "name": "",
          "type": "bool"
        }
      ],
      "stateMutability": "view",
      "type": "function"
    },
    {
      "inputs": [],
      "name": "limitBeforeEmissions",
      "outputs": [
        {
          "internalType": "uint256",
          "name": "",
          "type": "uint256"
        }
      ],
      "stateMutability": "view",
      "type": "function"
    },
    {
      "inputs": [],
      "name": "limitBeforeFullTokenTrading",
      "outputs": [
        {
          "internalType": "uint256",
          "name": "",
          "type": "uint256"
        }
      ],
      "stateMutability": "view",
      "type": "function"
    },
    {
      "inputs": [],
      "name": "maxAllowedCompoundCost",
      "outputs": [
        {
          "internalType": "uint256",
          "name": "",
          "type": "uint256"
        }
      ],
      "stateMutability": "view",
      "type": "function"
    },
    {
      "inputs": [],
      "name": "maxCompoundCostSoFar",
      "outputs": [
        {
          "internalType": "uint256",
          "name": "",
          "type": "uint256"
        }
      ],
      "stateMutability": "view",
      "type": "function"
    },
    {
      "inputs": [],
      "name": "maxCubsPerWallet",
      "outputs": [
        {
          "internalType": "uint256",
          "name": "",
          "type": "uint256"
        }
      ],
      "stateMutability": "view",
      "type": "function"
    },
    {
      "inputs": [],
      "name": "maxSupplyFirstBatch",
      "outputs": [
        {
          "internalType": "uint256",
          "name": "",
          "type": "uint256"
        }
      ],
      "stateMutability": "view",
      "type": "function"
    },
    {
      "inputs": [],
      "name": "maxSupplyForHoney",
      "outputs": [
        {
          "internalType": "uint256",
          "name": "",
          "type": "uint256"
        }
      ],
      "stateMutability": "view",
      "type": "function"
    },
    {
      "inputs": [],
      "name": "openBonding",
      "outputs": [],
      "stateMutability": "nonpayable",
      "type": "function"
    },
    {
      "inputs": [],
      "name": "openBuyBeraCubsHoney",
      "outputs": [],
      "stateMutability": "nonpayable",
      "type": "function"
    },
    {
      "inputs": [],
      "name": "openEmissionsOwner",
      "outputs": [],
      "stateMutability": "nonpayable",
      "type": "function"
    },
    {
      "inputs": [],
      "name": "openFuzzSaleOwner",
      "outputs": [],
      "stateMutability": "nonpayable",
      "type": "function"
    },
    {
      "inputs": [],
      "name": "owner",
      "outputs": [
        {
          "internalType": "address",
          "name": "",
          "type": "address"
        }
      ],
      "stateMutability": "view",
      "type": "function"
    },
    {
      "inputs": [],
      "name": "pool",
      "outputs": [
        {
          "internalType": "address",
          "name": "",
          "type": "address"
        }
      ],
      "stateMutability": "view",
      "type": "function"
    },
    {
      "inputs": [],
      "name": "renounceOwnership",
      "outputs": [],
      "stateMutability": "nonpayable",
      "type": "function"
    },
    {
      "inputs": [
        {
          "internalType": "uint256",
          "name": "newDiscount",
          "type": "uint256"
        }
      ],
      "name": "setBondDiscount",
      "outputs": [],
      "stateMutability": "nonpayable",
      "type": "function"
    },
    {
      "inputs": [
        {
          "internalType": "address",
          "name": "_beraCubNftContract",
          "type": "address"
        }
      ],
      "name": "setCubNFTContract",
      "outputs": [],
      "stateMutability": "nonpayable",
      "type": "function"
    },
    {
      "inputs": [
        {
          "internalType": "uint256",
          "name": "_dailyInterest",
          "type": "uint256"
        }
      ],
      "name": "setDailyInterest",
      "outputs": [],
      "stateMutability": "nonpayable",
      "type": "function"
    },
    {
      "inputs": [
        {
          "internalType": "address",
          "name": "fuzzAddress",
          "type": "address"
        }
      ],
      "name": "setFuzzAddr",
      "outputs": [],
      "stateMutability": "nonpayable",
      "type": "function"
    },
    {
      "inputs": [
        {
          "internalType": "uint256",
          "name": "_claimTaxFuzz",
          "type": "uint256"
        }
      ],
      "name": "setFuzzTax",
      "outputs": [],
      "stateMutability": "nonpayable",
      "type": "function"
    },
    {
      "inputs": [
        {
          "internalType": "address",
          "name": "_fuzz",
          "type": "address"
        }
      ],
      "name": "setFuzzTokenAddress",
      "outputs": [],
      "stateMutability": "nonpayable",
      "type": "function"
    },
    {
      "inputs": [
        {
          "internalType": "bool",
          "name": "_isLive",
          "type": "bool"
        }
      ],
      "name": "setPlatformState",
      "outputs": [],
      "stateMutability": "nonpayable",
      "type": "function"
    },
    {
      "inputs": [
        {
          "internalType": "address",
          "name": "treasuryAddress",
          "type": "address"
        }
      ],
      "name": "setTreasuryAddr",
      "outputs": [],
      "stateMutability": "nonpayable",
      "type": "function"
    },
    {
      "inputs": [
        {
          "internalType": "address",
          "name": "newOwner",
          "type": "address"
        }
      ],
      "name": "transferOwnership",
      "outputs": [],
      "stateMutability": "nonpayable",
      "type": "function"
    },
    {
      "inputs": [],
      "name": "treasury",
      "outputs": [
        {
          "internalType": "address",
          "name": "",
          "type": "address"
        }
      ],
      "stateMutability": "view",
      "type": "function"
    },
    {
      "inputs": [
        {
          "internalType": "address",
          "name": "_from",
          "type": "address"
        },
        {
          "internalType": "address",
          "name": "_to",
          "type": "address"
        }
      ],
      "name": "updateClaimsOnTokenTransfer",
      "outputs": [],
      "stateMutability": "nonpayable",
      "type": "function"
    },
    {
      "stateMutability": "payable",
      "type": "receive"
    }
  ],
  "bytecode": "0x61014034620001d957601f62002fe638819003918201601f19168301916001600160401b03831184841017620001de5780849261018094604052833981010312620001d9576200004f81620001f4565b906200005e60208201620001f4565b6200006c60408301620001f4565b916200007b60608201620001f4565b9060808101519460a08201519560c083015160e0840151906101009889860151936101209889880151966101606101408a0151990151996000549c8d9360018060a01b03199485339116176000556040519e60018060a01b039485938492833391167f8be0079c531659141344cd1fd0a4f28419497f9722a3daafe3b4186f6b6457e0600080a360018055600654674563918244f4000060095583600160c01b92169064ffffffffff60d81b161717600655166080521683600454161760045516906005541617600555600755600855600a55875260a05260c05260e0528152612ddc92836200020a8439608051838181610e100152611911015260a0518381816112ed015261230e015260c051838181610c8c0152610ec7015260e051838181610efc0152611b4d0152518281816104fd01528181610d9f015281816111b60152611893015251818181610593015281816113280152611de80152f35b600080fd5b634e487b7160e01b600052604160045260246000fd5b51906001600160a01b0382168203620001d95756fe608060409080825260049182361015610020575b505050361561001e57005b005b600092833560e01c928363043fb5111461200d5750826305c9601014611d1c57826306b6cd6514611ced5782630867782614611cc657826316f0115b14611c9d578263199f4c9914611c745782631c27a2ce14611bb55782631fc1ba4c14611b7057826323471e2d14611b3557826323900c1014611841578263267e8ab61461181b5782632f85d8cb146117fe578263357c8acd1461179557826335a27963146117725782633a9e91f8146116db5782634393bbde146116be5782634ce3d284146113ce5782634e71d92d146114df5782635adf0021146114b85782635ebcd432146114895782635f400b951461146057826361d027b31461143757826362f18a291461141557826368b37300146113ce5782636c96764b14611231578263715018a614611374578263786809ad1461134b5782637c84fec2146113105782637d491391146112d55782637fd05b42146112ac578263803355741461128557826381c5ca5f1461125e5782638da5cb5b146112365782639650ca08146112315782639ef78b8814611202578263a045c739146111d9578263a601bf241461119e578263a72c6ec51461117a578263a7e05b9c14611135578263a9d88f2514610d2b578263af34370914610cf3578263b8f7a66514610ccc578263b9b2735c14610caf578263bbe7b24b14610c74578263bdadf5be14610bda578263bec8203414610bb8578263bfeaa07114610b76578263c70f4dbb14610a34578263c9f9858614610a15578263d07b26ba1461090b578263e3b57275146108c5578263e7438d1d14610878578263e7bf74ce146104aa578263e8ee55a21461048d578263e951e3111461045e578263f08818df1461043f578263f2fde38b1461037557508163f6185e221461034e578163f9caa5831461032b57508063fa0b5d96146102fc5763fa804b8e146102d1578080610013565b346102f957806003193601126102f9576102e9612093565b6006805460ff60a81b1916905580f35b80fd5b50346102f957806003193601126102f957610315612093565b6006805460ff60a81b1916600160a81b17905580f35b90503461034a578160031936011261034a57602090600a549051908152f35b5080fd5b90503461034a578160031936011261034a5760209060ff60065460d01c1690519015158152f35b9091503461043b57602036600319011261043b57610391612029565b9061039a612093565b6001600160a01b039182169283156103e95750506000548260018060a01b0319821617600055167f8be0079c531659141344cd1fd0a4f28419497f9722a3daafe3b4186f6b6457e0600080a380f35b906020608492519162461bcd60e51b8352820152602660248201527f4f776e61626c653a206e6577206f776e657220697320746865207a65726f206160448201526564647265737360d01b6064820152fd5b8280fd5b83823461034a578160031936011261034a576020906009549051908152f35b9083346102f95760603660031901126102f95750610486602092604435906024359035612309565b9051908152f35b83823461034a578160031936011261034a576020906104866125e1565b9091503461043b57602090816003193601126106e0578035906104d2600260015414156120eb565b600260015560ff6006546104ea828260a01c16612137565b60c01c1615610835576104fb6125e1565b7f0000000000000000000000000000000000000000000000000000000000000000116107e15760025484516370a0823160e01b8082523384830152946001600160a01b03929091908316908281602481855afa9081156107aa5789916107b4575b508284600354169760248a51809a81938252338a8301525afa9687156107aa578997610774575b50610591866105b9926121de565b7f00000000000000000000000000000000000000000000000000000000000000001015612201565b6105c5856009546122b6565b80961061073e579081889493923b1561073a5784885180926311bc1c2160e11b82528183816105f78c338c8401612243565b03925af190811561071c578591610726575b5050816003541681885180926323b872dd60e01b82528188816106308d30338d8501612276565b03925af1801561071c576106ee575b505060035416803b1561043b5784839161066f93838951809681958294632770a7eb60e21b845230908401612243565b03925af180156106e4576106cc575b50506106c27f4812ad7b572a382c624953372846efc0e2d33a7a4330422b8670d3f437f85179936106ae33612909565b6106b7336129f4565b519283923384612298565b0390a16001805580f35b6106d590612179565b6106e057833861067e565b8380fd5b85513d84823e3d90fd5b8161070d92903d10610715575b61070581836121bd565b81019061225e565b50388061063f565b503d6106fb565b88513d87823e3d90fd5b61072f90612179565b6106e0578338610609565b8480fd5b865162461bcd60e51b8152808501839052601060248201526f2737ba1032b737bab3b41012232aad2d60811b6044820152606490fd5b9096508281813d83116107a3575b61078c81836121bd565b8101031261079e575195610591610583565b600080fd5b503d610782565b88513d8b823e3d90fd5b90508281813d83116107da575b6107cb81836121bd565b8101031261079e57513861055c565b503d6107c1565b835162461bcd60e51b8152908101839052602860248201527f4e6f7420656e6f756768204d696e74656420546f2050757263686173652057696044820152673a341012233abd3d60c11b6064820152608490fd5b835162461bcd60e51b8152908101839052601d60248201527f4275792042657261204375627320697320636c6f736564206f776e65720000006044820152606490fd5b83346102f957806003193601126102f9575060075490678ac7230489e8000091808302928304036108b0575060646020925191048152f35b601190634e487b7160e01b6000525260246000fd5b83903461034a57602036600319011261034a573580151580910361034a576108eb612093565b6006805460ff60a01b191660a09290921b60ff60a01b1691909117905580f35b9083346102f957806003193601126102f95760025482516370a0823160e01b81523381860152602094918590829060249082906001600160a01b03165afa908115610a0b5783916109de575b50678ac7230489e80000908181029181830414901517156109cb57610486926003856283d6006109af6064966109a96109966109c198600754906122b6565b91338852600c8d5285882001544261242e565b906122b6565b0492338152600c8952200154906121de565b04600854906122b6565b634e487b7160e01b835260118252602483fd5b90508481813d8311610a04575b6109f581836121bd565b8101031261079e575185610957565b503d6109eb565b84513d85823e3d90fd5b83823461034a578160031936011261034a576020906008549051908152f35b9091503461043b578160031936011261043b57610a4f612029565b8360243592610a5c612093565b60025485516370a0823160e01b81526001600160a01b038581168483015290911690602081602481855afa8015610b6c5786918591610b31575b50610aa491610591916121de565b803b1561043b578483918583610ace958a51968795869485936311bc1c2160e11b85528401612243565b03925af180156106e457610b1d575b5050610b177f276975ac50865cc07d64e6842a8cfd9ce5c2bd1ff85a4712560602beb7f75ea493610b0d836129f4565b5192839283612243565b0390a180f35b610b2690612179565b6106e0578338610add565b945050506020833d8211610b64575b81610b4d602093836121bd565b8101031261079e5791518692908590610aa4610a96565b3d9150610b40565b87513d86823e3d90fd5b9091503461043b57602036600319011261043b573591600b548310156102f95750610ba2602092612062565b905491519160018060a01b039160031b1c168152f35b83903461034a57602036600319011261034a57610bd3612093565b3560075580f35b91503461043b57602036600319011261043b578060a093610bf9612029565b610c016128de565b50600180871b03168152600c60205220815191610c1d836121a2565b60ff8254161515938484526001830154602085019081526080600285015492848701938452600386015495606088019687520154950194855282519586525160208601525190840152516060830152516080820152f35b83823461034a578160031936011261034a57602090517f00000000000000000000000000000000000000000000000000000000000000008152f35b83823461034a578160031936011261034a576020906104866125b7565b83823461034a578160031936011261034a5760209060ff60065460a01c1690519015158152f35b83823461034a573660031901126102f957610d0c612029565b6024356001600160a01b038116810361079e57610d289161243b565b80f35b9091503461043b57602090816003193601126106e057803590610d53600260015414156120eb565b600260015560ff600654610d6b828260a01c16612137565b60b01c16156110f8576002546001600160a01b039081169384156110bf57610d916125e1565b90610d9c85836121de565b917f000000000000000000000000000000000000000000000000000000000000000083116110615790889493929188519082826024816370a0823160e01b9c8d8252338b8301525afa8015611021578892889161102b575b508291610e08610591610e0d9588946121de565b612309565b967f0000000000000000000000000000000000000000000000000000000000000000908951908152338682015282816024818886165afa9081156110215789938892610fe9575b505090610e6783610e74949310156122c9565b8460055416903390612b32565b8160025416803b1561073a5784885180926311bc1c2160e11b8252818381610e9f8c338c8401612243565b03925af190811561071c578591610fd5575b5050610ebc33612909565b610ec5336129f4565b7f000000000000000000000000000000000000000000000000000000000000000081101580610fc5575b80610fb5575b610f9d575b7f00000000000000000000000000000000000000000000000000000000000000001115610f55575b5050506106c27f4cd4f1ef3b195f4ff5e4a556b596af7ceae6333d310e1dce3fc781db35caa4c293519283923384612298565b6003541690813b1561043b5785516348f5eeeb60e01b81529183918391829084905af180156106e457610f89575b80610f22565b610f9290612179565b6106e0578338610f83565b6006805460ff60c81b1916600160c81b179055610efa565b5060ff60065460d01c1615610ef5565b5060ff60065460c81c1615610eef565b610fde90612179565b6106e0578338610eb1565b92935096505085813d831161101a575b61100381836121bd565b8101031261079e57935188948791610e6783610e54565b503d610ff9565b8a513d89823e3d90fd5b92505095508181813d831161105a575b61104581836121bd565b8101031261079e575189958791610e0d610df4565b503d61103b565b875162461bcd60e51b8152808601839052603260248201527f486f6e65792042657261204375627320666f722024484f4e455920536f6c642060448201527127baba10313abc903bb4ba341012232aad2d60711b6064820152608490fd5b8260649187519162461bcd60e51b8352820152601460248201527310995c984810dd5888139195081b9bdd081cd95d60621b6044820152fd5b835162461bcd60e51b81529081018390526017602482015276109d5e4810995c984810dd589cc81a5cc818db1bdcd959604a1b6044820152606490fd5b83346102f95760203660031901126102f95761114f612029565b611157612093565b600580546001600160a01b0319166001600160a01b039290921691909117905580f35b83823461034a578160031936011261034a576020905168015af1d78b58c400008152f35b83823461034a578160031936011261034a57602090517f00000000000000000000000000000000000000000000000000000000000000008152f35b83346102f957806003193601126102f9576111f2612093565b6006805460ff60d01b1916905580f35b83346102f957806003193601126102f95761121b612093565b6006805460ff60c01b1916600160c01b17905580f35b61203f565b83823461034a578160031936011261034a57905490516001600160a01b039091168152602090f35b83823461034a578160031936011261034a5760209060ff60065460a81c1690519015158152f35b83823461034a578160031936011261034a5760209060ff60065460b81c1690519015158152f35b83346102f957806003193601126102f9576112c5612093565b6006805460ff60b01b1916905580f35b83823461034a578160031936011261034a57602090517f00000000000000000000000000000000000000000000000000000000000000008152f35b83823461034a578160031936011261034a57602090517f00000000000000000000000000000000000000000000000000000000000000008152f35b83823461034a578160031936011261034a5760035490516001600160a01b039091168152602090f35b83346102f957806003193601126102f95761138d612093565b600080546001600160a01b0319811682556001600160a01b03167f8be0079c531659141344cd1fd0a4f28419497f9722a3daafe3b4186f6b6457e08280a380f35b83346102f95760203660031901126102f957610d286113eb612029565b6113f3612093565b600380546001600160a01b0319166001600160a01b0392909216919091179055565b83903461034a57602036600319011261034a57611430612093565b3560085580f35b83823461034a578160031936011261034a5760055490516001600160a01b039091168152602090f35b83346102f957806003193601126102f957611479612093565b6006805460ff60c01b1916905580f35b83346102f957806003193601126102f9576114a2612093565b6006805460ff60b01b1916600160b01b17905580f35b83823461034a578160031936011261034a5760209060ff60065460c81c1690519015158152f35b9091503461043b578260031936011261043b57338352600c60205260ff8284205416156116615761150e6125b7565b90338452600c6020526003838520015490611529838361242e565b911561161e578490338252600c602052816003868220015560018060a01b038060035416803b156106e05783875180926340c10f1960e01b82528183816115738b338b8401612243565b03925af1908115610b6c57849161160a575b505060035416803b1561043b578483916115b593838951809681958294632770a7eb60e21b845233908401612243565b03925af180156106e4576115f6575b5050610b177fdacbdde355ba930696a362ea6738feb9f8bd52dfb3d81947558fd3217e23e32593519283923384612298565b6115ff90612179565b6106e05783386115c4565b61161390612179565b61043b578238611585565b606490602085519162461bcd60e51b8352820152601e60248201527f4e6f207265776172647320617661696c61626c6520666f7220636c61696d00006044820152fd5b6020608492519162461bcd60e51b8352820152603260248201527f53656e646572206d7573742062652072656769737465726564204265726120436044820152717562206661726d657220746f20636c61696d60701b6064820152fd5b83823461034a578160031936011261034a5760209061048661265e565b83823461034a576020928360031936011261043b57836116f9612029565b60025484516370a0823160e01b81526001600160a01b039283169481019490945283916024918391165afa9283156117675792611738575b5051908152f35b9091508281813d8311611760575b61175081836121bd565b8101031261079e57519083611731565b503d611746565b8251903d90823e3d90fd5b83823461034a578160031936011261034a5760209051678ac7230489e800008152f35b9091503461043b57602036600319011261043b578035916117b4612093565b604b83116117c4575050600a5580f35b906020606492519162461bcd60e51b83528201526014602482015273111a5cd8dbdd5b9d0818589bdd99481b1a5b5a5d60621b6044820152fd5b83823461034a578160031936011261034a576020906104866128a2565b83823461034a57602036600319011261034a5760209061048661183c612029565b6124da565b9091503461043b57602090816003193601126106e057803590611869600260015414156120eb565b600260015560ff600654611881828260a01c16612137565b60a81c16611af8576118916125e1565b7f000000000000000000000000000000000000000000000000000000000000000011611a9c578460018060a01b0391826002541692865186816024816370a0823160e01b9889825233888301525afa8015611a925786918591611a5b575b506118fd91610591916121de565b61190e856119096128a2565b6122b6565b957f000000000000000000000000000000000000000000000000000000000000000094885190815233848201528181602481868a165afa8015611a515788918691611a19575b50600c92916119649110156122c9565b3385525261197d86888520958360055416903390612b32565b60025416803b1561043b578483916119ab93838a518096819582946311bc1c2160e11b845233908401612243565b03925af18015611a0f576119fb575b50507fc00022e169fb4c78336e72f5b2fe0cd27a3b36fcd5ac78763c4d852b2e0fccba9360016106c292016119f08482546121de565b90556106b7336129f4565b611a0490612179565b61073a5784386119ba565b86513d84823e3d90fd5b928096508092508391503d8311611a4a575b611a3581836121bd565b8101031261079e57518893908790600c611954565b503d611a2b565b89513d87823e3d90fd5b945050508583813d8311611a8b575b611a7481836121bd565b8101031261079e57915187929085906118fd6118ef565b503d611a6a565b88513d86823e3d90fd5b835162461bcd60e51b8152908101839052603060248201527f426f6e64696e67207374696c6c20636c6f73656420706c65617365207075726360448201526f6861736520776974682024484f4e455960801b6064820152608490fd5b835162461bcd60e51b815290810183905260176024820152762137b73234b7339034b99031b637b9b2b21037bbb732b960491b6044820152606490fd5b83823461034a578160031936011261034a57602090517f00000000000000000000000000000000000000000000000000000000000000008152f35b83346102f95760203660031901126102f957611b8a612029565b611b92612093565b600280546001600160a01b0319166001600160a01b039290921691909117905580f35b9083346102f95760203660031901126102f9576001600160a01b03611bd8612029565b168152600c602052818120908251611bef816121a2565b825460ff16151581526001830154602082015260028301548482018190526003840154606083015292850154608090910152811580611c5e57674563918244f40000808402938404141715611c4b575060209250905b51908152f35b634e487b7160e01b815260118452602490fd5b50505060209150674563918244f4000090611c45565b83823461034a578160031936011261034a5760025490516001600160a01b039091168152602090f35b83823461034a578160031936011261034a5760065490516001600160a01b039091168152602090f35b83823461034a578160031936011261034a5760209060ff60065460b01c1690519015158152f35b83346102f957806003193601126102f957611d06612093565b6006805460ff60d01b1916600160d01b17905580f35b9091503461043b578260031936011261043b57600191611d406002845414156120eb565b6002835560ff60065460c81c1615611fb657611d5b336124da565b913385526020600c815282862060028101805491878301809311611fa357674563918244f400009384840297848904861485151715611f0657881015611f555760025487516370a0823160e01b815233888201526001600160a01b03929182908290602490829087165afa918215611f4b578c92611f19575b5050898101809111611f065790611e0e8b927f00000000000000000000000000000000000000000000000000000000000000001015612201565b611e17336129f4565b60025416803b1561034a57819060448b8a5194859384926311bc1c2160e11b8452338d85015260248401525af18015611efc57611ee8575b50600301611e5e87825461242e565b905555830190818411611ed5575091611eba91837ffee76474e5450a7243d4c77330ab82c1753e7c86702ddf79c07c0e8d15aa55d59468015af1d78b58c400001015611ec2575b50611eaf336129f4565b519182913383612243565b0390a1805580f35b600954811115611ea55760095538611ea5565b634e487b7160e01b865260119052602485fd5b98611ef56003929a612179565b9890611e4f565b87513d8c823e3d90fd5b634e487b7160e01b8b526011875260248bfd5b90809250813d8311611f44575b611f3081836121bd565b81010312611f4057513880611dd4565b8a80fd5b503d611f26565b89513d8e823e3d90fd5b8560849188519162461bcd60e51b83528201526024808201527f4e6f7420656e6f7567682070656e64696e67202446555a5a20746f20636f6d706044820152631bdd5b9960e21b6064820152fd5b634e487b7160e01b895260118552602489fd5b906020608492519162461bcd60e51b8352820152602b60248201527f436f6d706f756e64206e6f7420706f737369626c6520656d697373696f6e732060448201526a1b9bdd081cdd185c9d195960aa1b6064820152fd5b84903461034a578160031936011261034a576020906007548152f35b600435906001600160a01b038216820361079e57565b3461079e57600036600319011261079e576020604051674563918244f400008152f35b600b5481101561207d57600b60005260206000200190600090565b634e487b7160e01b600052603260045260246000fd5b6000546001600160a01b031633036120a757565b606460405162461bcd60e51b815260206004820152602060248201527f4f776e61626c653a2063616c6c6572206973206e6f7420746865206f776e65726044820152fd5b156120f257565b60405162461bcd60e51b815260206004820152601f60248201527f5265656e7472616e637947756172643a207265656e7472616e742063616c6c006044820152606490fd5b1561213e57565b60405162461bcd60e51b8152602060048201526013602482015272506c6174666f726d206973206f66666c696e6560681b6044820152606490fd5b6001600160401b03811161218c57604052565b634e487b7160e01b600052604160045260246000fd5b60a081019081106001600160401b0382111761218c57604052565b90601f801991011681019081106001600160401b0382111761218c57604052565b919082018092116121eb57565b634e487b7160e01b600052601160045260246000fd5b1561220857565b60405162461bcd60e51b815260206004820152601360248201527213585e0810995c984810dd589cc813dddb9959606a1b6044820152606490fd5b6001600160a01b039091168152602081019190915260400190565b9081602091031261079e5751801515810361079e5790565b6001600160a01b03918216815291166020820152604081019190915260600190565b604091949392606082019560018060a01b0316825260208201520152565b818102929181159184041417156121eb57565b156122d057565b60405162461bcd60e51b81526020600482015260116024820152704e6f7420656e6f7567682024484f4e455960781b6044820152606490fd5b6000917f0000000000000000000000000000000000000000000000000000000000000000809211801590818092612424575b15612363575050505050674563918244f40000908181029181830414901517156121eb575b90565b156123895750505050678ac7230489e80000908181029181830414901517156121eb5790565b8061241b575b61239b575b5050905090565b906123a59161242e565b678ac7230489e800009182820292828404148215171561240757506123cb90829361242e565b801580156123dc575b839250612394565b90919250674563918244f400008083029283041417156121eb576123ff916121de565b3880806123d4565b634e487b7160e01b81526011600452602490fd5b5081811161238f565b508383111561233b565b919082039182116121eb57565b6002549091906001600160a01b03908116330361247f5761245b82612909565b8216156124755761246e612473926129f4565b6129f4565b565b61247391506129f4565b60405162461bcd60e51b815260206004820152602d60248201527f4f6e6c7920426572612043756220636f6e74726163742063616e2063616c6c2060448201526c3a3434b990333ab731ba34b7b760991b6064820152608490fd5b6002546040516370a0823160e01b81526001600160a01b03928316600482018190526020939092849183916024918391165afa9081156125ab5760009161257e575b50678ac7230489e80000908181029181830414901517156121eb57612360926283d60061256a612551600c94600754906122b6565b856000528484526109a96004604060002001544261242e565b0492600052526003604060002001546121de565b908382813d83116125a4575b61259481836121bd565b810103126102f95750513861251c565b503d61258a565b6040513d6000823e3d90fd5b6125c0336129f4565b33600052600c602052612360606460036040600020015404600854906122b6565b6002546040516318160ddd60e01b815290602090829060049082906001600160a01b03165afa9081156125ab57600091612619575090565b906020823d821161263f575b81612632602093836121bd565b810103126102f957505190565b3d9150612625565b6001600160401b03811161218c5760051b60200190565b600480546006546040805163a747b93b60e01b81526001600160a01b0392831681860152919260249260009291839082908690829089165afa9485156128965783918496612788575b50508151908282018281106001600160401b0382111761277657835281526020018481528451909490156127645760200151935180516001101561276457810151908415158061275b575b156127215750670de0b6b3a76400009004938415612711575050500490565b634e487b7160e01b825260129052fd5b5162461bcd60e51b8152602081870152601681850152755265736572766573206e6f7420617661696c61626c6560501b6044820152606490fd5b508115156126f2565b5050634e487b7160e01b815260328452fd5b634e487b7160e01b8552604188528585fd5b915094503d8084833e61279b81836121bd565b81019482828703126106e05781516001600160401b03908181116128765783019287601f85011215612876578351936127d385612647565b946127e0875196876121bd565b808652602094858088019260051b840101928b8411612892578601915b83831061287a57505050508281015191821161287657019580601f8801121561073a57865161282b81612647565b976128388651998a6121bd565b81895283808a019260051b820101928311612872578301905b828210612863575050505038806126a7565b81518152908301908301612851565b8680fd5b8580fd5b82518281168103611f405781529186019186016127fd565b8980fd5b505051903d90823e3d90fd5b6128bf6128ad61265e565b670de0b6b3a7640000600954046122b6565b600a5460640390606482116121eb576064916128da916122b6565b0490565b604051906128eb826121a2565b60006080838281528260208201528260408201528260608201520152565b906129126128de565b506001600160a01b039182166000818152600c602052604081205490939060ff161561293f575b50509050565b6040519161294c836121a2565b6001835260208301858152604084019086825260608501928784526080860194888652600b54600160401b8110156129e0579160049798999161299784600160409601600b55612062565b819291549060031b9184831b921b19161790558152600c602052209551151560ff8019885416911617865551600186015551600285015551600384015551910155803880612939565b634e487b7160e01b8a52604160045260248afd5b60065460ff8160c81c1615908115612b24575b50612b08576002546040516370a0823160e01b81526001600160a01b03928316600482018190529092602092839185916024918391165afa9283156125ab57600093612ad9575b5080600052600c825260046040600020015480612a7b575b50600c92506000525242600460406000200155565b678ac7230489e80000938481029481860414901517156121eb57612ab66283d600916109a9612aaf600c97600754906122b6565b914261242e565b0481600052838352612ad160036040600020019182546121de565b905538612a66565b90928282813d8311612b01575b612af081836121bd565b810103126102f95750519138612a4e565b503d612ae6565b60018060a01b0316600052600c60205242600460406000200155565b60ff915060d01c1638612a07565b91909392936040948551936020908186016323b872dd60e01b815286612b5d85888860248501612276565b0391612b71601f19938481018a52896121bd565b89516001600160a01b03919091169790926001600160401b0391848c018381118682101761218c578c528585527f5361666545524332303a206c6f772d6c6576656c2063616c6c206661696c656486860152893b15612ce7576000809481925190828d5af1913d15612cd7573d908111612cc35790612c0e94939291612c00878e5193601f84011601836121bd565b81528092863d92013e612d2b565b805180612c50575b505050612c4b907f7f2ff68728cab042a64a647a38c53882201e6d9b7bc67ef9903160c7fea189f99495965193849384612276565b0390a2565b908280612c6193830101910161225e565b15612c6d578080612c16565b60849087519062461bcd60e51b82526004820152602a60248201527f5361666545524332303a204552433230206f7065726174696f6e20646964206e6044820152691bdd081cdd58d8d9595960b21b6064820152fd5b634e487b7160e01b84526041600452602484fd5b5050612c0e929150606090612d2b565b8b5162461bcd60e51b815260048101879052601d60248201527f416464726573733a2063616c6c20746f206e6f6e2d636f6e74726163740000006044820152606490fd5b90919015612d37575090565b815115612d475750805190602001fd5b6040519062461bcd60e51b82528160208060048301528251908160248401526000935b828510612d8d575050604492506000838284010152601f80199101168101030190fd5b8481018201518686016044015293810193859350612d6a56fea26469706673582212200eb15d91e3876788ea1f69a043014b48cc3a4aa4471e06121997ecec7685414864736f6c63430008130033",
  "linkReferences": {},
  "deployedLinkReferences": {}
}