{
  "_format": "hh-sol-artifact-1",
  "contractName": "BeraFarm",
  "sourceName": "contracts/BeraFarm.sol",
  "abi": [
    {
      "inputs": [
        {
          "internalType": "address",
          "name": "_honey",
          "type": "address"
        },
        {
          "internalType": "address",
          "name": "_bexAddress",
          "type": "address"
        },
        {
          "internalType": "address",
          "name": "_pool",
          "type": "address"
        },
        {
          "internalType": "address",
          "name": "_treasury",
          "type": "address"
        },
        {
          "internalType": "uint256",
          "name": "_dailyInterest",
          "type": "uint256"
        },
        {
          "internalType": "uint256",
          "name": "_claimTaxFuzz",
          "type": "uint256"
        },
        {
          "internalType": "uint256",
          "name": "_bondDiscount",
          "type": "uint256"
        },
        {
          "internalType": "uint256",
          "name": "_maxSupplyForHoney",
          "type": "uint256"
        },
        {
          "internalType": "uint256",
          "name": "_maxSupplyFirstBatch",
          "type": "uint256"
        },
        {
          "internalType": "uint256",
          "name": "_limitBeforeEmissions",
          "type": "uint256"
        },
        {
          "internalType": "uint256",
          "name": "_limitBeforeFullTokenTrading",
          "type": "uint256"
        },
        {
          "internalType": "uint256",
          "name": "_maxCubsPerWallet",
          "type": "uint256"
        }
      ],
      "stateMutability": "nonpayable",
      "type": "constructor"
    },
    {
      "anonymous": false,
      "inputs": [
        {
          "indexed": false,
          "internalType": "address",
          "name": "sender",
          "type": "address"
        },
        {
          "indexed": false,
          "internalType": "uint256",
          "name": "compoundCost",
          "type": "uint256"
        }
      ],
      "name": "BeraCubCompounded",
      "type": "event"
    },
    {
      "anonymous": false,
      "inputs": [
        {
          "indexed": false,
          "internalType": "address",
          "name": "sender",
          "type": "address"
        },
        {
          "indexed": false,
          "internalType": "uint256",
          "name": "amountOfCubs",
          "type": "uint256"
        }
      ],
      "name": "BeraCubsAwarded",
      "type": "event"
    },
    {
      "anonymous": false,
      "inputs": [
        {
          "indexed": false,
          "internalType": "address",
          "name": "sender",
          "type": "address"
        },
        {
          "indexed": false,
          "internalType": "uint256",
          "name": "amountOfCubs",
          "type": "uint256"
        },
        {
          "indexed": false,
          "internalType": "uint256",
          "name": "transactionTotal",
          "type": "uint256"
        }
      ],
      "name": "BeraCubsBonded",
      "type": "event"
    },
    {
      "anonymous": false,
      "inputs": [
        {
          "indexed": false,
          "internalType": "address",
          "name": "sender",
          "type": "address"
        },
        {
          "indexed": false,
          "internalType": "uint256",
          "name": "amountOfCubs",
          "type": "uint256"
        },
        {
          "indexed": false,
          "internalType": "uint256",
          "name": "transactionTotal",
          "type": "uint256"
        }
      ],
      "name": "BoughtBeraCubsFuzz",
      "type": "event"
    },
    {
      "anonymous": false,
      "inputs": [
        {
          "indexed": false,
          "internalType": "address",
          "name": "sender",
          "type": "address"
        },
        {
          "indexed": false,
          "internalType": "uint256",
          "name": "amountOfCubs",
          "type": "uint256"
        },
        {
          "indexed": false,
          "internalType": "uint256",
          "name": "transactionTotal",
          "type": "uint256"
        }
      ],
      "name": "BoughtBeraCubsHoney",
      "type": "event"
    },
    {
      "anonymous": false,
      "inputs": [
        {
          "indexed": true,
          "internalType": "contract IERC20",
          "name": "token",
          "type": "address"
        },
        {
          "indexed": false,
          "internalType": "address",
          "name": "to",
          "type": "address"
        },
        {
          "indexed": false,
          "internalType": "uint256",
          "name": "amount",
          "type": "uint256"
        }
      ],
      "name": "IERC20TransferEvent",
      "type": "event"
    },
    {
      "anonymous": false,
      "inputs": [
        {
          "indexed": true,
          "internalType": "contract IERC20",
          "name": "token",
          "type": "address"
        },
        {
          "indexed": false,
          "internalType": "address",
          "name": "from",
          "type": "address"
        },
        {
          "indexed": false,
          "internalType": "address",
          "name": "to",
          "type": "address"
        },
        {
          "indexed": false,
          "internalType": "uint256",
          "name": "amount",
          "type": "uint256"
        }
      ],
      "name": "IERC20TransferFromEvent",
      "type": "event"
    },
    {
      "anonymous": false,
      "inputs": [
        {
          "indexed": true,
          "internalType": "address",
          "name": "previousOwner",
          "type": "address"
        },
        {
          "indexed": true,
          "internalType": "address",
          "name": "newOwner",
          "type": "address"
        }
      ],
      "name": "OwnershipTransferred",
      "type": "event"
    },
    {
      "anonymous": false,
      "inputs": [
        {
          "indexed": false,
          "internalType": "address",
          "name": "sender",
          "type": "address"
        },
        {
          "indexed": false,
          "internalType": "uint256",
          "name": "rewardAfterTax",
          "type": "uint256"
        },
        {
          "indexed": false,
          "internalType": "uint256",
          "name": "tax",
          "type": "uint256"
        }
      ],
      "name": "RewardsClaimed",
      "type": "event"
    },
    {
      "stateMutability": "payable",
      "type": "fallback"
    },
    {
      "inputs": [
        {
          "internalType": "address",
          "name": "_address",
          "type": "address"
        },
        {
          "internalType": "uint256",
          "name": "_amount",
          "type": "uint256"
        }
      ],
      "name": "awardBeraCubs",
      "outputs": [],
      "stateMutability": "nonpayable",
      "type": "function"
    },
    {
      "inputs": [],
      "name": "baseLineCompoundCost",
      "outputs": [
        {
          "internalType": "uint256",
          "name": "",
          "type": "uint256"
        }
      ],
      "stateMutability": "view",
      "type": "function"
    },
    {
      "inputs": [],
      "name": "beraCubNftContract",
      "outputs": [
        {
          "internalType": "contract IBERACUB",
          "name": "",
          "type": "address"
        }
      ],
      "stateMutability": "view",
      "type": "function"
    },
    {
      "inputs": [
        {
          "internalType": "uint256",
          "name": "_amount",
          "type": "uint256"
        }
      ],
      "name": "bondBeraCubs",
      "outputs": [],
      "stateMutability": "nonpayable",
      "type": "function"
    },
    {
      "inputs": [],
      "name": "bondDiscount",
      "outputs": [
        {
          "internalType": "uint256",
          "name": "",
          "type": "uint256"
        }
      ],
      "stateMutability": "view",
      "type": "function"
    },
    {
      "inputs": [],
      "name": "bondingClosedOwner",
      "outputs": [
        {
          "internalType": "bool",
          "name": "",
          "type": "bool"
        }
      ],
      "stateMutability": "view",
      "type": "function"
    },
    {
      "inputs": [
        {
          "internalType": "uint256",
          "name": "_amount",
          "type": "uint256"
        }
      ],
      "name": "buyBeraCubsFuzz",
      "outputs": [],
      "stateMutability": "nonpayable",
      "type": "function"
    },
    {
      "inputs": [
        {
          "internalType": "uint256",
          "name": "_amount",
          "type": "uint256"
        }
      ],
      "name": "buyBeraCubsHoney",
      "outputs": [],
      "stateMutability": "nonpayable",
      "type": "function"
    },
    {
      "inputs": [],
      "name": "buyBeraCubsHoneyOpen",
      "outputs": [
        {
          "internalType": "bool",
          "name": "",
          "type": "bool"
        }
      ],
      "stateMutability": "view",
      "type": "function"
    },
    {
      "inputs": [],
      "name": "buyBeraCubsOpenFuzz",
      "outputs": [
        {
          "internalType": "bool",
          "name": "",
          "type": "bool"
        }
      ],
      "stateMutability": "view",
      "type": "function"
    },
    {
      "inputs": [],
      "name": "calculateTax",
      "outputs": [
        {
          "internalType": "uint256",
          "name": "",
          "type": "uint256"
        }
      ],
      "stateMutability": "nonpayable",
      "type": "function"
    },
    {
      "inputs": [],
      "name": "claim",
      "outputs": [],
      "stateMutability": "nonpayable",
      "type": "function"
    },
    {
      "inputs": [],
      "name": "claimTaxFuzz",
      "outputs": [
        {
          "internalType": "uint256",
          "name": "",
          "type": "uint256"
        }
      ],
      "stateMutability": "view",
      "type": "function"
    },
    {
      "inputs": [],
      "name": "closeBonding",
      "outputs": [],
      "stateMutability": "nonpayable",
      "type": "function"
    },
    {
      "inputs": [],
      "name": "closeBuyBeraCubsHoney",
      "outputs": [],
      "stateMutability": "nonpayable",
      "type": "function"
    },
    {
      "inputs": [],
      "name": "closeEmissionsOwner",
      "outputs": [],
      "stateMutability": "nonpayable",
      "type": "function"
    },
    {
      "inputs": [],
      "name": "closeFuzzSaleOwner",
      "outputs": [],
      "stateMutability": "nonpayable",
      "type": "function"
    },
    {
      "inputs": [],
      "name": "compoundBeraCubs",
      "outputs": [],
      "stateMutability": "nonpayable",
      "type": "function"
    },
    {
      "inputs": [],
      "name": "currentDailyRewards",
      "outputs": [
        {
          "internalType": "uint256",
          "name": "",
          "type": "uint256"
        }
      ],
      "stateMutability": "view",
      "type": "function"
    },
    {
      "inputs": [],
      "name": "dailyInterest",
      "outputs": [
        {
          "internalType": "uint256",
          "name": "",
          "type": "uint256"
        }
      ],
      "stateMutability": "view",
      "type": "function"
    },
    {
      "inputs": [],
      "name": "emissionsClosedOwner",
      "outputs": [
        {
          "internalType": "bool",
          "name": "",
          "type": "bool"
        }
      ],
      "stateMutability": "view",
      "type": "function"
    },
    {
      "inputs": [],
      "name": "emissionsStarted",
      "outputs": [
        {
          "internalType": "bool",
          "name": "",
          "type": "bool"
        }
      ],
      "stateMutability": "view",
      "type": "function"
    },
    {
      "inputs": [
        {
          "internalType": "uint256",
          "name": "",
          "type": "uint256"
        }
      ],
      "name": "farmersAddresses",
      "outputs": [
        {
          "internalType": "address",
          "name": "",
          "type": "address"
        }
      ],
      "stateMutability": "view",
      "type": "function"
    },
    {
      "inputs": [],
      "name": "fuzz",
      "outputs": [
        {
          "internalType": "contract IFUZZTOKEN",
          "name": "",
          "type": "address"
        }
      ],
      "stateMutability": "view",
      "type": "function"
    },
    {
      "inputs": [],
      "name": "getBondCost",
      "outputs": [
        {
          "internalType": "uint256",
          "name": "",
          "type": "uint256"
        }
      ],
      "stateMutability": "view",
      "type": "function"
    },
    {
      "inputs": [
        {
          "internalType": "address",
          "name": "_address",
          "type": "address"
        }
      ],
      "name": "getFarmerByAddress",
      "outputs": [
        {
          "components": [
            {
              "internalType": "bool",
              "name": "exists",
              "type": "bool"
            },
            {
              "internalType": "uint256",
              "name": "beraCubsBonded",
              "type": "uint256"
            },
            {
              "internalType": "uint256",
              "name": "beraCubsCompounded",
              "type": "uint256"
            },
            {
              "internalType": "uint256",
              "name": "claimsFuzz",
              "type": "uint256"
            },
            {
              "internalType": "uint256",
              "name": "lastUpdate",
              "type": "uint256"
            }
          ],
          "internalType": "struct BeraFarm.Farmer",
          "name": "",
          "type": "tuple"
        }
      ],
      "stateMutability": "view",
      "type": "function"
    },
    {
      "inputs": [],
      "name": "getFuzzPrice",
      "outputs": [
        {
          "internalType": "uint256",
          "name": "",
          "type": "uint256"
        }
      ],
      "stateMutability": "view",
      "type": "function"
    },
    {
      "inputs": [
        {
          "internalType": "uint256",
          "name": "totalSupplyBeforeAmount",
          "type": "uint256"
        },
        {
          "internalType": "uint256",
          "name": "totalSupplyPlusAmount",
          "type": "uint256"
        },
        {
          "internalType": "uint256",
          "name": "_amount",
          "type": "uint256"
        }
      ],
      "name": "getHoneyBuyTransactionCost",
      "outputs": [
        {
          "internalType": "uint256",
          "name": "",
          "type": "uint256"
        }
      ],
      "stateMutability": "view",
      "type": "function"
    },
    {
      "inputs": [
        {
          "internalType": "address",
          "name": "user",
          "type": "address"
        }
      ],
      "name": "getOwnedBeraCubs",
      "outputs": [
        {
          "internalType": "uint256",
          "name": "",
          "type": "uint256"
        }
      ],
      "stateMutability": "view",
      "type": "function"
    },
    {
      "inputs": [],
      "name": "getTaxEstimate",
      "outputs": [
        {
          "internalType": "uint256",
          "name": "",
          "type": "uint256"
        }
      ],
      "stateMutability": "view",
      "type": "function"
    },
    {
      "inputs": [],
      "name": "getTotalBeraCubs",
      "outputs": [
        {
          "internalType": "uint256",
          "name": "",
          "type": "uint256"
        }
      ],
      "stateMutability": "view",
      "type": "function"
    },
    {
      "inputs": [
        {
          "internalType": "address",
          "name": "_user",
          "type": "address"
        }
      ],
      "name": "getTotalClaimable",
      "outputs": [
        {
          "internalType": "uint256",
          "name": "",
          "type": "uint256"
        }
      ],
      "stateMutability": "view",
      "type": "function"
    },
    {
      "inputs": [
        {
          "internalType": "address",
          "name": "_user",
          "type": "address"
        }
      ],
      "name": "getWalletCompoundCost",
      "outputs": [
        {
          "internalType": "uint256",
          "name": "",
          "type": "uint256"
        }
      ],
      "stateMutability": "view",
      "type": "function"
    },
    {
      "inputs": [],
      "name": "honeyCostFirstBatch",
      "outputs": [
        {
          "internalType": "uint256",
          "name": "",
          "type": "uint256"
        }
      ],
      "stateMutability": "view",
      "type": "function"
    },
    {
      "inputs": [],
      "name": "honeyCostSecondBatch",
      "outputs": [
        {
          "internalType": "uint256",
          "name": "",
          "type": "uint256"
        }
      ],
      "stateMutability": "view",
      "type": "function"
    },
    {
      "inputs": [],
      "name": "isLive",
      "outputs": [
        {
          "internalType": "bool",
          "name": "",
          "type": "bool"
        }
      ],
      "stateMutability": "view",
      "type": "function"
    },
    {
      "inputs": [],
      "name": "limitBeforeEmissions",
      "outputs": [
        {
          "internalType": "uint256",
          "name": "",
          "type": "uint256"
        }
      ],
      "stateMutability": "view",
      "type": "function"
    },
    {
      "inputs": [],
      "name": "limitBeforeFullTokenTrading",
      "outputs": [
        {
          "internalType": "uint256",
          "name": "",
          "type": "uint256"
        }
      ],
      "stateMutability": "view",
      "type": "function"
    },
    {
      "inputs": [],
      "name": "maxAllowedCompoundCost",
      "outputs": [
        {
          "internalType": "uint256",
          "name": "",
          "type": "uint256"
        }
      ],
      "stateMutability": "view",
      "type": "function"
    },
    {
      "inputs": [],
      "name": "maxCompoundCostSoFar",
      "outputs": [
        {
          "internalType": "uint256",
          "name": "",
          "type": "uint256"
        }
      ],
      "stateMutability": "view",
      "type": "function"
    },
    {
      "inputs": [],
      "name": "maxCubsPerWallet",
      "outputs": [
        {
          "internalType": "uint256",
          "name": "",
          "type": "uint256"
        }
      ],
      "stateMutability": "view",
      "type": "function"
    },
    {
      "inputs": [],
      "name": "maxSupplyFirstBatch",
      "outputs": [
        {
          "internalType": "uint256",
          "name": "",
          "type": "uint256"
        }
      ],
      "stateMutability": "view",
      "type": "function"
    },
    {
      "inputs": [],
      "name": "maxSupplyForHoney",
      "outputs": [
        {
          "internalType": "uint256",
          "name": "",
          "type": "uint256"
        }
      ],
      "stateMutability": "view",
      "type": "function"
    },
    {
      "inputs": [],
      "name": "openBonding",
      "outputs": [],
      "stateMutability": "nonpayable",
      "type": "function"
    },
    {
      "inputs": [],
      "name": "openBuyBeraCubsHoney",
      "outputs": [],
      "stateMutability": "nonpayable",
      "type": "function"
    },
    {
      "inputs": [],
      "name": "openEmissionsOwner",
      "outputs": [],
      "stateMutability": "nonpayable",
      "type": "function"
    },
    {
      "inputs": [],
      "name": "openFuzzSaleOwner",
      "outputs": [],
      "stateMutability": "nonpayable",
      "type": "function"
    },
    {
      "inputs": [],
      "name": "owner",
      "outputs": [
        {
          "internalType": "address",
          "name": "",
          "type": "address"
        }
      ],
      "stateMutability": "view",
      "type": "function"
    },
    {
      "inputs": [],
      "name": "pool",
      "outputs": [
        {
          "internalType": "address",
          "name": "",
          "type": "address"
        }
      ],
      "stateMutability": "view",
      "type": "function"
    },
    {
      "inputs": [],
      "name": "renounceOwnership",
      "outputs": [],
      "stateMutability": "nonpayable",
      "type": "function"
    },
    {
      "inputs": [
        {
          "internalType": "uint256",
          "name": "newDiscount",
          "type": "uint256"
        }
      ],
      "name": "setBondDiscount",
      "outputs": [],
      "stateMutability": "nonpayable",
      "type": "function"
    },
    {
      "inputs": [
        {
          "internalType": "address",
          "name": "_beraCubNftContract",
          "type": "address"
        }
      ],
      "name": "setCubNFTContract",
      "outputs": [],
      "stateMutability": "nonpayable",
      "type": "function"
    },
    {
      "inputs": [
        {
          "internalType": "uint256",
          "name": "_dailyInterest",
          "type": "uint256"
        }
      ],
      "name": "setDailyInterest",
      "outputs": [],
      "stateMutability": "nonpayable",
      "type": "function"
    },
    {
      "inputs": [
        {
          "internalType": "address",
          "name": "fuzzAddress",
          "type": "address"
        }
      ],
      "name": "setFuzzAddr",
      "outputs": [],
      "stateMutability": "nonpayable",
      "type": "function"
    },
    {
      "inputs": [
        {
          "internalType": "uint256",
          "name": "_claimTaxFuzz",
          "type": "uint256"
        }
      ],
      "name": "setFuzzTax",
      "outputs": [],
      "stateMutability": "nonpayable",
      "type": "function"
    },
    {
      "inputs": [
        {
          "internalType": "address",
          "name": "_fuzz",
          "type": "address"
        }
      ],
      "name": "setFuzzTokenAddress",
      "outputs": [],
      "stateMutability": "nonpayable",
      "type": "function"
    },
    {
      "inputs": [
        {
          "internalType": "bool",
          "name": "_isLive",
          "type": "bool"
        }
      ],
      "name": "setPlatformState",
      "outputs": [],
      "stateMutability": "nonpayable",
      "type": "function"
    },
    {
      "inputs": [
        {
          "internalType": "address",
          "name": "_pool",
          "type": "address"
        }
      ],
      "name": "setPool",
      "outputs": [],
      "stateMutability": "nonpayable",
      "type": "function"
    },
    {
      "inputs": [
        {
          "internalType": "address",
          "name": "treasuryAddress",
          "type": "address"
        }
      ],
      "name": "setTreasuryAddr",
      "outputs": [],
      "stateMutability": "nonpayable",
      "type": "function"
    },
    {
      "inputs": [
        {
          "internalType": "address",
          "name": "newOwner",
          "type": "address"
        }
      ],
      "name": "transferOwnership",
      "outputs": [],
      "stateMutability": "nonpayable",
      "type": "function"
    },
    {
      "inputs": [],
      "name": "treasury",
      "outputs": [
        {
          "internalType": "address",
          "name": "",
          "type": "address"
        }
      ],
      "stateMutability": "view",
      "type": "function"
    },
    {
      "inputs": [
        {
          "internalType": "address",
          "name": "_from",
          "type": "address"
        },
        {
          "internalType": "address",
          "name": "_to",
          "type": "address"
        }
      ],
      "name": "updateClaimsOnTokenTransfer",
      "outputs": [],
      "stateMutability": "nonpayable",
      "type": "function"
    },
    {
      "stateMutability": "payable",
      "type": "receive"
    }
  ],
  "bytecode": "0x61014034620001d957601f6200303638819003918201601f19168301916001600160401b03831184841017620001de5780849261018094604052833981010312620001d9576200004f81620001f4565b906200005e60208201620001f4565b6200006c60408301620001f4565b916200007b60608201620001f4565b9060808101519460a08201519560c083015160e0840151906101009889860151936101209889880151966101606101408a0151990151996000549c8d9360018060a01b03199485339116176000556040519e60018060a01b039485938492833391167f8be0079c531659141344cd1fd0a4f28419497f9722a3daafe3b4186f6b6457e0600080a360018055600654674563918244f4000060095583600160c01b92169064ffffffffff60d81b161717600655166080521683600454161760045516906005541617600555600755600855600a55875260a05260c05260e0528152612e2c92836200020a8439608051838181610e1b0152611961015260a0518381816112f8015261235e015260c051838181610c970152610ed2015260e051838181610f070152611b9d01525182818161050801528181610daa015281816111c101526118e301525181818161059e015281816113330152611e380152f35b600080fd5b634e487b7160e01b600052604160045260246000fd5b51906001600160a01b0382168203620001d95756fe608060409080825260049182361015610020575b505050361561001e57005b005b600092833560e01c928363043fb5111461205d5750826305c9601014611d6c57826306b6cd6514611d3d5782630867782614611d1657826316f0115b14611ced578263199f4c9914611cc45782631c27a2ce14611c055782631fc1ba4c14611bc057826323471e2d14611b8557826323900c1014611891578263267e8ab61461186b5782632f85d8cb1461184e578263357c8acd146117e557826335a27963146117c25782633a9e91f81461172b5782634393bbde1461170e5782634437152a146116c95782634ce3d284146113d95782634e71d92d146114ea5782635adf0021146114c35782635ebcd432146114945782635f400b951461146b57826361d027b31461144257826362f18a291461142057826368b37300146113d95782636c96764b1461123c578263715018a61461137f578263786809ad146113565782637c84fec21461131b5782637d491391146112e05782637fd05b42146112b7578263803355741461129057826381c5ca5f146112695782638da5cb5b146112415782639650ca081461123c5782639ef78b881461120d578263a045c739146111e4578263a601bf24146111a9578263a72c6ec514611185578263a7e05b9c14611140578263a9d88f2514610d36578263af34370914610cfe578263b8f7a66514610cd7578263b9b2735c14610cba578263bbe7b24b14610c7f578263bdadf5be14610be5578263bec8203414610bc3578263bfeaa07114610b81578263c70f4dbb14610a3f578263c9f9858614610a20578263d07b26ba14610916578263e3b57275146108d0578263e7438d1d14610883578263e7bf74ce146104b5578263e8ee55a214610498578263e951e31114610469578263f08818df1461044a578263f2fde38b1461038057508163f6185e2214610359578163f9caa5831461033657508063fa0b5d96146103075763fa804b8e146102dc578080610013565b346103045780600319360112610304576102f46120e3565b6006805460ff60a81b1916905580f35b80fd5b50346103045780600319360112610304576103206120e3565b6006805460ff60a81b1916600160a81b17905580f35b905034610355578160031936011261035557602090600a549051908152f35b5080fd5b90503461035557816003193601126103555760209060ff60065460d01c1690519015158152f35b909150346104465760203660031901126104465761039c612079565b906103a56120e3565b6001600160a01b039182169283156103f45750506000548260018060a01b0319821617600055167f8be0079c531659141344cd1fd0a4f28419497f9722a3daafe3b4186f6b6457e0600080a380f35b906020608492519162461bcd60e51b8352820152602660248201527f4f776e61626c653a206e6577206f776e657220697320746865207a65726f206160448201526564647265737360d01b6064820152fd5b8280fd5b8382346103555781600319360112610355576020906009549051908152f35b9083346103045760603660031901126103045750610491602092604435906024359035612359565b9051908152f35b838234610355578160031936011261035557602090610491612631565b9091503461044657602090816003193601126106eb578035906104dd6002600154141561213b565b600260015560ff6006546104f5828260a01c16612187565b60c01c161561084057610506612631565b7f0000000000000000000000000000000000000000000000000000000000000000116107ec5760025484516370a0823160e01b8082523384830152946001600160a01b03929091908316908281602481855afa9081156107b55789916107bf575b508284600354169760248a51809a81938252338a8301525afa9687156107b557899761077f575b5061059c866105c49261222e565b7f00000000000000000000000000000000000000000000000000000000000000001015612251565b6105d085600954612306565b809610610749579081889493923b156107455784885180926311bc1c2160e11b82528183816106028c338c8401612293565b03925af1908115610727578591610731575b5050816003541681885180926323b872dd60e01b825281888161063b8d30338d85016122c6565b03925af18015610727576106f9575b505060035416803b156104465784839161067a93838951809681958294632770a7eb60e21b845230908401612293565b03925af180156106ef576106d7575b50506106cd7f4812ad7b572a382c624953372846efc0e2d33a7a4330422b8670d3f437f85179936106b933612959565b6106c233612a44565b5192839233846122e8565b0390a16001805580f35b6106e0906121c9565b6106eb578338610689565b8380fd5b85513d84823e3d90fd5b8161071892903d10610720575b610710818361220d565b8101906122ae565b50388061064a565b503d610706565b88513d87823e3d90fd5b61073a906121c9565b6106eb578338610614565b8480fd5b865162461bcd60e51b8152808501839052601060248201526f2737ba1032b737bab3b41012232aad2d60811b6044820152606490fd5b9096508281813d83116107ae575b610797818361220d565b810103126107a957519561059c61058e565b600080fd5b503d61078d565b88513d8b823e3d90fd5b90508281813d83116107e5575b6107d6818361220d565b810103126107a9575138610567565b503d6107cc565b835162461bcd60e51b8152908101839052602860248201527f4e6f7420656e6f756768204d696e74656420546f2050757263686173652057696044820152673a341012233abd3d60c11b6064820152608490fd5b835162461bcd60e51b8152908101839052601d60248201527f4275792042657261204375627320697320636c6f736564206f776e65720000006044820152606490fd5b83346103045780600319360112610304575060075490678ac7230489e8000091808302928304036108bb575060646020925191048152f35b601190634e487b7160e01b6000525260246000fd5b8390346103555760203660031901126103555735801515809103610355576108f66120e3565b6006805460ff60a01b191660a09290921b60ff60a01b1691909117905580f35b90833461030457806003193601126103045760025482516370a0823160e01b81523381860152602094918590829060249082906001600160a01b03165afa908115610a165783916109e9575b50678ac7230489e80000908181029181830414901517156109d657610491926003856283d6006109ba6064966109b46109a16109cc9860075490612306565b91338852600c8d5285882001544261247e565b90612306565b0492338152600c89522001549061222e565b0460085490612306565b634e487b7160e01b835260118252602483fd5b90508481813d8311610a0f575b610a00818361220d565b810103126107a9575185610962565b503d6109f6565b84513d85823e3d90fd5b8382346103555781600319360112610355576020906008549051908152f35b90915034610446578160031936011261044657610a5a612079565b8360243592610a676120e3565b60025485516370a0823160e01b81526001600160a01b038581168483015290911690602081602481855afa8015610b775786918591610b3c575b50610aaf9161059c9161222e565b803b15610446578483918583610ad9958a51968795869485936311bc1c2160e11b85528401612293565b03925af180156106ef57610b28575b5050610b227f276975ac50865cc07d64e6842a8cfd9ce5c2bd1ff85a4712560602beb7f75ea493610b1883612a44565b5192839283612293565b0390a180f35b610b31906121c9565b6106eb578338610ae8565b945050506020833d8211610b6f575b81610b586020938361220d565b810103126107a95791518692908590610aaf610aa1565b3d9150610b4b565b87513d86823e3d90fd5b90915034610446576020366003190112610446573591600b548310156103045750610bad6020926120b2565b905491519160018060a01b039160031b1c168152f35b83903461035557602036600319011261035557610bde6120e3565b3560075580f35b915034610446576020366003190112610446578060a093610c04612079565b610c0c61292e565b50600180871b03168152600c60205220815191610c28836121f2565b60ff8254161515938484526001830154602085019081526080600285015492848701938452600386015495606088019687520154950194855282519586525160208601525190840152516060830152516080820152f35b838234610355578160031936011261035557602090517f00000000000000000000000000000000000000000000000000000000000000008152f35b838234610355578160031936011261035557602090610491612607565b83823461035557816003193601126103555760209060ff60065460a01c1690519015158152f35b8382346103555736600319011261030457610d17612079565b6024356001600160a01b03811681036107a957610d339161248b565b80f35b9091503461044657602090816003193601126106eb57803590610d5e6002600154141561213b565b600260015560ff600654610d76828260a01c16612187565b60b01c1615611103576002546001600160a01b039081169384156110ca57610d9c612631565b90610da7858361222e565b917f0000000000000000000000000000000000000000000000000000000000000000831161106c5790889493929188519082826024816370a0823160e01b9c8d8252338b8301525afa801561102c5788928891611036575b508291610e1361059c610e1895889461222e565b612359565b967f0000000000000000000000000000000000000000000000000000000000000000908951908152338682015282816024818886165afa90811561102c5789938892610ff4575b505090610e7283610e7f94931015612319565b8460055416903390612b82565b8160025416803b156107455784885180926311bc1c2160e11b8252818381610eaa8c338c8401612293565b03925af1908115610727578591610fe0575b5050610ec733612959565b610ed033612a44565b7f000000000000000000000000000000000000000000000000000000000000000081101580610fd0575b80610fc0575b610fa8575b7f00000000000000000000000000000000000000000000000000000000000000001115610f60575b5050506106cd7f4cd4f1ef3b195f4ff5e4a556b596af7ceae6333d310e1dce3fc781db35caa4c2935192839233846122e8565b6003541690813b156104465785516348f5eeeb60e01b81529183918391829084905af180156106ef57610f94575b80610f2d565b610f9d906121c9565b6106eb578338610f8e565b6006805460ff60c81b1916600160c81b179055610f05565b5060ff60065460d01c1615610f00565b5060ff60065460c81c1615610efa565b610fe9906121c9565b6106eb578338610ebc565b92935096505085813d8311611025575b61100e818361220d565b810103126107a957935188948791610e7283610e5f565b503d611004565b8a513d89823e3d90fd5b92505095508181813d8311611065575b611050818361220d565b810103126107a9575189958791610e18610dff565b503d611046565b875162461bcd60e51b8152808601839052603260248201527f486f6e65792042657261204375627320666f722024484f4e455920536f6c642060448201527127baba10313abc903bb4ba341012232aad2d60711b6064820152608490fd5b8260649187519162461bcd60e51b8352820152601460248201527310995c984810dd5888139195081b9bdd081cd95d60621b6044820152fd5b835162461bcd60e51b81529081018390526017602482015276109d5e4810995c984810dd589cc81a5cc818db1bdcd959604a1b6044820152606490fd5b83346103045760203660031901126103045761115a612079565b6111626120e3565b600580546001600160a01b0319166001600160a01b039290921691909117905580f35b8382346103555781600319360112610355576020905168015af1d78b58c400008152f35b838234610355578160031936011261035557602090517f00000000000000000000000000000000000000000000000000000000000000008152f35b83346103045780600319360112610304576111fd6120e3565b6006805460ff60d01b1916905580f35b83346103045780600319360112610304576112266120e3565b6006805460ff60c01b1916600160c01b17905580f35b61208f565b838234610355578160031936011261035557905490516001600160a01b039091168152602090f35b83823461035557816003193601126103555760209060ff60065460a81c1690519015158152f35b83823461035557816003193601126103555760209060ff60065460b81c1690519015158152f35b83346103045780600319360112610304576112d06120e3565b6006805460ff60b01b1916905580f35b838234610355578160031936011261035557602090517f00000000000000000000000000000000000000000000000000000000000000008152f35b838234610355578160031936011261035557602090517f00000000000000000000000000000000000000000000000000000000000000008152f35b83823461035557816003193601126103555760035490516001600160a01b039091168152602090f35b83346103045780600319360112610304576113986120e3565b600080546001600160a01b0319811682556001600160a01b03167f8be0079c531659141344cd1fd0a4f28419497f9722a3daafe3b4186f6b6457e08280a380f35b833461030457602036600319011261030457610d336113f6612079565b6113fe6120e3565b600380546001600160a01b0319166001600160a01b0392909216919091179055565b8390346103555760203660031901126103555761143b6120e3565b3560085580f35b83823461035557816003193601126103555760055490516001600160a01b039091168152602090f35b83346103045780600319360112610304576114846120e3565b6006805460ff60c01b1916905580f35b83346103045780600319360112610304576114ad6120e3565b6006805460ff60b01b1916600160b01b17905580f35b83823461035557816003193601126103555760209060ff60065460c81c1690519015158152f35b90915034610446578260031936011261044657338352600c60205260ff82842054161561166c57611519612607565b90338452600c6020526003838520015490611534838361247e565b9115611629578490338252600c602052816003868220015560018060a01b038060035416803b156106eb5783875180926340c10f1960e01b825281838161157e8b338b8401612293565b03925af1908115610b77578491611615575b505060035416803b15610446578483916115c093838951809681958294632770a7eb60e21b845233908401612293565b03925af180156106ef57611601575b5050610b227fdacbdde355ba930696a362ea6738feb9f8bd52dfb3d81947558fd3217e23e325935192839233846122e8565b61160a906121c9565b6106eb5783386115cf565b61161e906121c9565b610446578238611590565b606490602085519162461bcd60e51b8352820152601e60248201527f4e6f207265776172647320617661696c61626c6520666f7220636c61696d00006044820152fd5b6020608492519162461bcd60e51b8352820152603260248201527f53656e646572206d7573742062652072656769737465726564204265726120436044820152717562206661726d657220746f20636c61696d60701b6064820152fd5b8334610304576020366003190112610304576116e3612079565b6116eb6120e3565b600680546001600160a01b0319166001600160a01b039290921691909117905580f35b8382346103555781600319360112610355576020906104916126ae565b83823461035557602092836003193601126104465783611749612079565b60025484516370a0823160e01b81526001600160a01b039283169481019490945283916024918391165afa9283156117b75792611788575b5051908152f35b9091508281813d83116117b0575b6117a0818361220d565b810103126107a957519083611781565b503d611796565b8251903d90823e3d90fd5b83823461035557816003193601126103555760209051678ac7230489e800008152f35b90915034610446576020366003190112610446578035916118046120e3565b604b8311611814575050600a5580f35b906020606492519162461bcd60e51b83528201526014602482015273111a5cd8dbdd5b9d0818589bdd99481b1a5b5a5d60621b6044820152fd5b8382346103555781600319360112610355576020906104916128f2565b8382346103555760203660031901126103555760209061049161188c612079565b61252a565b9091503461044657602090816003193601126106eb578035906118b96002600154141561213b565b600260015560ff6006546118d1828260a01c16612187565b60a81c16611b48576118e1612631565b7f000000000000000000000000000000000000000000000000000000000000000011611aec578460018060a01b0391826002541692865186816024816370a0823160e01b9889825233888301525afa8015611ae25786918591611aab575b5061194d9161059c9161222e565b61195e856119596128f2565b612306565b957f000000000000000000000000000000000000000000000000000000000000000094885190815233848201528181602481868a165afa8015611aa15788918691611a69575b50600c92916119b4911015612319565b338552526119cd86888520958360055416903390612b82565b60025416803b15610446578483916119fb93838a518096819582946311bc1c2160e11b845233908401612293565b03925af18015611a5f57611a4b575b50507fc00022e169fb4c78336e72f5b2fe0cd27a3b36fcd5ac78763c4d852b2e0fccba9360016106cd9201611a4084825461222e565b90556106c233612a44565b611a54906121c9565b610745578438611a0a565b86513d84823e3d90fd5b928096508092508391503d8311611a9a575b611a85818361220d565b810103126107a957518893908790600c6119a4565b503d611a7b565b89513d87823e3d90fd5b945050508583813d8311611adb575b611ac4818361220d565b810103126107a9579151879290859061194d61193f565b503d611aba565b88513d86823e3d90fd5b835162461bcd60e51b8152908101839052603060248201527f426f6e64696e67207374696c6c20636c6f73656420706c65617365207075726360448201526f6861736520776974682024484f4e455960801b6064820152608490fd5b835162461bcd60e51b815290810183905260176024820152762137b73234b7339034b99031b637b9b2b21037bbb732b960491b6044820152606490fd5b838234610355578160031936011261035557602090517f00000000000000000000000000000000000000000000000000000000000000008152f35b833461030457602036600319011261030457611bda612079565b611be26120e3565b600280546001600160a01b0319166001600160a01b039290921691909117905580f35b908334610304576020366003190112610304576001600160a01b03611c28612079565b168152600c602052818120908251611c3f816121f2565b825460ff16151581526001830154602082015260028301548482018190526003840154606083015292850154608090910152811580611cae57674563918244f40000808402938404141715611c9b575060209250905b51908152f35b634e487b7160e01b815260118452602490fd5b50505060209150674563918244f4000090611c95565b83823461035557816003193601126103555760025490516001600160a01b039091168152602090f35b83823461035557816003193601126103555760065490516001600160a01b039091168152602090f35b83823461035557816003193601126103555760209060ff60065460b01c1690519015158152f35b8334610304578060031936011261030457611d566120e3565b6006805460ff60d01b1916600160d01b17905580f35b90915034610446578260031936011261044657600191611d9060028454141561213b565b6002835560ff60065460c81c161561200657611dab3361252a565b913385526020600c815282862060028101805491878301809311611ff357674563918244f400009384840297848904861485151715611f5657881015611fa55760025487516370a0823160e01b815233888201526001600160a01b03929182908290602490829087165afa918215611f9b578c92611f69575b5050898101809111611f565790611e5e8b927f00000000000000000000000000000000000000000000000000000000000000001015612251565b611e6733612a44565b60025416803b1561035557819060448b8a5194859384926311bc1c2160e11b8452338d85015260248401525af18015611f4c57611f38575b50600301611eae87825461247e565b905555830190818411611f25575091611f0a91837ffee76474e5450a7243d4c77330ab82c1753e7c86702ddf79c07c0e8d15aa55d59468015af1d78b58c400001015611f12575b50611eff33612a44565b519182913383612293565b0390a1805580f35b600954811115611ef55760095538611ef5565b634e487b7160e01b865260119052602485fd5b98611f456003929a6121c9565b9890611e9f565b87513d8c823e3d90fd5b634e487b7160e01b8b526011875260248bfd5b90809250813d8311611f94575b611f80818361220d565b81010312611f9057513880611e24565b8a80fd5b503d611f76565b89513d8e823e3d90fd5b8560849188519162461bcd60e51b83528201526024808201527f4e6f7420656e6f7567682070656e64696e67202446555a5a20746f20636f6d706044820152631bdd5b9960e21b6064820152fd5b634e487b7160e01b895260118552602489fd5b906020608492519162461bcd60e51b8352820152602b60248201527f436f6d706f756e64206e6f7420706f737369626c6520656d697373696f6e732060448201526a1b9bdd081cdd185c9d195960aa1b6064820152fd5b8490346103555781600319360112610355576020906007548152f35b600435906001600160a01b03821682036107a957565b346107a95760003660031901126107a9576020604051674563918244f400008152f35b600b548110156120cd57600b60005260206000200190600090565b634e487b7160e01b600052603260045260246000fd5b6000546001600160a01b031633036120f757565b606460405162461bcd60e51b815260206004820152602060248201527f4f776e61626c653a2063616c6c6572206973206e6f7420746865206f776e65726044820152fd5b1561214257565b60405162461bcd60e51b815260206004820152601f60248201527f5265656e7472616e637947756172643a207265656e7472616e742063616c6c006044820152606490fd5b1561218e57565b60405162461bcd60e51b8152602060048201526013602482015272506c6174666f726d206973206f66666c696e6560681b6044820152606490fd5b6001600160401b0381116121dc57604052565b634e487b7160e01b600052604160045260246000fd5b60a081019081106001600160401b038211176121dc57604052565b90601f801991011681019081106001600160401b038211176121dc57604052565b9190820180921161223b57565b634e487b7160e01b600052601160045260246000fd5b1561225857565b60405162461bcd60e51b815260206004820152601360248201527213585e0810995c984810dd589cc813dddb9959606a1b6044820152606490fd5b6001600160a01b039091168152602081019190915260400190565b908160209103126107a9575180151581036107a95790565b6001600160a01b03918216815291166020820152604081019190915260600190565b604091949392606082019560018060a01b0316825260208201520152565b8181029291811591840414171561223b57565b1561232057565b60405162461bcd60e51b81526020600482015260116024820152704e6f7420656e6f7567682024484f4e455960781b6044820152606490fd5b6000917f0000000000000000000000000000000000000000000000000000000000000000809211801590818092612474575b156123b3575050505050674563918244f400009081810291818304149015171561223b575b90565b156123d95750505050678ac7230489e800009081810291818304149015171561223b5790565b8061246b575b6123eb575b5050905090565b906123f59161247e565b678ac7230489e8000091828202928284041482151715612457575061241b90829361247e565b8015801561242c575b8392506123e4565b90919250674563918244f4000080830292830414171561223b5761244f9161222e565b388080612424565b634e487b7160e01b81526011600452602490fd5b508181116123df565b508383111561238b565b9190820391821161223b57565b6002549091906001600160a01b0390811633036124cf576124ab82612959565b8216156124c5576124be6124c392612a44565b612a44565b565b6124c39150612a44565b60405162461bcd60e51b815260206004820152602d60248201527f4f6e6c7920426572612043756220636f6e74726163742063616e2063616c6c2060448201526c3a3434b990333ab731ba34b7b760991b6064820152608490fd5b6002546040516370a0823160e01b81526001600160a01b03928316600482018190526020939092849183916024918391165afa9081156125fb576000916125ce575b50678ac7230489e800009081810291818304149015171561223b576123b0926283d6006125ba6125a1600c9460075490612306565b856000528484526109b46004604060002001544261247e565b04926000525260036040600020015461222e565b908382813d83116125f4575b6125e4818361220d565b810103126103045750513861256c565b503d6125da565b6040513d6000823e3d90fd5b61261033612a44565b33600052600c6020526123b060646003604060002001540460085490612306565b6002546040516318160ddd60e01b815290602090829060049082906001600160a01b03165afa9081156125fb57600091612669575090565b906020823d821161268f575b816126826020938361220d565b8101031261030457505190565b3d9150612675565b6001600160401b0381116121dc5760051b60200190565b600480546006546040805163a747b93b60e01b81526001600160a01b0392831681860152919260249260009291839082908690829089165afa9485156128e657839184966127d8575b50508151908282018281106001600160401b038211176127c657835281526020018481528451909490156127b4576020015193518051600110156127b45781015190841515806127ab575b156127715750670de0b6b3a76400009004938415612761575050500490565b634e487b7160e01b825260129052fd5b5162461bcd60e51b8152602081870152601681850152755265736572766573206e6f7420617661696c61626c6560501b6044820152606490fd5b50811515612742565b5050634e487b7160e01b815260328452fd5b634e487b7160e01b8552604188528585fd5b915094503d8084833e6127eb818361220d565b81019482828703126106eb5781516001600160401b03908181116128c65783019287601f850112156128c65783519361282385612697565b946128308751968761220d565b808652602094858088019260051b840101928b84116128e2578601915b8383106128ca5750505050828101519182116128c657019580601f8801121561074557865161287b81612697565b976128888651998a61220d565b81895283808a019260051b8201019283116128c2578301905b8282106128b3575050505038806126f7565b815181529083019083016128a1565b8680fd5b8580fd5b82518281168103611f9057815291860191860161284d565b8980fd5b505051903d90823e3d90fd5b61290f6128fd6126ae565b670de0b6b3a764000060095404612306565b600a54606403906064821161223b5760649161292a91612306565b0490565b6040519061293b826121f2565b60006080838281528260208201528260408201528260608201520152565b9061296261292e565b506001600160a01b039182166000818152600c602052604081205490939060ff161561298f575b50509050565b6040519161299c836121f2565b6001835260208301858152604084019086825260608501928784526080860194888652600b54600160401b811015612a3057916004979899916129e784600160409601600b556120b2565b819291549060031b9184831b921b19161790558152600c602052209551151560ff8019885416911617865551600186015551600285015551600384015551910155803880612989565b634e487b7160e01b8a52604160045260248afd5b60065460ff8160c81c1615908115612b74575b50612b58576002546040516370a0823160e01b81526001600160a01b03928316600482018190529092602092839185916024918391165afa9283156125fb57600093612b29575b5080600052600c825260046040600020015480612acb575b50600c92506000525242600460406000200155565b678ac7230489e800009384810294818604149015171561223b57612b066283d600916109b4612aff600c9760075490612306565b914261247e565b0481600052838352612b21600360406000200191825461222e565b905538612ab6565b90928282813d8311612b51575b612b40818361220d565b810103126103045750519138612a9e565b503d612b36565b60018060a01b0316600052600c60205242600460406000200155565b60ff915060d01c1638612a57565b91909392936040948551936020908186016323b872dd60e01b815286612bad858888602485016122c6565b0391612bc1601f19938481018a528961220d565b89516001600160a01b03919091169790926001600160401b0391848c01838111868210176121dc578c528585527f5361666545524332303a206c6f772d6c6576656c2063616c6c206661696c656486860152893b15612d37576000809481925190828d5af1913d15612d27573d908111612d135790612c5e94939291612c50878e5193601f840116018361220d565b81528092863d92013e612d7b565b805180612ca0575b505050612c9b907f7f2ff68728cab042a64a647a38c53882201e6d9b7bc67ef9903160c7fea189f994959651938493846122c6565b0390a2565b908280612cb19383010191016122ae565b15612cbd578080612c66565b60849087519062461bcd60e51b82526004820152602a60248201527f5361666545524332303a204552433230206f7065726174696f6e20646964206e6044820152691bdd081cdd58d8d9595960b21b6064820152fd5b634e487b7160e01b84526041600452602484fd5b5050612c5e929150606090612d7b565b8b5162461bcd60e51b815260048101879052601d60248201527f416464726573733a2063616c6c20746f206e6f6e2d636f6e74726163740000006044820152606490fd5b90919015612d87575090565b815115612d975750805190602001fd5b6040519062461bcd60e51b82528160208060048301528251908160248401526000935b828510612ddd575050604492506000838284010152601f80199101168101030190fd5b8481018201518686016044015293810193859350612dba56fea2646970667358221220dc47e90779c2ec5f420cc89b814a8cfcf8c4e60089ba91eaebc1958d577a338564736f6c63430008130033",
  "linkReferences": {},
  "deployedLinkReferences": {}
}