{
  "_format": "hh-sol-artifact-1",
  "contractName": "FuzzToken",
  "sourceName": "contracts/FuzzToken.sol",
  "abi": [
    {
      "inputs": [
        {
          "internalType": "uint256",
          "name": "_initialSupply",
          "type": "uint256"
        },
        {
          "internalType": "uint256",
          "name": "_maxSupply",
          "type": "uint256"
        },
        {
          "internalType": "address",
          "name": "_treasuryAddress",
          "type": "address"
        },
        {
          "internalType": "address",
          "name": "_beraCubNftContract",
          "type": "address"
        }
      ],
      "stateMutability": "nonpayable",
      "type": "constructor"
    },
    {
      "anonymous": false,
      "inputs": [
        {
          "indexed": true,
          "internalType": "address",
          "name": "owner",
          "type": "address"
        },
        {
          "indexed": true,
          "internalType": "address",
          "name": "spender",
          "type": "address"
        },
        {
          "indexed": false,
          "internalType": "uint256",
          "name": "value",
          "type": "uint256"
        }
      ],
      "name": "Approval",
      "type": "event"
    },
    {
      "anonymous": false,
      "inputs": [
        {
          "indexed": false,
          "internalType": "address",
          "name": "newController",
          "type": "address"
        }
      ],
      "name": "ControllerAdded",
      "type": "event"
    },
    {
      "anonymous": false,
      "inputs": [
        {
          "indexed": false,
          "internalType": "address",
          "name": "controllerRemoved",
          "type": "address"
        }
      ],
      "name": "ControllerRemoved",
      "type": "event"
    },
    {
      "anonymous": false,
      "inputs": [
        {
          "indexed": true,
          "internalType": "address",
          "name": "previousOwner",
          "type": "address"
        },
        {
          "indexed": true,
          "internalType": "address",
          "name": "newOwner",
          "type": "address"
        }
      ],
      "name": "OwnershipTransferred",
      "type": "event"
    },
    {
      "anonymous": false,
      "inputs": [
        {
          "indexed": true,
          "internalType": "address",
          "name": "from",
          "type": "address"
        },
        {
          "indexed": true,
          "internalType": "address",
          "name": "to",
          "type": "address"
        },
        {
          "indexed": false,
          "internalType": "uint256",
          "name": "value",
          "type": "uint256"
        }
      ],
      "name": "Transfer",
      "type": "event"
    },
    {
      "inputs": [
        {
          "internalType": "address",
          "name": "toAdd_",
          "type": "address"
        }
      ],
      "name": "addController",
      "outputs": [],
      "stateMutability": "nonpayable",
      "type": "function"
    },
    {
      "inputs": [
        {
          "internalType": "address",
          "name": "owner",
          "type": "address"
        },
        {
          "internalType": "address",
          "name": "spender",
          "type": "address"
        }
      ],
      "name": "allowance",
      "outputs": [
        {
          "internalType": "uint256",
          "name": "",
          "type": "uint256"
        }
      ],
      "stateMutability": "view",
      "type": "function"
    },
    {
      "inputs": [
        {
          "internalType": "address",
          "name": "spender",
          "type": "address"
        },
        {
          "internalType": "uint256",
          "name": "amount",
          "type": "uint256"
        }
      ],
      "name": "approve",
      "outputs": [
        {
          "internalType": "bool",
          "name": "",
          "type": "bool"
        }
      ],
      "stateMutability": "nonpayable",
      "type": "function"
    },
    {
      "inputs": [
        {
          "internalType": "address",
          "name": "account",
          "type": "address"
        }
      ],
      "name": "balanceOf",
      "outputs": [
        {
          "internalType": "uint256",
          "name": "",
          "type": "uint256"
        }
      ],
      "stateMutability": "view",
      "type": "function"
    },
    {
      "inputs": [],
      "name": "beraCubNftContract",
      "outputs": [
        {
          "internalType": "contract IBERACUB",
          "name": "",
          "type": "address"
        }
      ],
      "stateMutability": "view",
      "type": "function"
    },
    {
      "inputs": [],
      "name": "beraFarmAddress",
      "outputs": [
        {
          "internalType": "address",
          "name": "",
          "type": "address"
        }
      ],
      "stateMutability": "view",
      "type": "function"
    },
    {
      "inputs": [
        {
          "internalType": "address",
          "name": "from_",
          "type": "address"
        },
        {
          "internalType": "uint256",
          "name": "amount_",
          "type": "uint256"
        }
      ],
      "name": "burn",
      "outputs": [],
      "stateMutability": "nonpayable",
      "type": "function"
    },
    {
      "inputs": [],
      "name": "closeTradingToNonCubsOwner",
      "outputs": [],
      "stateMutability": "nonpayable",
      "type": "function"
    },
    {
      "inputs": [],
      "name": "cubsOnly",
      "outputs": [
        {
          "internalType": "bool",
          "name": "",
          "type": "bool"
        }
      ],
      "stateMutability": "view",
      "type": "function"
    },
    {
      "inputs": [],
      "name": "decimals",
      "outputs": [
        {
          "internalType": "uint8",
          "name": "",
          "type": "uint8"
        }
      ],
      "stateMutability": "view",
      "type": "function"
    },
    {
      "inputs": [
        {
          "internalType": "address",
          "name": "spender",
          "type": "address"
        },
        {
          "internalType": "uint256",
          "name": "subtractedValue",
          "type": "uint256"
        }
      ],
      "name": "decreaseAllowance",
      "outputs": [
        {
          "internalType": "bool",
          "name": "",
          "type": "bool"
        }
      ],
      "stateMutability": "nonpayable",
      "type": "function"
    },
    {
      "inputs": [],
      "name": "disableTrading",
      "outputs": [],
      "stateMutability": "nonpayable",
      "type": "function"
    },
    {
      "inputs": [],
      "name": "enableTrading",
      "outputs": [],
      "stateMutability": "nonpayable",
      "type": "function"
    },
    {
      "inputs": [],
      "name": "getPair",
      "outputs": [
        {
          "internalType": "address",
          "name": "",
          "type": "address"
        }
      ],
      "stateMutability": "view",
      "type": "function"
    },
    {
      "inputs": [],
      "name": "hibernating",
      "outputs": [
        {
          "internalType": "bool",
          "name": "",
          "type": "bool"
        }
      ],
      "stateMutability": "view",
      "type": "function"
    },
    {
      "inputs": [
        {
          "internalType": "address",
          "name": "spender",
          "type": "address"
        },
        {
          "internalType": "uint256",
          "name": "addedValue",
          "type": "uint256"
        }
      ],
      "name": "increaseAllowance",
      "outputs": [
        {
          "internalType": "bool",
          "name": "",
          "type": "bool"
        }
      ],
      "stateMutability": "nonpayable",
      "type": "function"
    },
    {
      "inputs": [
        {
          "internalType": "address",
          "name": "toCheck_",
          "type": "address"
        }
      ],
      "name": "isControllerAddress",
      "outputs": [
        {
          "internalType": "bool",
          "name": "",
          "type": "bool"
        }
      ],
      "stateMutability": "view",
      "type": "function"
    },
    {
      "inputs": [],
      "name": "liquidityPool",
      "outputs": [
        {
          "internalType": "address",
          "name": "",
          "type": "address"
        }
      ],
      "stateMutability": "view",
      "type": "function"
    },
    {
      "inputs": [],
      "name": "maxSupply",
      "outputs": [
        {
          "internalType": "uint256",
          "name": "",
          "type": "uint256"
        }
      ],
      "stateMutability": "view",
      "type": "function"
    },
    {
      "inputs": [],
      "name": "maxTransactionPercent",
      "outputs": [
        {
          "internalType": "uint256",
          "name": "",
          "type": "uint256"
        }
      ],
      "stateMutability": "view",
      "type": "function"
    },
    {
      "inputs": [
        {
          "internalType": "address",
          "name": "to_",
          "type": "address"
        },
        {
          "internalType": "uint256",
          "name": "amount_",
          "type": "uint256"
        }
      ],
      "name": "mint",
      "outputs": [],
      "stateMutability": "nonpayable",
      "type": "function"
    },
    {
      "inputs": [],
      "name": "name",
      "outputs": [
        {
          "internalType": "string",
          "name": "",
          "type": "string"
        }
      ],
      "stateMutability": "view",
      "type": "function"
    },
    {
      "inputs": [],
      "name": "openTradingToEveryone",
      "outputs": [],
      "stateMutability": "nonpayable",
      "type": "function"
    },
    {
      "inputs": [],
      "name": "openTradingToNonCubsOwner",
      "outputs": [],
      "stateMutability": "nonpayable",
      "type": "function"
    },
    {
      "inputs": [],
      "name": "owner",
      "outputs": [
        {
          "internalType": "address",
          "name": "",
          "type": "address"
        }
      ],
      "stateMutability": "view",
      "type": "function"
    },
    {
      "inputs": [
        {
          "internalType": "address",
          "name": "toRemove_",
          "type": "address"
        }
      ],
      "name": "removeController",
      "outputs": [],
      "stateMutability": "nonpayable",
      "type": "function"
    },
    {
      "inputs": [],
      "name": "removeHibernation",
      "outputs": [],
      "stateMutability": "nonpayable",
      "type": "function"
    },
    {
      "inputs": [],
      "name": "renounceOwnership",
      "outputs": [],
      "stateMutability": "nonpayable",
      "type": "function"
    },
    {
      "inputs": [
        {
          "internalType": "address",
          "name": "_beraFarmAddress",
          "type": "address"
        }
      ],
      "name": "setBeraFarmAddress",
      "outputs": [],
      "stateMutability": "nonpayable",
      "type": "function"
    },
    {
      "inputs": [
        {
          "internalType": "address",
          "name": "_pair",
          "type": "address"
        }
      ],
      "name": "setpair",
      "outputs": [],
      "stateMutability": "nonpayable",
      "type": "function"
    },
    {
      "inputs": [],
      "name": "symbol",
      "outputs": [
        {
          "internalType": "string",
          "name": "",
          "type": "string"
        }
      ],
      "stateMutability": "view",
      "type": "function"
    },
    {
      "inputs": [],
      "name": "totalBurned",
      "outputs": [
        {
          "internalType": "uint256",
          "name": "",
          "type": "uint256"
        }
      ],
      "stateMutability": "view",
      "type": "function"
    },
    {
      "inputs": [],
      "name": "totalSupply",
      "outputs": [
        {
          "internalType": "uint256",
          "name": "",
          "type": "uint256"
        }
      ],
      "stateMutability": "view",
      "type": "function"
    },
    {
      "inputs": [],
      "name": "tradingEnabled",
      "outputs": [
        {
          "internalType": "bool",
          "name": "",
          "type": "bool"
        }
      ],
      "stateMutability": "view",
      "type": "function"
    },
    {
      "inputs": [
        {
          "internalType": "address",
          "name": "to",
          "type": "address"
        },
        {
          "internalType": "uint256",
          "name": "amount",
          "type": "uint256"
        }
      ],
      "name": "transfer",
      "outputs": [
        {
          "internalType": "bool",
          "name": "",
          "type": "bool"
        }
      ],
      "stateMutability": "nonpayable",
      "type": "function"
    },
    {
      "inputs": [
        {
          "internalType": "address",
          "name": "from",
          "type": "address"
        },
        {
          "internalType": "address",
          "name": "to",
          "type": "address"
        },
        {
          "internalType": "uint256",
          "name": "amount",
          "type": "uint256"
        }
      ],
      "name": "transferFrom",
      "outputs": [
        {
          "internalType": "bool",
          "name": "",
          "type": "bool"
        }
      ],
      "stateMutability": "nonpayable",
      "type": "function"
    },
    {
      "inputs": [
        {
          "internalType": "address",
          "name": "newOwner",
          "type": "address"
        }
      ],
      "name": "transferOwnership",
      "outputs": [],
      "stateMutability": "nonpayable",
      "type": "function"
    },
    {
      "inputs": [],
      "name": "treasuryAddress",
      "outputs": [
        {
          "internalType": "address",
          "name": "",
          "type": "address"
        }
      ],
      "stateMutability": "view",
      "type": "function"
    }
  ],
  "bytecode": "0x608060409080825234620004ea5760808162002417803803809162000025828562000521565b833981010312620004ea57805190602091828201516200005560606200004d87860162000545565b940162000545565b908551946200006486620004ef565b600a865269233abd3d102a37b5b2b760b11b818701528651916200008883620004ef565b600480845263232aad2d60e11b838501528751909790936001600160401b0390818611620004d5576003908154966001948589811c99168015620004ca575b888a1014620004b5578190601f998a81116200045f575b5088908a8311600114620003f857600092620003ec575b505060001982851b1c191690851b1782555b8051928311620003d7578a548481811c91168015620003cc575b87821014620003b757908188859493116200035f575b508690888411600114620002f457600093620002e8575b505082841b92600019911b1c19161788555b6101016005549660018060a01b031998338a8a16176005558b519460018060a01b03998a3391167f8be0079c531659141344cd1fd0a4f28419497f9722a3daafe3b4186f6b6457e0600080a3600b549285600d556006556007556301000000600160b81b039060181b169060018060b81b0319161717600b5533600052600a8352886000209060ff19825416179055600654923315620002ab5750507fddf252ad1be2c89b69c2b068fc378daa952ba7f163c4a11628f55a4df523b3ef6000916200022c84336200057e565b6200023a846002546200055a565b600255338352828152888320620002538582546200055a565b905588519384523393a31690600954161760095560065490600d549182810292818404149015171562000296575060649004600e5551611a7c90816200099b8239f35b601190634e487b7160e01b6000525260246000fd5b6064928862461bcd60e51b845283015260248201527f45524332303a206d696e7420746f20746865207a65726f2061646472657373006044820152fd5b0151915038806200014e565b9190859450601f198416928d600052886000209360005b8a8282106200034857505085116200032d575b50505050811b01885562000160565b01519060f884600019921b161c19169055388080806200031e565b83850151875589989096019593840193016200030b565b909192508b600052866000208880860160051c820192898710620003ad575b91879187969594930160051c01915b8281106200039d57505062000137565b600081558695508791016200038d565b925081926200037e565b60228c634e487b7160e01b6000525260246000fd5b90607f169062000121565b60418b634e487b7160e01b6000525260246000fd5b015190503880620000f5565b90879350601f19831691866000528a6000209260005b8c8282106200044857505084116200042f575b505050811b01825562000107565b015160001983871b60f8161c1916905538808062000421565b8385015186558b979095019493840193016200040e565b90915084600052886000208a80850160051c8201928b8610620004ab575b918991869594930160051c01915b8281106200049b575050620000de565b600081558594508991016200048b565b925081926200047d565b60228d634e487b7160e01b6000525260246000fd5b98607f1698620000c7565b60418a634e487b7160e01b6000525260246000fd5b600080fd5b604081019081106001600160401b038211176200050b57604052565b634e487b7160e01b600052604160045260246000fd5b601f909101601f19168101906001600160401b038211908210176200050b57604052565b51906001600160a01b0382168203620004ea57565b919082018092116200056857565b634e487b7160e01b600052601160045260246000fd5b90600b5460ff8160101c1615620008d15760ff8160081c1680620008be575b80620008a5575b620006b2575b60ff16806200069d575b8062000684575b620005c4575050565b620005e59160018060a01b031660005260006020526040600020546200055a565b60646002540410620005f357565b60405162461bcd60e51b815260206004820152605e60248201527f4a7573742067657474696e67207761726d65642075702c206c696d6974206f6660448201527f203125206f66202446555a5a2063616e2062652054726164656420756e74696c60648201527f20426572612048696265726e6174696f6e20697320636f6d706c657465210000608482015260a490fd5b50600f546001600160a01b0383811691161415620005bb565b506005546001600160a01b03161515620005b4565b6040805190620006c282620004ef565b600a825260209169546f206164647265737360b01b838201528151620007008482019263319af33360e01b8452846024840152606483019062000958565b9160018060a01b038583828b169586604483015203916200072a601f199384810187528662000521565b6000808096516a636f6e736f6c652e6c6f6796875afa50600954169460248751809781936370a0823160e01b835260048301525afa9384156200089b57839462000862575b5084518392916200078082620004ef565b601682527f547261646572204375622042616c616e63653a2025730000000000000000000088830152620007e787519182620007d48b820195632d839cb360e21b87528b6024840152606483019062000958565b8960448301520390810183528262000521565b51915afa5015620007fa575050620005aa565b6084925080519162461bcd60e51b8352600483015260248201527f43756273204f6e6c7920497320616374697665202d20596f75206e656564207460448201527f6f2068617665206120426572612043756220746f2074726164652046555a5a216064820152fd5b9093508581813d831162000893575b6200087d818362000521565b810103126200088f575192826200076f565b8280fd5b503d62000871565b85513d85823e3d90fd5b50600c546001600160a01b0384811691161415620005a4565b506001600160a01b03831615156200059d565b50506005546001600160a01b0390811680159290919083156200094b575b50505015620008fa57565b60405162461bcd60e51b815260206004820152602360248201527f50617469656e6365202d2054726164696e67204e6f742053746172746564205960448201526265742160e81b6064820152608490fd5b16149050388080620008ef565b919082519283825260005b84811062000985575050826000602080949584010152601f8019910116010190565b6020818301810151848301820152016200096356fe60806040908082526004918236101561001757600080fd5b600092833560e01c92836306fdde0314610d7c57508263095ea7b314610d5257826317700f0114610d2a57826318160ddd14610d0b578263199f4c9914610ce257826323b872dd14610c19578263313ce56714610bfd5782633950935114610bad57826340c10f1914610a8757826348f5eeeb14610a5e5782634ada218b14610a3757826353b2b844146109f25782635ebd81d6146109cc57826362778bd7146109875782636605d0ce14610960578263663a14521461093c578263665a11ca1461040b57826370a0823114610905578263715018a6146108a85782638a8c523c1461087b5782638bea5b38146108525782638da5cb5b1461082957826395d89b411461072b5782639dc29fac146105d3578263a457c2d714610530578263a7fc7a07146104c2578263a9059cbb14610491578263ad60964614610472578263bae4076614610434578263c1f1b1b51461040b578263c5f956af146103de578263caadd1ed146103b3578263d5abeb0114610394578263d89135cd14610375578263dd62ed3e1461032c578263f2fde38b1461026157508163f6a74ed7146101f2575063fb8b694b146101c957600080fd5b346101ef57806003193601126101ef576101e1610ec1565b61ff0019600b5416600b5580f35b80fd5b90503461025d57602036600319011261025d5760207f33d83959be2573f5453b12eb9d43b3499bc57d96bd2f067ba44803c859e8111391610231610e90565b610239610ec1565b6001600160a01b0316808552600a8352818520805460ff191690559051908152a180f35b5080fd5b909150346103285760203660031901126103285761027d610e90565b90610286610ec1565b6001600160a01b039182169283156102d6575050600580546001600160a01b031981168417909155167f8be0079c531659141344cd1fd0a4f28419497f9722a3daafe3b4186f6b6457e08380a380f35b906020608492519162461bcd60e51b8352820152602660248201527f4f776e61626c653a206e6577206f776e657220697320746865207a65726f206160448201526564647265737360d01b6064820152fd5b8280fd5b83823461025d578060031936011261025d578060209261034a610e90565b610352610eab565b6001600160a01b0391821683526001865283832091168252845220549051908152f35b83823461025d578160031936011261025d576020906008549051908152f35b83823461025d578160031936011261025d576020906007549051908152f35b83346101ef57806003193601126101ef576103cc610ec1565b61010061ff0019600b541617600b5580f35b83823461025d578160031936011261025d57600b54905160189190911c6001600160a01b03168152602090f35b83823461025d578160031936011261025d57600f5490516001600160a01b039091168152602090f35b83823461025d57602036600319011261025d5760209160ff9082906001600160a01b0361045f610e90565b168152600a855220541690519015158152f35b83823461025d578160031936011261025d57602090600d549051908152f35b83823461025d578060031936011261025d576020906104bb6104b1610e90565b6024359033610f90565b5160018152f35b83823461025d57602036600319011261025d5760207f0a8bb31534c0ed46f380cb867bd5c803a189ced9a764e30b3a4991a9901d747491610501610e90565b610509610ec1565b6001600160a01b0316808552600a8352818520805460ff191660011790559051908152a180f35b83346101ef57826003193601126101ef57610549610e90565b918360243592338152600160205281812060018060a01b0386168252602052205490828210610582576020856104bb8585038733611101565b608490602086519162461bcd60e51b8352820152602560248201527f45524332303a2064656372656173656420616c6c6f77616e63652062656c6f77604482015264207a65726f60d81b6064820152fd5b83823461025d578060031936011261025d576105ed610e90565b90602435338452602091600a835261060a60ff82872054166119e2565b61061682600854610f6d565b6008556001600160a01b0384169384156106de5782610634916115ab565b83855284835280852054828110610690578290858752868552038186205560025482810390811161067d5760025551908152839291600080516020611a2783398151915291a380f35b634e487b7160e01b865260118752602486fd5b815162461bcd60e51b8152808801859052602260248201527f45524332303a206275726e20616d6f756e7420657863656564732062616c616e604482015261636560f01b6064820152608490fd5b815162461bcd60e51b8152808801859052602160248201527f45524332303a206275726e2066726f6d20746865207a65726f206164647265736044820152607360f81b6064820152608490fd5b9083346101ef57806003193601126101ef5781519181845492600184811c9181861695861561081f575b602096878510811461080c579087899a92868b999a9b5291826000146107e25750506001146107a4575b85886107a089610791848a0385610f4b565b51928284938452830190610e50565b0390f35b87945081939291528383205b8284106107ca57505050820101816107916107a08861077f565b8054848a0186015288955087949093019281016107b0565b60ff19168882015294151560051b8701909401945085935061079192506107a0915089905061077f565b634e487b7160e01b835260228a52602483fd5b92607f1692610755565b83823461025d578160031936011261025d5760055490516001600160a01b039091168152602090f35b83823461025d578160031936011261025d57600c5490516001600160a01b039091168152602090f35b83346101ef57806003193601126101ef57610894610ec1565b6201000062ff000019600b541617600b5580f35b83346101ef57806003193601126101ef576108c1610ec1565b600580546001600160a01b0319811690915581906001600160a01b03167f8be0079c531659141344cd1fd0a4f28419497f9722a3daafe3b4186f6b6457e08280a380f35b83823461025d57602036600319011261025d5760209181906001600160a01b0361092d610e90565b16815280845220549051908152f35b83823461025d578160031936011261025d5760209060ff600b541690519015158152f35b83823461025d578160031936011261025d5760209060ff600b5460081c1690519015158152f35b83346101ef5760203660031901126101ef576109a1610e90565b6109a9610ec1565b600f80546001600160a01b0319166001600160a01b039290921691909117905580f35b83346101ef57806003193601126101ef576109e5610ec1565b60ff19600b5416600b5580f35b83346101ef5760203660031901126101ef57610a0c610e90565b610a14610ec1565b600c80546001600160a01b0319166001600160a01b039290921691909117905580f35b83823461025d578160031936011261025d5760209060ff600b5460101c1690519015158152f35b83823461025d578160031936011261025d5760ff6101e191338452600a602052832054166119e2565b915034610328578060031936011261032857610aa1610e90565b9060243591338552600a602052610abd60ff83872054166119e2565b60025490610acb8483610f6d565b60075410610b71576001600160a01b038116948515610b2e575092600080516020611a2783398151915292610b0d82602094610b08828b99611203565b610f6d565b600255858552848352808520610b24838254610f6d565b905551908152a380f35b606490602085519162461bcd60e51b8352820152601f60248201527f45524332303a206d696e7420746f20746865207a65726f2061646472657373006044820152fd5b825162461bcd60e51b8152602081870152601660248201527513585e1a5b5d5b481cdd5c1c1b1e481c995858da195960521b6044820152606490fd5b83823461025d578060031936011261025d576104bb602092610bf6610bd0610e90565b338352600186528483206001600160a01b03821684528652918490205460243590610f6d565b9033611101565b83823461025d578160031936011261025d576020905160128152f35b83903461025d57606036600319011261025d57610c34610e90565b610c3c610eab565b91846044359460018060a01b038416815260016020528181203382526020522054906000198203610c76575b6020866104bb878787610f90565b848210610c9f5750918391610c94602096956104bb95033383611101565b919394819350610c68565b606490602087519162461bcd60e51b8352820152601d60248201527f45524332303a20696e73756666696369656e7420616c6c6f77616e63650000006044820152fd5b83823461025d578160031936011261025d5760095490516001600160a01b039091168152602090f35b83823461025d578160031936011261025d576020906002549051908152f35b83346101ef57806003193601126101ef57610d43610ec1565b62ff000019600b5416600b5580f35b83823461025d578060031936011261025d576020906104bb610d72610e90565b6024359033611101565b84833461025d578160031936011261025d578160035492600184811c91818616958615610e46575b602096878510811461080c578899509688969785829a529182600014610e1f575050600114610de1575b5050506107a09291610791910385610f4b565b9190869350600383528383205b828410610e0757505050820101816107916107a0610dce565b8054848a018601528895508794909301928101610dee565b60ff19168782015293151560051b8601909301935084925061079191506107a09050610dce565b92607f1692610da4565b919082519283825260005b848110610e7c575050826000602080949584010152601f8019910116010190565b602081830181015184830182015201610e5b565b600435906001600160a01b0382168203610ea657565b600080fd5b602435906001600160a01b0382168203610ea657565b6005546001600160a01b03163303610ed557565b606460405162461bcd60e51b815260206004820152602060248201527f4f776e61626c653a2063616c6c6572206973206e6f7420746865206f776e65726044820152fd5b6040810190811067ffffffffffffffff821117610f3557604052565b634e487b7160e01b600052604160045260246000fd5b90601f8019910116810190811067ffffffffffffffff821117610f3557604052565b91908201809211610f7a57565b634e487b7160e01b600052601160045260246000fd5b916001600160a01b03808416929083156110ae57811693841561105d57610fb89183916117e5565b6000828152806020526040812054918083106110095760408282600080516020611a27833981519152958760209652828652038282205586815220610ffe828254610f6d565b9055604051908152a3565b60405162461bcd60e51b815260206004820152602660248201527f45524332303a207472616e7366657220616d6f756e7420657863656564732062604482015265616c616e636560d01b6064820152608490fd5b60405162461bcd60e51b815260206004820152602360248201527f45524332303a207472616e7366657220746f20746865207a65726f206164647260448201526265737360e81b6064820152608490fd5b60405162461bcd60e51b815260206004820152602560248201527f45524332303a207472616e736665722066726f6d20746865207a65726f206164604482015264647265737360d81b6064820152608490fd5b6001600160a01b039081169182156111b257169182156111625760207f8c5be1e5ebec7d5bd14f71427d1e84f3dd0314c0f7b2291e5b200ac8c7c3b925918360005260018252604060002085600052825280604060002055604051908152a3565b60405162461bcd60e51b815260206004820152602260248201527f45524332303a20617070726f766520746f20746865207a65726f206164647265604482015261737360f01b6064820152608490fd5b60405162461bcd60e51b8152602060048201526024808201527f45524332303a20617070726f76652066726f6d20746865207a65726f206164646044820152637265737360e01b6064820152608490fd5b90600b5460ff8160101c16156115275760ff8160081c1680611515575b806114fd575b61132b575b60ff1680611317575b806112ff575b611242575050565b6112619160018060a01b03166000526000602052604060002054610f6d565b6064600254041061126e57565b60405162461bcd60e51b815260206004820152605e60248201527f4a7573742067657474696e67207761726d65642075702c206c696d6974206f6660448201527f203125206f66202446555a5a2063616e2062652054726164656420756e74696c60648201527f20426572612048696265726e6174696f6e20697320636f6d706c657465210000608482015260a490fd5b50600f546001600160a01b038381169116141561123a565b506005546001600160a01b03161515611234565b604080519061133982610f19565b600a825260209169546f206164647265737360b01b8382015281516113758482019263319af33360e01b84528460248401526064830190610e50565b9160018060a01b038583828b1695866044830152039161139d601f1993848101875286610f4b565b6000808096516a636f6e736f6c652e6c6f6796875afa50600954169460248751809781936370a0823160e01b835260048301525afa9384156114f35783946114c4575b5084518392916113ef82610f19565b6016825275547261646572204375622042616c616e63653a20257360501b8883015261144b875191826114398b820195632d839cb360e21b87528b60248401526064830190610e50565b89604483015203908101835282610f4b565b51915afa501561145c57505061122b565b6084925080519162461bcd60e51b8352600483015260248201527f43756273204f6e6c7920497320616374697665202d20596f75206e656564207460448201527f6f2068617665206120426572612043756220746f2074726164652046555a5a216064820152fd5b9093508581813d83116114ec575b6114dc8183610f4b565b81010312610328575192826113e0565b503d6114d2565b85513d85823e3d90fd5b50600c546001600160a01b0384811691161415611226565b506001600160a01b0383161515611220565b50506005546001600160a01b03908116801592909190831561159f575b5050501561154e57565b60405162461bcd60e51b815260206004820152602360248201527f50617469656e6365202d2054726164696e67204e6f742053746172746564205960448201526265742160e81b6064820152608490fd5b16149050388080611544565b600b5460ff8160101c16156117b85760ff8160081c16806117b0575b8061179c575b61164c575b60ff169081611632575b508061161e575b6115ea5750565b60008080526020527fad3228b676f7d3cd4284a5443f17f1962b36e491b30a40b2405849e597ba5fb5546112619190610f6d565b50600f546001600160a01b031615156115e3565b6005546001600160a01b03918216911614159050386115dc565b604080519061165a82610f19565b600a8252602460209269546f206164647265737360b01b84820152825190816116998682019263319af33360e01b845286868401526064830190610e50565b6000828195928260448195015203926116ba601f1994858101835282610f4b565b516a636f6e736f6c652e6c6f6794855afa5060095485516370a0823160e01b81526004810185905294879186919082906001600160a01b03165afa9384156114f357839461176d575b50845183929161171282610f19565b6016825275547261646572204375622042616c616e63653a20257360501b8883015261175c875191826114398b820195632d839cb360e21b87528b60248401526064830190610e50565b51915afa501561145c5750506115d2565b9093508581813d8311611795575b6117858183610f4b565b8101031261032857519282611703565b503d61177b565b50600c546001600160a01b031615156115cd565b5060006115c7565b506005546001600160a01b0390811691168114915081156117dc575b501561154e57565b905015386117d4565b919091600b5460ff8160101c16156119b95760ff8160081c16806119a7575b8061198f575b611841575b60ff169081611827575b50806112ff57611242575050565b6005546001600160a01b0391821691161415905038611819565b604080519061184f82610f19565b600a825260209169546f206164647265737360b01b83820152815161188b8482019263319af33360e01b84528460248401526064830190610e50565b9160018060a01b038583828c169586604483015203916118b3601f1993848101875286610f4b565b6000808096516a636f6e736f6c652e6c6f6796875afa50600954169460248751809781936370a0823160e01b835260048301525afa9384156114f3578394611960575b50845183929161190582610f19565b6016825275547261646572204375622042616c616e63653a20257360501b8883015261194f875191826114398b820195632d839cb360e21b87528b60248401526064830190610e50565b51915afa501561145c57505061180f565b9093508581813d8311611988575b6119788183610f4b565b81010312610328575192826118f6565b503d61196e565b50600c546001600160a01b038581169116141561180a565b506001600160a01b0384161515611804565b506005546001600160a01b0391821690821690811493909250831561159f575050501561154e57565b156119e957565b60405162461bcd60e51b815260206004820152601560248201527421b0b63632b9102737ba1021b7b73a3937b63632b960591b6044820152606490fdfeddf252ad1be2c89b69c2b068fc378daa952ba7f163c4a11628f55a4df523b3efa2646970667358221220b6d9efc3729ba3b9bf6dcef8d04cca3a38d6844d4ebf906edb65bd0c2875c58564736f6c63430008130033",
  "linkReferences": {},
  "deployedLinkReferences": {}
}