{
  "_format": "hh-sol-artifact-1",
  "contractName": "FuzzToken",
  "sourceName": "contracts/FuzzToken.sol",
  "abi": [
    {
      "inputs": [
        {
          "internalType": "uint256",
          "name": "_initialSupply",
          "type": "uint256"
        },
        {
          "internalType": "uint256",
          "name": "_maxSupply",
          "type": "uint256"
        },
        {
          "internalType": "address",
          "name": "_treasuryAddress",
          "type": "address"
        },
        {
          "internalType": "address",
          "name": "_beraCubNftContract",
          "type": "address"
        }
      ],
      "stateMutability": "nonpayable",
      "type": "constructor"
    },
    {
      "anonymous": false,
      "inputs": [
        {
          "indexed": true,
          "internalType": "address",
          "name": "owner",
          "type": "address"
        },
        {
          "indexed": true,
          "internalType": "address",
          "name": "spender",
          "type": "address"
        },
        {
          "indexed": false,
          "internalType": "uint256",
          "name": "value",
          "type": "uint256"
        }
      ],
      "name": "Approval",
      "type": "event"
    },
    {
      "anonymous": false,
      "inputs": [
        {
          "indexed": false,
          "internalType": "address",
          "name": "newController",
          "type": "address"
        }
      ],
      "name": "ControllerAdded",
      "type": "event"
    },
    {
      "anonymous": false,
      "inputs": [
        {
          "indexed": false,
          "internalType": "address",
          "name": "controllerRemoved",
          "type": "address"
        }
      ],
      "name": "ControllerRemoved",
      "type": "event"
    },
    {
      "anonymous": false,
      "inputs": [
        {
          "indexed": true,
          "internalType": "address",
          "name": "previousOwner",
          "type": "address"
        },
        {
          "indexed": true,
          "internalType": "address",
          "name": "newOwner",
          "type": "address"
        }
      ],
      "name": "OwnershipTransferred",
      "type": "event"
    },
    {
      "anonymous": false,
      "inputs": [
        {
          "indexed": true,
          "internalType": "address",
          "name": "from",
          "type": "address"
        },
        {
          "indexed": true,
          "internalType": "address",
          "name": "to",
          "type": "address"
        },
        {
          "indexed": false,
          "internalType": "uint256",
          "name": "value",
          "type": "uint256"
        }
      ],
      "name": "Transfer",
      "type": "event"
    },
    {
      "inputs": [
        {
          "internalType": "address",
          "name": "toAdd_",
          "type": "address"
        }
      ],
      "name": "addController",
      "outputs": [],
      "stateMutability": "nonpayable",
      "type": "function"
    },
    {
      "inputs": [
        {
          "internalType": "address",
          "name": "owner",
          "type": "address"
        },
        {
          "internalType": "address",
          "name": "spender",
          "type": "address"
        }
      ],
      "name": "allowance",
      "outputs": [
        {
          "internalType": "uint256",
          "name": "",
          "type": "uint256"
        }
      ],
      "stateMutability": "view",
      "type": "function"
    },
    {
      "inputs": [
        {
          "internalType": "address",
          "name": "spender",
          "type": "address"
        },
        {
          "internalType": "uint256",
          "name": "amount",
          "type": "uint256"
        }
      ],
      "name": "approve",
      "outputs": [
        {
          "internalType": "bool",
          "name": "",
          "type": "bool"
        }
      ],
      "stateMutability": "nonpayable",
      "type": "function"
    },
    {
      "inputs": [
        {
          "internalType": "address",
          "name": "account",
          "type": "address"
        }
      ],
      "name": "balanceOf",
      "outputs": [
        {
          "internalType": "uint256",
          "name": "",
          "type": "uint256"
        }
      ],
      "stateMutability": "view",
      "type": "function"
    },
    {
      "inputs": [],
      "name": "beraCubNftContract",
      "outputs": [
        {
          "internalType": "contract IBERACUB",
          "name": "",
          "type": "address"
        }
      ],
      "stateMutability": "view",
      "type": "function"
    },
    {
      "inputs": [],
      "name": "beraFarmAddress",
      "outputs": [
        {
          "internalType": "address",
          "name": "",
          "type": "address"
        }
      ],
      "stateMutability": "view",
      "type": "function"
    },
    {
      "inputs": [
        {
          "internalType": "address",
          "name": "from_",
          "type": "address"
        },
        {
          "internalType": "uint256",
          "name": "amount_",
          "type": "uint256"
        }
      ],
      "name": "burn",
      "outputs": [],
      "stateMutability": "nonpayable",
      "type": "function"
    },
    {
      "inputs": [],
      "name": "closeTradingToNonCubsOwner",
      "outputs": [],
      "stateMutability": "nonpayable",
      "type": "function"
    },
    {
      "inputs": [],
      "name": "cubsOnly",
      "outputs": [
        {
          "internalType": "bool",
          "name": "",
          "type": "bool"
        }
      ],
      "stateMutability": "view",
      "type": "function"
    },
    {
      "inputs": [],
      "name": "decimals",
      "outputs": [
        {
          "internalType": "uint8",
          "name": "",
          "type": "uint8"
        }
      ],
      "stateMutability": "view",
      "type": "function"
    },
    {
      "inputs": [
        {
          "internalType": "address",
          "name": "spender",
          "type": "address"
        },
        {
          "internalType": "uint256",
          "name": "subtractedValue",
          "type": "uint256"
        }
      ],
      "name": "decreaseAllowance",
      "outputs": [
        {
          "internalType": "bool",
          "name": "",
          "type": "bool"
        }
      ],
      "stateMutability": "nonpayable",
      "type": "function"
    },
    {
      "inputs": [],
      "name": "disableTrading",
      "outputs": [],
      "stateMutability": "nonpayable",
      "type": "function"
    },
    {
      "inputs": [],
      "name": "enableTrading",
      "outputs": [],
      "stateMutability": "nonpayable",
      "type": "function"
    },
    {
      "inputs": [],
      "name": "getPair",
      "outputs": [
        {
          "internalType": "address",
          "name": "",
          "type": "address"
        }
      ],
      "stateMutability": "view",
      "type": "function"
    },
    {
      "inputs": [],
      "name": "hibernating",
      "outputs": [
        {
          "internalType": "bool",
          "name": "",
          "type": "bool"
        }
      ],
      "stateMutability": "view",
      "type": "function"
    },
    {
      "inputs": [
        {
          "internalType": "address",
          "name": "spender",
          "type": "address"
        },
        {
          "internalType": "uint256",
          "name": "addedValue",
          "type": "uint256"
        }
      ],
      "name": "increaseAllowance",
      "outputs": [
        {
          "internalType": "bool",
          "name": "",
          "type": "bool"
        }
      ],
      "stateMutability": "nonpayable",
      "type": "function"
    },
    {
      "inputs": [
        {
          "internalType": "address",
          "name": "toCheck_",
          "type": "address"
        }
      ],
      "name": "isControllerAddress",
      "outputs": [
        {
          "internalType": "bool",
          "name": "",
          "type": "bool"
        }
      ],
      "stateMutability": "view",
      "type": "function"
    },
    {
      "inputs": [],
      "name": "liquidityPool",
      "outputs": [
        {
          "internalType": "address",
          "name": "",
          "type": "address"
        }
      ],
      "stateMutability": "view",
      "type": "function"
    },
    {
      "inputs": [],
      "name": "maxSupply",
      "outputs": [
        {
          "internalType": "uint256",
          "name": "",
          "type": "uint256"
        }
      ],
      "stateMutability": "view",
      "type": "function"
    },
    {
      "inputs": [],
      "name": "maxTransactionPercent",
      "outputs": [
        {
          "internalType": "uint256",
          "name": "",
          "type": "uint256"
        }
      ],
      "stateMutability": "view",
      "type": "function"
    },
    {
      "inputs": [
        {
          "internalType": "address",
          "name": "to_",
          "type": "address"
        },
        {
          "internalType": "uint256",
          "name": "amount_",
          "type": "uint256"
        }
      ],
      "name": "mint",
      "outputs": [],
      "stateMutability": "nonpayable",
      "type": "function"
    },
    {
      "inputs": [],
      "name": "name",
      "outputs": [
        {
          "internalType": "string",
          "name": "",
          "type": "string"
        }
      ],
      "stateMutability": "view",
      "type": "function"
    },
    {
      "inputs": [],
      "name": "openTradingToEveryone",
      "outputs": [],
      "stateMutability": "nonpayable",
      "type": "function"
    },
    {
      "inputs": [],
      "name": "openTradingToNonCubsOwner",
      "outputs": [],
      "stateMutability": "nonpayable",
      "type": "function"
    },
    {
      "inputs": [],
      "name": "owner",
      "outputs": [
        {
          "internalType": "address",
          "name": "",
          "type": "address"
        }
      ],
      "stateMutability": "view",
      "type": "function"
    },
    {
      "inputs": [
        {
          "internalType": "address",
          "name": "toRemove_",
          "type": "address"
        }
      ],
      "name": "removeController",
      "outputs": [],
      "stateMutability": "nonpayable",
      "type": "function"
    },
    {
      "inputs": [],
      "name": "removeHibernation",
      "outputs": [],
      "stateMutability": "nonpayable",
      "type": "function"
    },
    {
      "inputs": [],
      "name": "renounceOwnership",
      "outputs": [],
      "stateMutability": "nonpayable",
      "type": "function"
    },
    {
      "inputs": [
        {
          "internalType": "address",
          "name": "_beraFarmAddress",
          "type": "address"
        }
      ],
      "name": "setBeraFarmAddress",
      "outputs": [],
      "stateMutability": "nonpayable",
      "type": "function"
    },
    {
      "inputs": [
        {
          "internalType": "address",
          "name": "_pair",
          "type": "address"
        }
      ],
      "name": "setpair",
      "outputs": [],
      "stateMutability": "nonpayable",
      "type": "function"
    },
    {
      "inputs": [],
      "name": "symbol",
      "outputs": [
        {
          "internalType": "string",
          "name": "",
          "type": "string"
        }
      ],
      "stateMutability": "view",
      "type": "function"
    },
    {
      "inputs": [],
      "name": "totalBurned",
      "outputs": [
        {
          "internalType": "uint256",
          "name": "",
          "type": "uint256"
        }
      ],
      "stateMutability": "view",
      "type": "function"
    },
    {
      "inputs": [],
      "name": "totalSupply",
      "outputs": [
        {
          "internalType": "uint256",
          "name": "",
          "type": "uint256"
        }
      ],
      "stateMutability": "view",
      "type": "function"
    },
    {
      "inputs": [],
      "name": "tradingEnabled",
      "outputs": [
        {
          "internalType": "bool",
          "name": "",
          "type": "bool"
        }
      ],
      "stateMutability": "view",
      "type": "function"
    },
    {
      "inputs": [
        {
          "internalType": "address",
          "name": "to",
          "type": "address"
        },
        {
          "internalType": "uint256",
          "name": "amount",
          "type": "uint256"
        }
      ],
      "name": "transfer",
      "outputs": [
        {
          "internalType": "bool",
          "name": "",
          "type": "bool"
        }
      ],
      "stateMutability": "nonpayable",
      "type": "function"
    },
    {
      "inputs": [
        {
          "internalType": "address",
          "name": "from",
          "type": "address"
        },
        {
          "internalType": "address",
          "name": "to",
          "type": "address"
        },
        {
          "internalType": "uint256",
          "name": "amount",
          "type": "uint256"
        }
      ],
      "name": "transferFrom",
      "outputs": [
        {
          "internalType": "bool",
          "name": "",
          "type": "bool"
        }
      ],
      "stateMutability": "nonpayable",
      "type": "function"
    },
    {
      "inputs": [
        {
          "internalType": "address",
          "name": "newOwner",
          "type": "address"
        }
      ],
      "name": "transferOwnership",
      "outputs": [],
      "stateMutability": "nonpayable",
      "type": "function"
    },
    {
      "inputs": [],
      "name": "treasuryAddress",
      "outputs": [
        {
          "internalType": "address",
          "name": "",
          "type": "address"
        }
      ],
      "stateMutability": "view",
      "type": "function"
    }
  ],
  "bytecode": "0x608060409080825234620004ea5760808162002129803803809162000025828562000521565b833981010312620004ea57805190602091828201516200005560606200004d87860162000545565b940162000545565b908551946200006486620004ef565b600a865269233abd3d102a37b5b2b760b11b818701528651916200008883620004ef565b600480845263232aad2d60e11b838501528751909790936001600160401b0390818611620004d5576003908154966001948589811c99168015620004ca575b888a1014620004b5578190601f998a81116200045f575b5088908a8311600114620003f857600092620003ec575b505060001982851b1c191690851b1782555b8051928311620003d7578a548481811c91168015620003cc575b87821014620003b757908188859493116200035f575b508690888411600114620002f457600093620002e8575b505082841b92600019911b1c19161788555b6101016005549660018060a01b031998338a8a16176005558b519460018060a01b03998a3391167f8be0079c531659141344cd1fd0a4f28419497f9722a3daafe3b4186f6b6457e0600080a3600b549285600d556006556007556301000000600160b81b039060181b169060018060b81b0319161717600b5533600052600a8352886000209060ff19825416179055600654923315620002ab5750507fddf252ad1be2c89b69c2b068fc378daa952ba7f163c4a11628f55a4df523b3ef6000916200022c84336200057e565b6200023a846002546200055a565b600255338352828152888320620002538582546200055a565b905588519384523393a31690600954161760095560065490600d549182810292818404149015171562000296575060649004600e55516118b19081620008788239f35b601190634e487b7160e01b6000525260246000fd5b6064928862461bcd60e51b845283015260248201527f45524332303a206d696e7420746f20746865207a65726f2061646472657373006044820152fd5b0151915038806200014e565b9190859450601f198416928d600052886000209360005b8a8282106200034857505085116200032d575b50505050811b01885562000160565b01519060f884600019921b161c19169055388080806200031e565b83850151875589989096019593840193016200030b565b909192508b600052866000208880860160051c820192898710620003ad575b91879187969594930160051c01915b8281106200039d57505062000137565b600081558695508791016200038d565b925081926200037e565b60228c634e487b7160e01b6000525260246000fd5b90607f169062000121565b60418b634e487b7160e01b6000525260246000fd5b015190503880620000f5565b90879350601f19831691866000528a6000209260005b8c8282106200044857505084116200042f575b505050811b01825562000107565b015160001983871b60f8161c1916905538808062000421565b8385015186558b979095019493840193016200040e565b90915084600052886000208a80850160051c8201928b8610620004ab575b918991869594930160051c01915b8281106200049b575050620000de565b600081558594508991016200048b565b925081926200047d565b60228d634e487b7160e01b6000525260246000fd5b98607f1698620000c7565b60418a634e487b7160e01b6000525260246000fd5b600080fd5b604081019081106001600160401b038211176200050b57604052565b634e487b7160e01b600052604160045260246000fd5b601f909101601f19168101906001600160401b038211908210176200050b57604052565b51906001600160a01b0382168203620004ea57565b919082018092116200056857565b634e487b7160e01b600052601160045260246000fd5b90600b5460ff8160101c1615620007f05760ff8160081c1680620007dd575b80620007c4575b80620007af575b620006b9575b60ff1680620006a4575b806200068b575b620005cb575050565b620005ec9160018060a01b031660005260006020526040600020546200055a565b60646002540410620005fa57565b60405162461bcd60e51b815260206004820152605e60248201527f4a7573742067657474696e67207761726d65642075702c206c696d6974206f6660448201527f203125206f66202446555a5a2063616e2062652054726164656420756e74696c60648201527f20426572612048696265726e6174696f6e20697320636f6d706c657465210000608482015260a490fd5b50600f546001600160a01b0383811691161415620005c2565b506005546001600160a01b03161515620005bb565b6009546040516370a0823160e01b81526001600160a01b038581166004830152909160209183916024918391165afa908115620007a35760009162000769575b50620005b157608460405162461bcd60e51b815260206004820152604060248201527f43756273204f6e6c7920497320616374697665202d20596f75206e656564207460448201527f6f2068617665206120426572612043756220746f2074726164652046555a5a216064820152fd5b906020823d82116200079a575b81620007856020938362000521565b810103126200079757505138620006f9565b80fd5b3d915062000776565b6040513d6000823e3d90fd5b506005546001600160a01b03161515620005ab565b50600c546001600160a01b0384811691161415620005a4565b506001600160a01b03831615156200059d565b50506005546001600160a01b0390811680159290919083156200086a575b505050156200081957565b60405162461bcd60e51b815260206004820152602360248201527f50617469656e6365202d2054726164696e67204e6f742053746172746564205960448201526265742160e81b6064820152608490fd5b161490503880806200080e56fe60806040908082526004918236101561001757600080fd5b600092833560e01c92836306fdde0314610d6457508263095ea7b314610d3a57826317700f0114610d1257826318160ddd14610cf3578263199f4c9914610cca57826323b872dd14610c01578263313ce56714610be55782633950935114610b9557826340c10f1914610a6f57826348f5eeeb14610a465782634ada218b14610a1f57826353b2b844146109da5782635ebd81d6146109b457826362778bd71461096f5782636605d0ce14610948578263663a145214610924578263665a11ca1461040b57826370a08231146108ed578263715018a6146108905782638a8c523c146108635782638bea5b381461083a5782638da5cb5b1461081157826395d89b411461072b5782639dc29fac146105d3578263a457c2d714610530578263a7fc7a07146104c2578263a9059cbb14610491578263ad60964614610472578263bae4076614610434578263c1f1b1b51461040b578263c5f956af146103de578263caadd1ed146103b3578263d5abeb0114610394578263d89135cd14610375578263dd62ed3e1461032c578263f2fde38b1461026157508163f6a74ed7146101f2575063fb8b694b146101c957600080fd5b346101ef57806003193601126101ef576101e1610eb4565b61ff0019600b5416600b5580f35b80fd5b90503461025d57602036600319011261025d5760207f33d83959be2573f5453b12eb9d43b3499bc57d96bd2f067ba44803c859e8111391610231610e83565b610239610eb4565b6001600160a01b0316808552600a8352818520805460ff191690559051908152a180f35b5080fd5b909150346103285760203660031901126103285761027d610e83565b90610286610eb4565b6001600160a01b039182169283156102d6575050600580546001600160a01b031981168417909155167f8be0079c531659141344cd1fd0a4f28419497f9722a3daafe3b4186f6b6457e08380a380f35b906020608492519162461bcd60e51b8352820152602660248201527f4f776e61626c653a206e6577206f776e657220697320746865207a65726f206160448201526564647265737360d01b6064820152fd5b8280fd5b83823461025d578060031936011261025d578060209261034a610e83565b610352610e9e565b6001600160a01b0391821683526001865283832091168252845220549051908152f35b83823461025d578160031936011261025d576020906008549051908152f35b83823461025d578160031936011261025d576020906007549051908152f35b83346101ef57806003193601126101ef576103cc610eb4565b61010061ff0019600b541617600b5580f35b83823461025d578160031936011261025d57600b54905160189190911c6001600160a01b03168152602090f35b83823461025d578160031936011261025d57600f5490516001600160a01b039091168152602090f35b83823461025d57602036600319011261025d5760209160ff9082906001600160a01b0361045f610e83565b168152600a855220541690519015158152f35b83823461025d578160031936011261025d57602090600d549051908152f35b83823461025d578060031936011261025d576020906104bb6104b1610e83565b6024359033610f67565b5160018152f35b83823461025d57602036600319011261025d5760207f0a8bb31534c0ed46f380cb867bd5c803a189ced9a764e30b3a4991a9901d747491610501610e83565b610509610eb4565b6001600160a01b0316808552600a8352818520805460ff191660011790559051908152a180f35b83346101ef57826003193601126101ef57610549610e83565b918360243592338152600160205281812060018060a01b0386168252602052205490828210610582576020856104bb85850387336110d8565b608490602086519162461bcd60e51b8352820152602560248201527f45524332303a2064656372656173656420616c6c6f77616e63652062656c6f77604482015264207a65726f60d81b6064820152fd5b83823461025d578060031936011261025d576105ed610e83565b90602435338452602091600a835261060a60ff82872054166117d7565b61061682600854610f44565b6008556001600160a01b0384169384156106de578261063491611490565b83855284835280852054828110610690578290858752868552038186205560025482810390811161067d576002555190815283929160008051602061183c83398151915291a380f35b634e487b7160e01b865260118752602486fd5b815162461bcd60e51b8152808801859052602260248201527f45524332303a206275726e20616d6f756e7420657863656564732062616c616e604482015261636560f01b6064820152608490fd5b815162461bcd60e51b8152808801859052602160248201527f45524332303a206275726e2066726f6d20746865207a65726f206164647265736044820152607360f81b6064820152608490fd5b83823461025d578160031936011261025d57805191809380549160019083821c92828516948515610807575b60209586861081146107f4578589529081156107d05750600114610795575b6107918787610787828c0383610f0c565b5191829182610e3a565b0390f35b9080949750528583205b8284106107bd57505050826107919461078792820101948680610776565b805486850188015292860192810161079f565b60ff19168887015250505050151560051b8301019250610787826107918680610776565b634e487b7160e01b845260228352602484fd5b93607f1693610757565b83823461025d578160031936011261025d5760055490516001600160a01b039091168152602090f35b83823461025d578160031936011261025d57600c5490516001600160a01b039091168152602090f35b83346101ef57806003193601126101ef5761087c610eb4565b6201000062ff000019600b541617600b5580f35b83346101ef57806003193601126101ef576108a9610eb4565b600580546001600160a01b0319811690915581906001600160a01b03167f8be0079c531659141344cd1fd0a4f28419497f9722a3daafe3b4186f6b6457e08280a380f35b83823461025d57602036600319011261025d5760209181906001600160a01b03610915610e83565b16815280845220549051908152f35b83823461025d578160031936011261025d5760209060ff600b541690519015158152f35b83823461025d578160031936011261025d5760209060ff600b5460081c1690519015158152f35b83346101ef5760203660031901126101ef57610989610e83565b610991610eb4565b600f80546001600160a01b0319166001600160a01b039290921691909117905580f35b83346101ef57806003193601126101ef576109cd610eb4565b60ff19600b5416600b5580f35b83346101ef5760203660031901126101ef576109f4610e83565b6109fc610eb4565b600c80546001600160a01b0319166001600160a01b039290921691909117905580f35b83823461025d578160031936011261025d5760209060ff600b5460101c1690519015158152f35b83823461025d578160031936011261025d5760ff6101e191338452600a602052832054166117d7565b915034610328578060031936011261032857610a89610e83565b9060243591338552600a602052610aa560ff83872054166117d7565b60025490610ab38483610f44565b60075410610b59576001600160a01b038116948515610b1657509260008051602061183c83398151915292610af582602094610af0828b996111da565b610f44565b600255858552848352808520610b0c838254610f44565b905551908152a380f35b606490602085519162461bcd60e51b8352820152601f60248201527f45524332303a206d696e7420746f20746865207a65726f2061646472657373006044820152fd5b825162461bcd60e51b8152602081870152601660248201527513585e1a5b5d5b481cdd5c1c1b1e481c995858da195960521b6044820152606490fd5b83823461025d578060031936011261025d576104bb602092610bde610bb8610e83565b338352600186528483206001600160a01b03821684528652918490205460243590610f44565b90336110d8565b83823461025d578160031936011261025d576020905160128152f35b83903461025d57606036600319011261025d57610c1c610e83565b610c24610e9e565b91846044359460018060a01b038416815260016020528181203382526020522054906000198203610c5e575b6020866104bb878787610f67565b848210610c875750918391610c7c602096956104bb950333836110d8565b919394819350610c50565b606490602087519162461bcd60e51b8352820152601d60248201527f45524332303a20696e73756666696369656e7420616c6c6f77616e63650000006044820152fd5b83823461025d578160031936011261025d5760095490516001600160a01b039091168152602090f35b83823461025d578160031936011261025d576020906002549051908152f35b83346101ef57806003193601126101ef57610d2b610eb4565b62ff000019600b5416600b5580f35b83823461025d578060031936011261025d576020906104bb610d5a610e83565b60243590336110d8565b925034610e365783600319360112610e3657600354600181811c9186908281168015610e2c575b6020958686108214610e195750848852908115610df75750600114610dbc575b6107918686610787828b0383610f0c565b929550600383528583205b828410610de4575050508261079194610787928201019438610dab565b8054868501880152928601928101610dc7565b60ff191687860152505050151560051b83010192506107878261079138610dab565b634e487b7160e01b845260229052602483fd5b93607f1693610d8b565b8380fd5b6020808252825181830181905290939260005b828110610e6f57505060409293506000838284010152601f8019910116010190565b818101860151848201604001528501610e4d565b600435906001600160a01b0382168203610e9957565b600080fd5b602435906001600160a01b0382168203610e9957565b6005546001600160a01b03163303610ec857565b606460405162461bcd60e51b815260206004820152602060248201527f4f776e61626c653a2063616c6c6572206973206e6f7420746865206f776e65726044820152fd5b90601f8019910116810190811067ffffffffffffffff821117610f2e57604052565b634e487b7160e01b600052604160045260246000fd5b91908201809211610f5157565b634e487b7160e01b600052601160045260246000fd5b916001600160a01b038084169290831561108557811693841561103457610f8f918391611650565b600082815280602052604081205491808310610fe0576040828260008051602061183c833981519152958760209652828652038282205586815220610fd5828254610f44565b9055604051908152a3565b60405162461bcd60e51b815260206004820152602660248201527f45524332303a207472616e7366657220616d6f756e7420657863656564732062604482015265616c616e636560d01b6064820152608490fd5b60405162461bcd60e51b815260206004820152602360248201527f45524332303a207472616e7366657220746f20746865207a65726f206164647260448201526265737360e81b6064820152608490fd5b60405162461bcd60e51b815260206004820152602560248201527f45524332303a207472616e736665722066726f6d20746865207a65726f206164604482015264647265737360d81b6064820152608490fd5b6001600160a01b0390811691821561118957169182156111395760207f8c5be1e5ebec7d5bd14f71427d1e84f3dd0314c0f7b2291e5b200ac8c7c3b925918360005260018252604060002085600052825280604060002055604051908152a3565b60405162461bcd60e51b815260206004820152602260248201527f45524332303a20617070726f766520746f20746865207a65726f206164647265604482015261737360f01b6064820152608490fd5b60405162461bcd60e51b8152602060048201526024808201527f45524332303a20617070726f76652066726f6d20746865207a65726f206164646044820152637265737360e01b6064820152608490fd5b90600b5460ff8160101c161561140c5760ff8160081c16806113fa575b806113e2575b806113ce575b611308575b60ff16806112f4575b806112dc575b61121f575050565b61123e9160018060a01b03166000526000602052604060002054610f44565b6064600254041061124b57565b60405162461bcd60e51b815260206004820152605e60248201527f4a7573742067657474696e67207761726d65642075702c206c696d6974206f6660448201527f203125206f66202446555a5a2063616e2062652054726164656420756e74696c60648201527f20426572612048696265726e6174696f6e20697320636f6d706c657465210000608482015260a490fd5b50600f546001600160a01b0383811691161415611217565b506005546001600160a01b03161515611211565b6009546040516370a0823160e01b81526001600160a01b038581166004830152909160209183916024918391165afa9081156113c257600091611391575b5061120857608460405162461bcd60e51b8152602060048201526040602482015260008051602061185c833981519152604482015260008051602061181c8339815191526064820152fd5b906020823d82116113ba575b816113aa60209383610f0c565b810103126101ef57505138611346565b3d915061139d565b6040513d6000823e3d90fd5b506005546001600160a01b03161515611203565b50600c546001600160a01b03848116911614156111fd565b506001600160a01b03831615156111f7565b50506005546001600160a01b039081168015929091908315611484575b5050501561143357565b60405162461bcd60e51b815260206004820152602360248201527f50617469656e6365202d2054726164696e67204e6f742053746172746564205960448201526265742160e81b6064820152608490fd5b16149050388080611429565b600b5460ff8160101c16156116235760ff8160081c168061161b575b80611607575b806115ef575b611537575b60ff16908161151d575b5080611509575b6114d55750565b60008080526020527fad3228b676f7d3cd4284a5443f17f1962b36e491b30a40b2405849e597ba5fb55461123e9190610f44565b50600f546001600160a01b031615156114ce565b6005546001600160a01b03918216911614159050386114c7565b6009546040516370a0823160e01b81526000600482015290602090829060249082906001600160a01b03165afa9081156113c2576000916115be575b506114bd57608460405162461bcd60e51b8152602060048201526040602482015260008051602061185c833981519152604482015260008051602061181c8339815191526064820152fd5b906020823d82116115e7575b816115d760209383610f0c565b810103126101ef57505138611573565b3d91506115ca565b506005546001600160a01b03838116911614156114b8565b50600c546001600160a01b031615156114b2565b5060006114ac565b506005546001600160a01b039081169116811491508115611647575b501561143357565b9050153861163f565b919091600b5460ff8160101c16156117ae5760ff8160081c168061179c575b80611784575b8061176c575b6116b2575b60ff169081611698575b50806112dc5761121f575050565b6005546001600160a01b039182169116141590503861168a565b6009546040516370a0823160e01b81526001600160a01b038681166004830152909160209183916024918391165afa9081156113c25760009161173b575b5061168057608460405162461bcd60e51b8152602060048201526040602482015260008051602061185c833981519152604482015260008051602061181c8339815191526064820152fd5b906020823d8211611764575b8161175460209383610f0c565b810103126101ef575051386116f0565b3d9150611747565b506005546001600160a01b038381169116141561167b565b50600c546001600160a01b0385811691161415611675565b506001600160a01b038416151561166f565b506005546001600160a01b03918216908216908114939092508315611484575050501561143357565b156117de57565b60405162461bcd60e51b815260206004820152601560248201527421b0b63632b9102737ba1021b7b73a3937b63632b960591b6044820152606490fdfe6f2068617665206120426572612043756220746f2074726164652046555a5a21ddf252ad1be2c89b69c2b068fc378daa952ba7f163c4a11628f55a4df523b3ef43756273204f6e6c7920497320616374697665202d20596f75206e6565642074a2646970667358221220c809fdd29d0debb99eac4cb92d714ee7f87e7712d4faa9b7c84552dcd4220f7664736f6c63430008130033",
  "linkReferences": {},
  "deployedLinkReferences": {}
}