{
  "_format": "hh-sol-artifact-1",
  "contractName": "FuzzTokenV2",
  "sourceName": "contracts/FuzzTokenV2.sol",
  "abi": [
    {
      "inputs": [
        {
          "internalType": "uint256",
          "name": "_initialSupply",
          "type": "uint256"
        },
        {
          "internalType": "uint256",
          "name": "_maxSupply",
          "type": "uint256"
        },
        {
          "internalType": "address",
          "name": "_treasuryAddress",
          "type": "address"
        },
        {
          "internalType": "address",
          "name": "_beraCubNftContract",
          "type": "address"
        }
      ],
      "stateMutability": "nonpayable",
      "type": "constructor"
    },
    {
      "anonymous": false,
      "inputs": [
        {
          "indexed": true,
          "internalType": "address",
          "name": "owner",
          "type": "address"
        },
        {
          "indexed": true,
          "internalType": "address",
          "name": "spender",
          "type": "address"
        },
        {
          "indexed": false,
          "internalType": "uint256",
          "name": "value",
          "type": "uint256"
        }
      ],
      "name": "Approval",
      "type": "event"
    },
    {
      "anonymous": false,
      "inputs": [
        {
          "indexed": false,
          "internalType": "address",
          "name": "newController",
          "type": "address"
        }
      ],
      "name": "ControllerAdded",
      "type": "event"
    },
    {
      "anonymous": false,
      "inputs": [
        {
          "indexed": false,
          "internalType": "address",
          "name": "controllerRemoved",
          "type": "address"
        }
      ],
      "name": "ControllerRemoved",
      "type": "event"
    },
    {
      "anonymous": false,
      "inputs": [
        {
          "indexed": true,
          "internalType": "address",
          "name": "previousOwner",
          "type": "address"
        },
        {
          "indexed": true,
          "internalType": "address",
          "name": "newOwner",
          "type": "address"
        }
      ],
      "name": "OwnershipTransferred",
      "type": "event"
    },
    {
      "anonymous": false,
      "inputs": [
        {
          "indexed": true,
          "internalType": "address",
          "name": "from",
          "type": "address"
        },
        {
          "indexed": true,
          "internalType": "address",
          "name": "to",
          "type": "address"
        },
        {
          "indexed": false,
          "internalType": "uint256",
          "name": "value",
          "type": "uint256"
        }
      ],
      "name": "Transfer",
      "type": "event"
    },
    {
      "inputs": [
        {
          "internalType": "address",
          "name": "toAdd_",
          "type": "address"
        }
      ],
      "name": "addController",
      "outputs": [],
      "stateMutability": "nonpayable",
      "type": "function"
    },
    {
      "inputs": [
        {
          "internalType": "address",
          "name": "owner",
          "type": "address"
        },
        {
          "internalType": "address",
          "name": "spender",
          "type": "address"
        }
      ],
      "name": "allowance",
      "outputs": [
        {
          "internalType": "uint256",
          "name": "",
          "type": "uint256"
        }
      ],
      "stateMutability": "view",
      "type": "function"
    },
    {
      "inputs": [
        {
          "internalType": "address",
          "name": "spender",
          "type": "address"
        },
        {
          "internalType": "uint256",
          "name": "amount",
          "type": "uint256"
        }
      ],
      "name": "approve",
      "outputs": [
        {
          "internalType": "bool",
          "name": "",
          "type": "bool"
        }
      ],
      "stateMutability": "nonpayable",
      "type": "function"
    },
    {
      "inputs": [
        {
          "internalType": "address",
          "name": "account",
          "type": "address"
        }
      ],
      "name": "balanceOf",
      "outputs": [
        {
          "internalType": "uint256",
          "name": "",
          "type": "uint256"
        }
      ],
      "stateMutability": "view",
      "type": "function"
    },
    {
      "inputs": [],
      "name": "beraCubNftContract",
      "outputs": [
        {
          "internalType": "contract IBERACUB",
          "name": "",
          "type": "address"
        }
      ],
      "stateMutability": "view",
      "type": "function"
    },
    {
      "inputs": [],
      "name": "beraFarmAddress",
      "outputs": [
        {
          "internalType": "address",
          "name": "",
          "type": "address"
        }
      ],
      "stateMutability": "view",
      "type": "function"
    },
    {
      "inputs": [
        {
          "internalType": "address",
          "name": "from_",
          "type": "address"
        },
        {
          "internalType": "uint256",
          "name": "amount_",
          "type": "uint256"
        }
      ],
      "name": "burn",
      "outputs": [],
      "stateMutability": "nonpayable",
      "type": "function"
    },
    {
      "inputs": [],
      "name": "closeTradingToNonCubsOwner",
      "outputs": [],
      "stateMutability": "nonpayable",
      "type": "function"
    },
    {
      "inputs": [],
      "name": "cubsOnly",
      "outputs": [
        {
          "internalType": "bool",
          "name": "",
          "type": "bool"
        }
      ],
      "stateMutability": "view",
      "type": "function"
    },
    {
      "inputs": [],
      "name": "decimals",
      "outputs": [
        {
          "internalType": "uint8",
          "name": "",
          "type": "uint8"
        }
      ],
      "stateMutability": "view",
      "type": "function"
    },
    {
      "inputs": [
        {
          "internalType": "address",
          "name": "spender",
          "type": "address"
        },
        {
          "internalType": "uint256",
          "name": "subtractedValue",
          "type": "uint256"
        }
      ],
      "name": "decreaseAllowance",
      "outputs": [
        {
          "internalType": "bool",
          "name": "",
          "type": "bool"
        }
      ],
      "stateMutability": "nonpayable",
      "type": "function"
    },
    {
      "inputs": [],
      "name": "disableTrading",
      "outputs": [],
      "stateMutability": "nonpayable",
      "type": "function"
    },
    {
      "inputs": [],
      "name": "enableTrading",
      "outputs": [],
      "stateMutability": "nonpayable",
      "type": "function"
    },
    {
      "inputs": [],
      "name": "getPair",
      "outputs": [
        {
          "internalType": "address",
          "name": "",
          "type": "address"
        }
      ],
      "stateMutability": "view",
      "type": "function"
    },
    {
      "inputs": [],
      "name": "hibernating",
      "outputs": [
        {
          "internalType": "bool",
          "name": "",
          "type": "bool"
        }
      ],
      "stateMutability": "view",
      "type": "function"
    },
    {
      "inputs": [
        {
          "internalType": "address",
          "name": "spender",
          "type": "address"
        },
        {
          "internalType": "uint256",
          "name": "addedValue",
          "type": "uint256"
        }
      ],
      "name": "increaseAllowance",
      "outputs": [
        {
          "internalType": "bool",
          "name": "",
          "type": "bool"
        }
      ],
      "stateMutability": "nonpayable",
      "type": "function"
    },
    {
      "inputs": [
        {
          "internalType": "address",
          "name": "toCheck_",
          "type": "address"
        }
      ],
      "name": "isControllerAddress",
      "outputs": [
        {
          "internalType": "bool",
          "name": "",
          "type": "bool"
        }
      ],
      "stateMutability": "view",
      "type": "function"
    },
    {
      "inputs": [],
      "name": "liquidityPool",
      "outputs": [
        {
          "internalType": "address",
          "name": "",
          "type": "address"
        }
      ],
      "stateMutability": "view",
      "type": "function"
    },
    {
      "inputs": [],
      "name": "maxSupply",
      "outputs": [
        {
          "internalType": "uint256",
          "name": "",
          "type": "uint256"
        }
      ],
      "stateMutability": "view",
      "type": "function"
    },
    {
      "inputs": [],
      "name": "maxTransactionPercent",
      "outputs": [
        {
          "internalType": "uint256",
          "name": "",
          "type": "uint256"
        }
      ],
      "stateMutability": "view",
      "type": "function"
    },
    {
      "inputs": [
        {
          "internalType": "address",
          "name": "to_",
          "type": "address"
        },
        {
          "internalType": "uint256",
          "name": "amount_",
          "type": "uint256"
        }
      ],
      "name": "mint",
      "outputs": [],
      "stateMutability": "nonpayable",
      "type": "function"
    },
    {
      "inputs": [],
      "name": "name",
      "outputs": [
        {
          "internalType": "string",
          "name": "",
          "type": "string"
        }
      ],
      "stateMutability": "view",
      "type": "function"
    },
    {
      "inputs": [],
      "name": "openTradingToEveryone",
      "outputs": [],
      "stateMutability": "nonpayable",
      "type": "function"
    },
    {
      "inputs": [],
      "name": "openTradingToNonCubsOwner",
      "outputs": [],
      "stateMutability": "nonpayable",
      "type": "function"
    },
    {
      "inputs": [],
      "name": "owner",
      "outputs": [
        {
          "internalType": "address",
          "name": "",
          "type": "address"
        }
      ],
      "stateMutability": "view",
      "type": "function"
    },
    {
      "inputs": [
        {
          "internalType": "address",
          "name": "toRemove_",
          "type": "address"
        }
      ],
      "name": "removeController",
      "outputs": [],
      "stateMutability": "nonpayable",
      "type": "function"
    },
    {
      "inputs": [],
      "name": "removeHibernation",
      "outputs": [],
      "stateMutability": "nonpayable",
      "type": "function"
    },
    {
      "inputs": [],
      "name": "renounceOwnership",
      "outputs": [],
      "stateMutability": "nonpayable",
      "type": "function"
    },
    {
      "inputs": [
        {
          "internalType": "address",
          "name": "_beraCubNftContract",
          "type": "address"
        }
      ],
      "name": "setBeraCubNFTContract",
      "outputs": [],
      "stateMutability": "nonpayable",
      "type": "function"
    },
    {
      "inputs": [
        {
          "internalType": "address",
          "name": "_beraFarmAddress",
          "type": "address"
        }
      ],
      "name": "setBeraFarmAddress",
      "outputs": [],
      "stateMutability": "nonpayable",
      "type": "function"
    },
    {
      "inputs": [
        {
          "internalType": "address",
          "name": "_pair",
          "type": "address"
        }
      ],
      "name": "setpair",
      "outputs": [],
      "stateMutability": "nonpayable",
      "type": "function"
    },
    {
      "inputs": [],
      "name": "symbol",
      "outputs": [
        {
          "internalType": "string",
          "name": "",
          "type": "string"
        }
      ],
      "stateMutability": "view",
      "type": "function"
    },
    {
      "inputs": [],
      "name": "totalBurned",
      "outputs": [
        {
          "internalType": "uint256",
          "name": "",
          "type": "uint256"
        }
      ],
      "stateMutability": "view",
      "type": "function"
    },
    {
      "inputs": [],
      "name": "totalSupply",
      "outputs": [
        {
          "internalType": "uint256",
          "name": "",
          "type": "uint256"
        }
      ],
      "stateMutability": "view",
      "type": "function"
    },
    {
      "inputs": [],
      "name": "tradingEnabled",
      "outputs": [
        {
          "internalType": "bool",
          "name": "",
          "type": "bool"
        }
      ],
      "stateMutability": "view",
      "type": "function"
    },
    {
      "inputs": [
        {
          "internalType": "address",
          "name": "to",
          "type": "address"
        },
        {
          "internalType": "uint256",
          "name": "amount",
          "type": "uint256"
        }
      ],
      "name": "transfer",
      "outputs": [
        {
          "internalType": "bool",
          "name": "",
          "type": "bool"
        }
      ],
      "stateMutability": "nonpayable",
      "type": "function"
    },
    {
      "inputs": [
        {
          "internalType": "address",
          "name": "from",
          "type": "address"
        },
        {
          "internalType": "address",
          "name": "to",
          "type": "address"
        },
        {
          "internalType": "uint256",
          "name": "amount",
          "type": "uint256"
        }
      ],
      "name": "transferFrom",
      "outputs": [
        {
          "internalType": "bool",
          "name": "",
          "type": "bool"
        }
      ],
      "stateMutability": "nonpayable",
      "type": "function"
    },
    {
      "inputs": [
        {
          "internalType": "address",
          "name": "newOwner",
          "type": "address"
        }
      ],
      "name": "transferOwnership",
      "outputs": [],
      "stateMutability": "nonpayable",
      "type": "function"
    },
    {
      "inputs": [],
      "name": "treasuryAddress",
      "outputs": [
        {
          "internalType": "address",
          "name": "",
          "type": "address"
        }
      ],
      "stateMutability": "view",
      "type": "function"
    }
  ],
  "bytecode": "0x608060409080825234620004da57608081620021538038038091620000258285620004fb565b833981010312620004da5780519060209182820151926200005660606200004e8786016200051f565b94016200051f565b908551906200006582620004df565b600d82526c233abd3d102a37b5b2b7103b1960991b818301528651956200008c87620004df565b6006875265232aad2d2b1960d11b828801528251926001600160401b03808511620003da5760038054956001938488811c98168015620004cf575b87891014620004b9578190601f9889811162000463575b508790898311600114620003fc57600092620003f0575b505060001982841b1c191690841b1781555b8951918211620003da576004998a548481811c91168015620003cf575b87821014620003ba579081888594931162000362575b508690888411600114620002f757600093620002eb575b505082841b92600019911b1c19161788555b6101016005549660018060a01b031998338a8a16176005558b519460018060a01b03998a3391167f8be0079c531659141344cd1fd0a4f28419497f9722a3daafe3b4186f6b6457e0600080a3600b549285600d556006556007556301000000600160b81b039060181b169060018060b81b0319161717600b5533600052600a8352886000209060ff19825416179055600654923315620002ae5750507fddf252ad1be2c89b69c2b068fc378daa952ba7f163c4a11628f55a4df523b3ef6000916200022f843362000558565b6200023d8460025462000534565b6002553383528281528883206200025685825462000534565b905588519384523393a31690600954161760095560065490600d549182810292818404149015171562000299575060649004600e55516119019081620008528239f35b601190634e487b7160e01b6000525260246000fd5b6064928862461bcd60e51b845283015260248201527f45524332303a206d696e7420746f20746865207a65726f2061646472657373006044820152fd5b01519150388062000151565b9190859450601f198416928d600052886000209360005b8a8282106200034b575050851162000330575b50505050811b01885562000163565b01519060f884600019921b161c191690553880808062000321565b83850151875589989096019593840193016200030e565b909192508b600052866000208880860160051c820192898710620003b0575b91879187969594930160051c01915b828110620003a05750506200013a565b6000815586955087910162000390565b9250819262000381565b60228c634e487b7160e01b6000525260246000fd5b90607f169062000124565b634e487b7160e01b600052604160045260246000fd5b015190503880620000f5565b90869350601f1983169185600052896000209260005b8b8282106200044c575050841162000433575b505050811b01815562000107565b015160001983861b60f8161c1916905538808062000425565b8385015186558a9790950194938401930162000412565b90915083600052876000208980850160051c8201928a8610620004af575b918891869594930160051c01915b8281106200049f575050620000de565b600081558594508891016200048f565b9250819262000481565b634e487b7160e01b600052602260045260246000fd5b97607f1697620000c7565b600080fd5b604081019081106001600160401b03821117620003da57604052565b601f909101601f19168101906001600160401b03821190821017620003da57604052565b51906001600160a01b0382168203620004da57565b919082018092116200054257565b634e487b7160e01b600052601160045260246000fd5b90600b5460ff8160101c1615620007ca5760ff8160081c1680620007b7575b806200079e575b8062000789575b62000693575b60ff16806200067e575b8062000665575b620005a5575050565b620005c69160018060a01b0316600052600060205260406000205462000534565b60646002540410620005d457565b60405162461bcd60e51b815260206004820152605e60248201527f4a7573742067657474696e67207761726d65642075702c206c696d6974206f6660448201527f203125206f66202446555a5a2063616e2062652054726164656420756e74696c60648201527f20426572612048696265726e6174696f6e20697320636f6d706c657465210000608482015260a490fd5b50600f546001600160a01b03838116911614156200059c565b506005546001600160a01b0316151562000595565b6009546040516370a0823160e01b81526001600160a01b038581166004830152909160209183916024918391165afa9081156200077d5760009162000743575b506200058b57608460405162461bcd60e51b815260206004820152604060248201527f43756273204f6e6c7920497320616374697665202d20596f75206e656564207460448201527f6f2068617665206120426572612043756220746f2074726164652046555a5a216064820152fd5b906020823d821162000774575b816200075f60209383620004fb565b810103126200077157505138620006d3565b80fd5b3d915062000750565b6040513d6000823e3d90fd5b506005546001600160a01b0316151562000585565b50600c546001600160a01b03848116911614156200057e565b506001600160a01b038316151562000577565b50506005546001600160a01b03908116801592909190831562000844575b50505015620007f357565b60405162461bcd60e51b815260206004820152602360248201527f50617469656e6365202d2054726164696e67204e6f742053746172746564205960448201526265742160e81b6064820152608490fd5b16149050388080620007e856fe60806040908082526004918236101561001757600080fd5b600092833560e01c92836306fdde0314610db45750826307cdfcd714610d6f578263095ea7b314610d4557826317700f0114610d1d57826318160ddd14610cfe578263199f4c9914610cd557826323b872dd14610c0c578263313ce56714610bf05782633950935114610ba057826340c10f1914610a7a57826348f5eeeb14610a515782634ada218b14610a2a57826353b2b844146109e55782635ebd81d6146109bf57826362778bd71461097a5782636605d0ce14610953578263663a14521461092f578263665a11ca1461041657826370a08231146108f8578263715018a61461089b5782638a8c523c1461086e5782638bea5b38146108455782638da5cb5b1461081c57826395d89b41146107365782639dc29fac146105de578263a457c2d71461053b578263a7fc7a07146104cd578263a9059cbb1461049c578263ad6096461461047d578263bae407661461043f578263c1f1b1b514610416578263c5f956af146103e9578263caadd1ed146103be578263d5abeb011461039f578263d89135cd14610380578263dd62ed3e14610337578263f2fde38b1461026c57508163f6a74ed7146101fd575063fb8b694b146101d457600080fd5b346101fa57806003193601126101fa576101ec610f04565b61ff0019600b5416600b5580f35b80fd5b9050346102685760203660031901126102685760207f33d83959be2573f5453b12eb9d43b3499bc57d96bd2f067ba44803c859e811139161023c610ed3565b610244610f04565b6001600160a01b0316808552600a8352818520805460ff191690559051908152a180f35b5080fd5b9091503461033357602036600319011261033357610288610ed3565b90610291610f04565b6001600160a01b039182169283156102e1575050600580546001600160a01b031981168417909155167f8be0079c531659141344cd1fd0a4f28419497f9722a3daafe3b4186f6b6457e08380a380f35b906020608492519162461bcd60e51b8352820152602660248201527f4f776e61626c653a206e6577206f776e657220697320746865207a65726f206160448201526564647265737360d01b6064820152fd5b8280fd5b83823461026857806003193601126102685780602092610355610ed3565b61035d610eee565b6001600160a01b0391821683526001865283832091168252845220549051908152f35b8382346102685781600319360112610268576020906008549051908152f35b8382346102685781600319360112610268576020906007549051908152f35b83346101fa57806003193601126101fa576103d7610f04565b61010061ff0019600b541617600b5580f35b838234610268578160031936011261026857600b54905160189190911c6001600160a01b03168152602090f35b838234610268578160031936011261026857600f5490516001600160a01b039091168152602090f35b8382346102685760203660031901126102685760209160ff9082906001600160a01b0361046a610ed3565b168152600a855220541690519015158152f35b838234610268578160031936011261026857602090600d549051908152f35b8382346102685780600319360112610268576020906104c66104bc610ed3565b6024359033610fb7565b5160018152f35b8382346102685760203660031901126102685760207f0a8bb31534c0ed46f380cb867bd5c803a189ced9a764e30b3a4991a9901d74749161050c610ed3565b610514610f04565b6001600160a01b0316808552600a8352818520805460ff191660011790559051908152a180f35b83346101fa57826003193601126101fa57610554610ed3565b918360243592338152600160205281812060018060a01b038616825260205220549082821061058d576020856104c68585038733611128565b608490602086519162461bcd60e51b8352820152602560248201527f45524332303a2064656372656173656420616c6c6f77616e63652062656c6f77604482015264207a65726f60d81b6064820152fd5b8382346102685780600319360112610268576105f8610ed3565b90602435338452602091600a835261061560ff8287205416611827565b61062182600854610f94565b6008556001600160a01b0384169384156106e9578261063f916114e0565b8385528483528085205482811061069b5782908587528685520381862055600254828103908111610688576002555190815283929160008051602061188c83398151915291a380f35b634e487b7160e01b865260118752602486fd5b815162461bcd60e51b8152808801859052602260248201527f45524332303a206275726e20616d6f756e7420657863656564732062616c616e604482015261636560f01b6064820152608490fd5b815162461bcd60e51b8152808801859052602160248201527f45524332303a206275726e2066726f6d20746865207a65726f206164647265736044820152607360f81b6064820152608490fd5b838234610268578160031936011261026857805191809380549160019083821c92828516948515610812575b60209586861081146107ff578589529081156107db57506001146107a0575b61079c8787610792828c0383610f5c565b5191829182610e8a565b0390f35b9080949750528583205b8284106107c8575050508261079c9461079292820101948680610781565b80548685018801529286019281016107aa565b60ff19168887015250505050151560051b83010192506107928261079c8680610781565b634e487b7160e01b845260228352602484fd5b93607f1693610762565b83823461026857816003193601126102685760055490516001600160a01b039091168152602090f35b838234610268578160031936011261026857600c5490516001600160a01b039091168152602090f35b83346101fa57806003193601126101fa57610887610f04565b6201000062ff000019600b541617600b5580f35b83346101fa57806003193601126101fa576108b4610f04565b600580546001600160a01b0319811690915581906001600160a01b03167f8be0079c531659141344cd1fd0a4f28419497f9722a3daafe3b4186f6b6457e08280a380f35b8382346102685760203660031901126102685760209181906001600160a01b03610920610ed3565b16815280845220549051908152f35b83823461026857816003193601126102685760209060ff600b541690519015158152f35b83823461026857816003193601126102685760209060ff600b5460081c1690519015158152f35b83346101fa5760203660031901126101fa57610994610ed3565b61099c610f04565b600f80546001600160a01b0319166001600160a01b039290921691909117905580f35b83346101fa57806003193601126101fa576109d8610f04565b60ff19600b5416600b5580f35b83346101fa5760203660031901126101fa576109ff610ed3565b610a07610f04565b600c80546001600160a01b0319166001600160a01b039290921691909117905580f35b83823461026857816003193601126102685760209060ff600b5460101c1690519015158152f35b83823461026857816003193601126102685760ff6101ec91338452600a60205283205416611827565b915034610333578060031936011261033357610a94610ed3565b9060243591338552600a602052610ab060ff8387205416611827565b60025490610abe8483610f94565b60075410610b64576001600160a01b038116948515610b2157509260008051602061188c83398151915292610b0082602094610afb828b9961122a565b610f94565b600255858552848352808520610b17838254610f94565b905551908152a380f35b606490602085519162461bcd60e51b8352820152601f60248201527f45524332303a206d696e7420746f20746865207a65726f2061646472657373006044820152fd5b825162461bcd60e51b8152602081870152601660248201527513585e1a5b5d5b481cdd5c1c1b1e481c995858da195960521b6044820152606490fd5b8382346102685780600319360112610268576104c6602092610be9610bc3610ed3565b338352600186528483206001600160a01b03821684528652918490205460243590610f94565b9033611128565b8382346102685781600319360112610268576020905160128152f35b83903461026857606036600319011261026857610c27610ed3565b610c2f610eee565b91846044359460018060a01b038416815260016020528181203382526020522054906000198203610c69575b6020866104c6878787610fb7565b848210610c925750918391610c87602096956104c695033383611128565b919394819350610c5b565b606490602087519162461bcd60e51b8352820152601d60248201527f45524332303a20696e73756666696369656e7420616c6c6f77616e63650000006044820152fd5b83823461026857816003193601126102685760095490516001600160a01b039091168152602090f35b8382346102685781600319360112610268576020906002549051908152f35b83346101fa57806003193601126101fa57610d36610f04565b62ff000019600b5416600b5580f35b8382346102685780600319360112610268576020906104c6610d65610ed3565b6024359033611128565b83346101fa5760203660031901126101fa57610d89610ed3565b610d91610f04565b600980546001600160a01b0319166001600160a01b039290921691909117905580f35b925034610e865783600319360112610e8657600354600181811c9186908281168015610e7c575b6020958686108214610e695750848852908115610e475750600114610e0c575b61079c8686610792828b0383610f5c565b929550600383528583205b828410610e34575050508261079c94610792928201019438610dfb565b8054868501880152928601928101610e17565b60ff191687860152505050151560051b83010192506107928261079c38610dfb565b634e487b7160e01b845260229052602483fd5b93607f1693610ddb565b8380fd5b6020808252825181830181905290939260005b828110610ebf57505060409293506000838284010152601f8019910116010190565b818101860151848201604001528501610e9d565b600435906001600160a01b0382168203610ee957565b600080fd5b602435906001600160a01b0382168203610ee957565b6005546001600160a01b03163303610f1857565b606460405162461bcd60e51b815260206004820152602060248201527f4f776e61626c653a2063616c6c6572206973206e6f7420746865206f776e65726044820152fd5b90601f8019910116810190811067ffffffffffffffff821117610f7e57604052565b634e487b7160e01b600052604160045260246000fd5b91908201809211610fa157565b634e487b7160e01b600052601160045260246000fd5b916001600160a01b03808416929083156110d557811693841561108457610fdf9183916116a0565b600082815280602052604081205491808310611030576040828260008051602061188c833981519152958760209652828652038282205586815220611025828254610f94565b9055604051908152a3565b60405162461bcd60e51b815260206004820152602660248201527f45524332303a207472616e7366657220616d6f756e7420657863656564732062604482015265616c616e636560d01b6064820152608490fd5b60405162461bcd60e51b815260206004820152602360248201527f45524332303a207472616e7366657220746f20746865207a65726f206164647260448201526265737360e81b6064820152608490fd5b60405162461bcd60e51b815260206004820152602560248201527f45524332303a207472616e736665722066726f6d20746865207a65726f206164604482015264647265737360d81b6064820152608490fd5b6001600160a01b039081169182156111d957169182156111895760207f8c5be1e5ebec7d5bd14f71427d1e84f3dd0314c0f7b2291e5b200ac8c7c3b925918360005260018252604060002085600052825280604060002055604051908152a3565b60405162461bcd60e51b815260206004820152602260248201527f45524332303a20617070726f766520746f20746865207a65726f206164647265604482015261737360f01b6064820152608490fd5b60405162461bcd60e51b8152602060048201526024808201527f45524332303a20617070726f76652066726f6d20746865207a65726f206164646044820152637265737360e01b6064820152608490fd5b90600b5460ff8160101c161561145c5760ff8160081c168061144a575b80611432575b8061141e575b611358575b60ff1680611344575b8061132c575b61126f575050565b61128e9160018060a01b03166000526000602052604060002054610f94565b6064600254041061129b57565b60405162461bcd60e51b815260206004820152605e60248201527f4a7573742067657474696e67207761726d65642075702c206c696d6974206f6660448201527f203125206f66202446555a5a2063616e2062652054726164656420756e74696c60648201527f20426572612048696265726e6174696f6e20697320636f6d706c657465210000608482015260a490fd5b50600f546001600160a01b0383811691161415611267565b506005546001600160a01b03161515611261565b6009546040516370a0823160e01b81526001600160a01b038581166004830152909160209183916024918391165afa908115611412576000916113e1575b5061125857608460405162461bcd60e51b815260206004820152604060248201526000805160206118ac833981519152604482015260008051602061186c8339815191526064820152fd5b906020823d821161140a575b816113fa60209383610f5c565b810103126101fa57505138611396565b3d91506113ed565b6040513d6000823e3d90fd5b506005546001600160a01b03161515611253565b50600c546001600160a01b038481169116141561124d565b506001600160a01b0383161515611247565b50506005546001600160a01b0390811680159290919083156114d4575b5050501561148357565b60405162461bcd60e51b815260206004820152602360248201527f50617469656e6365202d2054726164696e67204e6f742053746172746564205960448201526265742160e81b6064820152608490fd5b16149050388080611479565b600b5460ff8160101c16156116735760ff8160081c168061166b575b80611657575b8061163f575b611587575b60ff16908161156d575b5080611559575b6115255750565b60008080526020527fad3228b676f7d3cd4284a5443f17f1962b36e491b30a40b2405849e597ba5fb55461128e9190610f94565b50600f546001600160a01b0316151561151e565b6005546001600160a01b0391821691161415905038611517565b6009546040516370a0823160e01b81526000600482015290602090829060249082906001600160a01b03165afa9081156114125760009161160e575b5061150d57608460405162461bcd60e51b815260206004820152604060248201526000805160206118ac833981519152604482015260008051602061186c8339815191526064820152fd5b906020823d8211611637575b8161162760209383610f5c565b810103126101fa575051386115c3565b3d915061161a565b506005546001600160a01b0383811691161415611508565b50600c546001600160a01b03161515611502565b5060006114fc565b506005546001600160a01b039081169116811491508115611697575b501561148357565b9050153861168f565b919091600b5460ff8160101c16156117fe5760ff8160081c16806117ec575b806117d4575b806117bc575b611702575b60ff1690816116e8575b508061132c5761126f575050565b6005546001600160a01b03918216911614159050386116da565b6009546040516370a0823160e01b81526001600160a01b038681166004830152909160209183916024918391165afa9081156114125760009161178b575b506116d057608460405162461bcd60e51b815260206004820152604060248201526000805160206118ac833981519152604482015260008051602061186c8339815191526064820152fd5b906020823d82116117b4575b816117a460209383610f5c565b810103126101fa57505138611740565b3d9150611797565b506005546001600160a01b03838116911614156116cb565b50600c546001600160a01b03858116911614156116c5565b506001600160a01b03841615156116bf565b506005546001600160a01b039182169082169081149390925083156114d4575050501561148357565b1561182e57565b60405162461bcd60e51b815260206004820152601560248201527421b0b63632b9102737ba1021b7b73a3937b63632b960591b6044820152606490fdfe6f2068617665206120426572612043756220746f2074726164652046555a5a21ddf252ad1be2c89b69c2b068fc378daa952ba7f163c4a11628f55a4df523b3ef43756273204f6e6c7920497320616374697665202d20596f75206e6565642074a2646970667358221220f0b18ab96c539a2decbd30e44ecfe792c72a48cbaefdf42d58af5bb66d79d97c64736f6c63430008130033",
  "linkReferences": {},
  "deployedLinkReferences": {}
}