{
  "_format": "hh-sol-artifact-1",
  "contractName": "MockBex",
  "sourceName": "contracts/mocks/MockBex.sol",
  "abi": [
    {
      "inputs": [
        {
          "internalType": "address",
          "name": "_honey",
          "type": "address"
        },
        {
          "internalType": "address",
          "name": "_fuzz",
          "type": "address"
        },
        {
          "internalType": "uint256",
          "name": "_honeyAmount",
          "type": "uint256"
        },
        {
          "internalType": "uint256",
          "name": "_fuzzAmount",
          "type": "uint256"
        },
        {
          "internalType": "address",
          "name": "_pool",
          "type": "address"
        }
      ],
      "stateMutability": "nonpayable",
      "type": "constructor"
    },
    {
      "anonymous": false,
      "inputs": [
        {
          "indexed": true,
          "internalType": "address",
          "name": "pool",
          "type": "address"
        },
        {
          "indexed": false,
          "internalType": "address[]",
          "name": "shares",
          "type": "address[]"
        },
        {
          "indexed": false,
          "internalType": "uint256[]",
          "name": "shareAmounts",
          "type": "uint256[]"
        },
        {
          "indexed": false,
          "internalType": "address[]",
          "name": "liquidity",
          "type": "address[]"
        },
        {
          "indexed": false,
          "internalType": "uint256[]",
          "name": "liquidityAmounts",
          "type": "uint256[]"
        }
      ],
      "name": "LiquidityAdded",
      "type": "event"
    },
    {
      "anonymous": false,
      "inputs": [
        {
          "indexed": true,
          "internalType": "address",
          "name": "pool",
          "type": "address"
        },
        {
          "indexed": false,
          "internalType": "address[]",
          "name": "assets",
          "type": "address[]"
        },
        {
          "indexed": false,
          "internalType": "uint256[]",
          "name": "amounts",
          "type": "uint256[]"
        }
      ],
      "name": "LiquidityFetched",
      "type": "event"
    },
    {
      "anonymous": false,
      "inputs": [
        {
          "indexed": true,
          "internalType": "address",
          "name": "pool",
          "type": "address"
        }
      ],
      "name": "PoolCreated",
      "type": "event"
    },
    {
      "inputs": [
        {
          "internalType": "address",
          "name": "pool",
          "type": "address"
        },
        {
          "internalType": "address",
          "name": "receiver",
          "type": "address"
        },
        {
          "internalType": "address[]",
          "name": "assetsIn",
          "type": "address[]"
        },
        {
          "internalType": "uint256[]",
          "name": "amountsIn",
          "type": "uint256[]"
        }
      ],
      "name": "addLiquidity",
      "outputs": [
        {
          "internalType": "address[]",
          "name": "shares",
          "type": "address[]"
        },
        {
          "internalType": "uint256[]",
          "name": "shareAmounts",
          "type": "uint256[]"
        },
        {
          "internalType": "address[]",
          "name": "liquidity",
          "type": "address[]"
        },
        {
          "internalType": "uint256[]",
          "name": "liquidityAmounts",
          "type": "uint256[]"
        }
      ],
      "stateMutability": "payable",
      "type": "function"
    },
    {
      "inputs": [
        {
          "internalType": "string",
          "name": "name",
          "type": "string"
        },
        {
          "internalType": "address[]",
          "name": "assetsIn",
          "type": "address[]"
        },
        {
          "internalType": "uint256[]",
          "name": "amountsIn",
          "type": "uint256[]"
        },
        {
          "internalType": "string",
          "name": "poolType",
          "type": "string"
        },
        {
          "components": [
            {
              "components": [
                {
                  "internalType": "address",
                  "name": "asset",
                  "type": "address"
                },
                {
                  "internalType": "uint256",
                  "name": "weight",
                  "type": "uint256"
                }
              ],
              "internalType": "struct MockBex.AssetWeight[]",
              "name": "weights",
              "type": "tuple[]"
            },
            {
              "internalType": "uint256",
              "name": "swapFee",
              "type": "uint256"
            }
          ],
          "internalType": "struct MockBex.PoolOptions",
          "name": "options",
          "type": "tuple"
        }
      ],
      "name": "createPool",
      "outputs": [
        {
          "internalType": "address",
          "name": "pool",
          "type": "address"
        }
      ],
      "stateMutability": "payable",
      "type": "function"
    },
    {
      "inputs": [],
      "name": "fuzz",
      "outputs": [
        {
          "internalType": "address",
          "name": "",
          "type": "address"
        }
      ],
      "stateMutability": "view",
      "type": "function"
    },
    {
      "inputs": [],
      "name": "fuzzAmount",
      "outputs": [
        {
          "internalType": "uint256",
          "name": "",
          "type": "uint256"
        }
      ],
      "stateMutability": "view",
      "type": "function"
    },
    {
      "inputs": [
        {
          "internalType": "address",
          "name": "pool",
          "type": "address"
        }
      ],
      "name": "getLiquidity",
      "outputs": [
        {
          "internalType": "address[]",
          "name": "asset",
          "type": "address[]"
        },
        {
          "internalType": "uint256[]",
          "name": "amounts",
          "type": "uint256[]"
        }
      ],
      "stateMutability": "view",
      "type": "function"
    },
    {
      "inputs": [],
      "name": "honey",
      "outputs": [
        {
          "internalType": "address",
          "name": "",
          "type": "address"
        }
      ],
      "stateMutability": "view",
      "type": "function"
    },
    {
      "inputs": [],
      "name": "honeyAmount",
      "outputs": [
        {
          "internalType": "uint256",
          "name": "",
          "type": "uint256"
        }
      ],
      "stateMutability": "view",
      "type": "function"
    },
    {
      "inputs": [],
      "name": "pairPool",
      "outputs": [
        {
          "internalType": "address",
          "name": "",
          "type": "address"
        }
      ],
      "stateMutability": "view",
      "type": "function"
    }
  ],
  "bytecode": "0x6080346100b157601f61073838819003918201601f19168301916001600160401b038311848410176100b65780849260a0946040528339810103126100b157610047816100cc565b610053602083016100cc565b9060408301519161006b6080606086015195016100cc565b60018060a01b0380928160018060a01b03199516856000541617600055168360015416176001551690600454161760045560035560025560405161065790816100e18239f35b600080fd5b634e487b7160e01b600052604160045260246000fd5b51906001600160a01b03821682036100b15756fe608060408181526004918236101561001657600080fd5b600092833560e01c918263112d3dae146103ca5750816336b2c4b2146103a25781636d517aab146102f4578163786809ad146102cb5781639808797c146102a3578163a747b93b146100bc57508063adc3957b1461009e5763c62b7ecc1461007d57600080fd5b3461009a578160031936011261009a576020906002549051908152f35b5080fd5b503461009a578160031936011261009a576020906003549051908152f35b8391503461009a576020908160031936011261029f576100da6104ef565b50825484516001600160a01b0393918416926001600160401b038288018181118482101761028c5788526005835264486f6e657960d81b848401528751918483019363319af33360e01b855289602485015283815191826064830152878b5b8481106102745750505080828b6084601f9560a3950101528960448301528319938491011681010360648101865201168301918383109083111761026157508752519194929183918291906a636f6e736f6c652e6c6f675afa5084519361019f856105bd565b6002855280850191863684376101b4866105ee565b52600193808554166101c587610611565b528651906101d2826105bd565b600282528282019780368a376003546101ea846105ee565b526002546101f784610611565b528051978189019189525180915260608801949186905b82821061024a5750505050858303868301525180835291810195925b8281106102375785870386f35b835187529581019592810192840161022a565b83518116875295850195928501929088019061020e565b634e487b7160e01b885260419052602487fd5b82810182015188820160840152879350899101610139565b634e487b7160e01b885260418352602488fd5b8280fd5b90503461029f578260031936011261029f575490516001600160a01b03909116815260209150f35b50503461009a578160031936011261009a5760015490516001600160a01b039091168152602090f35b905082608036600319011261039f5761030b6104ef565b916001600160a01b03916024358381160361039f576001600160401b039060443582811161009a5761034090369085016104bf565b505060643591821161039f57507f4892f7e313f1eab99bd9c39a0a5be04a968ff4183c2d156209aec26c6030a738929161037c913691016104bf565b505083519216918061038d81610578565b0390a2518061039b81610578565b0390f35b80fd5b50503461009a578160031936011261009a57905490516001600160a01b039091168152602090f35b9291506003199060a036830112610485576001600160401b03908035828111610489576103fa903690830161048d565b50506024358281116104895761041390369083016104bf565b50506044358281116104895761042c90369083016104bf565b505060643590828211610489576104459136910161048d565b5050608435908111610485573603011261009a5781807f83a48fbcfc991335314e74d0496aab6a1987e992ddc85dddbcc4d6dd6ef2e9fc81602095a28152f35b8480fd5b8680fd5b9181601f840112156104ba578235916001600160401b0383116104ba57602083818601950101116104ba57565b600080fd5b9181601f840112156104ba578235916001600160401b0383116104ba576020808501948460051b0101116104ba57565b600435906001600160a01b03821682036104ba57565b6060519081815260208091019160809160005b828110610526575050505090565b83516001600160a01b031685529381019392810192600101610518565b6060519081815260208091019160809160005b828110610564575050505090565b835185529381019392810192600101610556565b6105ba90608081526105ac61059f61059260808401610505565b8381036020850152610543565b8281036040840152610505565b906060818303910152610543565b90565b606081019081106001600160401b038211176105d857604052565b634e487b7160e01b600052604160045260246000fd5b8051156105fb5760200190565b634e487b7160e01b600052603260045260246000fd5b8051600110156105fb576040019056fea264697066735822122005440cce755b14ef1a606f6bb997043796d6a40d283da9c93af35b60f3a71ed664736f6c63430008130033",
  "linkReferences": {},
  "deployedLinkReferences": {}
}