{
  "_format": "hh-sol-artifact-1",
  "contractName": "MockBex",
  "sourceName": "contracts/mocks/MockBex.sol",
  "abi": [
    {
      "inputs": [
        {
          "internalType": "address",
          "name": "_honey",
          "type": "address"
        },
        {
          "internalType": "address",
          "name": "_fuzz",
          "type": "address"
        },
        {
          "internalType": "uint256",
          "name": "_honeyAmount",
          "type": "uint256"
        },
        {
          "internalType": "uint256",
          "name": "_fuzzAmount",
          "type": "uint256"
        },
        {
          "internalType": "address",
          "name": "_pool",
          "type": "address"
        }
      ],
      "stateMutability": "nonpayable",
      "type": "constructor"
    },
    {
      "anonymous": false,
      "inputs": [
        {
          "indexed": true,
          "internalType": "address",
          "name": "pool",
          "type": "address"
        },
        {
          "indexed": false,
          "internalType": "address[]",
          "name": "shares",
          "type": "address[]"
        },
        {
          "indexed": false,
          "internalType": "uint256[]",
          "name": "shareAmounts",
          "type": "uint256[]"
        },
        {
          "indexed": false,
          "internalType": "address[]",
          "name": "liquidity",
          "type": "address[]"
        },
        {
          "indexed": false,
          "internalType": "uint256[]",
          "name": "liquidityAmounts",
          "type": "uint256[]"
        }
      ],
      "name": "LiquidityAdded",
      "type": "event"
    },
    {
      "anonymous": false,
      "inputs": [
        {
          "indexed": true,
          "internalType": "address",
          "name": "pool",
          "type": "address"
        },
        {
          "indexed": false,
          "internalType": "address[]",
          "name": "assets",
          "type": "address[]"
        },
        {
          "indexed": false,
          "internalType": "uint256[]",
          "name": "amounts",
          "type": "uint256[]"
        }
      ],
      "name": "LiquidityFetched",
      "type": "event"
    },
    {
      "anonymous": false,
      "inputs": [
        {
          "indexed": true,
          "internalType": "address",
          "name": "pool",
          "type": "address"
        }
      ],
      "name": "PoolCreated",
      "type": "event"
    },
    {
      "inputs": [
        {
          "internalType": "address",
          "name": "pool",
          "type": "address"
        },
        {
          "internalType": "address",
          "name": "receiver",
          "type": "address"
        },
        {
          "internalType": "address[]",
          "name": "assetsIn",
          "type": "address[]"
        },
        {
          "internalType": "uint256[]",
          "name": "amountsIn",
          "type": "uint256[]"
        }
      ],
      "name": "addLiquidity",
      "outputs": [
        {
          "internalType": "address[]",
          "name": "shares",
          "type": "address[]"
        },
        {
          "internalType": "uint256[]",
          "name": "shareAmounts",
          "type": "uint256[]"
        },
        {
          "internalType": "address[]",
          "name": "liquidity",
          "type": "address[]"
        },
        {
          "internalType": "uint256[]",
          "name": "liquidityAmounts",
          "type": "uint256[]"
        }
      ],
      "stateMutability": "payable",
      "type": "function"
    },
    {
      "inputs": [
        {
          "internalType": "string",
          "name": "name",
          "type": "string"
        },
        {
          "internalType": "address[]",
          "name": "assetsIn",
          "type": "address[]"
        },
        {
          "internalType": "uint256[]",
          "name": "amountsIn",
          "type": "uint256[]"
        },
        {
          "internalType": "string",
          "name": "poolType",
          "type": "string"
        },
        {
          "components": [
            {
              "components": [
                {
                  "internalType": "address",
                  "name": "asset",
                  "type": "address"
                },
                {
                  "internalType": "uint256",
                  "name": "weight",
                  "type": "uint256"
                }
              ],
              "internalType": "struct MockBex.AssetWeight[]",
              "name": "weights",
              "type": "tuple[]"
            },
            {
              "internalType": "uint256",
              "name": "swapFee",
              "type": "uint256"
            }
          ],
          "internalType": "struct MockBex.PoolOptions",
          "name": "options",
          "type": "tuple"
        }
      ],
      "name": "createPool",
      "outputs": [
        {
          "internalType": "address",
          "name": "pool",
          "type": "address"
        }
      ],
      "stateMutability": "payable",
      "type": "function"
    },
    {
      "inputs": [],
      "name": "fuzz",
      "outputs": [
        {
          "internalType": "address",
          "name": "",
          "type": "address"
        }
      ],
      "stateMutability": "view",
      "type": "function"
    },
    {
      "inputs": [],
      "name": "fuzzAmount",
      "outputs": [
        {
          "internalType": "uint256",
          "name": "",
          "type": "uint256"
        }
      ],
      "stateMutability": "view",
      "type": "function"
    },
    {
      "inputs": [
        {
          "internalType": "address",
          "name": "pool",
          "type": "address"
        }
      ],
      "name": "getLiquidity",
      "outputs": [
        {
          "internalType": "address[]",
          "name": "asset",
          "type": "address[]"
        },
        {
          "internalType": "uint256[]",
          "name": "amounts",
          "type": "uint256[]"
        }
      ],
      "stateMutability": "view",
      "type": "function"
    },
    {
      "inputs": [],
      "name": "honey",
      "outputs": [
        {
          "internalType": "address",
          "name": "",
          "type": "address"
        }
      ],
      "stateMutability": "view",
      "type": "function"
    },
    {
      "inputs": [],
      "name": "honeyAmount",
      "outputs": [
        {
          "internalType": "uint256",
          "name": "",
          "type": "uint256"
        }
      ],
      "stateMutability": "view",
      "type": "function"
    },
    {
      "inputs": [],
      "name": "pairPool",
      "outputs": [
        {
          "internalType": "address",
          "name": "",
          "type": "address"
        }
      ],
      "stateMutability": "view",
      "type": "function"
    }
  ],
  "bytecode": "0x6080346100b157601f61064d38819003918201601f19168301916001600160401b038311848410176100b65780849260a0946040528339810103126100b157610047816100cc565b610053602083016100cc565b9060408301519161006b6080606086015195016100cc565b60018060a01b0380928160018060a01b03199516856000541617600055168360015416176001551690600454161760045560035560025560405161056c90816100e18239f35b600080fd5b634e487b7160e01b600052604160045260246000fd5b51906001600160a01b03821682036100b15756fe608060408181526004918236101561001657600080fd5b600092833560e01c918263112d3dae146102db5750816336b2c4b2146102b35781636d517aab14610208578163786809ad146101df5781639808797c146101b357508063a747b93b146100bc578063adc3957b1461009e5763c62b7ecc1461007d57600080fd5b3461009a578160031936011261009a576020906002549051908152f35b5080fd5b503461009a578160031936011261009a576020906003549051908152f35b5090346101b057602090816003193601126101b057906100da610400565b506100e36104ce565b91600283528183018436823781546001600160a01b039390841661010686610503565b526001938085541661011787610526565b526101206104ce565b90600282528282019780368a3760035461013984610503565b5260025461014684610526565b528051978189019189525180915260608801949186905b8282106101995750505050858303868301525180835291810195925b8281106101865785870386f35b8351875295810195928101928401610179565b83518116875295850195928501929088019061015d565b80fd5b9050346101db57826003193601126101db575490516001600160a01b03909116815260209150f35b8280fd5b50503461009a578160031936011261009a5760015490516001600160a01b039091168152602090f35b90508260803660031901126101b05761021f610400565b916001600160a01b0391602435838116036101b0576001600160401b039060443582811161009a5761025490369085016103d0565b50506064359182116101b057507f4892f7e313f1eab99bd9c39a0a5be04a968ff4183c2d156209aec26c6030a7389291610290913691016103d0565b50508351921691806102a181610489565b0390a251806102af81610489565b0390f35b50503461009a578160031936011261009a57905490516001600160a01b039091168152602090f35b9291506003199060a036830112610396576001600160401b0390803582811161039a5761030b903690830161039e565b505060243582811161039a5761032490369083016103d0565b505060443582811161039a5761033d90369083016103d0565b50506064359082821161039a576103569136910161039e565b5050608435908111610396573603011261009a5781807f83a48fbcfc991335314e74d0496aab6a1987e992ddc85dddbcc4d6dd6ef2e9fc81602095a28152f35b8480fd5b8680fd5b9181601f840112156103cb578235916001600160401b0383116103cb57602083818601950101116103cb57565b600080fd5b9181601f840112156103cb578235916001600160401b0383116103cb576020808501948460051b0101116103cb57565b600435906001600160a01b03821682036103cb57565b6060519081815260208091019160809160005b828110610437575050505090565b83516001600160a01b031685529381019392810192600101610429565b6060519081815260208091019160809160005b828110610475575050505090565b835185529381019392810192600101610467565b6104cb90608081526104bd6104b06104a360808401610416565b8381036020850152610454565b8281036040840152610416565b906060818303910152610454565b90565b60405190606082018281106001600160401b038211176104ed57604052565b634e487b7160e01b600052604160045260246000fd5b8051156105105760200190565b634e487b7160e01b600052603260045260246000fd5b805160011015610510576040019056fea26469706673582212209334f1ec200e153f8015622454b89777219187f168510da80212372de25a4e2364736f6c63430008130033",
  "linkReferences": {},
  "deployedLinkReferences": {}
}