{
  "contracts/NftMarketplace.sol": {
    "NftMarketplace": {
      "abi": [
        {
          "inputs": [
            {
              "internalType": "address",
              "name": "_nftAddress",
              "type": "address"
            }
          ],
          "stateMutability": "nonpayable",
          "type": "constructor"
        },
        {
          "inputs": [
            {
              "internalType": "address",
              "name": "nftAddress",
              "type": "address"
            },
            {
              "internalType": "uint256",
              "name": "tokenId",
              "type": "uint256"
            }
          ],
          "name": "AlreadyListed",
          "type": "error"
        },
        {
          "inputs": [],
          "name": "CollectionNotAllowed",
          "type": "error"
        },
        {
          "inputs": [],
          "name": "NoProceeds",
          "type": "error"
        },
        {
          "inputs": [],
          "name": "NotApprovedForMarketplace",
          "type": "error"
        },
        {
          "inputs": [
            {
              "internalType": "address",
              "name": "nftAddress",
              "type": "address"
            },
            {
              "internalType": "uint256",
              "name": "tokenId",
              "type": "uint256"
            }
          ],
          "name": "NotListed",
          "type": "error"
        },
        {
          "inputs": [],
          "name": "NotOwner",
          "type": "error"
        },
        {
          "inputs": [],
          "name": "PriceMustBeAboveZero",
          "type": "error"
        },
        {
          "inputs": [
            {
              "internalType": "address",
              "name": "nftAddress",
              "type": "address"
            },
            {
              "internalType": "uint256",
              "name": "tokenId",
              "type": "uint256"
            },
            {
              "internalType": "uint256",
              "name": "price",
              "type": "uint256"
            }
          ],
          "name": "PriceNotMet",
          "type": "error"
        },
        {
          "anonymous": false,
          "inputs": [
            {
              "indexed": true,
              "internalType": "address",
              "name": "buyer",
              "type": "address"
            },
            {
              "indexed": true,
              "internalType": "address",
              "name": "nftAddress",
              "type": "address"
            },
            {
              "indexed": true,
              "internalType": "uint256",
              "name": "tokenId",
              "type": "uint256"
            },
            {
              "indexed": false,
              "internalType": "uint256",
              "name": "price",
              "type": "uint256"
            }
          ],
          "name": "ItemBought",
          "type": "event"
        },
        {
          "anonymous": false,
          "inputs": [
            {
              "indexed": true,
              "internalType": "address",
              "name": "seller",
              "type": "address"
            },
            {
              "indexed": true,
              "internalType": "address",
              "name": "nftAddress",
              "type": "address"
            },
            {
              "indexed": true,
              "internalType": "uint256",
              "name": "tokenId",
              "type": "uint256"
            },
            {
              "indexed": false,
              "internalType": "uint256",
              "name": "listingId",
              "type": "uint256"
            }
          ],
          "name": "ItemCanceled",
          "type": "event"
        },
        {
          "anonymous": false,
          "inputs": [
            {
              "indexed": true,
              "internalType": "uint256",
              "name": "id",
              "type": "uint256"
            },
            {
              "indexed": true,
              "internalType": "address",
              "name": "seller",
              "type": "address"
            },
            {
              "indexed": true,
              "internalType": "address",
              "name": "nftAddress",
              "type": "address"
            },
            {
              "indexed": false,
              "internalType": "uint256",
              "name": "tokenId",
              "type": "uint256"
            },
            {
              "indexed": false,
              "internalType": "uint256",
              "name": "price",
              "type": "uint256"
            }
          ],
          "name": "ItemListed",
          "type": "event"
        },
        {
          "anonymous": false,
          "inputs": [
            {
              "indexed": true,
              "internalType": "uint256",
              "name": "id",
              "type": "uint256"
            },
            {
              "indexed": true,
              "internalType": "address",
              "name": "seller",
              "type": "address"
            },
            {
              "indexed": true,
              "internalType": "address",
              "name": "nftAddress",
              "type": "address"
            },
            {
              "indexed": false,
              "internalType": "uint256",
              "name": "tokenId",
              "type": "uint256"
            },
            {
              "indexed": false,
              "internalType": "uint256",
              "name": "price",
              "type": "uint256"
            }
          ],
          "name": "ListingUpdated",
          "type": "event"
        },
        {
          "inputs": [
            {
              "internalType": "uint256",
              "name": "",
              "type": "uint256"
            }
          ],
          "name": "activeListings",
          "outputs": [
            {
              "internalType": "uint256",
              "name": "id",
              "type": "uint256"
            },
            {
              "internalType": "address",
              "name": "seller",
              "type": "address"
            },
            {
              "internalType": "address",
              "name": "nftContract",
              "type": "address"
            },
            {
              "internalType": "uint256",
              "name": "tokenId",
              "type": "uint256"
            },
            {
              "internalType": "uint256",
              "name": "price",
              "type": "uint256"
            },
            {
              "internalType": "bool",
              "name": "active",
              "type": "bool"
            }
          ],
          "stateMutability": "view",
          "type": "function"
        },
        {
          "inputs": [
            {
              "internalType": "address",
              "name": "nftAddress",
              "type": "address"
            },
            {
              "internalType": "uint256",
              "name": "tokenId",
              "type": "uint256"
            },
            {
              "internalType": "uint256",
              "name": "listingId",
              "type": "uint256"
            }
          ],
          "name": "buyItem",
          "outputs": [],
          "stateMutability": "payable",
          "type": "function"
        },
        {
          "inputs": [
            {
              "internalType": "address",
              "name": "nftAddress",
              "type": "address"
            },
            {
              "internalType": "uint256",
              "name": "tokenId",
              "type": "uint256"
            },
            {
              "internalType": "uint256",
              "name": "listingId",
              "type": "uint256"
            }
          ],
          "name": "cancelListing",
          "outputs": [],
          "stateMutability": "nonpayable",
          "type": "function"
        },
        {
          "inputs": [],
          "name": "getActiveListings",
          "outputs": [
            {
              "components": [
                {
                  "internalType": "uint256",
                  "name": "id",
                  "type": "uint256"
                },
                {
                  "internalType": "address",
                  "name": "seller",
                  "type": "address"
                },
                {
                  "internalType": "address",
                  "name": "nftContract",
                  "type": "address"
                },
                {
                  "internalType": "uint256",
                  "name": "tokenId",
                  "type": "uint256"
                },
                {
                  "internalType": "uint256",
                  "name": "price",
                  "type": "uint256"
                },
                {
                  "internalType": "bool",
                  "name": "active",
                  "type": "bool"
                }
              ],
              "internalType": "struct NftMarketplace.Listing[]",
              "name": "",
              "type": "tuple[]"
            }
          ],
          "stateMutability": "view",
          "type": "function"
        },
        {
          "inputs": [
            {
              "internalType": "address",
              "name": "nftAddress",
              "type": "address"
            },
            {
              "internalType": "uint256",
              "name": "tokenId",
              "type": "uint256"
            }
          ],
          "name": "getListing",
          "outputs": [
            {
              "components": [
                {
                  "internalType": "uint256",
                  "name": "id",
                  "type": "uint256"
                },
                {
                  "internalType": "address",
                  "name": "seller",
                  "type": "address"
                },
                {
                  "internalType": "address",
                  "name": "nftContract",
                  "type": "address"
                },
                {
                  "internalType": "uint256",
                  "name": "tokenId",
                  "type": "uint256"
                },
                {
                  "internalType": "uint256",
                  "name": "price",
                  "type": "uint256"
                },
                {
                  "internalType": "bool",
                  "name": "active",
                  "type": "bool"
                }
              ],
              "internalType": "struct NftMarketplace.Listing",
              "name": "",
              "type": "tuple"
            }
          ],
          "stateMutability": "view",
          "type": "function"
        },
        {
          "inputs": [
            {
              "internalType": "address",
              "name": "seller",
              "type": "address"
            }
          ],
          "name": "getProceeds",
          "outputs": [
            {
              "internalType": "uint256",
              "name": "",
              "type": "uint256"
            }
          ],
          "stateMutability": "view",
          "type": "function"
        },
        {
          "inputs": [
            {
              "internalType": "address",
              "name": "nftAddress",
              "type": "address"
            },
            {
              "internalType": "uint256",
              "name": "tokenId",
              "type": "uint256"
            },
            {
              "internalType": "uint256",
              "name": "price",
              "type": "uint256"
            }
          ],
          "name": "listItem",
          "outputs": [],
          "stateMutability": "nonpayable",
          "type": "function"
        },
        {
          "inputs": [
            {
              "internalType": "address",
              "name": "nftAddress",
              "type": "address"
            },
            {
              "internalType": "uint256",
              "name": "tokenId",
              "type": "uint256"
            },
            {
              "internalType": "uint256",
              "name": "newPrice",
              "type": "uint256"
            },
            {
              "internalType": "uint256",
              "name": "listingId",
              "type": "uint256"
            }
          ],
          "name": "updateListing",
          "outputs": [],
          "stateMutability": "nonpayable",
          "type": "function"
        },
        {
          "inputs": [],
          "name": "withdrawProceeds",
          "outputs": [],
          "stateMutability": "nonpayable",
          "type": "function"
        }
      ],
      "evm": {
        "bytecode": {
          "linkReferences": {},
          "object": "60803461007957601f610f0c38819003918201601f19168301916001600160401b0383118484101761007e5780849260209460405283398101031261007957516001600160a01b03811690819003610079576001600055600580546001600160a01b031916919091179055604051610e7790816100958239f35b600080fd5b634e487b7160e01b600052604160045260246000fdfe60806040908082526004918236101561001757600080fd5b600091823560e01c90816330cfeda914610aa1575080634b3320e01461099957806361cf48631461091c57806387c35bc01461084657806388700d1c146107ca57806389bfd38f146104915780639038e693146103bf578063d9964757146102405763f6b45c461461008857600080fd5b61009136610af4565b9160018060a09593951b03928382169384875260209260038452848820878952845260806100c0868a20610be7565b01511561022157506100d6600288541415610c59565b600287558487526003835283872086885283526100f4848820610be7565b608081019283518034106101ff57509061010e8592610d8f565b86895260038252858920888a528252610128868a20610ca5565b0181815116863b156101fb57855190632142170760e11b82528a8201523360248201528760448201528881606481838b5af180156101f1576101c4575b50511686528682528286208054903482018092116101b1575551915191825233917f263223b1dd81e51054a4e6f791d45a4a1ddb4aadcd93a2dfd892615c3fdac1879190a46001815580f35b634e487b7160e01b885260118952602488fd5b6001600160401b0381999299116101de5785529638610165565b634e487b7160e01b825260418a52602482fd5b86513d8b823e3d90fd5b8880fd5b8a6064918a8a8a5193637c93456560e01b855284015260248301526044820152fd5b8861023c888751938493631a0c522360e21b85528401610c3e565b0390fd5b508290346103bb5760803660031901126103bb5761025c610ad9565b6024359160443560018060a01b03948584169586885260209460038652848920878a528652608061028e868b20610be7565b0151156103a057506102a4600289541415610c59565b6002885583516331a9108f60e11b815282810187905285816024818b5afa908115610396578991610369575b5016330361035b57811561034d5790807fdc557241e44f27a1ec6123783db462470e759d5c69917b205f5d59d4f08b15fd939287895260038652838920878a5286528181858b200155610324606435610b1e565b500155858752600384528187208588528452818720549382519586528501523393a46001815580f35b825163e1abbfc560e01b8152fd5b82516330cd747160e01b8152fd5b6103899150863d881161038f575b6103818183610bc6565b810190610cc9565b896102d0565b503d610377565b85513d8b823e3d90fd5b8261023c888751938493631a0c522360e21b85528401610c3e565b8280fd5b508290346103bb57826003193601126103bb5733835281602052808320548015610483578380808093338252866020528186812055335af13d1561047e573d6001600160401b03811161046b57825190610423601f8201601f191660200183610bc6565b81528460203d92013e5b15610436578280f35b906020606492519162461bcd60e51b8352820152600f60248201526e151c985b9cd9995c8819985a5b1959608a1b6044820152fd5b634e487b7160e01b855260418452602485fd5b61042d565b505163c4d8fa8760e01b8152fd5b508290346103bb576104a236610af4565b60018060a09593951b038084169586885260209460038652848920878a52865260806104cf868b20610be7565b01516107af575083516331a9108f60e11b815281810187905260249290868185818c5afa90811561075b579082918b91610792575b50163303610783578060055416880361077457831561076557845163020604bf60e21b815282810188905290868285818c5afa91821561075b578a9261073c575b5016301415806106d2575b6106c45760025415610657576002549160001990818401928484116106465761057884610ce8565b90549060031b1c94156106355750508661061f86959461061a897f424b3284a7958bb7965c27ca0b2a8b30ce2a56ba954533df15e6bded1b608ed7998e888f99986105c56106259a610ce8565b909182549160031b1b191690556002555b815198899788946105e686610b95565b8786523390860152818486015260608501528a6080850152600160a0850152815260038d528d8282209082528d5220610d03565b610b1e565b90610d68565b519382519586528501523393a480f35b634e487b7160e01b8b526031905289fd5b634e487b7160e01b8b526011905289fd5b6001549190600160401b8310156106b357505090856106258661061f8561061a89898e60017f424b3284a7958bb7965c27ca0b2a8b30ce2a56ba954533df15e6bded1b608ed79c9b016001556106ac85610b1e565b50506105d6565b634e487b7160e01b89526041905287fd5b8351634be3a2c560e01b8152fd5b50835163e985e9c560e01b81523382820152308382015285816044818b5afa908115610396578991610706575b5015610550565b90508581813d8311610735575b61071d8183610bc6565b810103126101fb575180151581036101fb57896106ff565b503d610713565b610754919250873d891161038f576103818183610bc6565b908a610545565b86513d8c823e3d90fd5b50835163e1abbfc560e01b8152fd5b5083516341fbc5a760e01b8152fd5b5083516330cd747160e01b8152fd5b6107a99150883d8a1161038f576103818183610bc6565b8b610504565b9061023c878651938493634a5568d560e01b85528401610c3e565b50346108425780600319360112610842576108406108378260c0946107ed610ad9565b8160a084516107fb81610b95565b8281528260208201528286820152826060820152826080820152015260018060a01b031681526003602052818120602435825260205220610be7565b91518092610b53565bf35b5080fd5b5082346103bb57826003193601126103bb576001928354916001600160401b038311610909575082939193516020610883818760051b0183610bc6565b858252808201958685855282852085915b8383106108e057505050508451948186019282875251809352850195925b8281106108bf5785870386f35b909192938260c0886108d3849a8951610b53565b01979501939291016108b2565b96600685829b996108f4859a98999a610be7565b81520192019201919098969895949395610894565b634e487b7160e01b825260419052602490fd5b508290346103bb5760203660031901126103bb57813592600154841015610996575061094960c093610b1e565b5080549260018060a01b039283600184015416936002840154169060ff600560038601549486015495015416948151968752602087015285015260608401526080830152151560a0820152f35b80fd5b5082346103bb576109a936610af4565b91909360018060a01b0391828116948251936331a9108f60e11b8552878286015260209485816024818b5afa908115610a97578a91610a7a575b5016330361035b578588526003845282882087895284526080610a07848a20610be7565b015115610a60575050907f74114e1af8d4d398357d12468ae7b6a7bf4144bf482db553622d275b6be6f19191610a3c84610d8f565b848752600382528087208688528252610a56818820610ca5565b519283523392a480f35b61023c878451938493631a0c522360e21b85528401610c3e565b610a919150863d881161038f576103818183610bc6565b8a6109e3565b85513d8c823e3d90fd5b9293905034610ad5576020366003190112610ad557602093906001600160a01b03610aca610ad9565b168252845220548152f35b8380fd5b600435906001600160a01b0382168203610aef57565b600080fd5b6060906003190112610aef576004356001600160a01b0381168103610aef57906024359060443590565b600154811015610b3d5760016000526006602060002091020190600090565b634e487b7160e01b600052603260045260246000fd5b60a0809180518452600180831b038060208301511660208601526040820151166040850152606081015160608501526080810151608085015201511515910152565b60c081019081106001600160401b03821117610bb057604052565b634e487b7160e01b600052604160045260246000fd5b90601f801991011681019081106001600160401b03821117610bb057604052565b90604051610bf481610b95565b8254815260018301546001600160a01b0390811660208301526002840154166040820152600383015460608201526004830154608082015260059092015460ff16151560a0830152565b6001600160a01b039091168152602081019190915260400190565b15610c6057565b60405162461bcd60e51b815260206004820152601f60248201527f5265656e7472616e637947756172643a207265656e7472616e742063616c6c006044820152606490fd5b60056000918281558260018201558260028201558260038201558260048201550155565b90816020910312610aef57516001600160a01b0381168103610aef5790565b600254811015610b3d57600260005260206000200190600090565b600560a0918351815560018101600180851b03908160208701511690600180871b03199182825416179055600283019160408701511690825416179055606084015160038201556080840151600482015501910151151560ff80198354169116179055565b9190610d7957610d7791610d03565b565b634e487b7160e01b600052600060045260246000fd5b600154811080610e2a575b610da15750565b604051610dad81610b95565b610ddd6000918281528260208201528260408201528260608201528260808201528260a082015261061f84610b1e565b60025490600160401b821015610e165750806001610dfe9201600255610ce8565b819291549060031b91821b91600019901b1916179055565b634e487b7160e01b81526041600452602490fd5b5060ff6005610e3883610b1e565b50015416610d9a56fea264697066735822122031fc34d9f7c77a629fa64884cb55f095ee86ad6990dad05d7579a6d53a40a3dc64736f6c63430008130033",
          "opcodes": "PUSH1 0x80 CALLVALUE PUSH2 0x79 JUMPI PUSH1 0x1F PUSH2 0xF0C CODESIZE DUP2 SWAP1 SUB SWAP2 DUP3 ADD PUSH1 0x1F NOT AND DUP4 ADD SWAP2 PUSH1 0x1 PUSH1 0x1 PUSH1 0x40 SHL SUB DUP4 GT DUP5 DUP5 LT OR PUSH2 0x7E JUMPI DUP1 DUP5 SWAP3 PUSH1 0x20 SWAP5 PUSH1 0x40 MSTORE DUP4 CODECOPY DUP2 ADD SUB SLT PUSH2 0x79 JUMPI MLOAD PUSH1 0x1 PUSH1 0x1 PUSH1 0xA0 SHL SUB DUP2 AND SWAP1 DUP2 SWAP1 SUB PUSH2 0x79 JUMPI PUSH1 0x1 PUSH1 0x0 SSTORE PUSH1 0x5 DUP1 SLOAD PUSH1 0x1 PUSH1 0x1 PUSH1 0xA0 SHL SUB NOT AND SWAP2 SWAP1 SWAP2 OR SWAP1 SSTORE PUSH1 0x40 MLOAD PUSH2 0xE77 SWAP1 DUP2 PUSH2 0x95 DUP3 CODECOPY RETURN JUMPDEST PUSH1 0x0 DUP1 REVERT JUMPDEST PUSH4 0x4E487B71 PUSH1 0xE0 SHL PUSH1 0x0 MSTORE PUSH1 0x41 PUSH1 0x4 MSTORE PUSH1 0x24 PUSH1 0x0 REVERT INVALID PUSH1 0x80 PUSH1 0x40 SWAP1 DUP1 DUP3 MSTORE PUSH1 0x4 SWAP2 DUP3 CALLDATASIZE LT ISZERO PUSH2 0x17 JUMPI PUSH1 0x0 DUP1 REVERT JUMPDEST PUSH1 0x0 SWAP2 DUP3 CALLDATALOAD PUSH1 0xE0 SHR SWAP1 DUP2 PUSH4 0x30CFEDA9 EQ PUSH2 0xAA1 JUMPI POP DUP1 PUSH4 0x4B3320E0 EQ PUSH2 0x999 JUMPI DUP1 PUSH4 0x61CF4863 EQ PUSH2 0x91C JUMPI DUP1 PUSH4 0x87C35BC0 EQ PUSH2 0x846 JUMPI DUP1 PUSH4 0x88700D1C EQ PUSH2 0x7CA JUMPI DUP1 PUSH4 0x89BFD38F EQ PUSH2 0x491 JUMPI DUP1 PUSH4 0x9038E693 EQ PUSH2 0x3BF JUMPI DUP1 PUSH4 0xD9964757 EQ PUSH2 0x240 JUMPI PUSH4 0xF6B45C46 EQ PUSH2 0x88 JUMPI PUSH1 0x0 DUP1 REVERT JUMPDEST PUSH2 0x91 CALLDATASIZE PUSH2 0xAF4 JUMP JUMPDEST SWAP2 PUSH1 0x1 DUP1 PUSH1 0xA0 SWAP6 SWAP4 SWAP6 SHL SUB SWAP3 DUP4 DUP3 AND SWAP4 DUP5 DUP8 MSTORE PUSH1 0x20 SWAP3 PUSH1 0x3 DUP5 MSTORE DUP5 DUP9 KECCAK256 DUP8 DUP10 MSTORE DUP5 MSTORE PUSH1 0x80 PUSH2 0xC0 DUP7 DUP11 KECCAK256 PUSH2 0xBE7 JUMP JUMPDEST ADD MLOAD ISZERO PUSH2 0x221 JUMPI POP PUSH2 0xD6 PUSH1 0x2 DUP9 SLOAD EQ ISZERO PUSH2 0xC59 JUMP JUMPDEST PUSH1 0x2 DUP8 SSTORE DUP5 DUP8 MSTORE PUSH1 0x3 DUP4 MSTORE DUP4 DUP8 KECCAK256 DUP7 DUP9 MSTORE DUP4 MSTORE PUSH2 0xF4 DUP5 DUP9 KECCAK256 PUSH2 0xBE7 JUMP JUMPDEST PUSH1 0x80 DUP2 ADD SWAP3 DUP4 MLOAD DUP1 CALLVALUE LT PUSH2 0x1FF JUMPI POP SWAP1 PUSH2 0x10E DUP6 SWAP3 PUSH2 0xD8F JUMP JUMPDEST DUP7 DUP10 MSTORE PUSH1 0x3 DUP3 MSTORE DUP6 DUP10 KECCAK256 DUP9 DUP11 MSTORE DUP3 MSTORE PUSH2 0x128 DUP7 DUP11 KECCAK256 PUSH2 0xCA5 JUMP JUMPDEST ADD DUP2 DUP2 MLOAD AND DUP7 EXTCODESIZE ISZERO PUSH2 0x1FB JUMPI DUP6 MLOAD SWAP1 PUSH4 0x21421707 PUSH1 0xE1 SHL DUP3 MSTORE DUP11 DUP3 ADD MSTORE CALLER PUSH1 0x24 DUP3 ADD MSTORE DUP8 PUSH1 0x44 DUP3 ADD MSTORE DUP9 DUP2 PUSH1 0x64 DUP2 DUP4 DUP12 GAS CALL DUP1 ISZERO PUSH2 0x1F1 JUMPI PUSH2 0x1C4 JUMPI JUMPDEST POP MLOAD AND DUP7 MSTORE DUP7 DUP3 MSTORE DUP3 DUP7 KECCAK256 DUP1 SLOAD SWAP1 CALLVALUE DUP3 ADD DUP1 SWAP3 GT PUSH2 0x1B1 JUMPI SSTORE MLOAD SWAP2 MLOAD SWAP2 DUP3 MSTORE CALLER SWAP2 PUSH32 0x263223B1DD81E51054A4E6F791D45A4A1DDB4AADCD93A2DFD892615C3FDAC187 SWAP2 SWAP1 LOG4 PUSH1 0x1 DUP2 SSTORE DUP1 RETURN JUMPDEST PUSH4 0x4E487B71 PUSH1 0xE0 SHL DUP9 MSTORE PUSH1 0x11 DUP10 MSTORE PUSH1 0x24 DUP9 REVERT JUMPDEST PUSH1 0x1 PUSH1 0x1 PUSH1 0x40 SHL SUB DUP2 SWAP10 SWAP3 SWAP10 GT PUSH2 0x1DE JUMPI DUP6 MSTORE SWAP7 CODESIZE PUSH2 0x165 JUMP JUMPDEST PUSH4 0x4E487B71 PUSH1 0xE0 SHL DUP3 MSTORE PUSH1 0x41 DUP11 MSTORE PUSH1 0x24 DUP3 REVERT JUMPDEST DUP7 MLOAD RETURNDATASIZE DUP12 DUP3 RETURNDATACOPY RETURNDATASIZE SWAP1 REVERT JUMPDEST DUP9 DUP1 REVERT JUMPDEST DUP11 PUSH1 0x64 SWAP2 DUP11 DUP11 DUP11 MLOAD SWAP4 PUSH4 0x7C934565 PUSH1 0xE0 SHL DUP6 MSTORE DUP5 ADD MSTORE PUSH1 0x24 DUP4 ADD MSTORE PUSH1 0x44 DUP3 ADD MSTORE REVERT JUMPDEST DUP9 PUSH2 0x23C DUP9 DUP8 MLOAD SWAP4 DUP5 SWAP4 PUSH4 0x1A0C5223 PUSH1 0xE2 SHL DUP6 MSTORE DUP5 ADD PUSH2 0xC3E JUMP JUMPDEST SUB SWAP1 REVERT JUMPDEST POP DUP3 SWAP1 CALLVALUE PUSH2 0x3BB JUMPI PUSH1 0x80 CALLDATASIZE PUSH1 0x3 NOT ADD SLT PUSH2 0x3BB JUMPI PUSH2 0x25C PUSH2 0xAD9 JUMP JUMPDEST PUSH1 0x24 CALLDATALOAD SWAP2 PUSH1 0x44 CALLDATALOAD PUSH1 0x1 DUP1 PUSH1 0xA0 SHL SUB SWAP5 DUP6 DUP5 AND SWAP6 DUP7 DUP9 MSTORE PUSH1 0x20 SWAP5 PUSH1 0x3 DUP7 MSTORE DUP5 DUP10 KECCAK256 DUP8 DUP11 MSTORE DUP7 MSTORE PUSH1 0x80 PUSH2 0x28E DUP7 DUP12 KECCAK256 PUSH2 0xBE7 JUMP JUMPDEST ADD MLOAD ISZERO PUSH2 0x3A0 JUMPI POP PUSH2 0x2A4 PUSH1 0x2 DUP10 SLOAD EQ ISZERO PUSH2 0xC59 JUMP JUMPDEST PUSH1 0x2 DUP9 SSTORE DUP4 MLOAD PUSH4 0x31A9108F PUSH1 0xE1 SHL DUP2 MSTORE DUP3 DUP2 ADD DUP8 SWAP1 MSTORE DUP6 DUP2 PUSH1 0x24 DUP2 DUP12 GAS STATICCALL SWAP1 DUP2 ISZERO PUSH2 0x396 JUMPI DUP10 SWAP2 PUSH2 0x369 JUMPI JUMPDEST POP AND CALLER SUB PUSH2 0x35B JUMPI DUP2 ISZERO PUSH2 0x34D JUMPI SWAP1 DUP1 PUSH32 0xDC557241E44F27A1EC6123783DB462470E759D5C69917B205F5D59D4F08B15FD SWAP4 SWAP3 DUP8 DUP10 MSTORE PUSH1 0x3 DUP7 MSTORE DUP4 DUP10 KECCAK256 DUP8 DUP11 MSTORE DUP7 MSTORE DUP2 DUP2 DUP6 DUP12 KECCAK256 ADD SSTORE PUSH2 0x324 PUSH1 0x64 CALLDATALOAD PUSH2 0xB1E JUMP JUMPDEST POP ADD SSTORE DUP6 DUP8 MSTORE PUSH1 0x3 DUP5 MSTORE DUP2 DUP8 KECCAK256 DUP6 DUP9 MSTORE DUP5 MSTORE DUP2 DUP8 KECCAK256 SLOAD SWAP4 DUP3 MLOAD SWAP6 DUP7 MSTORE DUP6 ADD MSTORE CALLER SWAP4 LOG4 PUSH1 0x1 DUP2 SSTORE DUP1 RETURN JUMPDEST DUP3 MLOAD PUSH4 0xE1ABBFC5 PUSH1 0xE0 SHL DUP2 MSTORE REVERT JUMPDEST DUP3 MLOAD PUSH4 0x30CD7471 PUSH1 0xE0 SHL DUP2 MSTORE REVERT JUMPDEST PUSH2 0x389 SWAP2 POP DUP7 RETURNDATASIZE DUP9 GT PUSH2 0x38F JUMPI JUMPDEST PUSH2 0x381 DUP2 DUP4 PUSH2 0xBC6 JUMP JUMPDEST DUP2 ADD SWAP1 PUSH2 0xCC9 JUMP JUMPDEST DUP10 PUSH2 0x2D0 JUMP JUMPDEST POP RETURNDATASIZE PUSH2 0x377 JUMP JUMPDEST DUP6 MLOAD RETURNDATASIZE DUP12 DUP3 RETURNDATACOPY RETURNDATASIZE SWAP1 REVERT JUMPDEST DUP3 PUSH2 0x23C DUP9 DUP8 MLOAD SWAP4 DUP5 SWAP4 PUSH4 0x1A0C5223 PUSH1 0xE2 SHL DUP6 MSTORE DUP5 ADD PUSH2 0xC3E JUMP JUMPDEST DUP3 DUP1 REVERT JUMPDEST POP DUP3 SWAP1 CALLVALUE PUSH2 0x3BB JUMPI DUP3 PUSH1 0x3 NOT CALLDATASIZE ADD SLT PUSH2 0x3BB JUMPI CALLER DUP4 MSTORE DUP2 PUSH1 0x20 MSTORE DUP1 DUP4 KECCAK256 SLOAD DUP1 ISZERO PUSH2 0x483 JUMPI DUP4 DUP1 DUP1 DUP1 SWAP4 CALLER DUP3 MSTORE DUP7 PUSH1 0x20 MSTORE DUP2 DUP7 DUP2 KECCAK256 SSTORE CALLER GAS CALL RETURNDATASIZE ISZERO PUSH2 0x47E JUMPI RETURNDATASIZE PUSH1 0x1 PUSH1 0x1 PUSH1 0x40 SHL SUB DUP2 GT PUSH2 0x46B JUMPI DUP3 MLOAD SWAP1 PUSH2 0x423 PUSH1 0x1F DUP3 ADD PUSH1 0x1F NOT AND PUSH1 0x20 ADD DUP4 PUSH2 0xBC6 JUMP JUMPDEST DUP2 MSTORE DUP5 PUSH1 0x20 RETURNDATASIZE SWAP3 ADD RETURNDATACOPY JUMPDEST ISZERO PUSH2 0x436 JUMPI DUP3 DUP1 RETURN JUMPDEST SWAP1 PUSH1 0x20 PUSH1 0x64 SWAP3 MLOAD SWAP2 PUSH3 0x461BCD PUSH1 0xE5 SHL DUP4 MSTORE DUP3 ADD MSTORE PUSH1 0xF PUSH1 0x24 DUP3 ADD MSTORE PUSH15 0x151C985B9CD9995C8819985A5B1959 PUSH1 0x8A SHL PUSH1 0x44 DUP3 ADD MSTORE REVERT JUMPDEST PUSH4 0x4E487B71 PUSH1 0xE0 SHL DUP6 MSTORE PUSH1 0x41 DUP5 MSTORE PUSH1 0x24 DUP6 REVERT JUMPDEST PUSH2 0x42D JUMP JUMPDEST POP MLOAD PUSH4 0xC4D8FA87 PUSH1 0xE0 SHL DUP2 MSTORE REVERT JUMPDEST POP DUP3 SWAP1 CALLVALUE PUSH2 0x3BB JUMPI PUSH2 0x4A2 CALLDATASIZE PUSH2 0xAF4 JUMP JUMPDEST PUSH1 0x1 DUP1 PUSH1 0xA0 SWAP6 SWAP4 SWAP6 SHL SUB DUP1 DUP5 AND SWAP6 DUP7 DUP9 MSTORE PUSH1 0x20 SWAP5 PUSH1 0x3 DUP7 MSTORE DUP5 DUP10 KECCAK256 DUP8 DUP11 MSTORE DUP7 MSTORE PUSH1 0x80 PUSH2 0x4CF DUP7 DUP12 KECCAK256 PUSH2 0xBE7 JUMP JUMPDEST ADD MLOAD PUSH2 0x7AF JUMPI POP DUP4 MLOAD PUSH4 0x31A9108F PUSH1 0xE1 SHL DUP2 MSTORE DUP2 DUP2 ADD DUP8 SWAP1 MSTORE PUSH1 0x24 SWAP3 SWAP1 DUP7 DUP2 DUP6 DUP2 DUP13 GAS STATICCALL SWAP1 DUP2 ISZERO PUSH2 0x75B JUMPI SWAP1 DUP3 SWAP2 DUP12 SWAP2 PUSH2 0x792 JUMPI JUMPDEST POP AND CALLER SUB PUSH2 0x783 JUMPI DUP1 PUSH1 0x5 SLOAD AND DUP9 SUB PUSH2 0x774 JUMPI DUP4 ISZERO PUSH2 0x765 JUMPI DUP5 MLOAD PUSH4 0x20604BF PUSH1 0xE2 SHL DUP2 MSTORE DUP3 DUP2 ADD DUP9 SWAP1 MSTORE SWAP1 DUP7 DUP3 DUP6 DUP2 DUP13 GAS STATICCALL SWAP2 DUP3 ISZERO PUSH2 0x75B JUMPI DUP11 SWAP3 PUSH2 0x73C JUMPI JUMPDEST POP AND ADDRESS EQ ISZERO DUP1 PUSH2 0x6D2 JUMPI JUMPDEST PUSH2 0x6C4 JUMPI PUSH1 0x2 SLOAD ISZERO PUSH2 0x657 JUMPI PUSH1 0x2 SLOAD SWAP2 PUSH1 0x0 NOT SWAP1 DUP2 DUP5 ADD SWAP3 DUP5 DUP5 GT PUSH2 0x646 JUMPI PUSH2 0x578 DUP5 PUSH2 0xCE8 JUMP JUMPDEST SWAP1 SLOAD SWAP1 PUSH1 0x3 SHL SHR SWAP5 ISZERO PUSH2 0x635 JUMPI POP POP DUP7 PUSH2 0x61F DUP7 SWAP6 SWAP5 PUSH2 0x61A DUP10 PUSH32 0x424B3284A7958BB7965C27CA0B2A8B30CE2A56BA954533DF15E6BDED1B608ED7 SWAP10 DUP15 DUP9 DUP16 SWAP10 SWAP9 PUSH2 0x5C5 PUSH2 0x625 SWAP11 PUSH2 0xCE8 JUMP JUMPDEST SWAP1 SWAP2 DUP3 SLOAD SWAP2 PUSH1 0x3 SHL SHL NOT AND SWAP1 SSTORE PUSH1 0x2 SSTORE JUMPDEST DUP2 MLOAD SWAP9 DUP10 SWAP8 DUP9 SWAP5 PUSH2 0x5E6 DUP7 PUSH2 0xB95 JUMP JUMPDEST DUP8 DUP7 MSTORE CALLER SWAP1 DUP7 ADD MSTORE DUP2 DUP5 DUP7 ADD MSTORE PUSH1 0x60 DUP6 ADD MSTORE DUP11 PUSH1 0x80 DUP6 ADD MSTORE PUSH1 0x1 PUSH1 0xA0 DUP6 ADD MSTORE DUP2 MSTORE PUSH1 0x3 DUP14 MSTORE DUP14 DUP3 DUP3 KECCAK256 SWAP1 DUP3 MSTORE DUP14 MSTORE KECCAK256 PUSH2 0xD03 JUMP JUMPDEST PUSH2 0xB1E JUMP JUMPDEST SWAP1 PUSH2 0xD68 JUMP JUMPDEST MLOAD SWAP4 DUP3 MLOAD SWAP6 DUP7 MSTORE DUP6 ADD MSTORE CALLER SWAP4 LOG4 DUP1 RETURN JUMPDEST PUSH4 0x4E487B71 PUSH1 0xE0 SHL DUP12 MSTORE PUSH1 0x31 SWAP1 MSTORE DUP10 REVERT JUMPDEST PUSH4 0x4E487B71 PUSH1 0xE0 SHL DUP12 MSTORE PUSH1 0x11 SWAP1 MSTORE DUP10 REVERT JUMPDEST PUSH1 0x1 SLOAD SWAP2 SWAP1 PUSH1 0x1 PUSH1 0x40 SHL DUP4 LT ISZERO PUSH2 0x6B3 JUMPI POP POP SWAP1 DUP6 PUSH2 0x625 DUP7 PUSH2 0x61F DUP6 PUSH2 0x61A DUP10 DUP10 DUP15 PUSH1 0x1 PUSH32 0x424B3284A7958BB7965C27CA0B2A8B30CE2A56BA954533DF15E6BDED1B608ED7 SWAP13 SWAP12 ADD PUSH1 0x1 SSTORE PUSH2 0x6AC DUP6 PUSH2 0xB1E JUMP JUMPDEST POP POP PUSH2 0x5D6 JUMP JUMPDEST PUSH4 0x4E487B71 PUSH1 0xE0 SHL DUP10 MSTORE PUSH1 0x41 SWAP1 MSTORE DUP8 REVERT JUMPDEST DUP4 MLOAD PUSH4 0x4BE3A2C5 PUSH1 0xE0 SHL DUP2 MSTORE REVERT JUMPDEST POP DUP4 MLOAD PUSH4 0xE985E9C5 PUSH1 0xE0 SHL DUP2 MSTORE CALLER DUP3 DUP3 ADD MSTORE ADDRESS DUP4 DUP3 ADD MSTORE DUP6 DUP2 PUSH1 0x44 DUP2 DUP12 GAS STATICCALL SWAP1 DUP2 ISZERO PUSH2 0x396 JUMPI DUP10 SWAP2 PUSH2 0x706 JUMPI JUMPDEST POP ISZERO PUSH2 0x550 JUMP JUMPDEST SWAP1 POP DUP6 DUP2 DUP2 RETURNDATASIZE DUP4 GT PUSH2 0x735 JUMPI JUMPDEST PUSH2 0x71D DUP2 DUP4 PUSH2 0xBC6 JUMP JUMPDEST DUP2 ADD SUB SLT PUSH2 0x1FB JUMPI MLOAD DUP1 ISZERO ISZERO DUP2 SUB PUSH2 0x1FB JUMPI DUP10 PUSH2 0x6FF JUMP JUMPDEST POP RETURNDATASIZE PUSH2 0x713 JUMP JUMPDEST PUSH2 0x754 SWAP2 SWAP3 POP DUP8 RETURNDATASIZE DUP10 GT PUSH2 0x38F JUMPI PUSH2 0x381 DUP2 DUP4 PUSH2 0xBC6 JUMP JUMPDEST SWAP1 DUP11 PUSH2 0x545 JUMP JUMPDEST DUP7 MLOAD RETURNDATASIZE DUP13 DUP3 RETURNDATACOPY RETURNDATASIZE SWAP1 REVERT JUMPDEST POP DUP4 MLOAD PUSH4 0xE1ABBFC5 PUSH1 0xE0 SHL DUP2 MSTORE REVERT JUMPDEST POP DUP4 MLOAD PUSH4 0x41FBC5A7 PUSH1 0xE0 SHL DUP2 MSTORE REVERT JUMPDEST POP DUP4 MLOAD PUSH4 0x30CD7471 PUSH1 0xE0 SHL DUP2 MSTORE REVERT JUMPDEST PUSH2 0x7A9 SWAP2 POP DUP9 RETURNDATASIZE DUP11 GT PUSH2 0x38F JUMPI PUSH2 0x381 DUP2 DUP4 PUSH2 0xBC6 JUMP JUMPDEST DUP12 PUSH2 0x504 JUMP JUMPDEST SWAP1 PUSH2 0x23C DUP8 DUP7 MLOAD SWAP4 DUP5 SWAP4 PUSH4 0x4A5568D5 PUSH1 0xE0 SHL DUP6 MSTORE DUP5 ADD PUSH2 0xC3E JUMP JUMPDEST POP CALLVALUE PUSH2 0x842 JUMPI DUP1 PUSH1 0x3 NOT CALLDATASIZE ADD SLT PUSH2 0x842 JUMPI PUSH2 0x840 PUSH2 0x837 DUP3 PUSH1 0xC0 SWAP5 PUSH2 0x7ED PUSH2 0xAD9 JUMP JUMPDEST DUP2 PUSH1 0xA0 DUP5 MLOAD PUSH2 0x7FB DUP2 PUSH2 0xB95 JUMP JUMPDEST DUP3 DUP2 MSTORE DUP3 PUSH1 0x20 DUP3 ADD MSTORE DUP3 DUP7 DUP3 ADD MSTORE DUP3 PUSH1 0x60 DUP3 ADD MSTORE DUP3 PUSH1 0x80 DUP3 ADD MSTORE ADD MSTORE PUSH1 0x1 DUP1 PUSH1 0xA0 SHL SUB AND DUP2 MSTORE PUSH1 0x3 PUSH1 0x20 MSTORE DUP2 DUP2 KECCAK256 PUSH1 0x24 CALLDATALOAD DUP3 MSTORE PUSH1 0x20 MSTORE KECCAK256 PUSH2 0xBE7 JUMP JUMPDEST SWAP2 MLOAD DUP1 SWAP3 PUSH2 0xB53 JUMP JUMPDEST RETURN JUMPDEST POP DUP1 REVERT JUMPDEST POP DUP3 CALLVALUE PUSH2 0x3BB JUMPI DUP3 PUSH1 0x3 NOT CALLDATASIZE ADD SLT PUSH2 0x3BB JUMPI PUSH1 0x1 SWAP3 DUP4 SLOAD SWAP2 PUSH1 0x1 PUSH1 0x1 PUSH1 0x40 SHL SUB DUP4 GT PUSH2 0x909 JUMPI POP DUP3 SWAP4 SWAP2 SWAP4 MLOAD PUSH1 0x20 PUSH2 0x883 DUP2 DUP8 PUSH1 0x5 SHL ADD DUP4 PUSH2 0xBC6 JUMP JUMPDEST DUP6 DUP3 MSTORE DUP1 DUP3 ADD SWAP6 DUP7 DUP6 DUP6 MSTORE DUP3 DUP6 KECCAK256 DUP6 SWAP2 JUMPDEST DUP4 DUP4 LT PUSH2 0x8E0 JUMPI POP POP POP POP DUP5 MLOAD SWAP5 DUP2 DUP7 ADD SWAP3 DUP3 DUP8 MSTORE MLOAD DUP1 SWAP4 MSTORE DUP6 ADD SWAP6 SWAP3 JUMPDEST DUP3 DUP2 LT PUSH2 0x8BF JUMPI DUP6 DUP8 SUB DUP7 RETURN JUMPDEST SWAP1 SWAP2 SWAP3 SWAP4 DUP3 PUSH1 0xC0 DUP9 PUSH2 0x8D3 DUP5 SWAP11 DUP10 MLOAD PUSH2 0xB53 JUMP JUMPDEST ADD SWAP8 SWAP6 ADD SWAP4 SWAP3 SWAP2 ADD PUSH2 0x8B2 JUMP JUMPDEST SWAP7 PUSH1 0x6 DUP6 DUP3 SWAP12 SWAP10 PUSH2 0x8F4 DUP6 SWAP11 SWAP9 SWAP10 SWAP11 PUSH2 0xBE7 JUMP JUMPDEST DUP2 MSTORE ADD SWAP3 ADD SWAP3 ADD SWAP2 SWAP1 SWAP9 SWAP7 SWAP9 SWAP6 SWAP5 SWAP4 SWAP6 PUSH2 0x894 JUMP JUMPDEST PUSH4 0x4E487B71 PUSH1 0xE0 SHL DUP3 MSTORE PUSH1 0x41 SWAP1 MSTORE PUSH1 0x24 SWAP1 REVERT JUMPDEST POP DUP3 SWAP1 CALLVALUE PUSH2 0x3BB JUMPI PUSH1 0x20 CALLDATASIZE PUSH1 0x3 NOT ADD SLT PUSH2 0x3BB JUMPI DUP2 CALLDATALOAD SWAP3 PUSH1 0x1 SLOAD DUP5 LT ISZERO PUSH2 0x996 JUMPI POP PUSH2 0x949 PUSH1 0xC0 SWAP4 PUSH2 0xB1E JUMP JUMPDEST POP DUP1 SLOAD SWAP3 PUSH1 0x1 DUP1 PUSH1 0xA0 SHL SUB SWAP3 DUP4 PUSH1 0x1 DUP5 ADD SLOAD AND SWAP4 PUSH1 0x2 DUP5 ADD SLOAD AND SWAP1 PUSH1 0xFF PUSH1 0x5 PUSH1 0x3 DUP7 ADD SLOAD SWAP5 DUP7 ADD SLOAD SWAP6 ADD SLOAD AND SWAP5 DUP2 MLOAD SWAP7 DUP8 MSTORE PUSH1 0x20 DUP8 ADD MSTORE DUP6 ADD MSTORE PUSH1 0x60 DUP5 ADD MSTORE PUSH1 0x80 DUP4 ADD MSTORE ISZERO ISZERO PUSH1 0xA0 DUP3 ADD MSTORE RETURN JUMPDEST DUP1 REVERT JUMPDEST POP DUP3 CALLVALUE PUSH2 0x3BB JUMPI PUSH2 0x9A9 CALLDATASIZE PUSH2 0xAF4 JUMP JUMPDEST SWAP2 SWAP1 SWAP4 PUSH1 0x1 DUP1 PUSH1 0xA0 SHL SUB SWAP2 DUP3 DUP2 AND SWAP5 DUP3 MLOAD SWAP4 PUSH4 0x31A9108F PUSH1 0xE1 SHL DUP6 MSTORE DUP8 DUP3 DUP7 ADD MSTORE PUSH1 0x20 SWAP5 DUP6 DUP2 PUSH1 0x24 DUP2 DUP12 GAS STATICCALL SWAP1 DUP2 ISZERO PUSH2 0xA97 JUMPI DUP11 SWAP2 PUSH2 0xA7A JUMPI JUMPDEST POP AND CALLER SUB PUSH2 0x35B JUMPI DUP6 DUP9 MSTORE PUSH1 0x3 DUP5 MSTORE DUP3 DUP9 KECCAK256 DUP8 DUP10 MSTORE DUP5 MSTORE PUSH1 0x80 PUSH2 0xA07 DUP5 DUP11 KECCAK256 PUSH2 0xBE7 JUMP JUMPDEST ADD MLOAD ISZERO PUSH2 0xA60 JUMPI POP POP SWAP1 PUSH32 0x74114E1AF8D4D398357D12468AE7B6A7BF4144BF482DB553622D275B6BE6F191 SWAP2 PUSH2 0xA3C DUP5 PUSH2 0xD8F JUMP JUMPDEST DUP5 DUP8 MSTORE PUSH1 0x3 DUP3 MSTORE DUP1 DUP8 KECCAK256 DUP7 DUP9 MSTORE DUP3 MSTORE PUSH2 0xA56 DUP2 DUP9 KECCAK256 PUSH2 0xCA5 JUMP JUMPDEST MLOAD SWAP3 DUP4 MSTORE CALLER SWAP3 LOG4 DUP1 RETURN JUMPDEST PUSH2 0x23C DUP8 DUP5 MLOAD SWAP4 DUP5 SWAP4 PUSH4 0x1A0C5223 PUSH1 0xE2 SHL DUP6 MSTORE DUP5 ADD PUSH2 0xC3E JUMP JUMPDEST PUSH2 0xA91 SWAP2 POP DUP7 RETURNDATASIZE DUP9 GT PUSH2 0x38F JUMPI PUSH2 0x381 DUP2 DUP4 PUSH2 0xBC6 JUMP JUMPDEST DUP11 PUSH2 0x9E3 JUMP JUMPDEST DUP6 MLOAD RETURNDATASIZE DUP13 DUP3 RETURNDATACOPY RETURNDATASIZE SWAP1 REVERT JUMPDEST SWAP3 SWAP4 SWAP1 POP CALLVALUE PUSH2 0xAD5 JUMPI PUSH1 0x20 CALLDATASIZE PUSH1 0x3 NOT ADD SLT PUSH2 0xAD5 JUMPI PUSH1 0x20 SWAP4 SWAP1 PUSH1 0x1 PUSH1 0x1 PUSH1 0xA0 SHL SUB PUSH2 0xACA PUSH2 0xAD9 JUMP JUMPDEST AND DUP3 MSTORE DUP5 MSTORE KECCAK256 SLOAD DUP2 MSTORE RETURN JUMPDEST DUP4 DUP1 REVERT JUMPDEST PUSH1 0x4 CALLDATALOAD SWAP1 PUSH1 0x1 PUSH1 0x1 PUSH1 0xA0 SHL SUB DUP3 AND DUP3 SUB PUSH2 0xAEF JUMPI JUMP JUMPDEST PUSH1 0x0 DUP1 REVERT JUMPDEST PUSH1 0x60 SWAP1 PUSH1 0x3 NOT ADD SLT PUSH2 0xAEF JUMPI PUSH1 0x4 CALLDATALOAD PUSH1 0x1 PUSH1 0x1 PUSH1 0xA0 SHL SUB DUP2 AND DUP2 SUB PUSH2 0xAEF JUMPI SWAP1 PUSH1 0x24 CALLDATALOAD SWAP1 PUSH1 0x44 CALLDATALOAD SWAP1 JUMP JUMPDEST PUSH1 0x1 SLOAD DUP2 LT ISZERO PUSH2 0xB3D JUMPI PUSH1 0x1 PUSH1 0x0 MSTORE PUSH1 0x6 PUSH1 0x20 PUSH1 0x0 KECCAK256 SWAP2 MUL ADD SWAP1 PUSH1 0x0 SWAP1 JUMP JUMPDEST PUSH4 0x4E487B71 PUSH1 0xE0 SHL PUSH1 0x0 MSTORE PUSH1 0x32 PUSH1 0x4 MSTORE PUSH1 0x24 PUSH1 0x0 REVERT JUMPDEST PUSH1 0xA0 DUP1 SWAP2 DUP1 MLOAD DUP5 MSTORE PUSH1 0x1 DUP1 DUP4 SHL SUB DUP1 PUSH1 0x20 DUP4 ADD MLOAD AND PUSH1 0x20 DUP7 ADD MSTORE PUSH1 0x40 DUP3 ADD MLOAD AND PUSH1 0x40 DUP6 ADD MSTORE PUSH1 0x60 DUP2 ADD MLOAD PUSH1 0x60 DUP6 ADD MSTORE PUSH1 0x80 DUP2 ADD MLOAD PUSH1 0x80 DUP6 ADD MSTORE ADD MLOAD ISZERO ISZERO SWAP2 ADD MSTORE JUMP JUMPDEST PUSH1 0xC0 DUP2 ADD SWAP1 DUP2 LT PUSH1 0x1 PUSH1 0x1 PUSH1 0x40 SHL SUB DUP3 GT OR PUSH2 0xBB0 JUMPI PUSH1 0x40 MSTORE JUMP JUMPDEST PUSH4 0x4E487B71 PUSH1 0xE0 SHL PUSH1 0x0 MSTORE PUSH1 0x41 PUSH1 0x4 MSTORE PUSH1 0x24 PUSH1 0x0 REVERT JUMPDEST SWAP1 PUSH1 0x1F DUP1 NOT SWAP2 ADD AND DUP2 ADD SWAP1 DUP2 LT PUSH1 0x1 PUSH1 0x1 PUSH1 0x40 SHL SUB DUP3 GT OR PUSH2 0xBB0 JUMPI PUSH1 0x40 MSTORE JUMP JUMPDEST SWAP1 PUSH1 0x40 MLOAD PUSH2 0xBF4 DUP2 PUSH2 0xB95 JUMP JUMPDEST DUP3 SLOAD DUP2 MSTORE PUSH1 0x1 DUP4 ADD SLOAD PUSH1 0x1 PUSH1 0x1 PUSH1 0xA0 SHL SUB SWAP1 DUP2 AND PUSH1 0x20 DUP4 ADD MSTORE PUSH1 0x2 DUP5 ADD SLOAD AND PUSH1 0x40 DUP3 ADD MSTORE PUSH1 0x3 DUP4 ADD SLOAD PUSH1 0x60 DUP3 ADD MSTORE PUSH1 0x4 DUP4 ADD SLOAD PUSH1 0x80 DUP3 ADD MSTORE PUSH1 0x5 SWAP1 SWAP3 ADD SLOAD PUSH1 0xFF AND ISZERO ISZERO PUSH1 0xA0 DUP4 ADD MSTORE JUMP JUMPDEST PUSH1 0x1 PUSH1 0x1 PUSH1 0xA0 SHL SUB SWAP1 SWAP2 AND DUP2 MSTORE PUSH1 0x20 DUP2 ADD SWAP2 SWAP1 SWAP2 MSTORE PUSH1 0x40 ADD SWAP1 JUMP JUMPDEST ISZERO PUSH2 0xC60 JUMPI JUMP JUMPDEST PUSH1 0x40 MLOAD PUSH3 0x461BCD PUSH1 0xE5 SHL DUP2 MSTORE PUSH1 0x20 PUSH1 0x4 DUP3 ADD MSTORE PUSH1 0x1F PUSH1 0x24 DUP3 ADD MSTORE PUSH32 0x5265656E7472616E637947756172643A207265656E7472616E742063616C6C00 PUSH1 0x44 DUP3 ADD MSTORE PUSH1 0x64 SWAP1 REVERT JUMPDEST PUSH1 0x5 PUSH1 0x0 SWAP2 DUP3 DUP2 SSTORE DUP3 PUSH1 0x1 DUP3 ADD SSTORE DUP3 PUSH1 0x2 DUP3 ADD SSTORE DUP3 PUSH1 0x3 DUP3 ADD SSTORE DUP3 PUSH1 0x4 DUP3 ADD SSTORE ADD SSTORE JUMP JUMPDEST SWAP1 DUP2 PUSH1 0x20 SWAP2 SUB SLT PUSH2 0xAEF JUMPI MLOAD PUSH1 0x1 PUSH1 0x1 PUSH1 0xA0 SHL SUB DUP2 AND DUP2 SUB PUSH2 0xAEF JUMPI SWAP1 JUMP JUMPDEST PUSH1 0x2 SLOAD DUP2 LT ISZERO PUSH2 0xB3D JUMPI PUSH1 0x2 PUSH1 0x0 MSTORE PUSH1 0x20 PUSH1 0x0 KECCAK256 ADD SWAP1 PUSH1 0x0 SWAP1 JUMP JUMPDEST PUSH1 0x5 PUSH1 0xA0 SWAP2 DUP4 MLOAD DUP2 SSTORE PUSH1 0x1 DUP2 ADD PUSH1 0x1 DUP1 DUP6 SHL SUB SWAP1 DUP2 PUSH1 0x20 DUP8 ADD MLOAD AND SWAP1 PUSH1 0x1 DUP1 DUP8 SHL SUB NOT SWAP2 DUP3 DUP3 SLOAD AND OR SWAP1 SSTORE PUSH1 0x2 DUP4 ADD SWAP2 PUSH1 0x40 DUP8 ADD MLOAD AND SWAP1 DUP3 SLOAD AND OR SWAP1 SSTORE PUSH1 0x60 DUP5 ADD MLOAD PUSH1 0x3 DUP3 ADD SSTORE PUSH1 0x80 DUP5 ADD MLOAD PUSH1 0x4 DUP3 ADD SSTORE ADD SWAP2 ADD MLOAD ISZERO ISZERO PUSH1 0xFF DUP1 NOT DUP4 SLOAD AND SWAP2 AND OR SWAP1 SSTORE JUMP JUMPDEST SWAP2 SWAP1 PUSH2 0xD79 JUMPI PUSH2 0xD77 SWAP2 PUSH2 0xD03 JUMP JUMPDEST JUMP JUMPDEST PUSH4 0x4E487B71 PUSH1 0xE0 SHL PUSH1 0x0 MSTORE PUSH1 0x0 PUSH1 0x4 MSTORE PUSH1 0x24 PUSH1 0x0 REVERT JUMPDEST PUSH1 0x1 SLOAD DUP2 LT DUP1 PUSH2 0xE2A JUMPI JUMPDEST PUSH2 0xDA1 JUMPI POP JUMP JUMPDEST PUSH1 0x40 MLOAD PUSH2 0xDAD DUP2 PUSH2 0xB95 JUMP JUMPDEST PUSH2 0xDDD PUSH1 0x0 SWAP2 DUP3 DUP2 MSTORE DUP3 PUSH1 0x20 DUP3 ADD MSTORE DUP3 PUSH1 0x40 DUP3 ADD MSTORE DUP3 PUSH1 0x60 DUP3 ADD MSTORE DUP3 PUSH1 0x80 DUP3 ADD MSTORE DUP3 PUSH1 0xA0 DUP3 ADD MSTORE PUSH2 0x61F DUP5 PUSH2 0xB1E JUMP JUMPDEST PUSH1 0x2 SLOAD SWAP1 PUSH1 0x1 PUSH1 0x40 SHL DUP3 LT ISZERO PUSH2 0xE16 JUMPI POP DUP1 PUSH1 0x1 PUSH2 0xDFE SWAP3 ADD PUSH1 0x2 SSTORE PUSH2 0xCE8 JUMP JUMPDEST DUP2 SWAP3 SWAP2 SLOAD SWAP1 PUSH1 0x3 SHL SWAP2 DUP3 SHL SWAP2 PUSH1 0x0 NOT SWAP1 SHL NOT AND OR SWAP1 SSTORE JUMP JUMPDEST PUSH4 0x4E487B71 PUSH1 0xE0 SHL DUP2 MSTORE PUSH1 0x41 PUSH1 0x4 MSTORE PUSH1 0x24 SWAP1 REVERT JUMPDEST POP PUSH1 0xFF PUSH1 0x5 PUSH2 0xE38 DUP4 PUSH2 0xB1E JUMP JUMPDEST POP ADD SLOAD AND PUSH2 0xD9A JUMP INVALID LOG2 PUSH5 0x6970667358 0x22 SLT KECCAK256 BALANCE 0xFC CALLVALUE 0xD9 0xF7 0xC7 PUSH27 0x629FA64884CB55F095EE86AD6990DAD05D7579A6D53A40A3DC6473 PUSH16 0x6C634300081300330000000000000000 "
        },
        "methodIdentifiers": {
          "activeListings(uint256)": "61cf4863",
          "buyItem(address,uint256,uint256)": "f6b45c46",
          "cancelListing(address,uint256,uint256)": "4b3320e0",
          "getActiveListings()": "87c35bc0",
          "getListing(address,uint256)": "88700d1c",
          "getProceeds(address)": "30cfeda9",
          "listItem(address,uint256,uint256)": "89bfd38f",
          "updateListing(address,uint256,uint256,uint256)": "d9964757",
          "withdrawProceeds()": "9038e693"
        }
      }
    }
  }
}