{
  "_format": "hh-sol-artifact-1",
  "contractName": "BeraCub",
  "sourceName": "contracts/BeraCub.sol",
  "abi": [
    {
      "inputs": [
        {
          "internalType": "uint256",
          "name": "_maxSupply",
          "type": "uint256"
        }
      ],
      "stateMutability": "nonpayable",
      "type": "constructor"
    },
    {
      "anonymous": false,
      "inputs": [
        {
          "indexed": true,
          "internalType": "address",
          "name": "owner",
          "type": "address"
        },
        {
          "indexed": true,
          "internalType": "address",
          "name": "approved",
          "type": "address"
        },
        {
          "indexed": true,
          "internalType": "uint256",
          "name": "tokenId",
          "type": "uint256"
        }
      ],
      "name": "Approval",
      "type": "event"
    },
    {
      "anonymous": false,
      "inputs": [
        {
          "indexed": true,
          "internalType": "address",
          "name": "owner",
          "type": "address"
        },
        {
          "indexed": true,
          "internalType": "address",
          "name": "operator",
          "type": "address"
        },
        {
          "indexed": false,
          "internalType": "bool",
          "name": "approved",
          "type": "bool"
        }
      ],
      "name": "ApprovalForAll",
      "type": "event"
    },
    {
      "anonymous": false,
      "inputs": [
        {
          "indexed": false,
          "internalType": "address",
          "name": "newController",
          "type": "address"
        }
      ],
      "name": "ControllerAdded",
      "type": "event"
    },
    {
      "anonymous": false,
      "inputs": [
        {
          "indexed": false,
          "internalType": "address",
          "name": "controllerRemoved",
          "type": "address"
        }
      ],
      "name": "ControllerRemoved",
      "type": "event"
    },
    {
      "anonymous": false,
      "inputs": [
        {
          "indexed": false,
          "internalType": "address",
          "name": "sender",
          "type": "address"
        },
        {
          "indexed": false,
          "internalType": "uint256",
          "name": "tokenId",
          "type": "uint256"
        }
      ],
      "name": "MintedBeraCub",
      "type": "event"
    },
    {
      "anonymous": false,
      "inputs": [
        {
          "indexed": false,
          "internalType": "bool",
          "name": "mintingOpen",
          "type": "bool"
        }
      ],
      "name": "MintingOpened",
      "type": "event"
    },
    {
      "anonymous": false,
      "inputs": [
        {
          "indexed": false,
          "internalType": "bool",
          "name": "mintingOpen",
          "type": "bool"
        }
      ],
      "name": "MintingPaused",
      "type": "event"
    },
    {
      "anonymous": false,
      "inputs": [
        {
          "indexed": true,
          "internalType": "address",
          "name": "previousOwner",
          "type": "address"
        },
        {
          "indexed": true,
          "internalType": "address",
          "name": "newOwner",
          "type": "address"
        }
      ],
      "name": "OwnershipTransferred",
      "type": "event"
    },
    {
      "anonymous": false,
      "inputs": [
        {
          "indexed": true,
          "internalType": "address",
          "name": "from",
          "type": "address"
        },
        {
          "indexed": true,
          "internalType": "address",
          "name": "to",
          "type": "address"
        },
        {
          "indexed": true,
          "internalType": "uint256",
          "name": "tokenId",
          "type": "uint256"
        }
      ],
      "name": "Transfer",
      "type": "event"
    },
    {
      "inputs": [
        {
          "internalType": "address",
          "name": "_beraFarmContract",
          "type": "address"
        }
      ],
      "name": "addBeraFarmContract",
      "outputs": [],
      "stateMutability": "nonpayable",
      "type": "function"
    },
    {
      "inputs": [
        {
          "internalType": "address",
          "name": "toAdd_",
          "type": "address"
        }
      ],
      "name": "addController",
      "outputs": [],
      "stateMutability": "nonpayable",
      "type": "function"
    },
    {
      "inputs": [
        {
          "internalType": "address",
          "name": "to",
          "type": "address"
        },
        {
          "internalType": "uint256",
          "name": "tokenId",
          "type": "uint256"
        }
      ],
      "name": "approve",
      "outputs": [],
      "stateMutability": "nonpayable",
      "type": "function"
    },
    {
      "inputs": [
        {
          "internalType": "address",
          "name": "owner",
          "type": "address"
        }
      ],
      "name": "balanceOf",
      "outputs": [
        {
          "internalType": "uint256",
          "name": "",
          "type": "uint256"
        }
      ],
      "stateMutability": "view",
      "type": "function"
    },
    {
      "inputs": [],
      "name": "beraFarmContract",
      "outputs": [
        {
          "internalType": "address",
          "name": "",
          "type": "address"
        }
      ],
      "stateMutability": "view",
      "type": "function"
    },
    {
      "inputs": [
        {
          "internalType": "address",
          "name": "_reciever",
          "type": "address"
        },
        {
          "internalType": "uint256",
          "name": "_amount",
          "type": "uint256"
        }
      ],
      "name": "buyBeraCubs",
      "outputs": [],
      "stateMutability": "nonpayable",
      "type": "function"
    },
    {
      "inputs": [],
      "name": "formatTokenURI",
      "outputs": [
        {
          "internalType": "string",
          "name": "",
          "type": "string"
        }
      ],
      "stateMutability": "pure",
      "type": "function"
    },
    {
      "inputs": [
        {
          "internalType": "uint256",
          "name": "tokenId",
          "type": "uint256"
        }
      ],
      "name": "getApproved",
      "outputs": [
        {
          "internalType": "address",
          "name": "",
          "type": "address"
        }
      ],
      "stateMutability": "view",
      "type": "function"
    },
    {
      "inputs": [
        {
          "internalType": "address",
          "name": "owner",
          "type": "address"
        },
        {
          "internalType": "address",
          "name": "operator",
          "type": "address"
        }
      ],
      "name": "isApprovedForAll",
      "outputs": [
        {
          "internalType": "bool",
          "name": "",
          "type": "bool"
        }
      ],
      "stateMutability": "view",
      "type": "function"
    },
    {
      "inputs": [],
      "name": "maxSupply",
      "outputs": [
        {
          "internalType": "uint256",
          "name": "",
          "type": "uint256"
        }
      ],
      "stateMutability": "view",
      "type": "function"
    },
    {
      "inputs": [],
      "name": "mintingOpen",
      "outputs": [
        {
          "internalType": "bool",
          "name": "",
          "type": "bool"
        }
      ],
      "stateMutability": "view",
      "type": "function"
    },
    {
      "inputs": [],
      "name": "name",
      "outputs": [
        {
          "internalType": "string",
          "name": "",
          "type": "string"
        }
      ],
      "stateMutability": "view",
      "type": "function"
    },
    {
      "inputs": [],
      "name": "openMinting",
      "outputs": [],
      "stateMutability": "nonpayable",
      "type": "function"
    },
    {
      "inputs": [],
      "name": "owner",
      "outputs": [
        {
          "internalType": "address",
          "name": "",
          "type": "address"
        }
      ],
      "stateMutability": "view",
      "type": "function"
    },
    {
      "inputs": [
        {
          "internalType": "uint256",
          "name": "tokenId",
          "type": "uint256"
        }
      ],
      "name": "ownerOf",
      "outputs": [
        {
          "internalType": "address",
          "name": "",
          "type": "address"
        }
      ],
      "stateMutability": "view",
      "type": "function"
    },
    {
      "inputs": [],
      "name": "pauseMinting",
      "outputs": [],
      "stateMutability": "nonpayable",
      "type": "function"
    },
    {
      "inputs": [
        {
          "internalType": "address",
          "name": "toRemove_",
          "type": "address"
        }
      ],
      "name": "removeController",
      "outputs": [],
      "stateMutability": "nonpayable",
      "type": "function"
    },
    {
      "inputs": [],
      "name": "renounceOwnership",
      "outputs": [],
      "stateMutability": "nonpayable",
      "type": "function"
    },
    {
      "inputs": [
        {
          "internalType": "address",
          "name": "from",
          "type": "address"
        },
        {
          "internalType": "address",
          "name": "to",
          "type": "address"
        },
        {
          "internalType": "uint256",
          "name": "tokenId",
          "type": "uint256"
        }
      ],
      "name": "safeTransferFrom",
      "outputs": [],
      "stateMutability": "nonpayable",
      "type": "function"
    },
    {
      "inputs": [
        {
          "internalType": "address",
          "name": "from",
          "type": "address"
        },
        {
          "internalType": "address",
          "name": "to",
          "type": "address"
        },
        {
          "internalType": "uint256",
          "name": "tokenId",
          "type": "uint256"
        },
        {
          "internalType": "bytes",
          "name": "data",
          "type": "bytes"
        }
      ],
      "name": "safeTransferFrom",
      "outputs": [],
      "stateMutability": "nonpayable",
      "type": "function"
    },
    {
      "inputs": [
        {
          "internalType": "address",
          "name": "operator",
          "type": "address"
        },
        {
          "internalType": "bool",
          "name": "approved",
          "type": "bool"
        }
      ],
      "name": "setApprovalForAll",
      "outputs": [],
      "stateMutability": "nonpayable",
      "type": "function"
    },
    {
      "inputs": [
        {
          "internalType": "bytes4",
          "name": "interfaceId",
          "type": "bytes4"
        }
      ],
      "name": "supportsInterface",
      "outputs": [
        {
          "internalType": "bool",
          "name": "",
          "type": "bool"
        }
      ],
      "stateMutability": "view",
      "type": "function"
    },
    {
      "inputs": [],
      "name": "symbol",
      "outputs": [
        {
          "internalType": "string",
          "name": "",
          "type": "string"
        }
      ],
      "stateMutability": "view",
      "type": "function"
    },
    {
      "inputs": [
        {
          "internalType": "uint256",
          "name": "index",
          "type": "uint256"
        }
      ],
      "name": "tokenByIndex",
      "outputs": [
        {
          "internalType": "uint256",
          "name": "",
          "type": "uint256"
        }
      ],
      "stateMutability": "view",
      "type": "function"
    },
    {
      "inputs": [],
      "name": "tokenCounter",
      "outputs": [
        {
          "internalType": "uint256",
          "name": "",
          "type": "uint256"
        }
      ],
      "stateMutability": "view",
      "type": "function"
    },
    {
      "inputs": [
        {
          "internalType": "address",
          "name": "owner",
          "type": "address"
        },
        {
          "internalType": "uint256",
          "name": "index",
          "type": "uint256"
        }
      ],
      "name": "tokenOfOwnerByIndex",
      "outputs": [
        {
          "internalType": "uint256",
          "name": "",
          "type": "uint256"
        }
      ],
      "stateMutability": "view",
      "type": "function"
    },
    {
      "inputs": [
        {
          "internalType": "uint256",
          "name": "tokenId",
          "type": "uint256"
        }
      ],
      "name": "tokenURI",
      "outputs": [
        {
          "internalType": "string",
          "name": "",
          "type": "string"
        }
      ],
      "stateMutability": "view",
      "type": "function"
    },
    {
      "inputs": [],
      "name": "totalSupply",
      "outputs": [
        {
          "internalType": "uint256",
          "name": "",
          "type": "uint256"
        }
      ],
      "stateMutability": "view",
      "type": "function"
    },
    {
      "inputs": [
        {
          "internalType": "address",
          "name": "from",
          "type": "address"
        },
        {
          "internalType": "address",
          "name": "to",
          "type": "address"
        },
        {
          "internalType": "uint256",
          "name": "tokenId",
          "type": "uint256"
        }
      ],
      "name": "transferFrom",
      "outputs": [],
      "stateMutability": "nonpayable",
      "type": "function"
    },
    {
      "inputs": [
        {
          "internalType": "address",
          "name": "newOwner",
          "type": "address"
        }
      ],
      "name": "transferOwnership",
      "outputs": [],
      "stateMutability": "nonpayable",
      "type": "function"
    }
  ],
  "bytecode": "0x6080346200037857601f90601f196001600160401b03620026c93881900385810184168501838111868210176200037d57859282916040528339602094859181010312620003785751936200005362000393565b9060088252672132b9309021bab160c11b858301526200007262000393565b600381526221aaa160e91b8682015260008054336001600160a01b0319821681178355919791906001600160a01b03167f8be0079c531659141344cd1fd0a4f28419497f9722a3daafe3b4186f6b6457e08980a38351858111620003645760019485548681811c9116801562000359575b848210146200034557908186849311620002f2575b50839086831160011462000291578a9262000285575b5050600019600383901b1c191690851b1784555b815194851162000271576002548481811c9116801562000266575b82821014620002525783811162000209575b5080928511600114620001a1575083945090839291869462000195575b50501b916000199060031b1c1916176002555b600c55600d556040516123159081620003b48239f35b0151925038806200016c565b929484908116600288528488209488905b88838310620001ee5750505010620001d4575b505050811b016002556200017f565b015160001960f88460031b161c19169055388080620001c5565b858701518855909601959485019487935090810190620001b2565b600288528188208480880160051c82019284891062000248575b0160051c019085905b8281106200023c5750506200014f565b8981550185906200022c565b9250819262000223565b634e487b7160e01b88526022600452602488fd5b90607f16906200013d565b634e487b7160e01b87526041600452602487fd5b0151905038806200010e565b908988941691848c52858c20928c5b87828210620002db5750508411620002c1575b505050811b01845562000122565b015160001960f88460031b161c19169055388080620002b3565b8385015186558b97909501949384019301620002a0565b909150868a52838a208680850160051c8201928686106200033b575b918991869594930160051c01915b8281106200032c575050620000f8565b8c81558594508991016200031c565b925081926200030e565b634e487b7160e01b8a52602260045260248afd5b90607f1690620000e3565b634e487b7160e01b88526041600452602488fd5b600080fd5b634e487b7160e01b600052604160045260246000fd5b60408051919082016001600160401b038111838210176200037d5760405256fe6080604052600436101561001257600080fd5b60003560e01c806301ffc9a7146101f257806306fdde03146101ed578063081812fc146101e8578063095ea7b3146101e357806318160ddd1461018457806323783842146101de57806323b872dd146101d95780632f745c59146101d457806337d5ad2b146101cf57806342842e0e146101ca5780634f6ccce7146101c55780636352211e146101c05780636ba9fd38146101bb57806370a08231146101b6578063715018a6146101b15780638da5cb5b146101ac5780638f4bb497146101a757806395d89b41146101a2578063a22cb4651461019d578063a7fc7a0714610198578063b88d4fde14610193578063c87b56dd1461018e578063cc904e8814610189578063d082e38114610184578063d5abeb011461017f578063da8fbf2a1461017a578063e985e9c514610175578063f2fde38b14610170578063f6a74ed71461016b5763ffd5b5b51461016657600080fd5b610efb565b610e90565b610dcd565b610d7c565b610d2b565b610d0d565b6104eb565b610ce0565b610cc1565b610c39565b610b2b565b610a55565b6109b1565b61098e565b610965565b61090a565b6108df565b61088c565b61086e565b6107c3565b61079b565b61076b565b6106b8565b61068f565b610509565b61040f565b6103b3565b6102f2565b61020e565b6001600160e01b031981160361020957565b600080fd5b3461020957602036600319011261020957602060043561022d816101f7565b63ffffffff60e01b1663780e9d6360e01b8114908115610253575b506040519015158152f35b6380ac58cd60e01b811491508115610285575b8115610274575b5038610248565b6301ffc9a760e01b1490503861026d565b635b5e139f60e01b81149150610266565b60005b8381106102a95750506000910152565b8181015183820152602001610299565b906020916102d281518092818552858086019101610296565b601f01601f1916010190565b9060206102ef9281815201906102b9565b90565b34610209576000806003193601126103b057604051816001805490610316826110e8565b80855291818116908115610388575060011461034d575b6103498461033d81880382610bfd565b604051918291826102de565b0390f35b80945082526020938483205b82841061037557505050816103499361033d928201019361032d565b8054858501870152928501928101610359565b610349965061033d9450602092508593915060ff191682840152151560051b8201019361032d565b80fd5b346102095760203660031901126102095760206103d1600435611194565b6040516001600160a01b039091168152f35b600435906001600160a01b038216820361020957565b602435906001600160a01b038216820361020957565b34610209576040366003190112610209576104286103e3565b602435610434816110c5565b916001600160a01b03808416908216811461049c5761046693610461913314908115610468575b50611122565b611560565b005b6001600160a01b03166000908152600660205260409020610496915061048f903390610ff0565b5460ff1690565b3861045b565b60405162461bcd60e51b815260206004820152602160248201527f4552433732313a20617070726f76616c20746f2063757272656e74206f776e656044820152603960f91b6064820152608490fd5b34610209576000366003190112610209576020600c54604051908152f35b3461020957604080600319360112610209576105236103e3565b6024359033600052600f60205260ff836000205416156106205760ff600e5416156105eb57610550611f25565b92600c9161056b6105628585546113f5565b600d5411611785565b60005b84811061057757005b6105e6906105868554846117da565b61059187865461195a565b6105a361059e86546113cb565b600c55565b845484516001600160a01b038516815260208101919091527f349f007bc2a46b66c83eb00dca866e473eb4095c5b0945174c1b85dff93d069690604090a16117cb565b61056e565b825162461bcd60e51b815260206004820152600e60248201526d26b4b73a34b733a737ba27b832b760911b6044820152606490fd5b825162461bcd60e51b815260206004820152601360248201527221b0b63632b92737ba21b7b73a3937b63632b960691b6044820152606490fd5b6060906003190112610209576001600160a01b0390600435828116810361020957916024359081168103610209579060443590565b34610209576104666106a03661065a565b916106b36106ae84336112db565b6111c0565b611402565b34610209576040366003190112610209576106d16103e3565b602435906106de81611007565b821015610712576001600160a01b031660009081526007602090815260408083209383529281529082902054915191825290f35b60405162461bcd60e51b815260206004820152602b60248201527f455243373231456e756d657261626c653a206f776e657220696e646578206f7560448201526a74206f6620626f756e647360a81b6064820152608490fd5b3461020957600036600319011261020957610349610787611f25565b6040519182916020835260208301906102b9565b34610209576104666107ac3661065a565b90604051926107ba84610bc7565b60008452611236565b34610209576020366003190112610209576004356009548110156108145760096000527f6e1540171b6c0c960b71a7020d9f60077f6af931a8bbf590da0223dacf75c7af0154604051908152602090f35b60405162461bcd60e51b815260206004820152602c60248201527f455243373231456e756d657261626c653a20676c6f62616c20696e646578206f60448201526b7574206f6620626f756e647360a01b6064820152608490fd5b346102095760203660031901126102095760206103d16004356110c5565b34610209576000366003190112610209576108a5610f5f565b600160ff19600e541617600e557f26cafbb06e862822616b217988b1fa1521632a638ad5b1b40824b3db1ef300ed602060405160018152a1005b346102095760203660031901126102095760206109026108fd6103e3565b611007565b604051908152f35b34610209576000806003193601126103b057610924610f5f565b80546001600160a01b03198116825581906001600160a01b03167f8be0079c531659141344cd1fd0a4f28419497f9722a3daafe3b4186f6b6457e08280a380f35b34610209576000366003190112610209576000546040516001600160a01b039091168152602090f35b3461020957600036600319011261020957602060ff600e54166040519015158152f35b34610209576000806003193601126103b057604051816002546109d3816110e8565b8084529060019081811690811561038857506001146109fc576103498461033d81880382610bfd565b60028352602094507f405787fa12a823e0f2b7631cc41b3ba8828b3321ca811111fa75cd3aa3bb5ace5b828410610a4257505050816103499361033d928201019361032d565b8054858501870152928501928101610a26565b3461020957604036600319011261020957610a6e6103e3565b6024358015158103610209576001600160a01b03821691338314610aea5781610aa7610ab8923360005260066020526040600020610ff0565b9060ff801983541691151516179055565b604051901515815233907f17307eab39ab6107e8899845ad3d59bd9653f200f220920489ca2b5937696c3190602090a3005b60405162461bcd60e51b815260206004820152601960248201527822a9219b99189d1030b8383937bb32903a379031b0b63632b960391b6044820152606490fd5b34610209576020366003190112610209577f0a8bb31534c0ed46f380cb867bd5c803a189ced9a764e30b3a4991a9901d74746020610b676103e3565b610b6f610f5f565b6001600160a01b03166000818152600f8352604090819020805460ff1916600117905551908152a1005b634e487b7160e01b600052604160045260246000fd5b6001600160401b038111610bc257604052565b610b99565b602081019081106001600160401b03821117610bc257604052565b604081019081106001600160401b03821117610bc257604052565b90601f801991011681019081106001600160401b03821117610bc257604052565b6001600160401b038111610bc257601f01601f191660200190565b3461020957608036600319011261020957610c526103e3565b610c5a6103f9565b606435916001600160401b038311610209573660238401121561020957826004013591610c8683610c1e565b92610c946040519485610bfd565b80845236602482870101116102095760208160009260246104669801838801378501015260443591611236565b3461020957602036600319011261020957610349610787600435611b60565b3461020957600036600319011261020957600e5460405160089190911c6001600160a01b03168152602090f35b34610209576000366003190112610209576020600d54604051908152f35b34610209576000806003193601126103b057610d45610f5f565b60ff19600e5416600e557f5708b32f825aa2f1192da18d8205d00f2cb633e72d1c5bb33a3111ccc61be8f46020604051838152a180f35b3461020957604036600319011261020957602060ff610dc1610d9c6103e3565b610da46103f9565b6001600160a01b0390911660009081526006855260409020610ff0565b54166040519015158152f35b3461020957602036600319011261020957610de66103e3565b610dee610f5f565b6001600160a01b039081168015610e3c57600080546001600160a01b03198116831782559092167f8be0079c531659141344cd1fd0a4f28419497f9722a3daafe3b4186f6b6457e08380a380f35b60405162461bcd60e51b815260206004820152602660248201527f4f776e61626c653a206e6577206f776e657220697320746865207a65726f206160448201526564647265737360d01b6064820152608490fd5b34610209576020366003190112610209577f33d83959be2573f5453b12eb9d43b3499bc57d96bd2f067ba44803c859e811136020610ecc6103e3565b610ed4610f5f565b6001600160a01b03166000818152600f8352604090819020805460ff1916905551908152a1005b3461020957602036600319011261020957610f146103e3565b610f1c610f5f565b600e8054610100600160a81b031916600892831b610100600160a81b03161790819055601080546001600160a01b0319169190921c6001600160a01b0316179055005b6000546001600160a01b03163303610f7357565b606460405162461bcd60e51b815260206004820152602060248201527f4f776e61626c653a2063616c6c6572206973206e6f7420746865206f776e65726044820152fd5b80546001600160a01b0319166001600160a01b03909216919091179055565b6001600160a01b0316600090815260046020526040902090565b9060018060a01b0316600052602052604060002090565b6001600160a01b0316801561102757600052600460205260406000205490565b60405162461bcd60e51b815260206004820152602960248201527f4552433732313a2061646472657373207a65726f206973206e6f7420612076616044820152683634b21037bbb732b960b91b6064820152608490fd5b1561108557565b60405162461bcd60e51b8152602060048201526018602482015277115490cdcc8c4e881a5b9d985b1a59081d1bdad95b88125160421b6044820152606490fd5b6000908152600360205260409020546001600160a01b03166102ef81151561107e565b90600182811c92168015611118575b602083101461110257565b634e487b7160e01b600052602260045260246000fd5b91607f16916110f7565b1561112957565b60405162461bcd60e51b815260206004820152603e60248201527f4552433732313a20617070726f76652063616c6c6572206973206e6f7420746f60448201527f6b656e206f776e6572206e6f7220617070726f76656420666f7220616c6c00006064820152608490fd5b6111a56111a0826115b4565b61107e565b6000908152600560205260409020546001600160a01b031690565b156111c757565b60405162461bcd60e51b815260206004820152602e60248201527f4552433732313a2063616c6c6572206973206e6f7420746f6b656e206f776e6560448201526d1c881b9bdc88185c1c1c9bdd995960921b6064820152608490fd5b6040519061123082610bc7565b60008252565b91611262939161125d9361124d6106ae84336112db565b611258838383611402565b611733565b6112b7565b565b60809060208152603260208201527f4552433732313a207472616e7366657220746f206e6f6e20455243373231526560408201527131b2b4bb32b91034b6b83632b6b2b73a32b960711b60608201520190565b156112be57565b60405162461bcd60e51b8152806112d760048201611264565b0390fd5b6001600160a01b03806112ed846110c5565b169281831692848414948515611323575b5050831561130d575b50505090565b61131991929350611194565b1614388080611307565b60ff9295509061133f9160005260066020526040600020610ff0565b54169238806112fe565b1561135057565b60405162461bcd60e51b8152602060048201526024808201527f4552433732313a207472616e7366657220746f20746865207a65726f206164646044820152637265737360e01b6064820152608490fd5b634e487b7160e01b600052601160045260246000fd5b6000198101919082116113c657565b6113a1565b90600182018092116113c657565b90600282018092116113c657565b90602082018092116113c657565b919082018092116113c657565b61140b836110c5565b6001600160a01b0393908285169085168190036114b95761126294841690611434821515611349565b61143f838686611ccc565b6114488361150c565b61145184610fd6565b61145b81546113b7565b905561146685610fd6565b61147081546113cb565b905561148f8561148a856000526003602052604060002090565b610fb7565b7fddf252ad1be2c89b69c2b068fc378daa952ba7f163c4a11628f55a4df523b3ef600080a4611aff565b60405162461bcd60e51b815260206004820152602560248201527f4552433732313a207472616e736665722066726f6d20696e636f72726563742060448201526437bbb732b960d91b6064820152608490fd5b600081815260056020526040812080546001600160a01b03191690556001600160a01b03611539836110c5565b167f8c5be1e5ebec7d5bd14f71427d1e84f3dd0314c0f7b2291e5b200ac8c7c3b9258280a4565b816000526005602052611577816040600020610fb7565b6001600160a01b0380611589846110c5565b169116907f8c5be1e5ebec7d5bd14f71427d1e84f3dd0314c0f7b2291e5b200ac8c7c3b925600080a4565b6000908152600360205260409020546001600160a01b0316151590565b9081602091031261020957516102ef816101f7565b6102ef939260809260018060a01b0316825260006020830152604082015281606082015201906102b9565b6001600160a01b0391821681529116602082015260408101919091526080606082018190526102ef929101906102b9565b3d1561166d573d9061165382610c1e565b916116616040519384610bfd565b82523d6000602084013e565b606090565b909190803b1561172b576116a4602091600093604051948580948193630a85bd0160e11b998a845233600485016115e6565b03926001600160a01b03165af1600091816116fb575b506116ed576116c7611642565b805190816116e85760405162461bcd60e51b8152806112d760048201611264565b602001fd5b6001600160e01b0319161490565b61171d91925060203d8111611724575b6117158183610bfd565b8101906115d1565b90386116ba565b503d61170b565b505050600190565b92909190823b15611766576116a4926020926000604051809681958294630a85bd0160e11b9a8b85523360048601611611565b50505050600190565b634e487b7160e01b600052603260045260246000fd5b1561178c57565b60405162461bcd60e51b8152602060048201526017602482015276082d8d84084cae4c24086eac4e6409ad2dce8cac840745604b1b6044820152606490fd5b60001981146113c65760010190565b906040516117e781610bc7565b600081526001600160a01b0383169182156118c257611805816115b4565b61187d57838161125d9461181c8261126298611ca1565b61182583610fd6565b61182f81546113cb565b90556118498361148a846000526003602052604060002090565b60007fddf252ad1be2c89b69c2b068fc378daa952ba7f163c4a11628f55a4df523b3ef8180a461187881611aa0565b611672565b60405162461bcd60e51b815260206004820152601c60248201527f4552433732313a20746f6b656e20616c7265616479206d696e746564000000006044820152606490fd5b606460405162461bcd60e51b815260206004820152602060248201527f4552433732313a206d696e7420746f20746865207a65726f20616464726573736044820152fd5b90601f811161191457505050565b600091825260208220906020601f850160051c83019410611950575b601f0160051c01915b82811061194557505050565b818155600101611939565b9092508290611930565b919091611966816115b4565b15611a44576000526020600b81526040600020908351906001600160401b038211610bc25761199f8261199985546110e8565b85611906565b80601f83116001146119d95750819293946000926119ce575b50508160011b916000199060031b1c1916179055565b0151905038806119b8565b90601f198316956119ef85600052602060002090565b926000905b888210611a2c57505083600195969710611a13575b505050811b019055565b015160001960f88460031b161c19169055388080611a09565b806001859682949686015181550195019301906119f4565b60405162461bcd60e51b815260206004820152602e60248201527f45524337323155524953746f726167653a2055524920736574206f66206e6f6e60448201526d32bc34b9ba32b73a103a37b5b2b760911b6064820152608490fd5b6010546001600160a01b039081169190823b1561020957604460009283604051958694859363af34370960e01b85528360048601521660248401525af18015611af357611aea5750565b61126290610baf565b6040513d6000823e3d90fd5b6010546001600160a01b03908116803b15610209576000928360449284604051978896879563af34370960e01b87521660048601521660248401525af18015611af357611aea5750565b90611b5c60209282815194859201610296565b0190565b611b6c6111a0826115b4565b6000908082526020600b81526040832060405184819590835490611b8f826110e8565b94858552600192878482169182600014611c4f575050600114611c13575b505050611bbc92500384610bfd565b611bc4611223565b92835115611c0c578051611bde5750506102ef9150611c73565b6102ef9250611bfe90611bf8604051958694850190611b49565b90611b49565b03601f198101835282610bfd565b9250505090565b869350819291528282205b858310611c37575050611bbc9350820101388080611bad565b8054838a018501528894508693909201918101611c1e565b935094505050611bbc94915060ff191682840152151560051b820101388080611bad565b6111a0611c7f916115b4565b6000604051611c8d81610bc7565b52604051611c9a81610bc7565b6000815290565b90611cab81611e1c565b6001600160a01b038216611cc3576112629150611e79565b61126291611de4565b9091906001600160a01b038082169182611d065750611cea83611e1c565b831680611cfd5750506112629150611e79565b03611cc3575050565b8185168303611d16575b50611cea565b611d1f81611007565b60001981019081116113c657611d8a90611d7b60009387855260086020526040852054838103611d91575b5084611d60896000526008602052604060002090565b556001600160a01b0316600090815260076020526040902090565b90600052602052604060002090565b5538611d10565b878652600760205260408620848752602052611ddd604087205480611dcc84611d7b8760018060a01b03166000526007602052604060002090565b556000526008602052604060002090565b5538611d4a565b604090611df081611007565b9260009160018060a01b0316825260076020528282208483526020528083832055815260086020522055565b60095481600052600a60205280604060002055600160401b811015610bc2576001810180600955811015611e745760096000527f6e1540171b6c0c960b71a7020d9f60077f6af931a8bbf590da0223dacf75c7af0155565b61176f565b600980546000199290838101908082116113c657600092808452600a602052816040852054931015611e745784845285826020862001015491831015611e74578392611edd611eee938786528083602088200155600052600a602052604060002090565b55600052600a602052604060002090565b558154928315611f11578084019380851015611e74578383526020832001015555565b634e487b7160e01b82526031600452602482fd5b611bf86102ef604051611f3781610be2565b601d81527f646174613a6170706c69636174696f6e2f6a736f6e3b6261736536342c000000602082015260405190683d913730b6b2911d1160b91b6020830152672132b9309021bab160c11b60298301527f222c20226465736372697074696f6e223a22412057696c64204265726120437560318301527f62205368656464696e6720697473202446555a5a222c2022617474726962757460518301527032b9911d111116101134b6b0b3b2911d1160791b6071830152612131612121836121086120fa6082830160ca907f68747470733a2f2f69766f72792d6669657263652d6361742d3633392e6d797081527f696e6174612e636c6f75642f697066732f516d656b3459654275414e6b38796e60208201527f7066583156623878776e775274535966644763324546664b5a5361543756353f60408201527f5f676c3d312a3169707a7862792a5f67612a4e6a4d774f544d304e4455314c6a60608201527f45334d4445354e7a49314e6a552e2a5f67615f35524d505847313454452a4d5460808201527f63774d6a51774d6a63354d6934314c6a45754d5463774d6a51774d7a49304e5360a0820152691a3d27349a3ba635209760b11b60c08201520190565b61227d60f01b815260020190565b039361211c601f1995868101835282610bfd565b6121f6565b6040519586936020850190611b49565b03908101835282610bfd565b60405190606082018281106001600160401b03821117610bc257604052604082527f6768696a6b6c6d6e6f707172737475767778797a303132333435363738392b2f6040837f4142434445464748494a4b4c4d4e4f505152535455565758595a61626364656660208201520152565b600281901b91906001600160fe1b038116036113c657565b906121ce82610c1e565b6121db6040519182610bfd565b82815280926121ec601f1991610c1e565b0190602036910137565b8051156122d65761220561213d565b61222161221c61221584516113d9565b6003900490565b6121ac565b9161223361222e846113e7565b6121c4565b92835280815182019060208501935b8282106122845750505060039051068060011461227357600214612264575090565b603d60f81b6000199091015290565b50613d3d60f01b6001199091015290565b9091936004906003809401938451600190603f9082828260121c16880101518553828282600c1c16880101518386015382828260061c1688010151600286015316850101519082015301939190612242565b506102ef61122356fea26469706673582212201a76ec494c8cb18bbd943efec46c1e247a01a8e264ba2bdb80c74c18f88a7ba964736f6c63430008130033",
  "linkReferences": {},
  "deployedLinkReferences": {}
}