{
  "_format": "hh-sol-artifact-1",
  "contractName": "BeraFarm",
  "sourceName": "contracts/BeraFarm.sol",
  "abi": [
    {
      "inputs": [
        {
          "internalType": "address",
          "name": "_treasury",
          "type": "address"
        },
        {
          "internalType": "uint256",
          "name": "_dailyInterest",
          "type": "uint256"
        },
        {
          "internalType": "uint256",
          "name": "_claimTaxFuzz",
          "type": "uint256"
        },
        {
          "internalType": "uint256",
          "name": "_bondDiscount",
          "type": "uint256"
        },
        {
          "internalType": "uint256",
          "name": "_maxSupplyForHoney",
          "type": "uint256"
        },
        {
          "internalType": "uint256",
          "name": "_maxSupplyFirstBatch",
          "type": "uint256"
        },
        {
          "internalType": "uint256",
          "name": "_limitBeforeEmissions",
          "type": "uint256"
        },
        {
          "internalType": "uint256",
          "name": "_limitBeforeFullTokenTrading",
          "type": "uint256"
        },
        {
          "internalType": "uint256",
          "name": "_maxCubsPerWallet",
          "type": "uint256"
        },
        {
          "internalType": "address",
          "name": "_honeyAddress",
          "type": "address"
        },
        {
          "internalType": "address",
          "name": "_fuzzAddress",
          "type": "address"
        }
      ],
      "stateMutability": "nonpayable",
      "type": "constructor"
    },
    {
      "anonymous": false,
      "inputs": [
        {
          "indexed": false,
          "internalType": "address",
          "name": "sender",
          "type": "address"
        },
        {
          "indexed": false,
          "internalType": "uint256",
          "name": "compoundCost",
          "type": "uint256"
        }
      ],
      "name": "BeraCubCompounded",
      "type": "event"
    },
    {
      "anonymous": false,
      "inputs": [
        {
          "indexed": false,
          "internalType": "address",
          "name": "sender",
          "type": "address"
        },
        {
          "indexed": false,
          "internalType": "uint256",
          "name": "amountOfCubs",
          "type": "uint256"
        }
      ],
      "name": "BeraCubsAwarded",
      "type": "event"
    },
    {
      "anonymous": false,
      "inputs": [
        {
          "indexed": false,
          "internalType": "address",
          "name": "sender",
          "type": "address"
        },
        {
          "indexed": false,
          "internalType": "uint256",
          "name": "amountOfCubs",
          "type": "uint256"
        },
        {
          "indexed": false,
          "internalType": "uint256",
          "name": "transactionTotal",
          "type": "uint256"
        }
      ],
      "name": "BeraCubsBonded",
      "type": "event"
    },
    {
      "anonymous": false,
      "inputs": [
        {
          "indexed": false,
          "internalType": "address",
          "name": "sender",
          "type": "address"
        },
        {
          "indexed": false,
          "internalType": "uint256",
          "name": "amountOfCubs",
          "type": "uint256"
        },
        {
          "indexed": false,
          "internalType": "uint256",
          "name": "transactionTotal",
          "type": "uint256"
        }
      ],
      "name": "BoughtBeraCubsFuzz",
      "type": "event"
    },
    {
      "anonymous": false,
      "inputs": [
        {
          "indexed": false,
          "internalType": "address",
          "name": "sender",
          "type": "address"
        },
        {
          "indexed": false,
          "internalType": "uint256",
          "name": "amountOfCubs",
          "type": "uint256"
        },
        {
          "indexed": false,
          "internalType": "uint256",
          "name": "transactionTotal",
          "type": "uint256"
        }
      ],
      "name": "BoughtBeraCubsHoney",
      "type": "event"
    },
    {
      "anonymous": false,
      "inputs": [
        {
          "indexed": true,
          "internalType": "contract IERC20",
          "name": "token",
          "type": "address"
        },
        {
          "indexed": false,
          "internalType": "address",
          "name": "to",
          "type": "address"
        },
        {
          "indexed": false,
          "internalType": "uint256",
          "name": "amount",
          "type": "uint256"
        }
      ],
      "name": "IERC20TransferEvent",
      "type": "event"
    },
    {
      "anonymous": false,
      "inputs": [
        {
          "indexed": true,
          "internalType": "contract IERC20",
          "name": "token",
          "type": "address"
        },
        {
          "indexed": false,
          "internalType": "address",
          "name": "from",
          "type": "address"
        },
        {
          "indexed": false,
          "internalType": "address",
          "name": "to",
          "type": "address"
        },
        {
          "indexed": false,
          "internalType": "uint256",
          "name": "amount",
          "type": "uint256"
        }
      ],
      "name": "IERC20TransferFromEvent",
      "type": "event"
    },
    {
      "anonymous": false,
      "inputs": [
        {
          "indexed": true,
          "internalType": "address",
          "name": "previousOwner",
          "type": "address"
        },
        {
          "indexed": true,
          "internalType": "address",
          "name": "newOwner",
          "type": "address"
        }
      ],
      "name": "OwnershipTransferred",
      "type": "event"
    },
    {
      "anonymous": false,
      "inputs": [
        {
          "indexed": false,
          "internalType": "address",
          "name": "sender",
          "type": "address"
        },
        {
          "indexed": false,
          "internalType": "uint256",
          "name": "rewardAfterTax",
          "type": "uint256"
        },
        {
          "indexed": false,
          "internalType": "uint256",
          "name": "tax",
          "type": "uint256"
        }
      ],
      "name": "RewardsClaimed",
      "type": "event"
    },
    {
      "stateMutability": "payable",
      "type": "fallback"
    },
    {
      "inputs": [
        {
          "internalType": "address",
          "name": "_address",
          "type": "address"
        },
        {
          "internalType": "uint256",
          "name": "_amount",
          "type": "uint256"
        }
      ],
      "name": "awardBeraCubs",
      "outputs": [],
      "stateMutability": "nonpayable",
      "type": "function"
    },
    {
      "inputs": [],
      "name": "baseLineCompoundCost",
      "outputs": [
        {
          "internalType": "uint256",
          "name": "",
          "type": "uint256"
        }
      ],
      "stateMutability": "view",
      "type": "function"
    },
    {
      "inputs": [],
      "name": "baseTokenAddress",
      "outputs": [
        {
          "internalType": "address",
          "name": "",
          "type": "address"
        }
      ],
      "stateMutability": "view",
      "type": "function"
    },
    {
      "inputs": [],
      "name": "beraCubNftContract",
      "outputs": [
        {
          "internalType": "contract IBERACUB",
          "name": "",
          "type": "address"
        }
      ],
      "stateMutability": "view",
      "type": "function"
    },
    {
      "inputs": [
        {
          "internalType": "uint256",
          "name": "_amount",
          "type": "uint256"
        }
      ],
      "name": "bondBeraCubs",
      "outputs": [],
      "stateMutability": "nonpayable",
      "type": "function"
    },
    {
      "inputs": [],
      "name": "bondDiscount",
      "outputs": [
        {
          "internalType": "uint256",
          "name": "",
          "type": "uint256"
        }
      ],
      "stateMutability": "view",
      "type": "function"
    },
    {
      "inputs": [],
      "name": "bondingClosedOwner",
      "outputs": [
        {
          "internalType": "bool",
          "name": "",
          "type": "bool"
        }
      ],
      "stateMutability": "view",
      "type": "function"
    },
    {
      "inputs": [
        {
          "internalType": "uint256",
          "name": "_amount",
          "type": "uint256"
        }
      ],
      "name": "buyBeraCubsFuzz",
      "outputs": [],
      "stateMutability": "nonpayable",
      "type": "function"
    },
    {
      "inputs": [
        {
          "internalType": "uint256",
          "name": "_amount",
          "type": "uint256"
        }
      ],
      "name": "buyBeraCubsHoney",
      "outputs": [],
      "stateMutability": "nonpayable",
      "type": "function"
    },
    {
      "inputs": [],
      "name": "buyBeraCubsHoneyOpen",
      "outputs": [
        {
          "internalType": "bool",
          "name": "",
          "type": "bool"
        }
      ],
      "stateMutability": "view",
      "type": "function"
    },
    {
      "inputs": [],
      "name": "buyBeraCubsOpenFuzz",
      "outputs": [
        {
          "internalType": "bool",
          "name": "",
          "type": "bool"
        }
      ],
      "stateMutability": "view",
      "type": "function"
    },
    {
      "inputs": [],
      "name": "calculateTax",
      "outputs": [
        {
          "internalType": "uint256",
          "name": "",
          "type": "uint256"
        }
      ],
      "stateMutability": "nonpayable",
      "type": "function"
    },
    {
      "inputs": [],
      "name": "checkBondingOpen",
      "outputs": [
        {
          "internalType": "bool",
          "name": "",
          "type": "bool"
        }
      ],
      "stateMutability": "view",
      "type": "function"
    },
    {
      "inputs": [],
      "name": "checkFuzzOpen",
      "outputs": [
        {
          "internalType": "bool",
          "name": "",
          "type": "bool"
        }
      ],
      "stateMutability": "view",
      "type": "function"
    },
    {
      "inputs": [],
      "name": "checkHoneyOpen",
      "outputs": [
        {
          "internalType": "bool",
          "name": "",
          "type": "bool"
        }
      ],
      "stateMutability": "view",
      "type": "function"
    },
    {
      "inputs": [],
      "name": "claim",
      "outputs": [],
      "stateMutability": "nonpayable",
      "type": "function"
    },
    {
      "inputs": [],
      "name": "claimTaxFuzz",
      "outputs": [
        {
          "internalType": "uint256",
          "name": "",
          "type": "uint256"
        }
      ],
      "stateMutability": "view",
      "type": "function"
    },
    {
      "inputs": [],
      "name": "closeBonding",
      "outputs": [],
      "stateMutability": "nonpayable",
      "type": "function"
    },
    {
      "inputs": [],
      "name": "closeBuyBeraCubsHoney",
      "outputs": [],
      "stateMutability": "nonpayable",
      "type": "function"
    },
    {
      "inputs": [],
      "name": "closeEmissionsOwner",
      "outputs": [],
      "stateMutability": "nonpayable",
      "type": "function"
    },
    {
      "inputs": [],
      "name": "closeFuzzSaleOwner",
      "outputs": [],
      "stateMutability": "nonpayable",
      "type": "function"
    },
    {
      "inputs": [],
      "name": "compoundBeraCubs",
      "outputs": [],
      "stateMutability": "nonpayable",
      "type": "function"
    },
    {
      "inputs": [],
      "name": "currentDailyRewards",
      "outputs": [
        {
          "internalType": "uint256",
          "name": "",
          "type": "uint256"
        }
      ],
      "stateMutability": "view",
      "type": "function"
    },
    {
      "inputs": [],
      "name": "dailyInterest",
      "outputs": [
        {
          "internalType": "uint256",
          "name": "",
          "type": "uint256"
        }
      ],
      "stateMutability": "view",
      "type": "function"
    },
    {
      "inputs": [],
      "name": "emissionsClosedOwner",
      "outputs": [
        {
          "internalType": "bool",
          "name": "",
          "type": "bool"
        }
      ],
      "stateMutability": "view",
      "type": "function"
    },
    {
      "inputs": [],
      "name": "emissionsStarted",
      "outputs": [
        {
          "internalType": "bool",
          "name": "",
          "type": "bool"
        }
      ],
      "stateMutability": "view",
      "type": "function"
    },
    {
      "inputs": [
        {
          "internalType": "uint256",
          "name": "",
          "type": "uint256"
        }
      ],
      "name": "farmersAddresses",
      "outputs": [
        {
          "internalType": "address",
          "name": "",
          "type": "address"
        }
      ],
      "stateMutability": "view",
      "type": "function"
    },
    {
      "inputs": [],
      "name": "fuzzAddress",
      "outputs": [
        {
          "internalType": "address",
          "name": "",
          "type": "address"
        }
      ],
      "stateMutability": "view",
      "type": "function"
    },
    {
      "inputs": [],
      "name": "fuzzContract",
      "outputs": [
        {
          "internalType": "contract IFUZZTOKEN",
          "name": "",
          "type": "address"
        }
      ],
      "stateMutability": "view",
      "type": "function"
    },
    {
      "inputs": [],
      "name": "getBondCost",
      "outputs": [
        {
          "internalType": "uint256",
          "name": "",
          "type": "uint256"
        }
      ],
      "stateMutability": "view",
      "type": "function"
    },
    {
      "inputs": [
        {
          "internalType": "address",
          "name": "_address",
          "type": "address"
        }
      ],
      "name": "getFarmerByAddress",
      "outputs": [
        {
          "components": [
            {
              "internalType": "bool",
              "name": "exists",
              "type": "bool"
            },
            {
              "internalType": "uint256",
              "name": "beraCubsBonded",
              "type": "uint256"
            },
            {
              "internalType": "uint256",
              "name": "beraCubsCompounded",
              "type": "uint256"
            },
            {
              "internalType": "uint256",
              "name": "claimsFuzz",
              "type": "uint256"
            },
            {
              "internalType": "uint256",
              "name": "lastUpdate",
              "type": "uint256"
            }
          ],
          "internalType": "struct BeraFarm.Farmer",
          "name": "",
          "type": "tuple"
        }
      ],
      "stateMutability": "view",
      "type": "function"
    },
    {
      "inputs": [],
      "name": "getFuzzPrice",
      "outputs": [
        {
          "internalType": "uint256",
          "name": "",
          "type": "uint256"
        }
      ],
      "stateMutability": "view",
      "type": "function"
    },
    {
      "inputs": [
        {
          "internalType": "uint256",
          "name": "totalSupplyBeforeAmount",
          "type": "uint256"
        },
        {
          "internalType": "uint256",
          "name": "totalSupplyPlusAmount",
          "type": "uint256"
        },
        {
          "internalType": "uint256",
          "name": "_amount",
          "type": "uint256"
        }
      ],
      "name": "getHoneyBuyTransactionCost",
      "outputs": [
        {
          "internalType": "uint256",
          "name": "",
          "type": "uint256"
        }
      ],
      "stateMutability": "view",
      "type": "function"
    },
    {
      "inputs": [
        {
          "internalType": "address",
          "name": "user",
          "type": "address"
        }
      ],
      "name": "getOwnedBeraCubs",
      "outputs": [
        {
          "internalType": "uint256",
          "name": "",
          "type": "uint256"
        }
      ],
      "stateMutability": "view",
      "type": "function"
    },
    {
      "inputs": [],
      "name": "getTaxEstimate",
      "outputs": [
        {
          "internalType": "uint256",
          "name": "",
          "type": "uint256"
        }
      ],
      "stateMutability": "view",
      "type": "function"
    },
    {
      "inputs": [],
      "name": "getTotalBeraCubs",
      "outputs": [
        {
          "internalType": "uint256",
          "name": "",
          "type": "uint256"
        }
      ],
      "stateMutability": "view",
      "type": "function"
    },
    {
      "inputs": [
        {
          "internalType": "address",
          "name": "_user",
          "type": "address"
        }
      ],
      "name": "getTotalClaimable",
      "outputs": [
        {
          "internalType": "uint256",
          "name": "",
          "type": "uint256"
        }
      ],
      "stateMutability": "view",
      "type": "function"
    },
    {
      "inputs": [
        {
          "internalType": "address",
          "name": "_user",
          "type": "address"
        }
      ],
      "name": "getWalletCompoundCost",
      "outputs": [
        {
          "internalType": "uint256",
          "name": "",
          "type": "uint256"
        }
      ],
      "stateMutability": "view",
      "type": "function"
    },
    {
      "inputs": [],
      "name": "honeyAddress",
      "outputs": [
        {
          "internalType": "address",
          "name": "",
          "type": "address"
        }
      ],
      "stateMutability": "view",
      "type": "function"
    },
    {
      "inputs": [],
      "name": "honeyCostFirstBatch",
      "outputs": [
        {
          "internalType": "uint256",
          "name": "",
          "type": "uint256"
        }
      ],
      "stateMutability": "view",
      "type": "function"
    },
    {
      "inputs": [],
      "name": "honeyCostSecondBatch",
      "outputs": [
        {
          "internalType": "uint256",
          "name": "",
          "type": "uint256"
        }
      ],
      "stateMutability": "view",
      "type": "function"
    },
    {
      "inputs": [],
      "name": "isLive",
      "outputs": [
        {
          "internalType": "bool",
          "name": "",
          "type": "bool"
        }
      ],
      "stateMutability": "view",
      "type": "function"
    },
    {
      "inputs": [],
      "name": "limitBeforeEmissions",
      "outputs": [
        {
          "internalType": "uint256",
          "name": "",
          "type": "uint256"
        }
      ],
      "stateMutability": "view",
      "type": "function"
    },
    {
      "inputs": [],
      "name": "limitBeforeFullTokenTrading",
      "outputs": [
        {
          "internalType": "uint256",
          "name": "",
          "type": "uint256"
        }
      ],
      "stateMutability": "view",
      "type": "function"
    },
    {
      "inputs": [],
      "name": "maxAllowedCompoundCost",
      "outputs": [
        {
          "internalType": "uint256",
          "name": "",
          "type": "uint256"
        }
      ],
      "stateMutability": "view",
      "type": "function"
    },
    {
      "inputs": [],
      "name": "maxCompoundCostSoFar",
      "outputs": [
        {
          "internalType": "uint256",
          "name": "",
          "type": "uint256"
        }
      ],
      "stateMutability": "view",
      "type": "function"
    },
    {
      "inputs": [],
      "name": "maxCubsPerWallet",
      "outputs": [
        {
          "internalType": "uint256",
          "name": "",
          "type": "uint256"
        }
      ],
      "stateMutability": "view",
      "type": "function"
    },
    {
      "inputs": [],
      "name": "maxSupplyFirstBatch",
      "outputs": [
        {
          "internalType": "uint256",
          "name": "",
          "type": "uint256"
        }
      ],
      "stateMutability": "view",
      "type": "function"
    },
    {
      "inputs": [],
      "name": "maxSupplyForHoney",
      "outputs": [
        {
          "internalType": "uint256",
          "name": "",
          "type": "uint256"
        }
      ],
      "stateMutability": "view",
      "type": "function"
    },
    {
      "inputs": [],
      "name": "openBonding",
      "outputs": [],
      "stateMutability": "nonpayable",
      "type": "function"
    },
    {
      "inputs": [],
      "name": "openBuyBeraCubsHoney",
      "outputs": [],
      "stateMutability": "nonpayable",
      "type": "function"
    },
    {
      "inputs": [],
      "name": "openEmissionsOwner",
      "outputs": [],
      "stateMutability": "nonpayable",
      "type": "function"
    },
    {
      "inputs": [],
      "name": "openFuzzSaleOwner",
      "outputs": [],
      "stateMutability": "nonpayable",
      "type": "function"
    },
    {
      "inputs": [],
      "name": "owner",
      "outputs": [
        {
          "internalType": "address",
          "name": "",
          "type": "address"
        }
      ],
      "stateMutability": "view",
      "type": "function"
    },
    {
      "inputs": [],
      "name": "quoteTokenAddress",
      "outputs": [
        {
          "internalType": "address",
          "name": "",
          "type": "address"
        }
      ],
      "stateMutability": "view",
      "type": "function"
    },
    {
      "inputs": [],
      "name": "renounceOwnership",
      "outputs": [],
      "stateMutability": "nonpayable",
      "type": "function"
    },
    {
      "inputs": [],
      "name": "setBaseAndQuoteTokens",
      "outputs": [],
      "stateMutability": "nonpayable",
      "type": "function"
    },
    {
      "inputs": [
        {
          "internalType": "uint256",
          "name": "newDiscount",
          "type": "uint256"
        }
      ],
      "name": "setBondDiscount",
      "outputs": [],
      "stateMutability": "nonpayable",
      "type": "function"
    },
    {
      "inputs": [
        {
          "internalType": "address",
          "name": "_beraCubNftContract",
          "type": "address"
        }
      ],
      "name": "setCubNFTContract",
      "outputs": [],
      "stateMutability": "nonpayable",
      "type": "function"
    },
    {
      "inputs": [
        {
          "internalType": "uint256",
          "name": "_dailyInterest",
          "type": "uint256"
        }
      ],
      "name": "setDailyInterest",
      "outputs": [],
      "stateMutability": "nonpayable",
      "type": "function"
    },
    {
      "inputs": [
        {
          "internalType": "address",
          "name": "_fuzzAddress",
          "type": "address"
        }
      ],
      "name": "setFuzzAddr",
      "outputs": [],
      "stateMutability": "nonpayable",
      "type": "function"
    },
    {
      "inputs": [
        {
          "internalType": "uint256",
          "name": "_claimTaxFuzz",
          "type": "uint256"
        }
      ],
      "name": "setFuzzTax",
      "outputs": [],
      "stateMutability": "nonpayable",
      "type": "function"
    },
    {
      "inputs": [
        {
          "internalType": "address",
          "name": "_fuzz",
          "type": "address"
        }
      ],
      "name": "setFuzzTokenAddress",
      "outputs": [],
      "stateMutability": "nonpayable",
      "type": "function"
    },
    {
      "inputs": [
        {
          "internalType": "bool",
          "name": "_isLive",
          "type": "bool"
        }
      ],
      "name": "setPlatformState",
      "outputs": [],
      "stateMutability": "nonpayable",
      "type": "function"
    },
    {
      "inputs": [
        {
          "internalType": "address",
          "name": "treasuryAddress",
          "type": "address"
        }
      ],
      "name": "setTreasuryAddr",
      "outputs": [],
      "stateMutability": "nonpayable",
      "type": "function"
    },
    {
      "inputs": [
        {
          "internalType": "address",
          "name": "newOwner",
          "type": "address"
        }
      ],
      "name": "transferOwnership",
      "outputs": [],
      "stateMutability": "nonpayable",
      "type": "function"
    },
    {
      "inputs": [],
      "name": "treasury",
      "outputs": [
        {
          "internalType": "address",
          "name": "",
          "type": "address"
        }
      ],
      "stateMutability": "view",
      "type": "function"
    },
    {
      "inputs": [
        {
          "internalType": "address",
          "name": "_from",
          "type": "address"
        },
        {
          "internalType": "address",
          "name": "_to",
          "type": "address"
        }
      ],
      "name": "updateClaimsOnTokenTransfer",
      "outputs": [],
      "stateMutability": "nonpayable",
      "type": "function"
    },
    {
      "stateMutability": "payable",
      "type": "receive"
    }
  ],
  "bytecode": "0x61014034620001fc57601f6200327d38819003918201601f19168301916001600160401b03831184841017620002015780849261016094604052833981010312620001fc576200004f8162000217565b602082015190604083015191606084015160808501519260a08601519260c08701519460e08801519761010098898201519061012098620000a1610140620000998c870162000217565b950162000217565b986000549560018060a01b031999338b8916176000556040519d60018060a01b03998a998a3391167f8be0079c531659141344cd1fd0a4f28419497f9722a3daafe3b4186f6b6457e0600080a360018055738685ce9db06d40cba73e3d09e6868fe476b5dc89608052896009549c674563918244f40000600c55168d6002541617600255600a55600b55600d558d5260a05260c05260e0528752169384846004541617600455169283836003541617600355600160c01b9164ffffffffff60d81b161717600955600854161760085561305092836200022d843960805183612a2e015260a05183818161146f01526124bd015260c051838181610d510152610fc2015260e051838181610ff70152611d2501525182818161059901528181610eba015281816112b901528181611a9a0152818161282e015281816128da015261298201525181818161062f015281816114d30152611f970152f35b600080fd5b634e487b7160e01b600052604160045260246000fd5b51906001600160a01b0382168203620001fc5756fe608060409080825260049182361015610020575b505050361561001e57005b005b600092833560e01c928363043fb511146121bc5750826305c9601014611ecb57826306b6cd6514611e9c5782630867782614611e75578263199f4c9914611e4c5782631c27a2ce14611d8d5782631fc1ba4c14611d4857826323471e2d14611d0d57826323900c1014611a46578263267e8ab614611a205782632b4f204a14611a035782632f85d8cb146119e6578263357c8acd1461197d57826335a279631461195a5782633a9e91f8146118c35782634393bbde146118a65782634ce3d2841461185f5782634d85334e146118425782634e71d92d1461165f5782635adf0021146116385782635ebcd432146116095782635f400b95146115e057826361d027b3146115b757826362f18a291461159557826368b37300146115505782636c96764b14611334578263715018a6146114f65782637c84fec2146114bb5782637cb374bd146114925782637d491391146114575782637fd05b421461142e578263803355741461140757826381c5ca5f146113e05782638478793a146113615782638da5cb5b146113395782639650ca08146113345782639ef78b8814611305578263a045c739146112dc578263a601bf24146112a1578263a72c6ec51461127d578263a7e05b9c14611238578263a9d88f2514610e42578263af34370914610e0a578263b3d8d07914610de1578263b8f7a66514610dba578263b9b2735c14610d9d578263bad3462014610d74578263bbe7b24b14610d39578263bdadf5be14610c9f578263bec8203414610c7d578263bfeaa07114610c3b578263c70f4dbb14610af9578263c9f9858614610ada578263d07b26ba146109d0578263dadf1c68146109a7578263e3b5727514610961578263e7438d1d14610914578263e7bf74ce14610546578263e8ee55a214610529578263e951e311146104fa578263ecd1cb62146104d1578263f08818df146104b2578263f1aa59121461048c578263f2fde38b146103c257508163f6185e221461039b578163f9caa5831461037857508063fa0b5d96146103495763fa804b8e1461031e578080610013565b34610346578060031936011261034657610336612242565b6009805460ff60a81b1916905580f35b80fd5b5034610346578060031936011261034657610362612242565b6009805460ff60a81b1916600160a81b17905580f35b905034610397578160031936011261039757602090600d549051908152f35b5080fd5b90503461039757816003193601126103975760209060ff60095460d01c1690519015158152f35b90915034610488576020366003190112610488576103de6121d8565b906103e7612242565b6001600160a01b039182169283156104365750506000548260018060a01b0319821617600055167f8be0079c531659141344cd1fd0a4f28419497f9722a3daafe3b4186f6b6457e0600080a380f35b906020608492519162461bcd60e51b8352820152602660248201527f4f776e61626c653a206e6577206f776e657220697320746865207a65726f206160448201526564647265737360d01b6064820152fd5b8280fd5b8382346103975781600319360112610397576020906104a961294a565b90519015158152f35b838234610397578160031936011261039757602090600c549051908152f35b83823461039757816003193601126103975760035490516001600160a01b039091168152602090f35b90833461034657606036600319011261034657506105226020926044359060243590356124b8565b9051908152f35b838234610397578160031936011261039757602090610522612790565b90915034610488576020908160031936011261077c5780359061056e6002600154141561229a565b600260015560ff600954610586828260a01c166122e6565b60c01c16156108d157610597612790565b7f00000000000000000000000000000000000000000000000000000000000000001161087d5760075484516370a0823160e01b8082523384830152946001600160a01b03929091908316908281602481855afa908115610846578991610850575b508284600854169760248a51809a81938252338a8301525afa968715610846578997610810575b5061062d866106559261238d565b7f000000000000000000000000000000000000000000000000000000000000000010156123b0565b61066185600c54612465565b8096106107da579081889493923b156107d65784885180926311bc1c2160e11b82528183816106938c338c84016123f2565b03925af19081156107b85785916107c2575b5050816008541681885180926323b872dd60e01b82528188816106cc8d30338d8501612425565b03925af180156107b85761078a575b505060085416803b156104885784839161070b93838951809681958294632770a7eb60e21b8452309084016123f2565b03925af1801561078057610768575b505061075e7f4812ad7b572a382c624953372846efc0e2d33a7a4330422b8670d3f437f851799361074a33612b7d565b61075333612c68565b519283923384612447565b0390a16001805580f35b61077190612328565b61077c57833861071a565b8380fd5b85513d84823e3d90fd5b816107a992903d106107b1575b6107a1818361236c565b81019061240d565b5038806106db565b503d610797565b88513d87823e3d90fd5b6107cb90612328565b61077c5783386106a5565b8480fd5b865162461bcd60e51b8152808501839052601060248201526f2737ba1032b737bab3b41012232aad2d60811b6044820152606490fd5b9096508281813d831161083f575b610828818361236c565b8101031261083a57519561062d61061f565b600080fd5b503d61081e565b88513d8b823e3d90fd5b90508281813d8311610876575b610867818361236c565b8101031261083a5751386105f8565b503d61085d565b835162461bcd60e51b8152908101839052602860248201527f4e6f7420656e6f756768204d696e74656420546f2050757263686173652057696044820152673a341012233abd3d60c11b6064820152608490fd5b835162461bcd60e51b8152908101839052601d60248201527f4275792042657261204375627320697320636c6f736564206f776e65720000006044820152606490fd5b833461034657806003193601126103465750600a5490678ac7230489e80000918083029283040361094c575060646020925191048152f35b601190634e487b7160e01b6000525260246000fd5b839034610397576020366003190112610397573580151580910361039757610987612242565b6009805460ff60a01b191660a09290921b60ff60a01b1691909117905580f35b83823461039757816003193601126103975760085490516001600160a01b039091168152602090f35b90833461034657806003193601126103465760075482516370a0823160e01b81523381860152602094918590829060249082906001600160a01b03165afa908115610ad0578391610aa3575b50678ac7230489e8000090818102918183041490151715610a9057610522926003856283d600610a74606496610a6e610a5b610a8698600a5490612465565b91338852600f8d528588200154426125dd565b90612465565b0492338152600f89522001549061238d565b04600b5490612465565b634e487b7160e01b835260118252602483fd5b90508481813d8311610ac9575b610aba818361236c565b8101031261083a575185610a1c565b503d610ab0565b84513d85823e3d90fd5b838234610397578160031936011261039757602090600b549051908152f35b90915034610488578160031936011261048857610b146121d8565b8360243592610b21612242565b60075485516370a0823160e01b81526001600160a01b038581168483015290911690602081602481855afa8015610c315786918591610bf6575b50610b699161062d9161238d565b803b15610488578483918583610b93958a51968795869485936311bc1c2160e11b855284016123f2565b03925af1801561078057610be2575b5050610bdc7f276975ac50865cc07d64e6842a8cfd9ce5c2bd1ff85a4712560602beb7f75ea493610bd283612c68565b51928392836123f2565b0390a180f35b610beb90612328565b61077c578338610ba2565b945050506020833d8211610c29575b81610c126020938361236c565b8101031261083a5791518692908590610b69610b5b565b3d9150610c05565b87513d86823e3d90fd5b90915034610488576020366003190112610488573591600e548310156103465750610c67602092612211565b905491519160018060a01b039160031b1c168152f35b83903461039757602036600319011261039757610c98612242565b35600a5580f35b915034610488576020366003190112610488578060a093610cbe6121d8565b610cc6612b52565b50600180871b03168152600f60205220815191610ce283612351565b60ff8254161515938484526001830154602085019081526080600285015492848701938452600386015495606088019687520154950194855282519586525160208601525190840152516060830152516080820152f35b838234610397578160031936011261039757602090517f00000000000000000000000000000000000000000000000000000000000000008152f35b83823461039757816003193601126103975760065490516001600160a01b039091168152602090f35b838234610397578160031936011261039757602090610522612766565b83823461039757816003193601126103975760209060ff60095460a01c1690519015158152f35b909150346104885782600319360112610488575490516001600160a01b03909116815260209150f35b8382346103975736600319011261034657610e236121d8565b6024356001600160a01b038116810361083a57610e3f916125ea565b80f35b90915034610488576020908160031936011261077c57803590610e6a6002600154141561229a565b600260015560095492610e8260ff8560a01c166122e6565b60ff8460b01c16156111fc576007546001600160a01b03919082169081156111c357610eac612790565b91610eb7868461238d565b927f00000000000000000000000000000000000000000000000000000000000000008411611165579089959493929189519083826024816370a0823160e01b96878252338c8301525afa801561115b5789928991611126575b509185610f2a92610f2561062d848b9761238d565b6124b8565b981690895190815233868201528281602481855afa90811561111c57899388926110e4575b505090610f6283610f6f94931015612478565b8460025416903390612da6565b8160075416803b156107d65784885180926311bc1c2160e11b8252818381610f9a8c338c84016123f2565b03925af19081156107b85785916110d0575b5050610fb733612b7d565b610fc033612c68565b7f0000000000000000000000000000000000000000000000000000000000000000811015806110c0575b806110b0575b611098575b7f00000000000000000000000000000000000000000000000000000000000000001115611050575b50505061075e7f4cd4f1ef3b195f4ff5e4a556b596af7ceae6333d310e1dce3fc781db35caa4c293519283923384612447565b6008541690813b156104885785516348f5eeeb60e01b81529183918391829084905af1801561078057611084575b8061101d565b61108d90612328565b61077c57833861107e565b6009805460ff60c81b1916600160c81b179055610ff5565b5060ff60095460d01c1615610ff0565b5060ff60095460c81c1615610fea565b6110d990612328565b61077c578338610fac565b92935096505085813d8311611115575b6110fe818361236c565b8101031261083a57935188948791610f6283610f4f565b503d6110f4565b8a513d89823e3d90fd5b98505090508287813d8311611154575b611140818361236c565b8101031261083a5795518a96889185610f10565b503d611136565b8b513d8a823e3d90fd5b885162461bcd60e51b8152808701849052603260248201527f486f6e65792042657261204375627320666f722024484f4e455920536f6c642060448201527127baba10313abc903bb4ba341012232aad2d60711b6064820152608490fd5b8360649188519162461bcd60e51b8352820152601460248201527310995c984810dd5888139195081b9bdd081cd95d60621b6044820152fd5b845162461bcd60e51b8152918201526017602482015276109d5e4810995c984810dd589cc81a5cc818db1bdcd959604a1b604482015260649150fd5b8334610346576020366003190112610346576112526121d8565b61125a612242565b600280546001600160a01b0319166001600160a01b039290921691909117905580f35b8382346103975781600319360112610397576020905168015af1d78b58c400008152f35b838234610397578160031936011261039757602090517f00000000000000000000000000000000000000000000000000000000000000008152f35b83346103465780600319360112610346576112f5612242565b6009805460ff60d01b1916905580f35b833461034657806003193601126103465761131e612242565b6009805460ff60c01b1916600160c01b17905580f35b6121ee565b838234610397578160031936011261039757905490516001600160a01b039091168152602090f35b83903461039757816003193601126103975761137b612242565b80546003546001600160a01b0391821692908216808410156113c0575081925054169060018060a01b0319918260055416176005556003541690600654161760065580f35b91505060018060a01b031990816005541617600555600654161760065580f35b83823461039757816003193601126103975760209060ff60095460a81c1690519015158152f35b83823461039757816003193601126103975760209060ff60095460b81c1690519015158152f35b8334610346578060031936011261034657611447612242565b6009805460ff60b01b1916905580f35b838234610397578160031936011261039757602090517f00000000000000000000000000000000000000000000000000000000000000008152f35b83823461039757816003193601126103975760055490516001600160a01b039091168152602090f35b838234610397578160031936011261039757602090517f00000000000000000000000000000000000000000000000000000000000000008152f35b833461034657806003193601126103465761150f612242565b600080546001600160a01b0319811682556001600160a01b03167f8be0079c531659141344cd1fd0a4f28419497f9722a3daafe3b4186f6b6457e08280a380f35b83346103465760203660031901126103465761156a6121d8565b611572612242565b600880546001600160a01b0319166001600160a01b039290921691909117905580f35b839034610397576020366003190112610397576115b0612242565b35600b5580f35b83823461039757816003193601126103975760025490516001600160a01b039091168152602090f35b83346103465780600319360112610346576115f9612242565b6009805460ff60c01b1916905580f35b8334610346578060031936011261034657611622612242565b6009805460ff60b01b1916600160b01b17905580f35b83823461039757816003193601126103975760209060ff60095460c81c1690519015158152f35b90915034610488578260031936011261048857338352600f60205260ff8284205416156117e55761168e612766565b90338452600f60205260038385200154906116a983836125dd565b91156117a257338552600f6020528385206003018590556008548591906001600160a01b03908116803b1561077c5783875180926340c10f1960e01b82528183816116f78b338b84016123f2565b03925af1908115610c3157849161178e575b505060085416803b156104885784839161173993838951809681958294632770a7eb60e21b8452339084016123f2565b03925af180156107805761177a575b5050610bdc7fdacbdde355ba930696a362ea6738feb9f8bd52dfb3d81947558fd3217e23e32593519283923384612447565b61178390612328565b61077c578338611748565b61179790612328565b610488578238611709565b606490602085519162461bcd60e51b8352820152601e60248201527f4e6f207265776172647320617661696c61626c6520666f7220636c61696d00006044820152fd5b6020608492519162461bcd60e51b8352820152603260248201527f53656e646572206d7573742062652072656769737465726564204265726120436044820152717562206661726d657220746f20636c61696d60701b6064820152fd5b8382346103975781600319360112610397576020906104a96127f6565b8334610346576020366003190112610346576118796121d8565b611881612242565b60018060a01b031660018060a01b031981816008541617600855600354161760035580f35b8382346103975781600319360112610397576020906105226129f1565b838234610397576020928360031936011261048857836118e16121d8565b60075484516370a0823160e01b81526001600160a01b039283169481019490945283916024918391165afa92831561194f5792611920575b5051908152f35b9091508281813d8311611948575b611938818361236c565b8101031261083a57519083611919565b503d61192e565b8251903d90823e3d90fd5b83823461039757816003193601126103975760209051678ac7230489e800008152f35b909150346104885760203660031901126104885780359161199c612242565b604b83116119ac575050600d5580f35b906020606492519162461bcd60e51b83528201526014602482015273111a5cd8dbdd5b9d0818589bdd99481b1a5b5a5d60621b6044820152fd5b838234610397578160031936011261039757602090610522612b17565b8382346103975781600319360112610397576020906104a96128a2565b83823461039757602036600319011261039757602090610522611a416121d8565b612689565b909150346104885760208060031936011261077c57813590611a6d6002600154141561229a565b600260015560095492611a8560ff8560a01c166122e6565b60ff8460a81c16611cd257611a98612790565b7f000000000000000000000000000000000000000000000000000000000000000011611c7857859060018060a01b03806007541693875181816024816370a0823160e01b998a825233898301525afa8015611c375787918691611c41575b50611b049161062d9161238d565b81611b1687611b11612b17565b612465565b971694885190815233848201528181602481895afa8015611c375788918691611bff575b50600f9291611b4a911015612478565b33855252611b6386888520958360025416903390612da6565b60075416803b1561048857848391611b9193838a518096819582946311bc1c2160e11b8452339084016123f2565b03925af18015611bf557611be1575b50507fc00022e169fb4c78336e72f5b2fe0cd27a3b36fcd5ac78763c4d852b2e0fccba93600161075e9201611bd684825461238d565b905561075333612c68565b611bea90612328565b6107d6578438611ba0565b86513d84823e3d90fd5b928096508092508391503d8311611c30575b611c1b818361236c565b8101031261083a57518893908790600f611b3a565b503d611c11565b89513d87823e3d90fd5b955050508084813d8311611c71575b611c5a818361236c565b8101031261083a5792518893908690611b04611af6565b503d611c50565b60849185519162461bcd60e51b8352820152603060248201527f426f6e64696e67207374696c6c20636c6f73656420706c65617365207075726360448201526f6861736520776974682024484f4e455960801b6064820152fd5b60649185519162461bcd60e51b835282015260176024820152762137b73234b7339034b99031b637b9b2b21037bbb732b960491b6044820152fd5b838234610397578160031936011261039757602090517f00000000000000000000000000000000000000000000000000000000000000008152f35b833461034657602036600319011261034657611d626121d8565b611d6a612242565b600780546001600160a01b0319166001600160a01b039290921691909117905580f35b908334610346576020366003190112610346576001600160a01b03611db06121d8565b168152600f602052818120908251611dc781612351565b825460ff16151581526001830154602082015260028301548482018190526003840154606083015292850154608090910152811580611e3657674563918244f40000808402938404141715611e23575060209250905b51908152f35b634e487b7160e01b815260118452602490fd5b50505060209150674563918244f4000090611e1d565b83823461039757816003193601126103975760075490516001600160a01b039091168152602090f35b83823461039757816003193601126103975760209060ff60095460b01c1690519015158152f35b8334610346578060031936011261034657611eb5612242565b6009805460ff60d01b1916600160d01b17905580f35b90915034610488578260031936011261048857600191611eef60028454141561229a565b6002835560ff60095460c81c161561216557611f0a33612689565b913385526020600f81528286206002810180549187830180931161215257674563918244f4000093848402978489048614851517156120b5578810156121045760075487516370a0823160e01b815233888201526001600160a01b03929182908290602490829087165afa9182156120fa578c926120c8575b50508981018091116120b55790611fbd8b927f000000000000000000000000000000000000000000000000000000000000000010156123b0565b611fc633612c68565b60075416803b1561039757819060448b8a5194859384926311bc1c2160e11b8452338d85015260248401525af180156120ab57612097575b5060030161200d8782546125dd565b90555583019081841161208457509161206991837ffee76474e5450a7243d4c77330ab82c1753e7c86702ddf79c07c0e8d15aa55d59468015af1d78b58c400001015612071575b5061205e33612c68565b5191829133836123f2565b0390a1805580f35b600c5481111561205457600c5538612054565b634e487b7160e01b865260119052602485fd5b986120a46003929a612328565b9890611ffe565b87513d8c823e3d90fd5b634e487b7160e01b8b526011875260248bfd5b90809250813d83116120f3575b6120df818361236c565b810103126120ef57513880611f83565b8a80fd5b503d6120d5565b89513d8e823e3d90fd5b8560849188519162461bcd60e51b83528201526024808201527f4e6f7420656e6f7567682070656e64696e67202446555a5a20746f20636f6d706044820152631bdd5b9960e21b6064820152fd5b634e487b7160e01b895260118552602489fd5b906020608492519162461bcd60e51b8352820152602b60248201527f436f6d706f756e64206e6f7420706f737369626c6520656d697373696f6e732060448201526a1b9bdd081cdd185c9d195960aa1b6064820152fd5b849034610397578160031936011261039757602090600a548152f35b600435906001600160a01b038216820361083a57565b3461083a57600036600319011261083a576020604051674563918244f400008152f35b600e5481101561222c57600e60005260206000200190600090565b634e487b7160e01b600052603260045260246000fd5b6000546001600160a01b0316330361225657565b606460405162461bcd60e51b815260206004820152602060248201527f4f776e61626c653a2063616c6c6572206973206e6f7420746865206f776e65726044820152fd5b156122a157565b60405162461bcd60e51b815260206004820152601f60248201527f5265656e7472616e637947756172643a207265656e7472616e742063616c6c006044820152606490fd5b156122ed57565b60405162461bcd60e51b8152602060048201526013602482015272506c6174666f726d206973206f66666c696e6560681b6044820152606490fd5b6001600160401b03811161233b57604052565b634e487b7160e01b600052604160045260246000fd5b60a081019081106001600160401b0382111761233b57604052565b90601f801991011681019081106001600160401b0382111761233b57604052565b9190820180921161239a57565b634e487b7160e01b600052601160045260246000fd5b156123b757565b60405162461bcd60e51b815260206004820152601360248201527213585e0810995c984810dd589cc813dddb9959606a1b6044820152606490fd5b6001600160a01b039091168152602081019190915260400190565b9081602091031261083a5751801515810361083a5790565b6001600160a01b03918216815291166020820152604081019190915260600190565b604091949392606082019560018060a01b0316825260208201520152565b8181029291811591840414171561239a57565b1561247f57565b60405162461bcd60e51b81526020600482015260116024820152704e6f7420656e6f7567682024484f4e455960781b6044820152606490fd5b6000917f00000000000000000000000000000000000000000000000000000000000000008092118015908180926125d3575b15612512575050505050674563918244f400009081810291818304149015171561239a575b90565b156125385750505050678ac7230489e800009081810291818304149015171561239a5790565b806125ca575b61254a575b5050905090565b90612554916125dd565b678ac7230489e80000918282029282840414821517156125b6575061257a9082936125dd565b8015801561258b575b839250612543565b90919250674563918244f4000080830292830414171561239a576125ae9161238d565b388080612583565b634e487b7160e01b81526011600452602490fd5b5081811161253e565b50838311156124ea565b9190820391821161239a57565b6007549091906001600160a01b03908116330361262e5761260a82612b7d565b8216156126245761261d61262292612c68565b612c68565b565b6126229150612c68565b60405162461bcd60e51b815260206004820152602d60248201527f4f6e6c7920426572612043756220636f6e74726163742063616e2063616c6c2060448201526c3a3434b990333ab731ba34b7b760991b6064820152608490fd5b6007546040516370a0823160e01b81526001600160a01b03928316600482018190526020939092849183916024918391165afa90811561275a5760009161272d575b50678ac7230489e800009081810291818304149015171561239a5761250f926283d600612719612700600f94600a5490612465565b85600052848452610a6e600460406000200154426125dd565b04926000525260036040600020015461238d565b908382813d8311612753575b612743818361236c565b81010312610346575051386126cb565b503d612739565b6040513d6000823e3d90fd5b61276f33612c68565b33600052600f60205261250f606460036040600020015404600b5490612465565b6007546040516318160ddd60e01b815290602090829060049082906001600160a01b03165afa90811561275a576000916127c8575090565b906020823d82116127ee575b816127e16020938361236c565b8101031261034657505190565b3d91506127d4565b6007546040516318160ddd60e01b815290602090829060049082906001600160a01b03165afa90811561275a57600091612871575b507f00000000000000000000000000000000000000000000000000000000000000001180612862575b61285d57600090565b600190565b5060ff60095460b01c16612854565b906020823d821161289a575b8161288a6020938361236c565b810103126103465750513861282b565b3d915061287d565b6007546040516318160ddd60e01b815290602090829060049082906001600160a01b03165afa90811561275a57600091612919575b507f00000000000000000000000000000000000000000000000000000000000000001115806129095761285d57600090565b5060ff60095460a81c1615612854565b906020823d8211612942575b816129326020938361236c565b81010312610346575051386128d7565b3d9150612925565b6007546040516318160ddd60e01b815290602090829060049082906001600160a01b03165afa90811561275a576000916129c0575b507f00000000000000000000000000000000000000000000000000000000000000001115806129b15761285d57600090565b5060ff60095460c01c16612854565b906020823d82116129e9575b816129d96020938361236c565b810103126103465750513861297f565b3d91506129cc565b60055460065460405163f8c7efa760e01b81526001600160a01b03928316600482018190529183166024820152618ca060448201526020816064817f000000000000000000000000000000000000000000000000000000000000000087165afa90811561275a57600091612ad6575b50670de0b6b3a7640000906001600160801b03168181029080159082048314171561239a57612a929060401c80612465565b04916004541614600090600014612aa7575090565b8115612ac257506ec097ce7bc90715b34b9f10000000000490565b634e487b7160e01b81526012600452602490fd5b6020813d8211612b0f575b81612aee6020938361236c565b810103126103975751906001600160801b0382168203610346575038612a60565b3d9150612ae1565b612b2a612b226129f1565b600c54612465565b600d546064036064811161239a57612b4d606491670de0b6b3a764000093612465565b040490565b60405190612b5f82612351565b60006080838281528260208201528260408201528260608201520152565b90612b86612b52565b506001600160a01b039182166000818152600f602052604081205490939060ff1615612bb3575b50509050565b60405191612bc083612351565b6001835260208301858152604084019086825260608501928784526080860194888652600e54600160401b811015612c545791600497989991612c0b84600160409601600e55612211565b819291549060031b9184831b921b19161790558152600f602052209551151560ff8019885416911617865551600186015551600285015551600384015551910155803880612bad565b634e487b7160e01b8a52604160045260248afd5b60095460ff8160c81c1615908115612d98575b50612d7c576007546040516370a0823160e01b81526001600160a01b03928316600482018190529092602092839185916024918391165afa92831561275a57600093612d4d575b5080600052600f825260046040600020015480612cef575b50600f92506000525242600460406000200155565b678ac7230489e800009384810294818604149015171561239a57612d2a6283d60091610a6e612d23600f97600a5490612465565b91426125dd565b0481600052838352612d45600360406000200191825461238d565b905538612cda565b90928282813d8311612d75575b612d64818361236c565b810103126103465750519138612cc2565b503d612d5a565b60018060a01b0316600052600f60205242600460406000200155565b60ff915060d01c1638612c7b565b91909392936040948551936020908186016323b872dd60e01b815286612dd185888860248501612425565b0391612de5601f19938481018a528961236c565b89516001600160a01b03919091169790926001600160401b0391848c018381118682101761233b578c528585527f5361666545524332303a206c6f772d6c6576656c2063616c6c206661696c656486860152893b15612f5b576000809481925190828d5af1913d15612f4b573d908111612f375790612e8294939291612e74878e5193601f840116018361236c565b81528092863d92013e612f9f565b805180612ec4575b505050612ebf907f7f2ff68728cab042a64a647a38c53882201e6d9b7bc67ef9903160c7fea189f99495965193849384612425565b0390a2565b908280612ed593830101910161240d565b15612ee1578080612e8a565b60849087519062461bcd60e51b82526004820152602a60248201527f5361666545524332303a204552433230206f7065726174696f6e20646964206e6044820152691bdd081cdd58d8d9595960b21b6064820152fd5b634e487b7160e01b84526041600452602484fd5b5050612e82929150606090612f9f565b8b5162461bcd60e51b815260048101879052601d60248201527f416464726573733a2063616c6c20746f206e6f6e2d636f6e74726163740000006044820152606490fd5b90919015612fab575090565b815115612fbb5750805190602001fd5b6040519062461bcd60e51b82528160208060048301528251908160248401526000935b828510613001575050604492506000838284010152601f80199101168101030190fd5b8481018201518686016044015293810193859350612fde56fea2646970667358221220b6da5a41f9ba6fac71d3e8fdadf6d3073d5bfa09c513c2a34ce3d58abcc9bfdd64736f6c63430008130033",
  "linkReferences": {},
  "deployedLinkReferences": {}
}