{
  "_format": "hh-sol-artifact-1",
  "contractName": "NftMarketplace",
  "sourceName": "contracts/NftMarketplace.sol",
  "abi": [
    {
      "inputs": [
        {
          "internalType": "address",
          "name": "_nftAddress",
          "type": "address"
        }
      ],
      "stateMutability": "nonpayable",
      "type": "constructor"
    },
    {
      "inputs": [
        {
          "internalType": "address",
          "name": "nftAddress",
          "type": "address"
        },
        {
          "internalType": "uint256",
          "name": "tokenId",
          "type": "uint256"
        }
      ],
      "name": "AlreadyListed",
      "type": "error"
    },
    {
      "inputs": [],
      "name": "CollectionNotAllowed",
      "type": "error"
    },
    {
      "inputs": [],
      "name": "NoProceeds",
      "type": "error"
    },
    {
      "inputs": [],
      "name": "NotApprovedForMarketplace",
      "type": "error"
    },
    {
      "inputs": [
        {
          "internalType": "address",
          "name": "nftAddress",
          "type": "address"
        },
        {
          "internalType": "uint256",
          "name": "tokenId",
          "type": "uint256"
        }
      ],
      "name": "NotListed",
      "type": "error"
    },
    {
      "inputs": [],
      "name": "NotOwner",
      "type": "error"
    },
    {
      "inputs": [],
      "name": "PriceMustBeAboveZero",
      "type": "error"
    },
    {
      "inputs": [
        {
          "internalType": "address",
          "name": "nftAddress",
          "type": "address"
        },
        {
          "internalType": "uint256",
          "name": "tokenId",
          "type": "uint256"
        },
        {
          "internalType": "uint256",
          "name": "price",
          "type": "uint256"
        }
      ],
      "name": "PriceNotMet",
      "type": "error"
    },
    {
      "anonymous": false,
      "inputs": [
        {
          "indexed": true,
          "internalType": "address",
          "name": "buyer",
          "type": "address"
        },
        {
          "indexed": true,
          "internalType": "address",
          "name": "nftAddress",
          "type": "address"
        },
        {
          "indexed": true,
          "internalType": "uint256",
          "name": "tokenId",
          "type": "uint256"
        },
        {
          "indexed": false,
          "internalType": "uint256",
          "name": "price",
          "type": "uint256"
        }
      ],
      "name": "ItemBought",
      "type": "event"
    },
    {
      "anonymous": false,
      "inputs": [
        {
          "indexed": true,
          "internalType": "address",
          "name": "seller",
          "type": "address"
        },
        {
          "indexed": true,
          "internalType": "address",
          "name": "nftAddress",
          "type": "address"
        },
        {
          "indexed": true,
          "internalType": "uint256",
          "name": "tokenId",
          "type": "uint256"
        },
        {
          "indexed": false,
          "internalType": "uint256",
          "name": "listingId",
          "type": "uint256"
        }
      ],
      "name": "ItemCanceled",
      "type": "event"
    },
    {
      "anonymous": false,
      "inputs": [
        {
          "indexed": true,
          "internalType": "uint256",
          "name": "id",
          "type": "uint256"
        },
        {
          "indexed": true,
          "internalType": "address",
          "name": "seller",
          "type": "address"
        },
        {
          "indexed": true,
          "internalType": "address",
          "name": "nftAddress",
          "type": "address"
        },
        {
          "indexed": false,
          "internalType": "uint256",
          "name": "tokenId",
          "type": "uint256"
        },
        {
          "indexed": false,
          "internalType": "uint256",
          "name": "price",
          "type": "uint256"
        }
      ],
      "name": "ItemListed",
      "type": "event"
    },
    {
      "anonymous": false,
      "inputs": [
        {
          "indexed": true,
          "internalType": "uint256",
          "name": "id",
          "type": "uint256"
        },
        {
          "indexed": true,
          "internalType": "address",
          "name": "seller",
          "type": "address"
        },
        {
          "indexed": true,
          "internalType": "address",
          "name": "nftAddress",
          "type": "address"
        },
        {
          "indexed": false,
          "internalType": "uint256",
          "name": "tokenId",
          "type": "uint256"
        },
        {
          "indexed": false,
          "internalType": "uint256",
          "name": "price",
          "type": "uint256"
        }
      ],
      "name": "ListingUpdated",
      "type": "event"
    },
    {
      "inputs": [
        {
          "internalType": "uint256",
          "name": "",
          "type": "uint256"
        }
      ],
      "name": "activeListings",
      "outputs": [
        {
          "internalType": "uint256",
          "name": "id",
          "type": "uint256"
        },
        {
          "internalType": "address",
          "name": "seller",
          "type": "address"
        },
        {
          "internalType": "address",
          "name": "nftContract",
          "type": "address"
        },
        {
          "internalType": "uint256",
          "name": "tokenId",
          "type": "uint256"
        },
        {
          "internalType": "uint256",
          "name": "price",
          "type": "uint256"
        },
        {
          "internalType": "bool",
          "name": "active",
          "type": "bool"
        }
      ],
      "stateMutability": "view",
      "type": "function"
    },
    {
      "inputs": [
        {
          "internalType": "address",
          "name": "nftAddress",
          "type": "address"
        },
        {
          "internalType": "uint256",
          "name": "tokenId",
          "type": "uint256"
        },
        {
          "internalType": "uint256",
          "name": "listingId",
          "type": "uint256"
        }
      ],
      "name": "buyItem",
      "outputs": [],
      "stateMutability": "payable",
      "type": "function"
    },
    {
      "inputs": [
        {
          "internalType": "address",
          "name": "nftAddress",
          "type": "address"
        },
        {
          "internalType": "uint256",
          "name": "tokenId",
          "type": "uint256"
        },
        {
          "internalType": "uint256",
          "name": "listingId",
          "type": "uint256"
        }
      ],
      "name": "cancelListing",
      "outputs": [],
      "stateMutability": "nonpayable",
      "type": "function"
    },
    {
      "inputs": [],
      "name": "getActiveListings",
      "outputs": [
        {
          "components": [
            {
              "internalType": "uint256",
              "name": "id",
              "type": "uint256"
            },
            {
              "internalType": "address",
              "name": "seller",
              "type": "address"
            },
            {
              "internalType": "address",
              "name": "nftContract",
              "type": "address"
            },
            {
              "internalType": "uint256",
              "name": "tokenId",
              "type": "uint256"
            },
            {
              "internalType": "uint256",
              "name": "price",
              "type": "uint256"
            },
            {
              "internalType": "bool",
              "name": "active",
              "type": "bool"
            }
          ],
          "internalType": "struct NftMarketplace.Listing[]",
          "name": "",
          "type": "tuple[]"
        }
      ],
      "stateMutability": "view",
      "type": "function"
    },
    {
      "inputs": [
        {
          "internalType": "address",
          "name": "nftAddress",
          "type": "address"
        },
        {
          "internalType": "uint256",
          "name": "tokenId",
          "type": "uint256"
        }
      ],
      "name": "getListing",
      "outputs": [
        {
          "components": [
            {
              "internalType": "uint256",
              "name": "id",
              "type": "uint256"
            },
            {
              "internalType": "address",
              "name": "seller",
              "type": "address"
            },
            {
              "internalType": "address",
              "name": "nftContract",
              "type": "address"
            },
            {
              "internalType": "uint256",
              "name": "tokenId",
              "type": "uint256"
            },
            {
              "internalType": "uint256",
              "name": "price",
              "type": "uint256"
            },
            {
              "internalType": "bool",
              "name": "active",
              "type": "bool"
            }
          ],
          "internalType": "struct NftMarketplace.Listing",
          "name": "",
          "type": "tuple"
        }
      ],
      "stateMutability": "view",
      "type": "function"
    },
    {
      "inputs": [
        {
          "internalType": "address",
          "name": "seller",
          "type": "address"
        }
      ],
      "name": "getProceeds",
      "outputs": [
        {
          "internalType": "uint256",
          "name": "",
          "type": "uint256"
        }
      ],
      "stateMutability": "view",
      "type": "function"
    },
    {
      "inputs": [
        {
          "internalType": "address",
          "name": "nftAddress",
          "type": "address"
        },
        {
          "internalType": "uint256",
          "name": "tokenId",
          "type": "uint256"
        },
        {
          "internalType": "uint256",
          "name": "price",
          "type": "uint256"
        }
      ],
      "name": "listItem",
      "outputs": [],
      "stateMutability": "nonpayable",
      "type": "function"
    },
    {
      "inputs": [
        {
          "internalType": "address",
          "name": "nftAddress",
          "type": "address"
        },
        {
          "internalType": "uint256",
          "name": "tokenId",
          "type": "uint256"
        },
        {
          "internalType": "uint256",
          "name": "newPrice",
          "type": "uint256"
        },
        {
          "internalType": "uint256",
          "name": "listingId",
          "type": "uint256"
        }
      ],
      "name": "updateListing",
      "outputs": [],
      "stateMutability": "nonpayable",
      "type": "function"
    },
    {
      "inputs": [],
      "name": "withdrawProceeds",
      "outputs": [],
      "stateMutability": "nonpayable",
      "type": "function"
    }
  ],
  "bytecode": "0x60803461007957601f610f0c38819003918201601f19168301916001600160401b0383118484101761007e5780849260209460405283398101031261007957516001600160a01b03811690819003610079576001600055600580546001600160a01b031916919091179055604051610e7790816100958239f35b600080fd5b634e487b7160e01b600052604160045260246000fdfe60806040908082526004918236101561001757600080fd5b600091823560e01c90816330cfeda914610aa1575080634b3320e01461099957806361cf48631461091c57806387c35bc01461084657806388700d1c146107ca57806389bfd38f146104915780639038e693146103bf578063d9964757146102405763f6b45c461461008857600080fd5b61009136610af4565b9160018060a09593951b03928382169384875260209260038452848820878952845260806100c0868a20610be7565b01511561022157506100d6600288541415610c59565b600287558487526003835283872086885283526100f4848820610be7565b608081019283518034106101ff57509061010e8592610d8f565b86895260038252858920888a528252610128868a20610ca5565b0181815116863b156101fb57855190632142170760e11b82528a8201523360248201528760448201528881606481838b5af180156101f1576101c4575b50511686528682528286208054903482018092116101b1575551915191825233917f263223b1dd81e51054a4e6f791d45a4a1ddb4aadcd93a2dfd892615c3fdac1879190a46001815580f35b634e487b7160e01b885260118952602488fd5b6001600160401b0381999299116101de5785529638610165565b634e487b7160e01b825260418a52602482fd5b86513d8b823e3d90fd5b8880fd5b8a6064918a8a8a5193637c93456560e01b855284015260248301526044820152fd5b8861023c888751938493631a0c522360e21b85528401610c3e565b0390fd5b508290346103bb5760803660031901126103bb5761025c610ad9565b6024359160443560018060a01b03948584169586885260209460038652848920878a528652608061028e868b20610be7565b0151156103a057506102a4600289541415610c59565b6002885583516331a9108f60e11b815282810187905285816024818b5afa908115610396578991610369575b5016330361035b57811561034d5790807fdc557241e44f27a1ec6123783db462470e759d5c69917b205f5d59d4f08b15fd939287895260038652838920878a5286528181858b200155610324606435610b1e565b500155858752600384528187208588528452818720549382519586528501523393a46001815580f35b825163e1abbfc560e01b8152fd5b82516330cd747160e01b8152fd5b6103899150863d881161038f575b6103818183610bc6565b810190610cc9565b896102d0565b503d610377565b85513d8b823e3d90fd5b8261023c888751938493631a0c522360e21b85528401610c3e565b8280fd5b508290346103bb57826003193601126103bb5733835281602052808320548015610483578380808093338252866020528186812055335af13d1561047e573d6001600160401b03811161046b57825190610423601f8201601f191660200183610bc6565b81528460203d92013e5b15610436578280f35b906020606492519162461bcd60e51b8352820152600f60248201526e151c985b9cd9995c8819985a5b1959608a1b6044820152fd5b634e487b7160e01b855260418452602485fd5b61042d565b505163c4d8fa8760e01b8152fd5b508290346103bb576104a236610af4565b60018060a09593951b038084169586885260209460038652848920878a52865260806104cf868b20610be7565b01516107af575083516331a9108f60e11b815281810187905260249290868185818c5afa90811561075b579082918b91610792575b50163303610783578060055416880361077457831561076557845163020604bf60e21b815282810188905290868285818c5afa91821561075b578a9261073c575b5016301415806106d2575b6106c45760025415610657576002549160001990818401928484116106465761057884610ce8565b90549060031b1c94156106355750508661061f86959461061a897f424b3284a7958bb7965c27ca0b2a8b30ce2a56ba954533df15e6bded1b608ed7998e888f99986105c56106259a610ce8565b909182549160031b1b191690556002555b815198899788946105e686610b95565b8786523390860152818486015260608501528a6080850152600160a0850152815260038d528d8282209082528d5220610d03565b610b1e565b90610d68565b519382519586528501523393a480f35b634e487b7160e01b8b526031905289fd5b634e487b7160e01b8b526011905289fd5b6001549190600160401b8310156106b357505090856106258661061f8561061a89898e60017f424b3284a7958bb7965c27ca0b2a8b30ce2a56ba954533df15e6bded1b608ed79c9b016001556106ac85610b1e565b50506105d6565b634e487b7160e01b89526041905287fd5b8351634be3a2c560e01b8152fd5b50835163e985e9c560e01b81523382820152308382015285816044818b5afa908115610396578991610706575b5015610550565b90508581813d8311610735575b61071d8183610bc6565b810103126101fb575180151581036101fb57896106ff565b503d610713565b610754919250873d891161038f576103818183610bc6565b908a610545565b86513d8c823e3d90fd5b50835163e1abbfc560e01b8152fd5b5083516341fbc5a760e01b8152fd5b5083516330cd747160e01b8152fd5b6107a99150883d8a1161038f576103818183610bc6565b8b610504565b9061023c878651938493634a5568d560e01b85528401610c3e565b50346108425780600319360112610842576108406108378260c0946107ed610ad9565b8160a084516107fb81610b95565b8281528260208201528286820152826060820152826080820152015260018060a01b031681526003602052818120602435825260205220610be7565b91518092610b53565bf35b5080fd5b5082346103bb57826003193601126103bb576001928354916001600160401b038311610909575082939193516020610883818760051b0183610bc6565b858252808201958685855282852085915b8383106108e057505050508451948186019282875251809352850195925b8281106108bf5785870386f35b909192938260c0886108d3849a8951610b53565b01979501939291016108b2565b96600685829b996108f4859a98999a610be7565b81520192019201919098969895949395610894565b634e487b7160e01b825260419052602490fd5b508290346103bb5760203660031901126103bb57813592600154841015610996575061094960c093610b1e565b5080549260018060a01b039283600184015416936002840154169060ff600560038601549486015495015416948151968752602087015285015260608401526080830152151560a0820152f35b80fd5b5082346103bb576109a936610af4565b91909360018060a01b0391828116948251936331a9108f60e11b8552878286015260209485816024818b5afa908115610a97578a91610a7a575b5016330361035b578588526003845282882087895284526080610a07848a20610be7565b015115610a60575050907f74114e1af8d4d398357d12468ae7b6a7bf4144bf482db553622d275b6be6f19191610a3c84610d8f565b848752600382528087208688528252610a56818820610ca5565b519283523392a480f35b61023c878451938493631a0c522360e21b85528401610c3e565b610a919150863d881161038f576103818183610bc6565b8a6109e3565b85513d8c823e3d90fd5b9293905034610ad5576020366003190112610ad557602093906001600160a01b03610aca610ad9565b168252845220548152f35b8380fd5b600435906001600160a01b0382168203610aef57565b600080fd5b6060906003190112610aef576004356001600160a01b0381168103610aef57906024359060443590565b600154811015610b3d5760016000526006602060002091020190600090565b634e487b7160e01b600052603260045260246000fd5b60a0809180518452600180831b038060208301511660208601526040820151166040850152606081015160608501526080810151608085015201511515910152565b60c081019081106001600160401b03821117610bb057604052565b634e487b7160e01b600052604160045260246000fd5b90601f801991011681019081106001600160401b03821117610bb057604052565b90604051610bf481610b95565b8254815260018301546001600160a01b0390811660208301526002840154166040820152600383015460608201526004830154608082015260059092015460ff16151560a0830152565b6001600160a01b039091168152602081019190915260400190565b15610c6057565b60405162461bcd60e51b815260206004820152601f60248201527f5265656e7472616e637947756172643a207265656e7472616e742063616c6c006044820152606490fd5b60056000918281558260018201558260028201558260038201558260048201550155565b90816020910312610aef57516001600160a01b0381168103610aef5790565b600254811015610b3d57600260005260206000200190600090565b600560a0918351815560018101600180851b03908160208701511690600180871b03199182825416179055600283019160408701511690825416179055606084015160038201556080840151600482015501910151151560ff80198354169116179055565b9190610d7957610d7791610d03565b565b634e487b7160e01b600052600060045260246000fd5b600154811080610e2a575b610da15750565b604051610dad81610b95565b610ddd6000918281528260208201528260408201528260608201528260808201528260a082015261061f84610b1e565b60025490600160401b821015610e165750806001610dfe9201600255610ce8565b819291549060031b91821b91600019901b1916179055565b634e487b7160e01b81526041600452602490fd5b5060ff6005610e3883610b1e565b50015416610d9a56fea264697066735822122031fc34d9f7c77a629fa64884cb55f095ee86ad6990dad05d7579a6d53a40a3dc64736f6c63430008130033",
  "linkReferences": {},
  "deployedLinkReferences": {}
}